{
  "_format": "hh-sol-artifact-1",
  "contractName": "Council",
  "sourceName": "contracts/Council.sol",
  "abi": [
    {
      "inputs": [],
      "stateMutability": "nonpayable",
      "type": "constructor"
    },
    {
      "inputs": [],
      "name": "Empty",
      "type": "error"
    },
    {
      "anonymous": false,
      "inputs": [
        {
          "indexed": false,
          "internalType": "uint256",
          "name": "proposalId",
          "type": "uint256"
        },
        {
          "indexed": false,
          "internalType": "uint256",
          "name": "amendmentId",
          "type": "uint256"
        },
        {
          "indexed": false,
          "internalType": "address",
          "name": "proposer",
          "type": "address"
        },
        {
          "indexed": false,
          "internalType": "address[]",
          "name": "targets",
          "type": "address[]"
        },
        {
          "indexed": false,
          "internalType": "uint256[]",
          "name": "values",
          "type": "uint256[]"
        },
        {
          "indexed": false,
          "internalType": "string[]",
          "name": "signatures",
          "type": "string[]"
        },
        {
          "indexed": false,
          "internalType": "bytes[]",
          "name": "calldatas",
          "type": "bytes[]"
        },
        {
          "indexed": false,
          "internalType": "uint256",
          "name": "startBlock",
          "type": "uint256"
        },
        {
          "indexed": false,
          "internalType": "uint256",
          "name": "endBlock",
          "type": "uint256"
        },
        {
          "indexed": false,
          "internalType": "string",
          "name": "description",
          "type": "string"
        },
        {
          "indexed": false,
          "internalType": "string",
          "name": "cid",
          "type": "string"
        }
      ],
      "name": "AmendmentCreated",
      "type": "event"
    },
    {
      "anonymous": false,
      "inputs": [
        {
          "indexed": false,
          "internalType": "uint256",
          "name": "proposalId",
          "type": "uint256"
        },
        {
          "indexed": false,
          "internalType": "address",
          "name": "commenter",
          "type": "address"
        },
        {
          "indexed": false,
          "internalType": "uint256",
          "name": "parent",
          "type": "uint256"
        },
        {
          "indexed": false,
          "internalType": "string",
          "name": "cid",
          "type": "string"
        },
        {
          "indexed": false,
          "internalType": "enum ICouncil.Sentiment",
          "name": "sentiment",
          "type": "uint8"
        }
      ],
      "name": "CommentEvent",
      "type": "event"
    },
    {
      "anonymous": false,
      "inputs": [
        {
          "indexed": false,
          "internalType": "uint8",
          "name": "version",
          "type": "uint8"
        }
      ],
      "name": "Initialized",
      "type": "event"
    },
    {
      "anonymous": false,
      "inputs": [
        {
          "indexed": false,
          "internalType": "uint256",
          "name": "proposalId",
          "type": "uint256"
        }
      ],
      "name": "ProposalCanceled",
      "type": "event"
    },
    {
      "anonymous": false,
      "inputs": [
        {
          "indexed": false,
          "internalType": "uint256",
          "name": "proposalId",
          "type": "uint256"
        },
        {
          "indexed": false,
          "internalType": "address",
          "name": "proposer",
          "type": "address"
        },
        {
          "indexed": false,
          "internalType": "address[]",
          "name": "targets",
          "type": "address[]"
        },
        {
          "indexed": false,
          "internalType": "uint256[]",
          "name": "values",
          "type": "uint256[]"
        },
        {
          "indexed": false,
          "internalType": "string[]",
          "name": "signatures",
          "type": "string[]"
        },
        {
          "indexed": false,
          "internalType": "bytes[]",
          "name": "calldatas",
          "type": "bytes[]"
        },
        {
          "indexed": false,
          "internalType": "uint256",
          "name": "startBlock",
          "type": "uint256"
        },
        {
          "indexed": false,
          "internalType": "uint256",
          "name": "endBlock",
          "type": "uint256"
        },
        {
          "indexed": false,
          "internalType": "string",
          "name": "description",
          "type": "string"
        },
        {
          "indexed": false,
          "internalType": "string",
          "name": "cid",
          "type": "string"
        }
      ],
      "name": "ProposalCreated",
      "type": "event"
    },
    {
      "anonymous": false,
      "inputs": [
        {
          "indexed": false,
          "internalType": "uint256",
          "name": "proposalId",
          "type": "uint256"
        }
      ],
      "name": "ProposalExecuted",
      "type": "event"
    },
    {
      "anonymous": false,
      "inputs": [
        {
          "indexed": false,
          "internalType": "uint256",
          "name": "proposalId",
          "type": "uint256"
        },
        {
          "indexed": false,
          "internalType": "address",
          "name": "seconder",
          "type": "address"
        }
      ],
      "name": "ProposalSeconded",
      "type": "event"
    },
    {
      "anonymous": false,
      "inputs": [
        {
          "indexed": false,
          "internalType": "uint256",
          "name": "oldProposalThreshold",
          "type": "uint256"
        },
        {
          "indexed": false,
          "internalType": "uint256",
          "name": "newProposalThreshold",
          "type": "uint256"
        }
      ],
      "name": "ProposalThresholdSet",
      "type": "event"
    },
    {
      "anonymous": false,
      "inputs": [
        {
          "indexed": false,
          "internalType": "uint256",
          "name": "oldQuorumNumerator",
          "type": "uint256"
        },
        {
          "indexed": false,
          "internalType": "uint256",
          "name": "newQuorumNumerator",
          "type": "uint256"
        }
      ],
      "name": "QuorumNumeratorUpdated",
      "type": "event"
    },
    {
      "anonymous": false,
      "inputs": [
        {
          "indexed": true,
          "internalType": "address",
          "name": "voter",
          "type": "address"
        },
        {
          "indexed": false,
          "internalType": "uint256",
          "name": "proposalId",
          "type": "uint256"
        },
        {
          "indexed": false,
          "internalType": "uint8",
          "name": "support",
          "type": "uint8"
        },
        {
          "indexed": false,
          "internalType": "uint256",
          "name": "weight",
          "type": "uint256"
        },
        {
          "indexed": false,
          "internalType": "string",
          "name": "reason",
          "type": "string"
        }
      ],
      "name": "VoteCast",
      "type": "event"
    },
    {
      "anonymous": false,
      "inputs": [
        {
          "indexed": true,
          "internalType": "address",
          "name": "voter",
          "type": "address"
        },
        {
          "indexed": false,
          "internalType": "uint256",
          "name": "proposalId",
          "type": "uint256"
        },
        {
          "indexed": false,
          "internalType": "uint8",
          "name": "support",
          "type": "uint8"
        },
        {
          "indexed": false,
          "internalType": "uint256",
          "name": "weight",
          "type": "uint256"
        },
        {
          "indexed": false,
          "internalType": "string",
          "name": "reason",
          "type": "string"
        },
        {
          "indexed": false,
          "internalType": "bytes",
          "name": "params",
          "type": "bytes"
        }
      ],
      "name": "VoteCastWithParams",
      "type": "event"
    },
    {
      "anonymous": false,
      "inputs": [
        {
          "indexed": false,
          "internalType": "uint256",
          "name": "oldVotingDelay",
          "type": "uint256"
        },
        {
          "indexed": false,
          "internalType": "uint256",
          "name": "newVotingDelay",
          "type": "uint256"
        }
      ],
      "name": "VotingDelaySet",
      "type": "event"
    },
    {
      "anonymous": false,
      "inputs": [
        {
          "indexed": false,
          "internalType": "uint256",
          "name": "oldVotingPeriod",
          "type": "uint256"
        },
        {
          "indexed": false,
          "internalType": "uint256",
          "name": "newVotingPeriod",
          "type": "uint256"
        }
      ],
      "name": "VotingPeriodSet",
      "type": "event"
    },
    {
      "inputs": [],
      "name": "BALLOT_TYPEHASH",
      "outputs": [
        {
          "internalType": "bytes32",
          "name": "",
          "type": "bytes32"
        }
      ],
      "stateMutability": "view",
      "type": "function"
    },
    {
      "inputs": [],
      "name": "COUNTING_MODE",
      "outputs": [
        {
          "internalType": "string",
          "name": "",
          "type": "string"
        }
      ],
      "stateMutability": "pure",
      "type": "function"
    },
    {
      "inputs": [],
      "name": "EXTENDED_BALLOT_TYPEHASH",
      "outputs": [
        {
          "internalType": "bytes32",
          "name": "",
          "type": "bytes32"
        }
      ],
      "stateMutability": "view",
      "type": "function"
    },
    {
      "inputs": [
        {
          "internalType": "uint256",
          "name": "",
          "type": "uint256"
        }
      ],
      "name": "_proposals",
      "outputs": [
        {
          "components": [
            {
              "internalType": "uint64",
              "name": "_deadline",
              "type": "uint64"
            }
          ],
          "internalType": "struct TimersUpgradeable.BlockNumber",
          "name": "voteStart",
          "type": "tuple"
        },
        {
          "components": [
            {
              "internalType": "uint64",
              "name": "_deadline",
              "type": "uint64"
            }
          ],
          "internalType": "struct TimersUpgradeable.BlockNumber",
          "name": "voteEnd",
          "type": "tuple"
        },
        {
          "internalType": "bool",
          "name": "executed",
          "type": "bool"
        },
        {
          "internalType": "bool",
          "name": "canceled",
          "type": "bool"
        },
        {
          "internalType": "enum IGovernorUpgradeable.ProposalState",
          "name": "state",
          "type": "uint8"
        },
        {
          "internalType": "uint256",
          "name": "parent",
          "type": "uint256"
        },
        {
          "internalType": "string",
          "name": "cid",
          "type": "string"
        }
      ],
      "stateMutability": "view",
      "type": "function"
    },
    {
      "inputs": [
        {
          "internalType": "uint256",
          "name": "proposalId",
          "type": "uint256"
        },
        {
          "internalType": "uint256",
          "name": "parent",
          "type": "uint256"
        },
        {
          "internalType": "string",
          "name": "cid",
          "type": "string"
        },
        {
          "internalType": "enum ICouncil.Sentiment",
          "name": "sentiment",
          "type": "uint8"
        }
      ],
      "name": "addComment",
      "outputs": [],
      "stateMutability": "nonpayable",
      "type": "function"
    },
    {
      "inputs": [
        {
          "internalType": "uint256",
          "name": "proposalId",
          "type": "uint256"
        },
        {
          "internalType": "uint8",
          "name": "support",
          "type": "uint8"
        }
      ],
      "name": "castVote",
      "outputs": [
        {
          "internalType": "uint256",
          "name": "",
          "type": "uint256"
        }
      ],
      "stateMutability": "nonpayable",
      "type": "function"
    },
    {
      "inputs": [
        {
          "internalType": "uint256",
          "name": "proposalId",
          "type": "uint256"
        },
        {
          "internalType": "uint8",
          "name": "support",
          "type": "uint8"
        },
        {
          "internalType": "uint8",
          "name": "v",
          "type": "uint8"
        },
        {
          "internalType": "bytes32",
          "name": "r",
          "type": "bytes32"
        },
        {
          "internalType": "bytes32",
          "name": "s",
          "type": "bytes32"
        }
      ],
      "name": "castVoteBySig",
      "outputs": [
        {
          "internalType": "uint256",
          "name": "",
          "type": "uint256"
        }
      ],
      "stateMutability": "nonpayable",
      "type": "function"
    },
    {
      "inputs": [
        {
          "internalType": "uint256",
          "name": "proposalId",
          "type": "uint256"
        },
        {
          "internalType": "uint8",
          "name": "support",
          "type": "uint8"
        },
        {
          "internalType": "string",
          "name": "reason",
          "type": "string"
        }
      ],
      "name": "castVoteWithReason",
      "outputs": [
        {
          "internalType": "uint256",
          "name": "",
          "type": "uint256"
        }
      ],
      "stateMutability": "nonpayable",
      "type": "function"
    },
    {
      "inputs": [
        {
          "internalType": "uint256",
          "name": "proposalId",
          "type": "uint256"
        },
        {
          "internalType": "uint8",
          "name": "support",
          "type": "uint8"
        },
        {
          "internalType": "string",
          "name": "reason",
          "type": "string"
        },
        {
          "internalType": "bytes",
          "name": "params",
          "type": "bytes"
        }
      ],
      "name": "castVoteWithReasonAndParams",
      "outputs": [
        {
          "internalType": "uint256",
          "name": "",
          "type": "uint256"
        }
      ],
      "stateMutability": "nonpayable",
      "type": "function"
    },
    {
      "inputs": [
        {
          "internalType": "uint256",
          "name": "proposalId",
          "type": "uint256"
        },
        {
          "internalType": "uint8",
          "name": "support",
          "type": "uint8"
        },
        {
          "internalType": "string",
          "name": "reason",
          "type": "string"
        },
        {
          "internalType": "bytes",
          "name": "params",
          "type": "bytes"
        },
        {
          "internalType": "uint8",
          "name": "v",
          "type": "uint8"
        },
        {
          "internalType": "bytes32",
          "name": "r",
          "type": "bytes32"
        },
        {
          "internalType": "bytes32",
          "name": "s",
          "type": "bytes32"
        }
      ],
      "name": "castVoteWithReasonAndParamsBySig",
      "outputs": [
        {
          "internalType": "uint256",
          "name": "",
          "type": "uint256"
        }
      ],
      "stateMutability": "nonpayable",
      "type": "function"
    },
    {
      "inputs": [
        {
          "internalType": "uint256",
          "name": "proposal",
          "type": "uint256"
        },
        {
          "internalType": "uint256",
          "name": "parent",
          "type": "uint256"
        },
        {
          "internalType": "string",
          "name": "cid",
          "type": "string"
        },
        {
          "internalType": "enum ICouncil.Sentiment",
          "name": "sentiment",
          "type": "uint8"
        }
      ],
      "name": "commentHash",
      "outputs": [
        {
          "internalType": "uint256",
          "name": "hash",
          "type": "uint256"
        }
      ],
      "stateMutability": "pure",
      "type": "function"
    },
    {
      "inputs": [
        {
          "internalType": "uint256",
          "name": "",
          "type": "uint256"
        }
      ],
      "name": "comments",
      "outputs": [
        {
          "internalType": "string",
          "name": "cid",
          "type": "string"
        },
        {
          "internalType": "uint256",
          "name": "parent",
          "type": "uint256"
        },
        {
          "internalType": "uint256",
          "name": "proposal",
          "type": "uint256"
        },
        {
          "internalType": "uint256",
          "name": "upvotes",
          "type": "uint256"
        },
        {
          "internalType": "uint256",
          "name": "downvotes",
          "type": "uint256"
        },
        {
          "internalType": "enum ICouncil.Sentiment",
          "name": "sentiment",
          "type": "uint8"
        }
      ],
      "stateMutability": "view",
      "type": "function"
    },
    {
      "inputs": [
        {
          "internalType": "address[]",
          "name": "targets",
          "type": "address[]"
        },
        {
          "internalType": "uint256[]",
          "name": "values",
          "type": "uint256[]"
        },
        {
          "internalType": "bytes[]",
          "name": "calldatas",
          "type": "bytes[]"
        },
        {
          "internalType": "bytes32",
          "name": "descriptionHash",
          "type": "bytes32"
        }
      ],
      "name": "execute",
      "outputs": [
        {
          "internalType": "uint256",
          "name": "",
          "type": "uint256"
        }
      ],
      "stateMutability": "payable",
      "type": "function"
    },
    {
      "inputs": [
        {
          "internalType": "uint256",
          "name": "proposalId",
          "type": "uint256"
        }
      ],
      "name": "getProposalById",
      "outputs": [
        {
          "components": [
            {
              "components": [
                {
                  "internalType": "uint64",
                  "name": "_deadline",
                  "type": "uint64"
                }
              ],
              "internalType": "struct TimersUpgradeable.BlockNumber",
              "name": "voteStart",
              "type": "tuple"
            },
            {
              "components": [
                {
                  "internalType": "uint64",
                  "name": "_deadline",
                  "type": "uint64"
                }
              ],
              "internalType": "struct TimersUpgradeable.BlockNumber",
              "name": "voteEnd",
              "type": "tuple"
            },
            {
              "internalType": "bool",
              "name": "executed",
              "type": "bool"
            },
            {
              "internalType": "bool",
              "name": "canceled",
              "type": "bool"
            },
            {
              "internalType": "enum IGovernorUpgradeable.ProposalState",
              "name": "state",
              "type": "uint8"
            },
            {
              "internalType": "uint256",
              "name": "parent",
              "type": "uint256"
            },
            {
              "internalType": "string",
              "name": "cid",
              "type": "string"
            }
          ],
          "internalType": "struct GovernorUpgradeable.ProposalCore",
          "name": "proposal",
          "type": "tuple"
        }
      ],
      "stateMutability": "view",
      "type": "function"
    },
    {
      "inputs": [
        {
          "internalType": "address",
          "name": "account",
          "type": "address"
        },
        {
          "internalType": "uint256",
          "name": "blockNumber",
          "type": "uint256"
        }
      ],
      "name": "getVotes",
      "outputs": [
        {
          "internalType": "uint256",
          "name": "",
          "type": "uint256"
        }
      ],
      "stateMutability": "view",
      "type": "function"
    },
    {
      "inputs": [
        {
          "internalType": "address",
          "name": "account",
          "type": "address"
        },
        {
          "internalType": "uint256",
          "name": "blockNumber",
          "type": "uint256"
        },
        {
          "internalType": "bytes",
          "name": "params",
          "type": "bytes"
        }
      ],
      "name": "getVotesWithParams",
      "outputs": [
        {
          "internalType": "uint256",
          "name": "",
          "type": "uint256"
        }
      ],
      "stateMutability": "view",
      "type": "function"
    },
    {
      "inputs": [
        {
          "internalType": "address[]",
          "name": "foundingMembers",
          "type": "address[]"
        },
        {
          "internalType": "uint256",
          "name": "grantQuantity",
          "type": "uint256"
        }
      ],
      "name": "grantToFounders",
      "outputs": [],
      "stateMutability": "nonpayable",
      "type": "function"
    },
    {
      "inputs": [
        {
          "internalType": "uint256",
          "name": "proposalId",
          "type": "uint256"
        },
        {
          "internalType": "address",
          "name": "account",
          "type": "address"
        }
      ],
      "name": "hasVoted",
      "outputs": [
        {
          "internalType": "bool",
          "name": "",
          "type": "bool"
        }
      ],
      "stateMutability": "view",
      "type": "function"
    },
    {
      "inputs": [
        {
          "internalType": "uint256",
          "name": "proposalId",
          "type": "uint256"
        },
        {
          "internalType": "address[]",
          "name": "targets",
          "type": "address[]"
        },
        {
          "internalType": "uint256[]",
          "name": "values",
          "type": "uint256[]"
        },
        {
          "internalType": "bytes[]",
          "name": "calldatas",
          "type": "bytes[]"
        },
        {
          "internalType": "string",
          "name": "description",
          "type": "string"
        },
        {
          "internalType": "string",
          "name": "cid",
          "type": "string"
        }
      ],
      "name": "hashAmendment",
      "outputs": [
        {
          "internalType": "uint256",
          "name": "",
          "type": "uint256"
        }
      ],
      "stateMutability": "pure",
      "type": "function"
    },
    {
      "inputs": [
        {
          "internalType": "address[]",
          "name": "targets",
          "type": "address[]"
        },
        {
          "internalType": "uint256[]",
          "name": "values",
          "type": "uint256[]"
        },
        {
          "internalType": "bytes[]",
          "name": "calldatas",
          "type": "bytes[]"
        },
        {
          "internalType": "bytes32",
          "name": "descriptionHash",
          "type": "bytes32"
        }
      ],
      "name": "hashProposal",
      "outputs": [
        {
          "internalType": "uint256",
          "name": "",
          "type": "uint256"
        }
      ],
      "stateMutability": "pure",
      "type": "function"
    },
    {
      "inputs": [
        {
          "internalType": "contract IVotesUpgradeable",
          "name": "_token",
          "type": "address"
        }
      ],
      "name": "initialize",
      "outputs": [],
      "stateMutability": "nonpayable",
      "type": "function"
    },
    {
      "inputs": [],
      "name": "name",
      "outputs": [
        {
          "internalType": "string",
          "name": "",
          "type": "string"
        }
      ],
      "stateMutability": "view",
      "type": "function"
    },
    {
      "inputs": [
        {
          "internalType": "address",
          "name": "",
          "type": "address"
        },
        {
          "internalType": "address",
          "name": "",
          "type": "address"
        },
        {
          "internalType": "uint256[]",
          "name": "",
          "type": "uint256[]"
        },
        {
          "internalType": "uint256[]",
          "name": "",
          "type": "uint256[]"
        },
        {
          "internalType": "bytes",
          "name": "",
          "type": "bytes"
        }
      ],
      "name": "onERC1155BatchReceived",
      "outputs": [
        {
          "internalType": "bytes4",
          "name": "",
          "type": "bytes4"
        }
      ],
      "stateMutability": "nonpayable",
      "type": "function"
    },
    {
      "inputs": [
        {
          "internalType": "address",
          "name": "",
          "type": "address"
        },
        {
          "internalType": "address",
          "name": "",
          "type": "address"
        },
        {
          "internalType": "uint256",
          "name": "",
          "type": "uint256"
        },
        {
          "internalType": "uint256",
          "name": "",
          "type": "uint256"
        },
        {
          "internalType": "bytes",
          "name": "",
          "type": "bytes"
        }
      ],
      "name": "onERC1155Received",
      "outputs": [
        {
          "internalType": "bytes4",
          "name": "",
          "type": "bytes4"
        }
      ],
      "stateMutability": "nonpayable",
      "type": "function"
    },
    {
      "inputs": [
        {
          "internalType": "address",
          "name": "",
          "type": "address"
        },
        {
          "internalType": "address",
          "name": "",
          "type": "address"
        },
        {
          "internalType": "uint256",
          "name": "",
          "type": "uint256"
        },
        {
          "internalType": "bytes",
          "name": "",
          "type": "bytes"
        }
      ],
      "name": "onERC721Received",
      "outputs": [
        {
          "internalType": "bytes4",
          "name": "",
          "type": "bytes4"
        }
      ],
      "stateMutability": "nonpayable",
      "type": "function"
    },
    {
      "inputs": [
        {
          "internalType": "uint256",
          "name": "proposalId",
          "type": "uint256"
        }
      ],
      "name": "proposalDeadline",
      "outputs": [
        {
          "internalType": "uint256",
          "name": "",
          "type": "uint256"
        }
      ],
      "stateMutability": "view",
      "type": "function"
    },
    {
      "inputs": [
        {
          "internalType": "uint256",
          "name": "",
          "type": "uint256"
        }
      ],
      "name": "proposalIds",
      "outputs": [
        {
          "internalType": "uint256",
          "name": "",
          "type": "uint256"
        }
      ],
      "stateMutability": "view",
      "type": "function"
    },
    {
      "inputs": [
        {
          "internalType": "uint256",
          "name": "proposalId",
          "type": "uint256"
        }
      ],
      "name": "proposalSnapshot",
      "outputs": [
        {
          "internalType": "uint256",
          "name": "",
          "type": "uint256"
        }
      ],
      "stateMutability": "view",
      "type": "function"
    },
    {
      "inputs": [],
      "name": "proposalThreshold",
      "outputs": [
        {
          "internalType": "uint256",
          "name": "",
          "type": "uint256"
        }
      ],
      "stateMutability": "view",
      "type": "function"
    },
    {
      "inputs": [
        {
          "internalType": "uint256",
          "name": "proposalId",
          "type": "uint256"
        }
      ],
      "name": "proposalVotes",
      "outputs": [
        {
          "internalType": "uint256",
          "name": "againstVotes",
          "type": "uint256"
        },
        {
          "internalType": "uint256",
          "name": "forVotes",
          "type": "uint256"
        },
        {
          "internalType": "uint256",
          "name": "abstainVotes",
          "type": "uint256"
        }
      ],
      "stateMutability": "view",
      "type": "function"
    },
    {
      "inputs": [
        {
          "internalType": "address[]",
          "name": "targets",
          "type": "address[]"
        },
        {
          "internalType": "uint256[]",
          "name": "values",
          "type": "uint256[]"
        },
        {
          "internalType": "bytes[]",
          "name": "calldatas",
          "type": "bytes[]"
        },
        {
          "internalType": "string",
          "name": "description",
          "type": "string"
        },
        {
          "internalType": "string",
          "name": "cid",
          "type": "string"
        }
      ],
      "name": "propose",
      "outputs": [
        {
          "internalType": "uint256",
          "name": "",
          "type": "uint256"
        }
      ],
      "stateMutability": "nonpayable",
      "type": "function"
    },
    {
      "inputs": [
        {
          "internalType": "uint256",
          "name": "proposalId",
          "type": "uint256"
        },
        {
          "internalType": "address[]",
          "name": "targets",
          "type": "address[]"
        },
        {
          "internalType": "uint256[]",
          "name": "values",
          "type": "uint256[]"
        },
        {
          "internalType": "bytes[]",
          "name": "calldatas",
          "type": "bytes[]"
        },
        {
          "internalType": "string",
          "name": "description",
          "type": "string"
        },
        {
          "internalType": "string",
          "name": "cid",
          "type": "string"
        }
      ],
      "name": "proposeAmendment",
      "outputs": [
        {
          "internalType": "uint256",
          "name": "",
          "type": "uint256"
        }
      ],
      "stateMutability": "nonpayable",
      "type": "function"
    },
    {
      "inputs": [
        {
          "internalType": "uint256",
          "name": "blockNumber",
          "type": "uint256"
        }
      ],
      "name": "quorum",
      "outputs": [
        {
          "internalType": "uint256",
          "name": "",
          "type": "uint256"
        }
      ],
      "stateMutability": "view",
      "type": "function"
    },
    {
      "inputs": [],
      "name": "quorumDenominator",
      "outputs": [
        {
          "internalType": "uint256",
          "name": "",
          "type": "uint256"
        }
      ],
      "stateMutability": "view",
      "type": "function"
    },
    {
      "inputs": [
        {
          "internalType": "uint256",
          "name": "blockNumber",
          "type": "uint256"
        }
      ],
      "name": "quorumNumerator",
      "outputs": [
        {
          "internalType": "uint256",
          "name": "",
          "type": "uint256"
        }
      ],
      "stateMutability": "view",
      "type": "function"
    },
    {
      "inputs": [],
      "name": "quorumNumerator",
      "outputs": [
        {
          "internalType": "uint256",
          "name": "",
          "type": "uint256"
        }
      ],
      "stateMutability": "view",
      "type": "function"
    },
    {
      "inputs": [
        {
          "internalType": "address",
          "name": "target",
          "type": "address"
        },
        {
          "internalType": "uint256",
          "name": "value",
          "type": "uint256"
        },
        {
          "internalType": "bytes",
          "name": "data",
          "type": "bytes"
        }
      ],
      "name": "relay",
      "outputs": [],
      "stateMutability": "payable",
      "type": "function"
    },
    {
      "inputs": [
        {
          "internalType": "uint256",
          "name": "proposalId",
          "type": "uint256"
        }
      ],
      "name": "secondProposal",
      "outputs": [],
      "stateMutability": "nonpayable",
      "type": "function"
    },
    {
      "inputs": [
        {
          "internalType": "uint256",
          "name": "newProposalThreshold",
          "type": "uint256"
        }
      ],
      "name": "setProposalThreshold",
      "outputs": [],
      "stateMutability": "nonpayable",
      "type": "function"
    },
    {
      "inputs": [
        {
          "internalType": "uint256",
          "name": "newVotingDelay",
          "type": "uint256"
        }
      ],
      "name": "setVotingDelay",
      "outputs": [],
      "stateMutability": "nonpayable",
      "type": "function"
    },
    {
      "inputs": [
        {
          "internalType": "uint256",
          "name": "newVotingPeriod",
          "type": "uint256"
        }
      ],
      "name": "setVotingPeriod",
      "outputs": [],
      "stateMutability": "nonpayable",
      "type": "function"
    },
    {
      "inputs": [
        {
          "internalType": "uint256",
          "name": "proposalId",
          "type": "uint256"
        }
      ],
      "name": "state",
      "outputs": [
        {
          "internalType": "enum IGovernorUpgradeable.ProposalState",
          "name": "",
          "type": "uint8"
        }
      ],
      "stateMutability": "view",
      "type": "function"
    },
    {
      "inputs": [
        {
          "internalType": "bytes4",
          "name": "interfaceId",
          "type": "bytes4"
        }
      ],
      "name": "supportsInterface",
      "outputs": [
        {
          "internalType": "bool",
          "name": "",
          "type": "bool"
        }
      ],
      "stateMutability": "view",
      "type": "function"
    },
    {
      "inputs": [],
      "name": "token",
      "outputs": [
        {
          "internalType": "contract IVotesUpgradeable",
          "name": "",
          "type": "address"
        }
      ],
      "stateMutability": "view",
      "type": "function"
    },
    {
      "inputs": [
        {
          "internalType": "uint256",
          "name": "newQuorumNumerator",
          "type": "uint256"
        }
      ],
      "name": "updateQuorumNumerator",
      "outputs": [],
      "stateMutability": "nonpayable",
      "type": "function"
    },
    {
      "inputs": [],
      "name": "version",
      "outputs": [
        {
          "internalType": "string",
          "name": "",
          "type": "string"
        }
      ],
      "stateMutability": "view",
      "type": "function"
    },
    {
      "inputs": [],
      "name": "votingDelay",
      "outputs": [
        {
          "internalType": "uint256",
          "name": "",
          "type": "uint256"
        }
      ],
      "stateMutability": "view",
      "type": "function"
    },
    {
      "inputs": [],
      "name": "votingPeriod",
      "outputs": [
        {
          "internalType": "uint256",
          "name": "",
          "type": "uint256"
        }
      ],
      "stateMutability": "view",
      "type": "function"
    },
    {
      "stateMutability": "payable",
      "type": "receive"
    }
  ],
  "bytecode": "0x60806040523480156200001157600080fd5b506200001c62000022565b620000e4565b600054610100900460ff16156200008f5760405162461bcd60e51b815260206004820152602760248201527f496e697469616c697a61626c653a20636f6e747261637420697320696e697469604482015266616c697a696e6760c81b606482015260840160405180910390fd5b60005460ff9081161015620000e2576000805460ff191660ff9081179091556040519081527f7f26b83ff96e1f2b6a682f133852f6798a09c465da95921460cefb38474024989060200160405180910390a15b565b61469180620000f46000396000f3fe6080604052600436106102975760003560e01c80638959dcb31161015a578063c28bc2fa116100c1578063ea0217cf1161007a578063ea0217cf146108e0578063eb9019d414610900578063ece40cc114610920578063f23a6e6114610940578063f8ce560a1461096c578063fc0c546a1461098c57600080fd5b8063c28bc2fa146107f3578063c4d66de814610806578063c59057e414610826578063d38761b814610846578063dd4e2ba514610866578063deaaa7cc146108ac57600080fd5b8063a5b7638911610113578063a5b763891461073d578063a7713a701461075d578063ae125ff914610772578063b58131b014610792578063bc197c81146107a7578063c01f9e37146107d357600080fd5b80638959dcb3146106775780638ebb4c151461069757806397c3d334146106c95780639a802a6d146106dd5780639b644a23146106fd578063a1d53b401461071d57600080fd5b80633bccf4fd116101fe57806356781388116101b757806356781388146105b75780635f398a14146105d757806360c4247f146105f757806370b0f660146106175780637274307a146106375780637b3c71d31461065757600080fd5b80633bccf4fd1461047f5780633e4f49e61461049f57806343859632146104cc5780635051ab3114610517578063544ffc9c1461053757806354fd4d501461058d57600080fd5b8063150b7a0211610250578063150b7a02146103925780632656227d146103d65780632d63f693146103e95780632fe3e261146104095780633656de211461043d5780633932abb11461046a57600080fd5b806301ffc9a7146102a557806302a251a3146102da57806303420181146102fd57806306f3f9e61461031d57806306fdde031461033d5780630a4948401461035f57600080fd5b366102a057005b005b600080fd5b3480156102b157600080fd5b506102c56102c0366004613313565b6109c5565b60405190151581526020015b60405180910390f35b3480156102e657600080fd5b506102ef610a32565b6040519081526020016102d1565b34801561030957600080fd5b506102ef610318366004613449565b610a42565b34801561032957600080fd5b5061029e6103383660046134ef565b610b3a565b34801561034957600080fd5b50610352610b85565b6040516102d19190613558565b34801561036b57600080fd5b5061037f61037a3660046134ef565b610c17565b6040516102d19796959493929190613595565b34801561039e57600080fd5b506103bd6103ad366004613607565b630a85bd0160e11b949350505050565b6040516001600160e01b031990911681526020016102d1565b6102ef6103e43660046137e3565b610d08565b3480156103f557600080fd5b506102ef6104043660046134ef565b610e34565b34801561041557600080fd5b506102ef7fb3b3f3b703cd84ce352197dcff232b1b5d3cfb2025ce47cf04742d0651f1af8881565b34801561044957600080fd5b5061045d6104583660046134ef565b610e6b565b6040516102d19190613872565b34801561047657600080fd5b506102ef610ff7565b34801561048b57600080fd5b506102ef61049a3660046138e6565b611002565b3480156104ab57600080fd5b506104bf6104ba3660046134ef565b61107a565b6040516102d19190613934565b3480156104d857600080fd5b506102c56104e7366004613942565b6000828152610130602090815260408083206001600160a01b038516845260030190915290205460ff1692915050565b34801561052357600080fd5b506102ef610532366004613972565b61118a565b34801561054357600080fd5b506105726105523660046134ef565b600090815261013060205260409020805460018201546002909201549092565b604080519384526020840192909252908201526060016102d1565b34801561059957600080fd5b506040805180820190915260018152603160f81b6020820152610352565b3480156105c357600080fd5b506102ef6105d2366004613a43565b61142e565b3480156105e357600080fd5b506102ef6105f2366004613a6f565b611457565b34801561060357600080fd5b506102ef6106123660046134ef565b6114a1565b34801561062357600080fd5b5061029e6106323660046134ef565b61153c565b34801561064357600080fd5b506102ef610652366004613ad8565b61157b565b34801561066357600080fd5b506102ef610672366004613bb1565b6115be565b34801561068357600080fd5b5061029e610692366004613c0a565b611606565b3480156106a357600080fd5b506106b76106b23660046134ef565b611778565b6040516102d196959493929190613c80565b3480156106d557600080fd5b5060646102ef565b3480156106e957600080fd5b506102ef6106f8366004613cc5565b611839565b34801561070957600080fd5b506102ef6107183660046134ef565b611850565b34801561072957600080fd5b506102ef610738366004613c0a565b611871565b34801561074957600080fd5b506102ef610758366004613ad8565b6118ab565b34801561076957600080fd5b506102ef611ac8565b34801561077e57600080fd5b5061029e61078d366004613d1d565b611af5565b34801561079e57600080fd5b506102ef611c22565b3480156107b357600080fd5b506103bd6107c2366004613d61565b63bc197c8160e01b95945050505050565b3480156107df57600080fd5b506102ef6107ee3660046134ef565b611c2e565b61029e610801366004613dde565b611c5d565b34801561081257600080fd5b5061029e610821366004613e21565b611d24565b34801561083257600080fd5b506102ef6108413660046137e3565b611e8c565b34801561085257600080fd5b5061029e6108613660046134ef565b611ea5565b34801561087257600080fd5b506040805180820190915260208082527f737570706f72743d627261766f2671756f72756d3d666f722c6162737461696e90820152610352565b3480156108b857600080fd5b506102ef7f150214d74d59b7d1e90c73fc22ef3d991dd0a76b046543d4d80ab92d2a50328f81565b3480156108ec57600080fd5b5061029e6108fb3660046134ef565b611f39565b34801561090c57600080fd5b506102ef61091b366004613e3e565b611f78565b34801561092c57600080fd5b5061029e61093b3660046134ef565b611f99565b34801561094c57600080fd5b506103bd61095b366004613e6a565b63f23a6e6160e01b95945050505050565b34801561097857600080fd5b506102ef6109873660046134ef565b611fd8565b34801561099857600080fd5b50610162546109ad906001600160a01b031681565b6040516001600160a01b0390911681526020016102d1565b60006001600160e01b0319821663248a7c9160e21b14806109f657506001600160e01b0319821663153494ef60e21b145b80610a1157506001600160e01b03198216630271189760e51b145b80610a2c57506301ffc9a760e01b6001600160e01b03198316145b92915050565b6000610a3d60ff5490565b905090565b600080610ae6610ade7fb3b3f3b703cd84ce352197dcff232b1b5d3cfb2025ce47cf04742d0651f1af888c8c8c8c604051610a7e929190613ed2565b60405180910390208b80519060200120604051602001610ac3959493929190948552602085019390935260ff9190911660408401526060830152608082015260a00190565b60405160208183030381529060405280519060200120611fe3565b868686612031565b9050610b2c8a828b8b8b8080601f0160208091040260200160405190810160405280939291908181526020018383808284376000920191909152508d925061204f915050565b9a9950505050505050505050565b333014610b625760405162461bcd60e51b8152600401610b5990613ee2565b60405180910390fd5b610b79565b80610b7260ce6121b3565b03610b6757505b610b8281612232565b50565b606060cb8054610b9490613f19565b80601f0160208091040260200160405190810160405280929190818152602001828054610bc090613f19565b8015610c0d5780601f10610be257610100808354040283529160200191610c0d565b820191906000526020600020905b815481529060010190602001808311610bf057829003601f168201915b5050505050905090565b60cc602090815260009182526040918290208251808301845281546001600160401b0390811682528451938401909452600182015490931682526002810154600382015460048301805460ff80851695610100860482169562010000900490911693929091610c8590613f19565b80601f0160208091040260200160405190810160405280929190818152602001828054610cb190613f19565b8015610cfe5780601f10610cd357610100808354040283529160200191610cfe565b820191906000526020600020905b815481529060010190602001808311610ce157829003601f168201915b5050505050905087565b600080610d1786868686611e8c565b90506000610d248261107a565b9050600981600c811115610d3a57610d3a61356b565b1480610d575750600a81600c811115610d5557610d5561356b565b145b610dad5760405162461bcd60e51b815260206004820152602160248201527f476f7665726e6f723a2070726f706f73616c206e6f74207375636365737366756044820152601b60fa1b6064820152608401610b59565b600082815260cc602052604090819020600201805460ff19166001179055517f712ae1383f79ac853f8d882153778e0260ef8f03b504e2866e0593e04d2b291f90610dfb9084815260200190565b60405180910390a1610e10828888888861237a565b610e1d8288888888612407565b610e2a828888888861237a565b5095945050505050565b600081815260cc602090815260408083208151928301909152546001600160401b0316908190525b6001600160401b031692915050565b6040805161010081018252600060e08201818152825282516020808201855282825283015291810182905260608082018390526080820183905260a082019290925260c0810191909152600082815260cc60209081526040918290208251610100808201855282546001600160401b0390811660e084019081528352855180860187526001850154909116815293820193909352600282015460ff80821615159583019590955292830484161515606082015292909160808401916201000090910416600c811115610f3f57610f3f61356b565b600c811115610f5057610f5061356b565b815260200160038201548152602001600482018054610f6e90613f19565b80601f0160208091040260200160405190810160405280929190818152602001828054610f9a90613f19565b8015610fe75780601f10610fbc57610100808354040283529160200191610fe7565b820191906000526020600020905b815481529060010190602001808311610fca57829003601f168201915b5050505050815250509050919050565b6000610a3d60fe5490565b604080517f150214d74d59b7d1e90c73fc22ef3d991dd0a76b046543d4d80ab92d2a50328f602082015290810186905260ff85166060820152600090819061105090610ade90608001610ac3565b905061106d878288604051806020016040528060008152506124fd565b9150505b95945050505050565b600081815260cc60205260408120600281015460ff161561109e5750600c92915050565b6002810154610100900460ff16156110b95750600792915050565b60006110c484610e34565b9050806000036111165760405162461bcd60e51b815260206004820152601d60248201527f476f7665726e6f723a20756e6b6e6f776e2070726f706f73616c2069640000006044820152606401610b59565b438110611127575060059392505050565b600061113285611c2e565b905043811061114657506006949350505050565b61114f85612520565b801561116f57506000858152610130602052604090208054600190910154115b1561117f57506009949350505050565b506008949350505050565b600061119533612558565b6111b15760405162461bcd60e51b8152600401610b5990613f53565b6111b9611c22565b6111c83361091b600143613f8e565b10156112305760405162461bcd60e51b815260206004820152603160248201527f476f7665726e6f723a2070726f706f73657220766f7465732062656c6f7720706044820152701c9bdc1bdcd85b081d1a1c995cda1bdb19607a1b6064820152608401610b59565b84518651146112515760405162461bcd60e51b8152600401610b5990613fa1565b83518651146112725760405162461bcd60e51b8152600401610b5990613fa1565b60006112878787878780519060200120611e8c565b600081815260cc60205260408120919250600282015462010000900460ff16600c8111156112b7576112b761356b565b1461130e5760405162461bcd60e51b815260206004820152602160248201527f476f7665726e6f723a2070726f706f73616c20616c72656164792065786973746044820152607360f81b6064820152608401610b59565b6004810161131c8582614028565b5060cd80546001810182556000919091527f83978b4c69c48dd978ab43fe30f077615294f938fb7f936d9eb340e51ea7db2e0182905560028101805462ff00001916620100001790557fb88787ccad609a4d41058c8a0928927dd2516296c139d218d1e9131c2c219bd382338a8a8c516001600160401b038111156113a3576113a3613394565b6040519080825280602002602001820160405280156113d657816020015b60608152602001906001900390816113c15790505b50604080516020808201835289546001600160401b03908116928390528351918201845260018b01541690819052915161141b9796959493928f92918f908f906141b0565b60405180910390a1509695505050505050565b60008033905061144f848285604051806020016040528060008152506124fd565b949350505050565b60008033905061106d87828888888080601f0160208091040260200160405190810160405280939291908181526020018383808284376000920191909152508a925061204f915050565b610196546000908082036114ba57505061019554919050565b60006101966114ca600184613f8e565b815481106114da576114da614269565b60009182526020918290206040805180820190915291015463ffffffff8116808352600160201b9091046001600160e01b0316928201929092529150841061153057602001516001600160e01b03169392505050565b61144f610196856125d2565b33301461155b5760405162461bcd60e51b8152600401610b5990613ee2565b611572565b8061156b60ce6121b3565b0361156057505b610b8281612692565b60008686868686866040516020016115989695949392919061427f565b6040516020818303038152906040528051906020012060001c90505b9695505050505050565b6000803390506115b486828787878080601f0160208091040260200160405190810160405280939291908181526020018383808284376000920191909152506124fd92505050565b61160f33612558565b61162b5760405162461bcd60e51b8152600401610b5990613f53565b600261163685610e6b565b60800151600c81111561164b5761164b61356b565b146116685760405162461bcd60e51b8152600401610b59906142e6565b82158061168f575060008381526101c860205260409020805461168a90613f19565b151590505b6116cc5760405162461bcd60e51b815260206004820152600e60248201526d1d5b9adb9bdddb881c185c995b9d60921b6044820152606401610b59565b60006116da85858585611871565b60008181526101c8602052604090206002810187905560018101869055909150806117058582614028565b50828160050160006101000a81548160ff0219169083600581111561172c5761172c61356b565b02179055507fab9cbbc55d154611333c315f451d82f88c84b9254dec96cd2800ae487b17bb6e863387878760405161176895949392919061432b565b60405180910390a1505050505050565b6101c86020526000908152604090208054819061179490613f19565b80601f01602080910402602001604051908101604052809291908181526020018280546117c090613f19565b801561180d5780601f106117e25761010080835404028352916020019161180d565b820191906000526020600020905b8154815290600101906020018083116117f057829003601f168201915b505050600184015460028501546003860154600487015460059097015495969295919450925060ff1686565b60006118468484846126d3565b90505b9392505050565b60cd818154811061186057600080fd5b600091825260209091200154905081565b60008484848460405160200161188a9493929190614367565b60408051601f19818403018152919052805160209091012095945050505050565b60006118b633612558565b6118d25760405162461bcd60e51b8152600401610b5990613f53565b84518651146118f35760405162461bcd60e51b8152600401610b5990613fa1565b83518651146119145760405162461bcd60e51b8152600401610b5990613fa1565b600087815260cc6020526040902060028082015462010000900460ff16600c8111156119425761194261356b565b1461195f5760405162461bcd60e51b8152600401610b59906142e6565b600061196f89898989898961157b565b600081815260cc60205260408120919250600282015462010000900460ff16600c81111561199f5761199f61356b565b146119ec5760405162461bcd60e51b815260206004820152601860248201527f616d656e646d656e7420616c72656164792065786973747300000000000000006044820152606401610b59565b60028101805462ff000019166201000017905560048101611a0d8682614028565b506002830180546203000062ff0000199091161790557f700333eab3015dc440dd21d32df65a85b7c7a09a4e45ad54be8e79d0c802f5388a83338c8c8e516001600160401b03811115611a6257611a62613394565b604051908082528060200260200182016040528015611a9557816020015b6060815260200190600190039081611a805790505b508d6000808f8f604051611ab39b9a99989796959493929190614395565b60405180910390a15098975050505050505050565b6101965460009015611aed57611adf61019661274a565b6001600160e01b0316905090565b506101955490565b6101c75460ff1615611b495760405162461bcd60e51b815260206004820152601f60248201527f466f756e646572206772616e7420616c726561647920636f6d706c65746564006044820152606401610b59565b6101c7805460ff1916600117905560005b8251811015611c1d576101625483516001600160a01b039091169063a9059cbb90859084908110611b8d57611b8d614269565b6020026020010151846040518363ffffffff1660e01b8152600401611bc79291906001600160a01b03929092168252602082015260400190565b6020604051808303816000875af1158015611be6573d6000803e3d6000fd5b505050506040513d601f19601f82011682018060405250810190611c0a919061444c565b5080611c158161446e565b915050611b5a565b505050565b6000610a3d6101005490565b600081815260cc602090815260408083208151928301909152600101546001600160401b031690819052610e5c565b333014611c7c5760405162461bcd60e51b8152600401610b5990613ee2565b611c93565b80611c8c60ce6121b3565b03611c8157505b600080856001600160a01b0316858585604051611cb1929190613ed2565b60006040518083038185875af1925050503d8060008114611cee576040519150601f19603f3d011682016040523d82523d6000602084013e611cf3565b606091505b5091509150611d1b828260405180606001604052806028815260200161460d60289139612783565b50505050505050565b600054610100900460ff1615808015611d445750600054600160ff909116105b80611d5e5750303b158015611d5e575060005460ff166001145b611dc15760405162461bcd60e51b815260206004820152602e60248201527f496e697469616c697a61626c653a20636f6e747261637420697320616c72656160448201526d191e481a5b9a5d1a585b1a5e995960921b6064820152608401610b59565b6000805460ff191660011790558015611de4576000805461ff0019166101001790555b611e0c6040518060400160405280600781526020016610dbdd5b98da5b60ca1b81525061279c565b611e1b600161c4e060006127f3565b611e23612825565b611e2c8261284e565b611e36600461287e565b6101c7805460ff191690558015611e88576000805461ff0019169055604051600181527f7f26b83ff96e1f2b6a682f133852f6798a09c465da95921460cefb3847402498906020015b60405180910390a15b5050565b60008484848460405160200161188a9493929190614487565b611eae33612558565b611eca5760405162461bcd60e51b8152600401610b5990613f53565b6000611ed582610e6b565b905060018160800151600c811115611eef57611eef61356b565b14611ef957600080fd5b611f048260026128ae565b604080518381523360208201527f299432bdda7d2f4b8ed54b73f54bf39049288dd18fb7c4e59b703e789809eec79101611e7f565b333014611f585760405162461bcd60e51b8152600401610b5990613ee2565b611f6f565b80611f6860ce6121b3565b03611f5d57505b610b82816128eb565b60006118498383611f9460408051602081019091526000815290565b6126d3565b333014611fb85760405162461bcd60e51b8152600401610b5990613ee2565b611fcf565b80611fc860ce6121b3565b03611fbd57505b610b828161298c565b6000610a2c826129cf565b6000610a2c611ff0612a5e565b8360405161190160f01b6020820152602281018390526042810182905260009060620160405160208183030381529060405280519060200120905092915050565b600080600061204287878787612ad9565b91509150610e2a81612b9d565b600085815260cc6020526040812060066120688861107a565b600c8111156120795761207961356b565b146120d25760405162461bcd60e51b815260206004820152602360248201527f476f7665726e6f723a20766f7465206e6f742063757272656e746c792061637460448201526269766560e81b6064820152608401610b59565b604080516020810190915281546001600160401b0316908190526000906120fb908890866126d3565b905061210a8888888488612ce7565b835160000361215f57866001600160a01b03167fb8e138887d0aa13bab447e82de9d5c1777041ecd21ca36ba824ff1e6c07ddda48988848960405161215294939291906144d2565b60405180910390a261106d565b866001600160a01b03167fe2babfbac5889a709b63bb7f598b324e08bc5a4fb9ec647fb3cbc9ec07eb871289888489896040516121a09594939291906144fa565b60405180910390a2979650505050505050565b60006121ce8254600f81810b600160801b909204900b131590565b156121ec57604051631ed9509560e11b815260040160405180910390fd5b508054600f0b6000818152600180840160205260408220805492905583546fffffffffffffffffffffffffffffffff191692016001600160801b03169190911790915590565b60648111156122b55760405162461bcd60e51b815260206004820152604360248201527f476f7665726e6f72566f74657351756f72756d4672616374696f6e3a2071756f60448201527f72756d4e756d657261746f72206f7665722071756f72756d44656e6f6d696e616064820152623a37b960e91b608482015260a401610b59565b60006122bf611ac8565b905080158015906122d1575061019654155b1561233657604080518082019091526000815261019690602081016122f584612e62565b6001600160e01b039081169091528254600181018455600093845260209384902083519490930151909116600160201b0263ffffffff909316929092179101555b61234261019683612ecf565b505060408051828152602081018490527f0553476bf02ef2726e8ce5ced78d63e26e602e4a2257b1f559418e24b46339979101611e7f565b612400565b84518110156123fe57306001600160a01b03168582815181106123a4576123a4614269565b60200260200101516001600160a01b0316036123ee576123ee8382815181106123cf576123cf614269565b60200260200101518051906020012060ce612f0590919063ffffffff16565b6123f78161446e565b905061237f565b505b5050505050565b600060405180606001604052806027815260200161463560279139905060005b8551811015611d1b5760008087838151811061244557612445614269565b60200260200101516001600160a01b031687848151811061246857612468614269565b602002602001015187858151811061248257612482614269565b60200260200101516040516124979190614540565b60006040518083038185875af1925050503d80600081146124d4576040519150601f19603f3d011682016040523d82523d6000602084013e6124d9565b606091505b50915091506124e9828286612783565b505050806124f69061446e565b9050612427565b60006110718585858561251b60408051602081019091526000815290565b61204f565b60008181526101306020526040812060028101546001820154612543919061455c565b61254f61098785610e34565b11159392505050565b610162546040516370a0823160e01b81526001600160a01b03838116600483015260009283929116906370a0823190602401602060405180830381865afa1580156125a7573d6000803e3d6000fd5b505050506040513d601f19601f820116820180604052508101906125cb919061456f565b1192915050565b60004382106126235760405162461bcd60e51b815260206004820181905260248201527f436865636b706f696e74733a20626c6f636b206e6f7420796574206d696e65646044820152606401610b59565b600061262e83612f41565b8454909150600061264186848385612fa6565b9050801561267c5761266686612658600184613f8e565b600091825260209091200190565b54600160201b90046001600160e01b031661267f565b60005b6001600160e01b03169695505050505050565b60fe5460408051918252602082018390527fc565b045403dc03c2eea82b81a0465edad9e2e7fc4d97e11421c209da93d7a93910160405180910390a160fe55565b61016254604051630748d63560e31b81526001600160a01b038581166004830152602482018590526000921690633a46b1a890604401602060405180830381865afa158015612726573d6000803e3d6000fd5b505050506040513d601f19601f82011682018060405250810190611846919061456f565b8054600090801561277a5761276483612658600184613f8e565b54600160201b90046001600160e01b0316611849565b60009392505050565b60608315612792575081611849565b6118498383613004565b600054610100900460ff166127c35760405162461bcd60e51b8152600401610b5990614588565b6127ea816127e56040805180820190915260018152603160f81b602082015290565b61302e565b610b828161306f565b600054610100900460ff1661281a5760405162461bcd60e51b8152600401610b5990614588565b611c1d8383836130a2565b600054610100900460ff1661284c5760405162461bcd60e51b8152600401610b5990614588565b565b600054610100900460ff166128755760405162461bcd60e51b8152600401610b5990614588565b610b82816130e4565b600054610100900460ff166128a55760405162461bcd60e51b8152600401610b5990614588565b610b828161312e565b600082815260cc6020526040902060028101805483919062ff000019166201000083600c8111156128e1576128e161356b565b0217905550505050565b6000811161294b5760405162461bcd60e51b815260206004820152602760248201527f476f7665726e6f7253657474696e67733a20766f74696e6720706572696f6420604482015266746f6f206c6f7760c81b6064820152608401610b59565b60ff5460408051918252602082018390527f7e3f7f0708a84de9203036abaa450dccc85ad5ff52f78c170f3edb55cf5e8828910160405180910390a160ff55565b6101005460408051918252602082018390527fccb45da8d5717e6c4544694297c4ba5cf151d455c9bb0ed4fc7a38411bc05461910160405180910390a161010055565b600060646129dc836114a1565b61016254604051632394e7a360e21b8152600481018690526001600160a01b0390911690638e539e8c90602401602060405180830381865afa158015612a26573d6000803e3d6000fd5b505050506040513d601f19601f82011682018060405250810190612a4a919061456f565b612a5491906145d3565b610a2c91906145ea565b6000610a3d7f8b73c3c69bb8fe3d512ecc4cf759cc79239f7b179b0ffacaa9a75d522b39400f612a8d60655490565b6066546040805160208101859052908101839052606081018290524660808201523060a082015260009060c0016040516020818303038152906040528051906020012090509392505050565b6000807f7fffffffffffffffffffffffffffffff5d576e7357a4501ddfe92f46681b20a0831115612b105750600090506003612b94565b6040805160008082526020820180845289905260ff881692820192909252606081018690526080810185905260019060a0016020604051602081039080840390855afa158015612b64573d6000803e3d6000fd5b5050604051601f1901519150506001600160a01b038116612b8d57600060019250925050612b94565b9150600090505b94509492505050565b6000816004811115612bb157612bb161356b565b03612bb95750565b6001816004811115612bcd57612bcd61356b565b03612c1a5760405162461bcd60e51b815260206004820152601860248201527f45434453413a20696e76616c6964207369676e617475726500000000000000006044820152606401610b59565b6002816004811115612c2e57612c2e61356b565b03612c7b5760405162461bcd60e51b815260206004820152601f60248201527f45434453413a20696e76616c6964207369676e6174757265206c656e677468006044820152606401610b59565b6003816004811115612c8f57612c8f61356b565b03610b825760405162461bcd60e51b815260206004820152602260248201527f45434453413a20696e76616c6964207369676e6174757265202773272076616c604482015261756560f01b6064820152608401610b59565b6000858152610130602090815260408083206001600160a01b0388168452600381019092529091205460ff1615612d705760405162461bcd60e51b815260206004820152602760248201527f476f7665726e6f72566f74696e6753696d706c653a20766f746520616c726561604482015266191e4818d85cdd60ca1b6064820152608401610b59565b6001600160a01b03851660009081526003820160205260409020805460ff1916600117905560ff8416612dbc5782816000016000828254612db1919061455c565b909155506123fe9050565b60001960ff851601612ddc5782816001016000828254612db1919061455c565b60011960ff851601612dfc5782816002016000828254612db1919061455c565b60405162461bcd60e51b815260206004820152603560248201527f476f7665726e6f72566f74696e6753696d706c653a20696e76616c69642076616044820152746c756520666f7220656e756d20566f74655479706560581b6064820152608401610b59565b60006001600160e01b03821115612ecb5760405162461bcd60e51b815260206004820152602760248201527f53616665436173743a2076616c756520646f65736e27742066697420696e20326044820152663234206269747360c81b6064820152608401610b59565b5090565b600080612eed84612edf43612f41565b612ee886612e62565b613155565b6001600160e01b0391821693501690505b9250929050565b8154600160801b90819004600f0b6000818152600180860160205260409091209390935583546001600160801b03908116939091011602179055565b600063ffffffff821115612ecb5760405162461bcd60e51b815260206004820152602660248201527f53616665436173743a2076616c756520646f65736e27742066697420696e203360448201526532206269747360d01b6064820152608401610b59565b60005b81831015612ffc576000612fbd84846132f8565b60008781526020902090915063ffffffff86169082015463ffffffff161115612fe857809250612ff6565b612ff381600161455c565b93505b50612fa9565b509392505050565b8151156130145781518083602001fd5b8060405162461bcd60e51b8152600401610b599190613558565b600054610100900460ff166130555760405162461bcd60e51b8152600401610b5990614588565b815160209283012081519190920120606591909155606655565b600054610100900460ff166130965760405162461bcd60e51b8152600401610b5990614588565b60cb611e888282614028565b600054610100900460ff166130c95760405162461bcd60e51b8152600401610b5990614588565b6130d283612692565b6130db826128eb565b611c1d8161298c565b600054610100900460ff1661310b5760405162461bcd60e51b8152600401610b5990614588565b61016280546001600160a01b0319166001600160a01b0392909216919091179055565b600054610100900460ff16610b795760405162461bcd60e51b8152600401610b5990614588565b82546000908190801561329b57600061317387612658600185613f8e565b60408051808201909152905463ffffffff808216808452600160201b9092046001600160e01b0316602084015291925090871610156131f45760405162461bcd60e51b815260206004820152601760248201527f436865636b706f696e743a20696e76616c6964206b65790000000000000000006044820152606401610b59565b805163ffffffff80881691160361323c578461321588612658600186613f8e565b80546001600160e01b0392909216600160201b0263ffffffff90921691909117905561328b565b6040805180820190915263ffffffff80881682526001600160e01b0380881660208085019182528b54600181018d5560008d81529190912094519151909216600160201b029216919091179101555b6020015192508391506132f09050565b50506040805180820190915263ffffffff80851682526001600160e01b0380851660208085019182528854600181018a5560008a815291822095519251909316600160201b0291909316179201919091559050815b935093915050565b600061330760028484186145ea565b6118499084841661455c565b60006020828403121561332557600080fd5b81356001600160e01b03198116811461184957600080fd5b803560ff8116811461334e57600080fd5b919050565b60008083601f84011261336557600080fd5b5081356001600160401b0381111561337c57600080fd5b602083019150836020828501011115612efe57600080fd5b634e487b7160e01b600052604160045260246000fd5b604051601f8201601f191681016001600160401b03811182821017156133d2576133d2613394565b604052919050565b600082601f8301126133eb57600080fd5b81356001600160401b0381111561340457613404613394565b613417601f8201601f19166020016133aa565b81815284602083860101111561342c57600080fd5b816020850160208301376000918101602001919091529392505050565b60008060008060008060008060e0898b03121561346557600080fd5b8835975061347560208a0161333d565b965060408901356001600160401b038082111561349157600080fd5b61349d8c838d01613353565b909850965060608b01359150808211156134b657600080fd5b506134c38b828c016133da565b9450506134d260808a0161333d565b925060a0890135915060c089013590509295985092959890939650565b60006020828403121561350157600080fd5b5035919050565b60005b8381101561352357818101518382015260200161350b565b50506000910152565b60008151808452613544816020860160208601613508565b601f01601f19169290920160200192915050565b602081526000611849602083018461352c565b634e487b7160e01b600052602160045260246000fd5b600d81106135915761359161356b565b9052565b87516001600160401b03908116825287511660208201528515156040820152841515606082015260006135cb6080830186613581565b8360a083015260e060c08301526135e560e083018461352c565b9998505050505050505050565b6001600160a01b0381168114610b8257600080fd5b6000806000806080858703121561361d57600080fd5b8435613628816135f2565b93506020850135613638816135f2565b92506040850135915060608501356001600160401b0381111561365a57600080fd5b613666878288016133da565b91505092959194509250565b60006001600160401b0382111561368b5761368b613394565b5060051b60200190565b600082601f8301126136a657600080fd5b813560206136bb6136b683613672565b6133aa565b82815260059290921b840181019181810190868411156136da57600080fd5b8286015b848110156136fe5780356136f1816135f2565b83529183019183016136de565b509695505050505050565b600082601f83011261371a57600080fd5b8135602061372a6136b683613672565b82815260059290921b8401810191818101908684111561374957600080fd5b8286015b848110156136fe578035835291830191830161374d565b600082601f83011261377557600080fd5b813560206137856136b683613672565b82815260059290921b840181019181810190868411156137a457600080fd5b8286015b848110156136fe5780356001600160401b038111156137c75760008081fd5b6137d58986838b01016133da565b8452509183019183016137a8565b600080600080608085870312156137f957600080fd5b84356001600160401b038082111561381057600080fd5b61381c88838901613695565b9550602087013591508082111561383257600080fd5b61383e88838901613709565b9450604087013591508082111561385457600080fd5b5061386187828801613764565b949793965093946060013593505050565b6020815260006001600160401b0380845151166020840152806020850151511660408401525060408301511515606083015260608301511515608083015260808301516138c260a0840182613581565b5060a083015160c083015260c083015160e08084015261144f61010084018261352c565b600080600080600060a086880312156138fe57600080fd5b8535945061390e6020870161333d565b935061391c6040870161333d565b94979396509394606081013594506080013592915050565b60208101610a2c8284613581565b6000806040838503121561395557600080fd5b823591506020830135613967816135f2565b809150509250929050565b600080600080600060a0868803121561398a57600080fd5b85356001600160401b03808211156139a157600080fd5b6139ad89838a01613695565b965060208801359150808211156139c357600080fd5b6139cf89838a01613709565b955060408801359150808211156139e557600080fd5b6139f189838a01613764565b94506060880135915080821115613a0757600080fd5b613a1389838a016133da565b93506080880135915080821115613a2957600080fd5b50613a36888289016133da565b9150509295509295909350565b60008060408385031215613a5657600080fd5b82359150613a666020840161333d565b90509250929050565b600080600080600060808688031215613a8757600080fd5b85359450613a976020870161333d565b935060408601356001600160401b0380821115613ab357600080fd5b613abf89838a01613353565b90955093506060880135915080821115613a2957600080fd5b60008060008060008060c08789031215613af157600080fd5b8635955060208701356001600160401b0380821115613b0f57600080fd5b613b1b8a838b01613695565b96506040890135915080821115613b3157600080fd5b613b3d8a838b01613709565b95506060890135915080821115613b5357600080fd5b613b5f8a838b01613764565b94506080890135915080821115613b7557600080fd5b613b818a838b016133da565b935060a0890135915080821115613b9757600080fd5b50613ba489828a016133da565b9150509295509295509295565b60008060008060608587031215613bc757600080fd5b84359350613bd76020860161333d565b925060408501356001600160401b03811115613bf257600080fd5b613bfe87828801613353565b95989497509550505050565b60008060008060808587031215613c2057600080fd5b843593506020850135925060408501356001600160401b03811115613c4457600080fd5b613c50878288016133da565b925050606085013560068110613c6557600080fd5b939692955090935050565b600681106135915761359161356b565b60c081526000613c9360c083018961352c565b9050866020830152856040830152846060830152836080830152613cba60a0830184613c70565b979650505050505050565b600080600060608486031215613cda57600080fd5b8335613ce5816135f2565b92506020840135915060408401356001600160401b03811115613d0757600080fd5b613d13868287016133da565b9150509250925092565b60008060408385031215613d3057600080fd5b82356001600160401b03811115613d4657600080fd5b613d5285828601613695565b95602094909401359450505050565b600080600080600060a08688031215613d7957600080fd5b8535613d84816135f2565b94506020860135613d94816135f2565b935060408601356001600160401b0380821115613db057600080fd5b613dbc89838a01613709565b94506060880135915080821115613dd257600080fd5b613a1389838a01613709565b60008060008060608587031215613df457600080fd5b8435613dff816135f2565b93506020850135925060408501356001600160401b03811115613bf257600080fd5b600060208284031215613e3357600080fd5b8135611849816135f2565b60008060408385031215613e5157600080fd5b8235613e5c816135f2565b946020939093013593505050565b600080600080600060a08688031215613e8257600080fd5b8535613e8d816135f2565b94506020860135613e9d816135f2565b9350604086013592506060860135915060808601356001600160401b03811115613ec657600080fd5b613a36888289016133da565b8183823760009101908152919050565b60208082526018908201527f476f7665726e6f723a206f6e6c79476f7665726e616e63650000000000000000604082015260600190565b600181811c90821680613f2d57607f821691505b602082108103613f4d57634e487b7160e01b600052602260045260246000fd5b50919050565b6020808252600b908201526a566f74657273206f6e6c7960a81b604082015260600190565b634e487b7160e01b600052601160045260246000fd5b81810381811115610a2c57610a2c613f78565b60208082526021908201527f476f7665726e6f723a20696e76616c69642070726f706f73616c206c656e67746040820152600d60fb1b606082015260800190565b601f821115611c1d57600081815260208120601f850160051c810160208610156140095750805b601f850160051c820191505b818110156123fe57828155600101614015565b81516001600160401b0381111561404157614041613394565b6140558161404f8454613f19565b84613fe2565b602080601f83116001811461408a57600084156140725750858301515b600019600386901b1c1916600185901b1785556123fe565b600085815260208120601f198616915b828110156140b95788860151825594840194600190910190840161409a565b50858210156140d75787850151600019600388901b60f8161c191681555b5050505050600190811b01905550565b600081518084526020808501945080840160005b838110156141205781516001600160a01b0316875295820195908201906001016140fb565b509495945050505050565b600081518084526020808501945080840160005b838110156141205781518752958201959082019060010161413f565b600081518084526020808501808196508360051b8101915082860160005b858110156141a357828403895261419184835161352c565b98850198935090840190600101614179565b5091979650505050505050565b8a81526001600160a01b038a166020820152610140604082018190526000906141db8382018c6140e7565b905082810360608401526141ef818b61412b565b90508281036080840152614203818a61415b565b905082810360a0840152614217818961415b565b6001600160401b0388811660c0860152871660e08501528381036101008501529050614243818661352c565b9050828103610120840152614258818561352c565b9d9c50505050505050505050505050565b634e487b7160e01b600052603260045260246000fd5b86815260c06020820152600061429860c08301886140e7565b82810360408401526142aa818861412b565b905082810360608401526142be818761415b565b905082810360808401526142d2818661352c565b905082810360a08401526135e5818561352c565b60208082526025908201527f756e6b6e6f776e2070726f706f73616c206f72206e6f7420696e2d646973637560408201526439b9b4b7b760d91b606082015260800190565b85815260018060a01b038516602082015283604082015260a06060820152600061435860a083018561352c565b90506115b46080830184613c70565b848152836020820152608060408201526000614386608083018561352c565b90506110716060830184613c70565b8b8152602081018b90526001600160a01b038a166040820152610160606082018190526000906143c78382018c6140e7565b905082810360808401526143db818b61412b565b905082810360a08401526143ef818a61415b565b905082810360c0840152614403818961415b565b90508660e084015285610100840152828103610120840152614425818661352c565b905082810361014084015261443a818561352c565b9e9d5050505050505050505050505050565b60006020828403121561445e57600080fd5b8151801515811461184957600080fd5b60006001820161448057614480613f78565b5060010190565b60808152600061449a60808301876140e7565b82810360208401526144ac818761412b565b905082810360408401526144c0818661415b565b91505082606083015295945050505050565b84815260ff841660208201528260408201526080606082015260006115b4608083018461352c565b85815260ff8516602082015283604082015260a06060820152600061452260a083018561352c565b8281036080840152614534818561352c565b98975050505050505050565b60008251614552818460208701613508565b9190910192915050565b80820180821115610a2c57610a2c613f78565b60006020828403121561458157600080fd5b5051919050565b6020808252602b908201527f496e697469616c697a61626c653a20636f6e7472616374206973206e6f74206960408201526a6e697469616c697a696e6760a81b606082015260800190565b8082028115828204841417610a2c57610a2c613f78565b60008261460757634e487b7160e01b600052601260045260246000fd5b50049056fe476f7665726e6f723a2072656c617920726576657274656420776974686f7574206d657373616765476f7665726e6f723a2063616c6c20726576657274656420776974686f7574206d657373616765a2646970667358221220594da4e1a39b2869723bec8086416870f8e0f56ae18aa31a930ba6007496ed9a64736f6c63430008110033",
  "linkReferences": {},
  "deployedLinkReferences": {}
}