{
  "_format": "hh-sol-artifact-1",
  "contractName": "Council",
  "sourceName": "contracts/Council.sol",
  "abi": [
    {
      "inputs": [],
      "stateMutability": "nonpayable",
      "type": "constructor"
    },
    {
      "inputs": [],
      "name": "Empty",
      "type": "error"
    },
    {
      "anonymous": false,
      "inputs": [
        {
          "indexed": false,
          "internalType": "uint8",
          "name": "version",
          "type": "uint8"
        }
      ],
      "name": "Initialized",
      "type": "event"
    },
    {
      "anonymous": false,
      "inputs": [
        {
          "indexed": false,
          "internalType": "uint256",
          "name": "proposalId",
          "type": "uint256"
        }
      ],
      "name": "ProposalCanceled",
      "type": "event"
    },
    {
      "anonymous": false,
      "inputs": [
        {
          "indexed": false,
          "internalType": "uint256",
          "name": "proposalId",
          "type": "uint256"
        },
        {
          "indexed": false,
          "internalType": "address",
          "name": "proposer",
          "type": "address"
        },
        {
          "indexed": false,
          "internalType": "address[]",
          "name": "targets",
          "type": "address[]"
        },
        {
          "indexed": false,
          "internalType": "uint256[]",
          "name": "values",
          "type": "uint256[]"
        },
        {
          "indexed": false,
          "internalType": "string[]",
          "name": "signatures",
          "type": "string[]"
        },
        {
          "indexed": false,
          "internalType": "bytes[]",
          "name": "calldatas",
          "type": "bytes[]"
        },
        {
          "indexed": false,
          "internalType": "uint256",
          "name": "startBlock",
          "type": "uint256"
        },
        {
          "indexed": false,
          "internalType": "uint256",
          "name": "endBlock",
          "type": "uint256"
        },
        {
          "indexed": false,
          "internalType": "string",
          "name": "description",
          "type": "string"
        }
      ],
      "name": "ProposalCreated",
      "type": "event"
    },
    {
      "anonymous": false,
      "inputs": [
        {
          "indexed": false,
          "internalType": "uint256",
          "name": "proposalId",
          "type": "uint256"
        }
      ],
      "name": "ProposalExecuted",
      "type": "event"
    },
    {
      "anonymous": false,
      "inputs": [
        {
          "indexed": false,
          "internalType": "uint256",
          "name": "proposalId",
          "type": "uint256"
        },
        {
          "indexed": false,
          "internalType": "address",
          "name": "seconder",
          "type": "address"
        }
      ],
      "name": "ProposalSeconded",
      "type": "event"
    },
    {
      "anonymous": false,
      "inputs": [
        {
          "indexed": false,
          "internalType": "uint256",
          "name": "oldProposalThreshold",
          "type": "uint256"
        },
        {
          "indexed": false,
          "internalType": "uint256",
          "name": "newProposalThreshold",
          "type": "uint256"
        }
      ],
      "name": "ProposalThresholdSet",
      "type": "event"
    },
    {
      "anonymous": false,
      "inputs": [
        {
          "indexed": false,
          "internalType": "uint256",
          "name": "oldQuorumNumerator",
          "type": "uint256"
        },
        {
          "indexed": false,
          "internalType": "uint256",
          "name": "newQuorumNumerator",
          "type": "uint256"
        }
      ],
      "name": "QuorumNumeratorUpdated",
      "type": "event"
    },
    {
      "anonymous": false,
      "inputs": [
        {
          "indexed": true,
          "internalType": "address",
          "name": "voter",
          "type": "address"
        },
        {
          "indexed": false,
          "internalType": "uint256",
          "name": "proposalId",
          "type": "uint256"
        },
        {
          "indexed": false,
          "internalType": "uint8",
          "name": "support",
          "type": "uint8"
        },
        {
          "indexed": false,
          "internalType": "uint256",
          "name": "weight",
          "type": "uint256"
        },
        {
          "indexed": false,
          "internalType": "string",
          "name": "reason",
          "type": "string"
        }
      ],
      "name": "VoteCast",
      "type": "event"
    },
    {
      "anonymous": false,
      "inputs": [
        {
          "indexed": true,
          "internalType": "address",
          "name": "voter",
          "type": "address"
        },
        {
          "indexed": false,
          "internalType": "uint256",
          "name": "proposalId",
          "type": "uint256"
        },
        {
          "indexed": false,
          "internalType": "uint8",
          "name": "support",
          "type": "uint8"
        },
        {
          "indexed": false,
          "internalType": "uint256",
          "name": "weight",
          "type": "uint256"
        },
        {
          "indexed": false,
          "internalType": "string",
          "name": "reason",
          "type": "string"
        },
        {
          "indexed": false,
          "internalType": "bytes",
          "name": "params",
          "type": "bytes"
        }
      ],
      "name": "VoteCastWithParams",
      "type": "event"
    },
    {
      "anonymous": false,
      "inputs": [
        {
          "indexed": false,
          "internalType": "uint256",
          "name": "oldVotingDelay",
          "type": "uint256"
        },
        {
          "indexed": false,
          "internalType": "uint256",
          "name": "newVotingDelay",
          "type": "uint256"
        }
      ],
      "name": "VotingDelaySet",
      "type": "event"
    },
    {
      "anonymous": false,
      "inputs": [
        {
          "indexed": false,
          "internalType": "uint256",
          "name": "oldVotingPeriod",
          "type": "uint256"
        },
        {
          "indexed": false,
          "internalType": "uint256",
          "name": "newVotingPeriod",
          "type": "uint256"
        }
      ],
      "name": "VotingPeriodSet",
      "type": "event"
    },
    {
      "inputs": [],
      "name": "BALLOT_TYPEHASH",
      "outputs": [
        {
          "internalType": "bytes32",
          "name": "",
          "type": "bytes32"
        }
      ],
      "stateMutability": "view",
      "type": "function"
    },
    {
      "inputs": [],
      "name": "COUNTING_MODE",
      "outputs": [
        {
          "internalType": "string",
          "name": "",
          "type": "string"
        }
      ],
      "stateMutability": "pure",
      "type": "function"
    },
    {
      "inputs": [],
      "name": "EXTENDED_BALLOT_TYPEHASH",
      "outputs": [
        {
          "internalType": "bytes32",
          "name": "",
          "type": "bytes32"
        }
      ],
      "stateMutability": "view",
      "type": "function"
    },
    {
      "inputs": [
        {
          "internalType": "uint256",
          "name": "proposalId",
          "type": "uint256"
        },
        {
          "internalType": "uint8",
          "name": "support",
          "type": "uint8"
        }
      ],
      "name": "castVote",
      "outputs": [
        {
          "internalType": "uint256",
          "name": "",
          "type": "uint256"
        }
      ],
      "stateMutability": "nonpayable",
      "type": "function"
    },
    {
      "inputs": [
        {
          "internalType": "uint256",
          "name": "proposalId",
          "type": "uint256"
        },
        {
          "internalType": "uint8",
          "name": "support",
          "type": "uint8"
        },
        {
          "internalType": "uint8",
          "name": "v",
          "type": "uint8"
        },
        {
          "internalType": "bytes32",
          "name": "r",
          "type": "bytes32"
        },
        {
          "internalType": "bytes32",
          "name": "s",
          "type": "bytes32"
        }
      ],
      "name": "castVoteBySig",
      "outputs": [
        {
          "internalType": "uint256",
          "name": "",
          "type": "uint256"
        }
      ],
      "stateMutability": "nonpayable",
      "type": "function"
    },
    {
      "inputs": [
        {
          "internalType": "uint256",
          "name": "proposalId",
          "type": "uint256"
        },
        {
          "internalType": "uint8",
          "name": "support",
          "type": "uint8"
        },
        {
          "internalType": "string",
          "name": "reason",
          "type": "string"
        }
      ],
      "name": "castVoteWithReason",
      "outputs": [
        {
          "internalType": "uint256",
          "name": "",
          "type": "uint256"
        }
      ],
      "stateMutability": "nonpayable",
      "type": "function"
    },
    {
      "inputs": [
        {
          "internalType": "uint256",
          "name": "proposalId",
          "type": "uint256"
        },
        {
          "internalType": "uint8",
          "name": "support",
          "type": "uint8"
        },
        {
          "internalType": "string",
          "name": "reason",
          "type": "string"
        },
        {
          "internalType": "bytes",
          "name": "params",
          "type": "bytes"
        }
      ],
      "name": "castVoteWithReasonAndParams",
      "outputs": [
        {
          "internalType": "uint256",
          "name": "",
          "type": "uint256"
        }
      ],
      "stateMutability": "nonpayable",
      "type": "function"
    },
    {
      "inputs": [
        {
          "internalType": "uint256",
          "name": "proposalId",
          "type": "uint256"
        },
        {
          "internalType": "uint8",
          "name": "support",
          "type": "uint8"
        },
        {
          "internalType": "string",
          "name": "reason",
          "type": "string"
        },
        {
          "internalType": "bytes",
          "name": "params",
          "type": "bytes"
        },
        {
          "internalType": "uint8",
          "name": "v",
          "type": "uint8"
        },
        {
          "internalType": "bytes32",
          "name": "r",
          "type": "bytes32"
        },
        {
          "internalType": "bytes32",
          "name": "s",
          "type": "bytes32"
        }
      ],
      "name": "castVoteWithReasonAndParamsBySig",
      "outputs": [
        {
          "internalType": "uint256",
          "name": "",
          "type": "uint256"
        }
      ],
      "stateMutability": "nonpayable",
      "type": "function"
    },
    {
      "inputs": [
        {
          "internalType": "address[]",
          "name": "targets",
          "type": "address[]"
        },
        {
          "internalType": "uint256[]",
          "name": "values",
          "type": "uint256[]"
        },
        {
          "internalType": "bytes[]",
          "name": "calldatas",
          "type": "bytes[]"
        },
        {
          "internalType": "bytes32",
          "name": "descriptionHash",
          "type": "bytes32"
        }
      ],
      "name": "execute",
      "outputs": [
        {
          "internalType": "uint256",
          "name": "",
          "type": "uint256"
        }
      ],
      "stateMutability": "payable",
      "type": "function"
    },
    {
      "inputs": [
        {
          "internalType": "uint256",
          "name": "proposalId",
          "type": "uint256"
        }
      ],
      "name": "getProposalById",
      "outputs": [
        {
          "components": [
            {
              "components": [
                {
                  "internalType": "uint64",
                  "name": "_deadline",
                  "type": "uint64"
                }
              ],
              "internalType": "struct TimersUpgradeable.BlockNumber",
              "name": "voteStart",
              "type": "tuple"
            },
            {
              "components": [
                {
                  "internalType": "uint64",
                  "name": "_deadline",
                  "type": "uint64"
                }
              ],
              "internalType": "struct TimersUpgradeable.BlockNumber",
              "name": "voteEnd",
              "type": "tuple"
            },
            {
              "internalType": "bool",
              "name": "executed",
              "type": "bool"
            },
            {
              "internalType": "bool",
              "name": "canceled",
              "type": "bool"
            },
            {
              "internalType": "enum IGovernorUpgradeable.ProposalState",
              "name": "state",
              "type": "uint8"
            }
          ],
          "internalType": "struct GovernorUpgradeable.ProposalCore",
          "name": "proposal",
          "type": "tuple"
        }
      ],
      "stateMutability": "view",
      "type": "function"
    },
    {
      "inputs": [
        {
          "internalType": "address",
          "name": "account",
          "type": "address"
        },
        {
          "internalType": "uint256",
          "name": "blockNumber",
          "type": "uint256"
        }
      ],
      "name": "getVotes",
      "outputs": [
        {
          "internalType": "uint256",
          "name": "",
          "type": "uint256"
        }
      ],
      "stateMutability": "view",
      "type": "function"
    },
    {
      "inputs": [
        {
          "internalType": "address",
          "name": "account",
          "type": "address"
        },
        {
          "internalType": "uint256",
          "name": "blockNumber",
          "type": "uint256"
        },
        {
          "internalType": "bytes",
          "name": "params",
          "type": "bytes"
        }
      ],
      "name": "getVotesWithParams",
      "outputs": [
        {
          "internalType": "uint256",
          "name": "",
          "type": "uint256"
        }
      ],
      "stateMutability": "view",
      "type": "function"
    },
    {
      "inputs": [
        {
          "internalType": "address[]",
          "name": "foundingMembers",
          "type": "address[]"
        },
        {
          "internalType": "uint256",
          "name": "grantQuantity",
          "type": "uint256"
        }
      ],
      "name": "grantToFounders",
      "outputs": [],
      "stateMutability": "nonpayable",
      "type": "function"
    },
    {
      "inputs": [
        {
          "internalType": "uint256",
          "name": "proposalId",
          "type": "uint256"
        },
        {
          "internalType": "address",
          "name": "account",
          "type": "address"
        }
      ],
      "name": "hasVoted",
      "outputs": [
        {
          "internalType": "bool",
          "name": "",
          "type": "bool"
        }
      ],
      "stateMutability": "view",
      "type": "function"
    },
    {
      "inputs": [
        {
          "internalType": "address[]",
          "name": "targets",
          "type": "address[]"
        },
        {
          "internalType": "uint256[]",
          "name": "values",
          "type": "uint256[]"
        },
        {
          "internalType": "bytes[]",
          "name": "calldatas",
          "type": "bytes[]"
        },
        {
          "internalType": "bytes32",
          "name": "descriptionHash",
          "type": "bytes32"
        }
      ],
      "name": "hashProposal",
      "outputs": [
        {
          "internalType": "uint256",
          "name": "",
          "type": "uint256"
        }
      ],
      "stateMutability": "pure",
      "type": "function"
    },
    {
      "inputs": [
        {
          "internalType": "contract IVotesUpgradeable",
          "name": "_token",
          "type": "address"
        }
      ],
      "name": "initialize",
      "outputs": [],
      "stateMutability": "nonpayable",
      "type": "function"
    },
    {
      "inputs": [],
      "name": "name",
      "outputs": [
        {
          "internalType": "string",
          "name": "",
          "type": "string"
        }
      ],
      "stateMutability": "view",
      "type": "function"
    },
    {
      "inputs": [
        {
          "internalType": "address",
          "name": "",
          "type": "address"
        },
        {
          "internalType": "address",
          "name": "",
          "type": "address"
        },
        {
          "internalType": "uint256[]",
          "name": "",
          "type": "uint256[]"
        },
        {
          "internalType": "uint256[]",
          "name": "",
          "type": "uint256[]"
        },
        {
          "internalType": "bytes",
          "name": "",
          "type": "bytes"
        }
      ],
      "name": "onERC1155BatchReceived",
      "outputs": [
        {
          "internalType": "bytes4",
          "name": "",
          "type": "bytes4"
        }
      ],
      "stateMutability": "nonpayable",
      "type": "function"
    },
    {
      "inputs": [
        {
          "internalType": "address",
          "name": "",
          "type": "address"
        },
        {
          "internalType": "address",
          "name": "",
          "type": "address"
        },
        {
          "internalType": "uint256",
          "name": "",
          "type": "uint256"
        },
        {
          "internalType": "uint256",
          "name": "",
          "type": "uint256"
        },
        {
          "internalType": "bytes",
          "name": "",
          "type": "bytes"
        }
      ],
      "name": "onERC1155Received",
      "outputs": [
        {
          "internalType": "bytes4",
          "name": "",
          "type": "bytes4"
        }
      ],
      "stateMutability": "nonpayable",
      "type": "function"
    },
    {
      "inputs": [
        {
          "internalType": "address",
          "name": "",
          "type": "address"
        },
        {
          "internalType": "address",
          "name": "",
          "type": "address"
        },
        {
          "internalType": "uint256",
          "name": "",
          "type": "uint256"
        },
        {
          "internalType": "bytes",
          "name": "",
          "type": "bytes"
        }
      ],
      "name": "onERC721Received",
      "outputs": [
        {
          "internalType": "bytes4",
          "name": "",
          "type": "bytes4"
        }
      ],
      "stateMutability": "nonpayable",
      "type": "function"
    },
    {
      "inputs": [
        {
          "internalType": "uint256",
          "name": "proposalId",
          "type": "uint256"
        }
      ],
      "name": "proposalDeadline",
      "outputs": [
        {
          "internalType": "uint256",
          "name": "",
          "type": "uint256"
        }
      ],
      "stateMutability": "view",
      "type": "function"
    },
    {
      "inputs": [
        {
          "internalType": "uint256",
          "name": "proposalId",
          "type": "uint256"
        }
      ],
      "name": "proposalSnapshot",
      "outputs": [
        {
          "internalType": "uint256",
          "name": "",
          "type": "uint256"
        }
      ],
      "stateMutability": "view",
      "type": "function"
    },
    {
      "inputs": [],
      "name": "proposalThreshold",
      "outputs": [
        {
          "internalType": "uint256",
          "name": "",
          "type": "uint256"
        }
      ],
      "stateMutability": "view",
      "type": "function"
    },
    {
      "inputs": [
        {
          "internalType": "uint256",
          "name": "proposalId",
          "type": "uint256"
        }
      ],
      "name": "proposalVotes",
      "outputs": [
        {
          "internalType": "uint256",
          "name": "againstVotes",
          "type": "uint256"
        },
        {
          "internalType": "uint256",
          "name": "forVotes",
          "type": "uint256"
        },
        {
          "internalType": "uint256",
          "name": "abstainVotes",
          "type": "uint256"
        }
      ],
      "stateMutability": "view",
      "type": "function"
    },
    {
      "inputs": [
        {
          "internalType": "address[]",
          "name": "targets",
          "type": "address[]"
        },
        {
          "internalType": "uint256[]",
          "name": "values",
          "type": "uint256[]"
        },
        {
          "internalType": "bytes[]",
          "name": "calldatas",
          "type": "bytes[]"
        },
        {
          "internalType": "string",
          "name": "description",
          "type": "string"
        }
      ],
      "name": "propose",
      "outputs": [
        {
          "internalType": "uint256",
          "name": "",
          "type": "uint256"
        }
      ],
      "stateMutability": "nonpayable",
      "type": "function"
    },
    {
      "inputs": [
        {
          "internalType": "uint256",
          "name": "blockNumber",
          "type": "uint256"
        }
      ],
      "name": "quorum",
      "outputs": [
        {
          "internalType": "uint256",
          "name": "",
          "type": "uint256"
        }
      ],
      "stateMutability": "view",
      "type": "function"
    },
    {
      "inputs": [],
      "name": "quorumDenominator",
      "outputs": [
        {
          "internalType": "uint256",
          "name": "",
          "type": "uint256"
        }
      ],
      "stateMutability": "view",
      "type": "function"
    },
    {
      "inputs": [
        {
          "internalType": "uint256",
          "name": "blockNumber",
          "type": "uint256"
        }
      ],
      "name": "quorumNumerator",
      "outputs": [
        {
          "internalType": "uint256",
          "name": "",
          "type": "uint256"
        }
      ],
      "stateMutability": "view",
      "type": "function"
    },
    {
      "inputs": [],
      "name": "quorumNumerator",
      "outputs": [
        {
          "internalType": "uint256",
          "name": "",
          "type": "uint256"
        }
      ],
      "stateMutability": "view",
      "type": "function"
    },
    {
      "inputs": [
        {
          "internalType": "address",
          "name": "target",
          "type": "address"
        },
        {
          "internalType": "uint256",
          "name": "value",
          "type": "uint256"
        },
        {
          "internalType": "bytes",
          "name": "data",
          "type": "bytes"
        }
      ],
      "name": "relay",
      "outputs": [],
      "stateMutability": "payable",
      "type": "function"
    },
    {
      "inputs": [
        {
          "internalType": "uint256",
          "name": "proposalId",
          "type": "uint256"
        }
      ],
      "name": "secondProposal",
      "outputs": [],
      "stateMutability": "nonpayable",
      "type": "function"
    },
    {
      "inputs": [
        {
          "internalType": "uint256",
          "name": "newProposalThreshold",
          "type": "uint256"
        }
      ],
      "name": "setProposalThreshold",
      "outputs": [],
      "stateMutability": "nonpayable",
      "type": "function"
    },
    {
      "inputs": [
        {
          "internalType": "uint256",
          "name": "newVotingDelay",
          "type": "uint256"
        }
      ],
      "name": "setVotingDelay",
      "outputs": [],
      "stateMutability": "nonpayable",
      "type": "function"
    },
    {
      "inputs": [
        {
          "internalType": "uint256",
          "name": "newVotingPeriod",
          "type": "uint256"
        }
      ],
      "name": "setVotingPeriod",
      "outputs": [],
      "stateMutability": "nonpayable",
      "type": "function"
    },
    {
      "inputs": [
        {
          "internalType": "uint256",
          "name": "proposalId",
          "type": "uint256"
        }
      ],
      "name": "state",
      "outputs": [
        {
          "internalType": "enum IGovernorUpgradeable.ProposalState",
          "name": "",
          "type": "uint8"
        }
      ],
      "stateMutability": "view",
      "type": "function"
    },
    {
      "inputs": [
        {
          "internalType": "bytes4",
          "name": "interfaceId",
          "type": "bytes4"
        }
      ],
      "name": "supportsInterface",
      "outputs": [
        {
          "internalType": "bool",
          "name": "",
          "type": "bool"
        }
      ],
      "stateMutability": "view",
      "type": "function"
    },
    {
      "inputs": [],
      "name": "token",
      "outputs": [
        {
          "internalType": "contract IVotesUpgradeable",
          "name": "",
          "type": "address"
        }
      ],
      "stateMutability": "view",
      "type": "function"
    },
    {
      "inputs": [
        {
          "internalType": "uint256",
          "name": "newQuorumNumerator",
          "type": "uint256"
        }
      ],
      "name": "updateQuorumNumerator",
      "outputs": [],
      "stateMutability": "nonpayable",
      "type": "function"
    },
    {
      "inputs": [],
      "name": "version",
      "outputs": [
        {
          "internalType": "string",
          "name": "",
          "type": "string"
        }
      ],
      "stateMutability": "view",
      "type": "function"
    },
    {
      "inputs": [],
      "name": "votingDelay",
      "outputs": [
        {
          "internalType": "uint256",
          "name": "",
          "type": "uint256"
        }
      ],
      "stateMutability": "view",
      "type": "function"
    },
    {
      "inputs": [],
      "name": "votingPeriod",
      "outputs": [
        {
          "internalType": "uint256",
          "name": "",
          "type": "uint256"
        }
      ],
      "stateMutability": "view",
      "type": "function"
    },
    {
      "stateMutability": "payable",
      "type": "receive"
    }
  ],
  "bytecode": "0x60806040523480156200001157600080fd5b506200001c62000022565b620000e4565b600054610100900460ff16156200008f5760405162461bcd60e51b815260206004820152602760248201527f496e697469616c697a61626c653a20636f6e747261637420697320696e697469604482015266616c697a696e6760c81b606482015260840160405180910390fd5b60005460ff9081161015620000e2576000805460ff191660ff9081179091556040519081527f7f26b83ff96e1f2b6a682f133852f6798a09c465da95921460cefb38474024989060200160405180910390a15b565b613a7c80620000f46000396000f3fe60806040526004361061024a5760003560e01c80637b3c71d311610139578063c4d66de8116100b6578063ea0217cf1161007a578063ea0217cf1461078e578063eb9019d4146107ae578063ece40cc1146107ce578063f23a6e61146107ee578063f8ce560a1461081a578063fc0c546a1461083a57600080fd5b8063c4d66de8146106b4578063c59057e4146106d4578063d38761b8146106f4578063dd4e2ba514610714578063deaaa7cc1461075a57600080fd5b8063ae125ff9116100fd578063ae125ff914610620578063b58131b014610640578063bc197c8114610655578063c01f9e3714610681578063c28bc2fa146106a157600080fd5b80637b3c71d3146105975780637d5e81e2146105b757806397c3d334146105d75780639a802a6d146105eb578063a7713a701461060b57600080fd5b80633932abb1116101c757806354fd4d501161018b57806354fd4d50146104ed57806356781388146105175780635f398a141461053757806360c4247f1461055757806370b0f6601461057757600080fd5b80633932abb1146103ea5780633bccf4fd146103ff5780633e4f49e61461041f578063438596321461044c578063544ffc9c1461049757600080fd5b8063150b7a021161020e578063150b7a02146103125780632656227d146103565780632d63f693146103695780632fe3e261146103895780633656de21146103bd57600080fd5b806301ffc9a71461025857806302a251a31461028d57806303420181146102b057806306f3f9e6146102d057806306fdde03146102f057600080fd5b3661025357005b005b600080fd5b34801561026457600080fd5b50610278610273366004612aa0565b610873565b60405190151581526020015b60405180910390f35b34801561029957600080fd5b506102a26108e0565b604051908152602001610284565b3480156102bc57600080fd5b506102a26102cb366004612bde565b6108f0565b3480156102dc57600080fd5b506102516102eb366004612c84565b6109e8565b3480156102fc57600080fd5b50610305610a33565b6040516102849190612ced565b34801561031e57600080fd5b5061033d61032d366004612d15565b630a85bd0160e11b949350505050565b6040516001600160e01b03199091168152602001610284565b6102a2610364366004612ef1565b610ac5565b34801561037557600080fd5b506102a2610384366004612c84565b610bf1565b34801561039557600080fd5b506102a27fb3b3f3b703cd84ce352197dcff232b1b5d3cfb2025ce47cf04742d0651f1af8881565b3480156103c957600080fd5b506103dd6103d8366004612c84565b610c28565b6040516102849190612fb8565b3480156103f657600080fd5b506102a2610d06565b34801561040b57600080fd5b506102a261041a36600461300e565b610d11565b34801561042b57600080fd5b5061043f61043a366004612c84565b610d87565b604051610284919061305c565b34801561045857600080fd5b5061027861046736600461306a565b600082815261012f602090815260408083206001600160a01b038516845260030190915290205460ff1692915050565b3480156104a357600080fd5b506104d26104b2366004612c84565b600090815261012f60205260409020805460018201546002909201549092565b60408051938452602084019290925290820152606001610284565b3480156104f957600080fd5b506040805180820190915260018152603160f81b6020820152610305565b34801561052357600080fd5b506102a261053236600461309a565b610e97565b34801561054357600080fd5b506102a26105523660046130c6565b610ec0565b34801561056357600080fd5b506102a2610572366004612c84565b610f0a565b34801561058357600080fd5b50610251610592366004612c84565b610fa5565b3480156105a357600080fd5b506102a26105b2366004613149565b610fe4565b3480156105c357600080fd5b506102a26105d23660046131a2565b611036565b3480156105e357600080fd5b5060646102a2565b3480156105f757600080fd5b506102a2610606366004613256565b61126f565b34801561061757600080fd5b506102a2611286565b34801561062c57600080fd5b5061025161063b3660046132ae565b6112b3565b34801561064c57600080fd5b506102a26113e0565b34801561066157600080fd5b5061033d6106703660046132f2565b63bc197c8160e01b95945050505050565b34801561068d57600080fd5b506102a261069c366004612c84565b6113eb565b6102516106af366004613385565b61141a565b3480156106c057600080fd5b506102516106cf3660046133c8565b6114e1565b3480156106e057600080fd5b506102a26106ef366004612ef1565b611649565b34801561070057600080fd5b5061025161070f366004612c84565b611683565b34801561072057600080fd5b506040805180820190915260208082527f737570706f72743d627261766f2671756f72756d3d666f722c6162737461696e90820152610305565b34801561076657600080fd5b506102a27f150214d74d59b7d1e90c73fc22ef3d991dd0a76b046543d4d80ab92d2a50328f81565b34801561079a57600080fd5b506102516107a9366004612c84565b611739565b3480156107ba57600080fd5b506102a26107c93660046133e5565b611778565b3480156107da57600080fd5b506102516107e9366004612c84565b611799565b3480156107fa57600080fd5b5061033d610809366004613411565b63f23a6e6160e01b95945050505050565b34801561082657600080fd5b506102a2610835366004612c84565b6117d8565b34801561084657600080fd5b506101615461085b906001600160a01b031681565b6040516001600160a01b039091168152602001610284565b60006001600160e01b0319821663bf26d89760e01b14806108a457506001600160e01b031982166379dd796f60e01b145b806108bf57506001600160e01b03198216630271189760e51b145b806108da57506301ffc9a760e01b6001600160e01b03198316145b92915050565b60006108eb60fe5490565b905090565b60008061099461098c7fb3b3f3b703cd84ce352197dcff232b1b5d3cfb2025ce47cf04742d0651f1af888c8c8c8c60405161092c929190613479565b60405180910390208b80519060200120604051602001610971959493929190948552602085019390935260ff9190911660408401526060830152608082015260a00190565b604051602081830303815290604052805190602001206117e3565b868686611831565b90506109da8a828b8b8b8080601f0160208091040260200160405190810160405280939291908181526020018383808284376000920191909152508d925061184f915050565b9a9950505050505050505050565b333014610a105760405162461bcd60e51b8152600401610a0790613489565b60405180910390fd5b610a27565b80610a2060cd6119b3565b03610a1557505b610a3081611a32565b50565b606060cb8054610a42906134c0565b80601f0160208091040260200160405190810160405280929190818152602001828054610a6e906134c0565b8015610abb5780601f10610a9057610100808354040283529160200191610abb565b820191906000526020600020905b815481529060010190602001808311610a9e57829003601f168201915b5050505050905090565b600080610ad486868686611649565b90506000610ae182610d87565b9050600781600a811115610af757610af7612f80565b1480610b145750600881600a811115610b1257610b12612f80565b145b610b6a5760405162461bcd60e51b815260206004820152602160248201527f476f7665726e6f723a2070726f706f73616c206e6f74207375636365737366756044820152601b60fa1b6064820152608401610a07565b600082815260cc602052604090819020600201805460ff19166001179055517f712ae1383f79ac853f8d882153778e0260ef8f03b504e2866e0593e04d2b291f90610bb89084815260200190565b60405180910390a1610bcd8288888888611b7a565b610bda8288888888611c07565b610be78288888888611b7a565b5095945050505050565b600081815260cc602090815260408083208151928301909152546001600160401b0316908190525b6001600160401b031692915050565b6040805160c081018252600060a082018181528252825160208082018552828252830152918101829052606081018290526080810191909152600082815260cc6020908152604091829020825160c08101845281546001600160401b0390811660a083019081528252845180850186526001840154909116815292810192909252600281015460ff80821615159484019490945261010081048416151560608401529192909160808401916201000090910416600a811115610cec57610cec612f80565b600a811115610cfd57610cfd612f80565b90525092915050565b60006108eb60fd5490565b604080517f150214d74d59b7d1e90c73fc22ef3d991dd0a76b046543d4d80ab92d2a50328f602082015290810186905260ff851660608201526000908190610d5f9061098c90608001610971565b9050610d7c87828860405180602001604052806000815250611cfd565b979650505050505050565b600081815260cc60205260408120600281015460ff1615610dab5750600a92915050565b6002810154610100900460ff1615610dc65750600592915050565b6000610dd184610bf1565b905080600003610e235760405162461bcd60e51b815260206004820152601d60248201527f476f7665726e6f723a20756e6b6e6f776e2070726f706f73616c2069640000006044820152606401610a07565b438110610e34575060039392505050565b6000610e3f856113eb565b9050438110610e5357506004949350505050565b610e5c85611d29565b8015610e7c5750600085815261012f602052604090208054600190910154115b15610e8c57506007949350505050565b506006949350505050565b600080339050610eb884828560405180602001604052806000815250611cfd565b949350505050565b600080339050610d7c87828888888080601f0160208091040260200160405190810160405280939291908181526020018383808284376000920191909152508a925061184f915050565b61019554600090808203610f2357505061019454919050565b6000610195610f33600184613510565b81548110610f4357610f43613523565b60009182526020918290206040805180820190915291015463ffffffff8116808352600160201b9091046001600160e01b03169282019290925291508410610f9957602001516001600160e01b03169392505050565b610eb861019585611d61565b333014610fc45760405162461bcd60e51b8152600401610a0790613489565b610fdb565b80610fd460cd6119b3565b03610fc957505b610a3081611e21565b60008033905061102c86828787878080601f016020809104026020016040519081016040528093929190818152602001838380828437600092019190915250611cfd92505050565b9695505050505050565b60006110406113e0565b611050335b6107c9600143613510565b10156110b85760405162461bcd60e51b815260206004820152603160248201527f476f7665726e6f723a2070726f706f73657220766f7465732062656c6f7720706044820152701c9bdc1bdcd85b081d1a1c995cda1bdb19607a1b6064820152608401610a07565b60006110cd8686868680519060200120611649565b905084518651146110f05760405162461bcd60e51b8152600401610a0790613539565b83518651146111115760405162461bcd60e51b8152600401610a0790613539565b600081815260cc6020526040812090600282015462010000900460ff16600a81111561113f5761113f612f80565b146111965760405162461bcd60e51b815260206004820152602160248201527f476f7665726e6f723a2070726f706f73616c20616c72656164792065786973746044820152607360f81b6064820152608401610a07565b60028101805462ff00001916620100001790557f7d84a6263ae0d98d3329bd7b46bb4e8d6f98cd35a7adb45c274c8b7fd5ebd5e0823389898b516001600160401b038111156111e7576111e7612b21565b60405190808252806020026020018201604052801561121a57816020015b60608152602001906001900390816112055790505b50604080516020808201835289546001600160401b03908116928390528351918201845260018b01541690819052915161125d9796959493928e92918e90613643565b60405180910390a15095945050505050565b600061127c848484611e62565b90505b9392505050565b61019554600090156112ab5761129d610195611ed9565b6001600160e01b0316905090565b506101945490565b6101c65460ff16156113075760405162461bcd60e51b815260206004820152601f60248201527f466f756e646572206772616e7420616c726561647920636f6d706c65746564006044820152606401610a07565b6101c6805460ff1916600117905560005b82518110156113db576101615483516001600160a01b039091169063a9059cbb9085908490811061134b5761134b613523565b6020026020010151846040518363ffffffff1660e01b81526004016113859291906001600160a01b03929092168252602082015260400190565b6020604051808303816000875af11580156113a4573d6000803e3d6000fd5b505050506040513d601f19601f820116820180604052508101906113c89190613732565b50806113d381613754565b915050611318565b505050565b60006108eb60ff5490565b600081815260cc602090815260408083208151928301909152600101546001600160401b031690819052610c19565b3330146114395760405162461bcd60e51b8152600401610a0790613489565b611450565b8061144960cd6119b3565b0361143e57505b600080856001600160a01b031685858560405161146e929190613479565b60006040518083038185875af1925050503d80600081146114ab576040519150601f19603f3d011682016040523d82523d6000602084013e6114b0565b606091505b50915091506114d882826040518060600160405280602881526020016139f860289139611f12565b50505050505050565b600054610100900460ff16158080156115015750600054600160ff909116105b8061151b5750303b15801561151b575060005460ff166001145b61157e5760405162461bcd60e51b815260206004820152602e60248201527f496e697469616c697a61626c653a20636f6e747261637420697320616c72656160448201526d191e481a5b9a5d1a585b1a5e995960921b6064820152608401610a07565b6000805460ff1916600117905580156115a1576000805461ff0019166101001790555b6115c96040518060400160405280600781526020016610dbdd5b98da5b60ca1b815250611f2b565b6115d8600161c4e06000611f82565b6115e0611fb4565b6115e982611fdd565b6115f3600461200d565b6101c6805460ff191690558015611645576000805461ff0019169055604051600181527f7f26b83ff96e1f2b6a682f133852f6798a09c465da95921460cefb3847402498906020015b60405180910390a15b5050565b600084848484604051602001611662949392919061376d565b60408051601f19818403018152919052805160209091012095945050505050565b600061168e33611045565b10156116ca5760405162461bcd60e51b815260206004820152600b60248201526a566f74657273206f6e6c7960a81b6044820152606401610a07565b60006116d582610c28565b905060018160800151600a8111156116ef576116ef612f80565b146116f957600080fd5b61170482600261203d565b604080518381523360208201527f299432bdda7d2f4b8ed54b73f54bf39049288dd18fb7c4e59b703e789809eec7910161163c565b3330146117585760405162461bcd60e51b8152600401610a0790613489565b61176f565b8061176860cd6119b3565b0361175d57505b610a308161207a565b600061127f838361179460408051602081019091526000815290565b611e62565b3330146117b85760405162461bcd60e51b8152600401610a0790613489565b6117cf565b806117c860cd6119b3565b036117bd57505b610a308161211b565b60006108da8261215c565b60006108da6117f06121eb565b8360405161190160f01b6020820152602281018390526042810182905260009060620160405160208183030381529060405280519060200120905092915050565b600080600061184287878787612266565b91509150610be78161232a565b600085815260cc60205260408120600461186888610d87565b600a81111561187957611879612f80565b146118d25760405162461bcd60e51b815260206004820152602360248201527f476f7665726e6f723a20766f7465206e6f742063757272656e746c792061637460448201526269766560e81b6064820152608401610a07565b604080516020810190915281546001600160401b0316908190526000906118fb90889086611e62565b905061190a8888888488612474565b835160000361195f57866001600160a01b03167fb8e138887d0aa13bab447e82de9d5c1777041ecd21ca36ba824ff1e6c07ddda48988848960405161195294939291906137b8565b60405180910390a2610d7c565b866001600160a01b03167fe2babfbac5889a709b63bb7f598b324e08bc5a4fb9ec647fb3cbc9ec07eb871289888489896040516119a09594939291906137e0565b60405180910390a2979650505050505050565b60006119ce8254600f81810b600160801b909204900b131590565b156119ec57604051631ed9509560e11b815260040160405180910390fd5b508054600f0b6000818152600180840160205260408220805492905583546fffffffffffffffffffffffffffffffff191692016001600160801b03169190911790915590565b6064811115611ab55760405162461bcd60e51b815260206004820152604360248201527f476f7665726e6f72566f74657351756f72756d4672616374696f6e3a2071756f60448201527f72756d4e756d657261746f72206f7665722071756f72756d44656e6f6d696e616064820152623a37b960e91b608482015260a401610a07565b6000611abf611286565b90508015801590611ad1575061019554155b15611b365760408051808201909152600081526101959060208101611af5846125ef565b6001600160e01b039081169091528254600181018455600093845260209384902083519490930151909116600160201b0263ffffffff909316929092179101555b611b426101958361265c565b505060408051828152602081018490527f0553476bf02ef2726e8ce5ced78d63e26e602e4a2257b1f559418e24b4633997910161163c565b611c00565b8451811015611bfe57306001600160a01b0316858281518110611ba457611ba4613523565b60200260200101516001600160a01b031603611bee57611bee838281518110611bcf57611bcf613523565b60200260200101518051906020012060cd61269290919063ffffffff16565b611bf781613754565b9050611b7f565b505b5050505050565b6000604051806060016040528060278152602001613a2060279139905060005b85518110156114d857600080878381518110611c4557611c45613523565b60200260200101516001600160a01b0316878481518110611c6857611c68613523565b6020026020010151878581518110611c8257611c82613523565b6020026020010151604051611c979190613826565b60006040518083038185875af1925050503d8060008114611cd4576040519150601f19603f3d011682016040523d82523d6000602084013e611cd9565b606091505b5091509150611ce9828286611f12565b50505080611cf690613754565b9050611c27565b6000611d2085858585611d1b60408051602081019091526000815290565b61184f565b95945050505050565b600081815261012f6020526040812060028101546001820154611d4c9190613842565b611d5861083585610bf1565b11159392505050565b6000438210611db25760405162461bcd60e51b815260206004820181905260248201527f436865636b706f696e74733a20626c6f636b206e6f7420796574206d696e65646044820152606401610a07565b6000611dbd836126ce565b84549091506000611dd086848385612733565b90508015611e0b57611df586611de7600184613510565b600091825260209091200190565b54600160201b90046001600160e01b0316611e0e565b60005b6001600160e01b03169695505050505050565b60fd5460408051918252602082018390527fc565b045403dc03c2eea82b81a0465edad9e2e7fc4d97e11421c209da93d7a93910160405180910390a160fd55565b61016154604051630748d63560e31b81526001600160a01b038581166004830152602482018590526000921690633a46b1a890604401602060405180830381865afa158015611eb5573d6000803e3d6000fd5b505050506040513d601f19601f8201168201806040525081019061127c9190613855565b80546000908015611f0957611ef383611de7600184613510565b54600160201b90046001600160e01b031661127f565b60009392505050565b60608315611f2157508161127f565b61127f8383612791565b600054610100900460ff16611f525760405162461bcd60e51b8152600401610a079061386e565b611f7981611f746040805180820190915260018152603160f81b602082015290565b6127bb565b610a30816127fc565b600054610100900460ff16611fa95760405162461bcd60e51b8152600401610a079061386e565b6113db83838361282f565b600054610100900460ff16611fdb5760405162461bcd60e51b8152600401610a079061386e565b565b600054610100900460ff166120045760405162461bcd60e51b8152600401610a079061386e565b610a3081612871565b600054610100900460ff166120345760405162461bcd60e51b8152600401610a079061386e565b610a30816128bb565b600082815260cc6020526040902060028101805483919062ff000019166201000083600a81111561207057612070612f80565b0217905550505050565b600081116120da5760405162461bcd60e51b815260206004820152602760248201527f476f7665726e6f7253657474696e67733a20766f74696e6720706572696f6420604482015266746f6f206c6f7760c81b6064820152608401610a07565b60fe5460408051918252602082018390527f7e3f7f0708a84de9203036abaa450dccc85ad5ff52f78c170f3edb55cf5e8828910160405180910390a160fe55565b60ff5460408051918252602082018390527fccb45da8d5717e6c4544694297c4ba5cf151d455c9bb0ed4fc7a38411bc05461910160405180910390a160ff55565b6000606461216983610f0a565b61016154604051632394e7a360e21b8152600481018690526001600160a01b0390911690638e539e8c90602401602060405180830381865afa1580156121b3573d6000803e3d6000fd5b505050506040513d601f19601f820116820180604052508101906121d79190613855565b6121e191906138b9565b6108da91906138d0565b60006108eb7f8b73c3c69bb8fe3d512ecc4cf759cc79239f7b179b0ffacaa9a75d522b39400f61221a60655490565b6066546040805160208101859052908101839052606081018290524660808201523060a082015260009060c0016040516020818303038152906040528051906020012090509392505050565b6000807f7fffffffffffffffffffffffffffffff5d576e7357a4501ddfe92f46681b20a083111561229d5750600090506003612321565b6040805160008082526020820180845289905260ff881692820192909252606081018690526080810185905260019060a0016020604051602081039080840390855afa1580156122f1573d6000803e3d6000fd5b5050604051601f1901519150506001600160a01b03811661231a57600060019250925050612321565b9150600090505b94509492505050565b600081600481111561233e5761233e612f80565b036123465750565b600181600481111561235a5761235a612f80565b036123a75760405162461bcd60e51b815260206004820152601860248201527f45434453413a20696e76616c6964207369676e617475726500000000000000006044820152606401610a07565b60028160048111156123bb576123bb612f80565b036124085760405162461bcd60e51b815260206004820152601f60248201527f45434453413a20696e76616c6964207369676e6174757265206c656e677468006044820152606401610a07565b600381600481111561241c5761241c612f80565b03610a305760405162461bcd60e51b815260206004820152602260248201527f45434453413a20696e76616c6964207369676e6174757265202773272076616c604482015261756560f01b6064820152608401610a07565b600085815261012f602090815260408083206001600160a01b0388168452600381019092529091205460ff16156124fd5760405162461bcd60e51b815260206004820152602760248201527f476f7665726e6f72566f74696e6753696d706c653a20766f746520616c726561604482015266191e4818d85cdd60ca1b6064820152608401610a07565b6001600160a01b03851660009081526003820160205260409020805460ff1916600117905560ff8416612549578281600001600082825461253e9190613842565b90915550611bfe9050565b60001960ff851601612569578281600101600082825461253e9190613842565b60011960ff851601612589578281600201600082825461253e9190613842565b60405162461bcd60e51b815260206004820152603560248201527f476f7665726e6f72566f74696e6753696d706c653a20696e76616c69642076616044820152746c756520666f7220656e756d20566f74655479706560581b6064820152608401610a07565b60006001600160e01b038211156126585760405162461bcd60e51b815260206004820152602760248201527f53616665436173743a2076616c756520646f65736e27742066697420696e20326044820152663234206269747360c81b6064820152608401610a07565b5090565b60008061267a8461266c436126ce565b612675866125ef565b6128e2565b6001600160e01b0391821693501690505b9250929050565b8154600160801b90819004600f0b6000818152600180860160205260409091209390935583546001600160801b03908116939091011602179055565b600063ffffffff8211156126585760405162461bcd60e51b815260206004820152602660248201527f53616665436173743a2076616c756520646f65736e27742066697420696e203360448201526532206269747360d01b6064820152608401610a07565b60005b8183101561278957600061274a8484612a85565b60008781526020902090915063ffffffff86169082015463ffffffff16111561277557809250612783565b612780816001613842565b93505b50612736565b509392505050565b8151156127a15781518083602001fd5b8060405162461bcd60e51b8152600401610a079190612ced565b600054610100900460ff166127e25760405162461bcd60e51b8152600401610a079061386e565b815160209283012081519190920120606591909155606655565b600054610100900460ff166128235760405162461bcd60e51b8152600401610a079061386e565b60cb6116458282613938565b600054610100900460ff166128565760405162461bcd60e51b8152600401610a079061386e565b61285f83611e21565b6128688261207a565b6113db8161211b565b600054610100900460ff166128985760405162461bcd60e51b8152600401610a079061386e565b61016180546001600160a01b0319166001600160a01b0392909216919091179055565b600054610100900460ff16610a275760405162461bcd60e51b8152600401610a079061386e565b825460009081908015612a2857600061290087611de7600185613510565b60408051808201909152905463ffffffff808216808452600160201b9092046001600160e01b0316602084015291925090871610156129815760405162461bcd60e51b815260206004820152601760248201527f436865636b706f696e743a20696e76616c6964206b65790000000000000000006044820152606401610a07565b805163ffffffff8088169116036129c957846129a288611de7600186613510565b80546001600160e01b0392909216600160201b0263ffffffff909216919091179055612a18565b6040805180820190915263ffffffff80881682526001600160e01b0380881660208085019182528b54600181018d5560008d81529190912094519151909216600160201b029216919091179101555b602001519250839150612a7d9050565b50506040805180820190915263ffffffff80851682526001600160e01b0380851660208085019182528854600181018a5560008a815291822095519251909316600160201b0291909316179201919091559050815b935093915050565b6000612a9460028484186138d0565b61127f90848416613842565b600060208284031215612ab257600080fd5b81356001600160e01b03198116811461127f57600080fd5b803560ff81168114612adb57600080fd5b919050565b60008083601f840112612af257600080fd5b5081356001600160401b03811115612b0957600080fd5b60208301915083602082850101111561268b57600080fd5b634e487b7160e01b600052604160045260246000fd5b604051601f8201601f191681016001600160401b0381118282101715612b5f57612b5f612b21565b604052919050565b60006001600160401b03831115612b8057612b80612b21565b612b93601f8401601f1916602001612b37565b9050828152838383011115612ba757600080fd5b828260208301376000602084830101529392505050565b600082601f830112612bcf57600080fd5b61127f83833560208501612b67565b60008060008060008060008060e0898b031215612bfa57600080fd5b88359750612c0a60208a01612aca565b965060408901356001600160401b0380821115612c2657600080fd5b612c328c838d01612ae0565b909850965060608b0135915080821115612c4b57600080fd5b50612c588b828c01612bbe565b945050612c6760808a01612aca565b925060a0890135915060c089013590509295985092959890939650565b600060208284031215612c9657600080fd5b5035919050565b60005b83811015612cb8578181015183820152602001612ca0565b50506000910152565b60008151808452612cd9816020860160208601612c9d565b601f01601f19169290920160200192915050565b60208152600061127f6020830184612cc1565b6001600160a01b0381168114610a3057600080fd5b60008060008060808587031215612d2b57600080fd5b8435612d3681612d00565b93506020850135612d4681612d00565b92506040850135915060608501356001600160401b03811115612d6857600080fd5b612d7487828801612bbe565b91505092959194509250565b60006001600160401b03821115612d9957612d99612b21565b5060051b60200190565b600082601f830112612db457600080fd5b81356020612dc9612dc483612d80565b612b37565b82815260059290921b84018101918181019086841115612de857600080fd5b8286015b84811015612e0c578035612dff81612d00565b8352918301918301612dec565b509695505050505050565b600082601f830112612e2857600080fd5b81356020612e38612dc483612d80565b82815260059290921b84018101918181019086841115612e5757600080fd5b8286015b84811015612e0c5780358352918301918301612e5b565b600082601f830112612e8357600080fd5b81356020612e93612dc483612d80565b82815260059290921b84018101918181019086841115612eb257600080fd5b8286015b84811015612e0c5780356001600160401b03811115612ed55760008081fd5b612ee38986838b0101612bbe565b845250918301918301612eb6565b60008060008060808587031215612f0757600080fd5b84356001600160401b0380821115612f1e57600080fd5b612f2a88838901612da3565b95506020870135915080821115612f4057600080fd5b612f4c88838901612e17565b94506040870135915080821115612f6257600080fd5b50612f6f87828801612e72565b949793965093946060013593505050565b634e487b7160e01b600052602160045260246000fd5b600b8110612fb457634e487b7160e01b600052602160045260246000fd5b9052565b600060a0820190506001600160401b0380845151168352806020850151511660208401525060408301511515604083015260608301511515606083015260808301516130076080840182612f96565b5092915050565b600080600080600060a0868803121561302657600080fd5b8535945061303660208701612aca565b935061304460408701612aca565b94979396509394606081013594506080013592915050565b602081016108da8284612f96565b6000806040838503121561307d57600080fd5b82359150602083013561308f81612d00565b809150509250929050565b600080604083850312156130ad57600080fd5b823591506130bd60208401612aca565b90509250929050565b6000806000806000608086880312156130de57600080fd5b853594506130ee60208701612aca565b935060408601356001600160401b038082111561310a57600080fd5b61311689838a01612ae0565b9095509350606088013591508082111561312f57600080fd5b5061313c88828901612bbe565b9150509295509295909350565b6000806000806060858703121561315f57600080fd5b8435935061316f60208601612aca565b925060408501356001600160401b0381111561318a57600080fd5b61319687828801612ae0565b95989497509550505050565b600080600080608085870312156131b857600080fd5b84356001600160401b03808211156131cf57600080fd5b6131db88838901612da3565b955060208701359150808211156131f157600080fd5b6131fd88838901612e17565b9450604087013591508082111561321357600080fd5b61321f88838901612e72565b9350606087013591508082111561323557600080fd5b508501601f8101871361324757600080fd5b612d7487823560208401612b67565b60008060006060848603121561326b57600080fd5b833561327681612d00565b92506020840135915060408401356001600160401b0381111561329857600080fd5b6132a486828701612bbe565b9150509250925092565b600080604083850312156132c157600080fd5b82356001600160401b038111156132d757600080fd5b6132e385828601612da3565b95602094909401359450505050565b600080600080600060a0868803121561330a57600080fd5b853561331581612d00565b9450602086013561332581612d00565b935060408601356001600160401b038082111561334157600080fd5b61334d89838a01612e17565b9450606088013591508082111561336357600080fd5b61336f89838a01612e17565b9350608088013591508082111561312f57600080fd5b6000806000806060858703121561339b57600080fd5b84356133a681612d00565b93506020850135925060408501356001600160401b0381111561318a57600080fd5b6000602082840312156133da57600080fd5b813561127f81612d00565b600080604083850312156133f857600080fd5b823561340381612d00565b946020939093013593505050565b600080600080600060a0868803121561342957600080fd5b853561343481612d00565b9450602086013561344481612d00565b9350604086013592506060860135915060808601356001600160401b0381111561346d57600080fd5b61313c88828901612bbe565b8183823760009101908152919050565b60208082526018908201527f476f7665726e6f723a206f6e6c79476f7665726e616e63650000000000000000604082015260600190565b600181811c908216806134d457607f821691505b6020821081036134f457634e487b7160e01b600052602260045260246000fd5b50919050565b634e487b7160e01b600052601160045260246000fd5b818103818111156108da576108da6134fa565b634e487b7160e01b600052603260045260246000fd5b60208082526021908201527f476f7665726e6f723a20696e76616c69642070726f706f73616c206c656e67746040820152600d60fb1b606082015260800190565b600081518084526020808501945080840160005b838110156135b35781516001600160a01b03168752958201959082019060010161358e565b509495945050505050565b600081518084526020808501945080840160005b838110156135b3578151875295820195908201906001016135d2565b600081518084526020808501808196508360051b8101915082860160005b85811015613636578284038952613624848351612cc1565b9885019893509084019060010161360c565b5091979650505050505050565b60006101208b8352602060018060a01b038c168185015281604085015261366c8285018c61357a565b91508382036060850152613680828b6135be565b915083820360808501528189518084528284019150828160051b850101838c0160005b838110156136d157601f198784030185526136bf838351612cc1565b948601949250908501906001016136a3565b505086810360a08801526136e5818c6135ee565b94505050505061370060c08401876001600160401b03169052565b6001600160401b03851660e08401528281036101008401526137228185612cc1565b9c9b505050505050505050505050565b60006020828403121561374457600080fd5b8151801515811461127f57600080fd5b600060018201613766576137666134fa565b5060010190565b608081526000613780608083018761357a565b828103602084015261379281876135be565b905082810360408401526137a681866135ee565b91505082606083015295945050505050565b84815260ff8416602082015282604082015260806060820152600061102c6080830184612cc1565b85815260ff8516602082015283604082015260a06060820152600061380860a0830185612cc1565b828103608084015261381a8185612cc1565b98975050505050505050565b60008251613838818460208701612c9d565b9190910192915050565b808201808211156108da576108da6134fa565b60006020828403121561386757600080fd5b5051919050565b6020808252602b908201527f496e697469616c697a61626c653a20636f6e7472616374206973206e6f74206960408201526a6e697469616c697a696e6760a81b606082015260800190565b80820281158282048414176108da576108da6134fa565b6000826138ed57634e487b7160e01b600052601260045260246000fd5b500490565b601f8211156113db57600081815260208120601f850160051c810160208610156139195750805b601f850160051c820191505b81811015611bfe57828155600101613925565b81516001600160401b0381111561395157613951612b21565b6139658161395f84546134c0565b846138f2565b602080601f83116001811461399a57600084156139825750858301515b600019600386901b1c1916600185901b178555611bfe565b600085815260208120601f198616915b828110156139c9578886015182559484019460019091019084016139aa565b50858210156139e75787850151600019600388901b60f8161c191681555b5050505050600190811b0190555056fe476f7665726e6f723a2072656c617920726576657274656420776974686f7574206d657373616765476f7665726e6f723a2063616c6c20726576657274656420776974686f7574206d657373616765a264697066735822122052f5ca6daef92f9e4d81d4b1cc8fc7223a8955b6ca11961d7f8313d33cc974ae64736f6c63430008110033",
  "linkReferences": {},
  "deployedLinkReferences": {}
}