{
  "_format": "hh-sol-artifact-1",
  "contractName": "Council",
  "sourceName": "contracts/Council.sol",
  "abi": [
    {
      "inputs": [],
      "stateMutability": "nonpayable",
      "type": "constructor"
    },
    {
      "inputs": [],
      "name": "Empty",
      "type": "error"
    },
    {
      "anonymous": false,
      "inputs": [
        {
          "indexed": false,
          "internalType": "uint256",
          "name": "amendmentId",
          "type": "uint256"
        },
        {
          "indexed": false,
          "internalType": "uint256",
          "name": "proposalId",
          "type": "uint256"
        }
      ],
      "name": "AmendmentAccepted",
      "type": "event"
    },
    {
      "anonymous": false,
      "inputs": [
        {
          "indexed": false,
          "internalType": "uint256",
          "name": "proposalId",
          "type": "uint256"
        },
        {
          "indexed": false,
          "internalType": "uint256",
          "name": "amendmentId",
          "type": "uint256"
        },
        {
          "indexed": false,
          "internalType": "address",
          "name": "proposer",
          "type": "address"
        },
        {
          "indexed": false,
          "internalType": "address[]",
          "name": "targets",
          "type": "address[]"
        },
        {
          "indexed": false,
          "internalType": "uint256[]",
          "name": "values",
          "type": "uint256[]"
        },
        {
          "indexed": false,
          "internalType": "string[]",
          "name": "signatures",
          "type": "string[]"
        },
        {
          "indexed": false,
          "internalType": "bytes[]",
          "name": "calldatas",
          "type": "bytes[]"
        },
        {
          "indexed": false,
          "internalType": "uint256",
          "name": "startBlock",
          "type": "uint256"
        },
        {
          "indexed": false,
          "internalType": "uint256",
          "name": "endBlock",
          "type": "uint256"
        },
        {
          "indexed": false,
          "internalType": "string",
          "name": "description",
          "type": "string"
        },
        {
          "indexed": false,
          "internalType": "string",
          "name": "cid",
          "type": "string"
        }
      ],
      "name": "AmendmentCreated",
      "type": "event"
    },
    {
      "anonymous": false,
      "inputs": [
        {
          "indexed": false,
          "internalType": "uint256",
          "name": "proposalId",
          "type": "uint256"
        },
        {
          "indexed": false,
          "internalType": "address",
          "name": "commenter",
          "type": "address"
        },
        {
          "indexed": false,
          "internalType": "uint256",
          "name": "parent",
          "type": "uint256"
        },
        {
          "indexed": false,
          "internalType": "string",
          "name": "cid",
          "type": "string"
        },
        {
          "indexed": false,
          "internalType": "enum ICouncil.Sentiment",
          "name": "sentiment",
          "type": "uint8"
        }
      ],
      "name": "CommentEvent",
      "type": "event"
    },
    {
      "anonymous": false,
      "inputs": [
        {
          "indexed": false,
          "internalType": "uint8",
          "name": "version",
          "type": "uint8"
        }
      ],
      "name": "Initialized",
      "type": "event"
    },
    {
      "anonymous": false,
      "inputs": [
        {
          "indexed": false,
          "internalType": "uint256",
          "name": "proposalId",
          "type": "uint256"
        },
        {
          "indexed": false,
          "internalType": "address",
          "name": "requestor",
          "type": "address"
        }
      ],
      "name": "MoveToVoteRequested",
      "type": "event"
    },
    {
      "anonymous": false,
      "inputs": [
        {
          "indexed": false,
          "internalType": "uint256",
          "name": "proposalId",
          "type": "uint256"
        }
      ],
      "name": "ProposalCanceled",
      "type": "event"
    },
    {
      "anonymous": false,
      "inputs": [
        {
          "indexed": false,
          "internalType": "uint256",
          "name": "proposalId",
          "type": "uint256"
        },
        {
          "indexed": false,
          "internalType": "address",
          "name": "proposer",
          "type": "address"
        },
        {
          "indexed": false,
          "internalType": "address[]",
          "name": "targets",
          "type": "address[]"
        },
        {
          "indexed": false,
          "internalType": "uint256[]",
          "name": "values",
          "type": "uint256[]"
        },
        {
          "indexed": false,
          "internalType": "string[]",
          "name": "signatures",
          "type": "string[]"
        },
        {
          "indexed": false,
          "internalType": "bytes[]",
          "name": "calldatas",
          "type": "bytes[]"
        },
        {
          "indexed": false,
          "internalType": "uint256",
          "name": "startBlock",
          "type": "uint256"
        },
        {
          "indexed": false,
          "internalType": "uint256",
          "name": "endBlock",
          "type": "uint256"
        },
        {
          "indexed": false,
          "internalType": "string",
          "name": "description",
          "type": "string"
        },
        {
          "indexed": false,
          "internalType": "string",
          "name": "cid",
          "type": "string"
        }
      ],
      "name": "ProposalCreated",
      "type": "event"
    },
    {
      "anonymous": false,
      "inputs": [
        {
          "indexed": false,
          "internalType": "uint256",
          "name": "proposalId",
          "type": "uint256"
        }
      ],
      "name": "ProposalExecuted",
      "type": "event"
    },
    {
      "anonymous": false,
      "inputs": [
        {
          "indexed": false,
          "internalType": "uint256",
          "name": "proposalId",
          "type": "uint256"
        },
        {
          "indexed": false,
          "internalType": "address",
          "name": "seconder",
          "type": "address"
        }
      ],
      "name": "ProposalSeconded",
      "type": "event"
    },
    {
      "anonymous": false,
      "inputs": [
        {
          "indexed": false,
          "internalType": "uint256",
          "name": "oldProposalThreshold",
          "type": "uint256"
        },
        {
          "indexed": false,
          "internalType": "uint256",
          "name": "newProposalThreshold",
          "type": "uint256"
        }
      ],
      "name": "ProposalThresholdSet",
      "type": "event"
    },
    {
      "anonymous": false,
      "inputs": [
        {
          "indexed": false,
          "internalType": "uint256",
          "name": "oldQuorumNumerator",
          "type": "uint256"
        },
        {
          "indexed": false,
          "internalType": "uint256",
          "name": "newQuorumNumerator",
          "type": "uint256"
        }
      ],
      "name": "QuorumNumeratorUpdated",
      "type": "event"
    },
    {
      "anonymous": false,
      "inputs": [
        {
          "indexed": true,
          "internalType": "address",
          "name": "voter",
          "type": "address"
        },
        {
          "indexed": false,
          "internalType": "uint256",
          "name": "proposalId",
          "type": "uint256"
        },
        {
          "indexed": false,
          "internalType": "uint8",
          "name": "support",
          "type": "uint8"
        },
        {
          "indexed": false,
          "internalType": "uint256",
          "name": "weight",
          "type": "uint256"
        },
        {
          "indexed": false,
          "internalType": "string",
          "name": "reason",
          "type": "string"
        }
      ],
      "name": "VoteCast",
      "type": "event"
    },
    {
      "anonymous": false,
      "inputs": [
        {
          "indexed": true,
          "internalType": "address",
          "name": "voter",
          "type": "address"
        },
        {
          "indexed": false,
          "internalType": "uint256",
          "name": "proposalId",
          "type": "uint256"
        },
        {
          "indexed": false,
          "internalType": "uint8",
          "name": "support",
          "type": "uint8"
        },
        {
          "indexed": false,
          "internalType": "uint256",
          "name": "weight",
          "type": "uint256"
        },
        {
          "indexed": false,
          "internalType": "string",
          "name": "reason",
          "type": "string"
        },
        {
          "indexed": false,
          "internalType": "bytes",
          "name": "params",
          "type": "bytes"
        }
      ],
      "name": "VoteCastWithParams",
      "type": "event"
    },
    {
      "anonymous": false,
      "inputs": [
        {
          "indexed": false,
          "internalType": "uint256",
          "name": "oldVotingDelay",
          "type": "uint256"
        },
        {
          "indexed": false,
          "internalType": "uint256",
          "name": "newVotingDelay",
          "type": "uint256"
        }
      ],
      "name": "VotingDelaySet",
      "type": "event"
    },
    {
      "anonymous": false,
      "inputs": [
        {
          "indexed": false,
          "internalType": "uint256",
          "name": "oldVotingPeriod",
          "type": "uint256"
        },
        {
          "indexed": false,
          "internalType": "uint256",
          "name": "newVotingPeriod",
          "type": "uint256"
        }
      ],
      "name": "VotingPeriodSet",
      "type": "event"
    },
    {
      "inputs": [],
      "name": "BALLOT_TYPEHASH",
      "outputs": [
        {
          "internalType": "bytes32",
          "name": "",
          "type": "bytes32"
        }
      ],
      "stateMutability": "view",
      "type": "function"
    },
    {
      "inputs": [],
      "name": "COUNTING_MODE",
      "outputs": [
        {
          "internalType": "string",
          "name": "",
          "type": "string"
        }
      ],
      "stateMutability": "pure",
      "type": "function"
    },
    {
      "inputs": [],
      "name": "EXTENDED_BALLOT_TYPEHASH",
      "outputs": [
        {
          "internalType": "bytes32",
          "name": "",
          "type": "bytes32"
        }
      ],
      "stateMutability": "view",
      "type": "function"
    },
    {
      "inputs": [
        {
          "internalType": "uint256",
          "name": "",
          "type": "uint256"
        }
      ],
      "name": "_proposals",
      "outputs": [
        {
          "components": [
            {
              "internalType": "uint64",
              "name": "_deadline",
              "type": "uint64"
            }
          ],
          "internalType": "struct TimersUpgradeable.BlockNumber",
          "name": "voteStart",
          "type": "tuple"
        },
        {
          "components": [
            {
              "internalType": "uint64",
              "name": "_deadline",
              "type": "uint64"
            }
          ],
          "internalType": "struct TimersUpgradeable.BlockNumber",
          "name": "voteEnd",
          "type": "tuple"
        },
        {
          "internalType": "bool",
          "name": "executed",
          "type": "bool"
        },
        {
          "internalType": "bool",
          "name": "canceled",
          "type": "bool"
        },
        {
          "internalType": "enum IGovernorUpgradeable.ProposalState",
          "name": "state",
          "type": "uint8"
        },
        {
          "internalType": "uint256",
          "name": "parent",
          "type": "uint256"
        },
        {
          "internalType": "string",
          "name": "cid",
          "type": "string"
        }
      ],
      "stateMutability": "view",
      "type": "function"
    },
    {
      "inputs": [
        {
          "internalType": "uint256",
          "name": "proposalId",
          "type": "uint256"
        },
        {
          "internalType": "uint256",
          "name": "parent",
          "type": "uint256"
        },
        {
          "internalType": "string",
          "name": "cid",
          "type": "string"
        },
        {
          "internalType": "enum ICouncil.Sentiment",
          "name": "sentiment",
          "type": "uint8"
        }
      ],
      "name": "addComment",
      "outputs": [],
      "stateMutability": "nonpayable",
      "type": "function"
    },
    {
      "inputs": [
        {
          "internalType": "uint256",
          "name": "proposalId",
          "type": "uint256"
        },
        {
          "internalType": "uint8",
          "name": "support",
          "type": "uint8"
        }
      ],
      "name": "castVote",
      "outputs": [
        {
          "internalType": "uint256",
          "name": "",
          "type": "uint256"
        }
      ],
      "stateMutability": "nonpayable",
      "type": "function"
    },
    {
      "inputs": [
        {
          "internalType": "uint256",
          "name": "proposalId",
          "type": "uint256"
        },
        {
          "internalType": "uint8",
          "name": "support",
          "type": "uint8"
        },
        {
          "internalType": "uint8",
          "name": "v",
          "type": "uint8"
        },
        {
          "internalType": "bytes32",
          "name": "r",
          "type": "bytes32"
        },
        {
          "internalType": "bytes32",
          "name": "s",
          "type": "bytes32"
        }
      ],
      "name": "castVoteBySig",
      "outputs": [
        {
          "internalType": "uint256",
          "name": "",
          "type": "uint256"
        }
      ],
      "stateMutability": "nonpayable",
      "type": "function"
    },
    {
      "inputs": [
        {
          "internalType": "uint256",
          "name": "proposalId",
          "type": "uint256"
        },
        {
          "internalType": "uint8",
          "name": "support",
          "type": "uint8"
        },
        {
          "internalType": "string",
          "name": "reason",
          "type": "string"
        }
      ],
      "name": "castVoteWithReason",
      "outputs": [
        {
          "internalType": "uint256",
          "name": "",
          "type": "uint256"
        }
      ],
      "stateMutability": "nonpayable",
      "type": "function"
    },
    {
      "inputs": [
        {
          "internalType": "uint256",
          "name": "proposalId",
          "type": "uint256"
        },
        {
          "internalType": "uint8",
          "name": "support",
          "type": "uint8"
        },
        {
          "internalType": "string",
          "name": "reason",
          "type": "string"
        },
        {
          "internalType": "bytes",
          "name": "params",
          "type": "bytes"
        }
      ],
      "name": "castVoteWithReasonAndParams",
      "outputs": [
        {
          "internalType": "uint256",
          "name": "",
          "type": "uint256"
        }
      ],
      "stateMutability": "nonpayable",
      "type": "function"
    },
    {
      "inputs": [
        {
          "internalType": "uint256",
          "name": "proposalId",
          "type": "uint256"
        },
        {
          "internalType": "uint8",
          "name": "support",
          "type": "uint8"
        },
        {
          "internalType": "string",
          "name": "reason",
          "type": "string"
        },
        {
          "internalType": "bytes",
          "name": "params",
          "type": "bytes"
        },
        {
          "internalType": "uint8",
          "name": "v",
          "type": "uint8"
        },
        {
          "internalType": "bytes32",
          "name": "r",
          "type": "bytes32"
        },
        {
          "internalType": "bytes32",
          "name": "s",
          "type": "bytes32"
        }
      ],
      "name": "castVoteWithReasonAndParamsBySig",
      "outputs": [
        {
          "internalType": "uint256",
          "name": "",
          "type": "uint256"
        }
      ],
      "stateMutability": "nonpayable",
      "type": "function"
    },
    {
      "inputs": [
        {
          "internalType": "uint256",
          "name": "proposal",
          "type": "uint256"
        },
        {
          "internalType": "uint256",
          "name": "parent",
          "type": "uint256"
        },
        {
          "internalType": "string",
          "name": "cid",
          "type": "string"
        },
        {
          "internalType": "enum ICouncil.Sentiment",
          "name": "sentiment",
          "type": "uint8"
        }
      ],
      "name": "commentHash",
      "outputs": [
        {
          "internalType": "uint256",
          "name": "hash",
          "type": "uint256"
        }
      ],
      "stateMutability": "pure",
      "type": "function"
    },
    {
      "inputs": [
        {
          "internalType": "uint256",
          "name": "",
          "type": "uint256"
        }
      ],
      "name": "comments",
      "outputs": [
        {
          "internalType": "string",
          "name": "cid",
          "type": "string"
        },
        {
          "internalType": "uint256",
          "name": "parent",
          "type": "uint256"
        },
        {
          "internalType": "uint256",
          "name": "proposal",
          "type": "uint256"
        },
        {
          "internalType": "uint256",
          "name": "upvotes",
          "type": "uint256"
        },
        {
          "internalType": "uint256",
          "name": "downvotes",
          "type": "uint256"
        },
        {
          "internalType": "enum ICouncil.Sentiment",
          "name": "sentiment",
          "type": "uint8"
        }
      ],
      "stateMutability": "view",
      "type": "function"
    },
    {
      "inputs": [
        {
          "internalType": "address[]",
          "name": "targets",
          "type": "address[]"
        },
        {
          "internalType": "uint256[]",
          "name": "values",
          "type": "uint256[]"
        },
        {
          "internalType": "bytes[]",
          "name": "calldatas",
          "type": "bytes[]"
        },
        {
          "internalType": "bytes32",
          "name": "descriptionHash",
          "type": "bytes32"
        }
      ],
      "name": "execute",
      "outputs": [
        {
          "internalType": "uint256",
          "name": "",
          "type": "uint256"
        }
      ],
      "stateMutability": "payable",
      "type": "function"
    },
    {
      "inputs": [
        {
          "internalType": "uint256",
          "name": "proposalId",
          "type": "uint256"
        }
      ],
      "name": "getProposalById",
      "outputs": [
        {
          "components": [
            {
              "components": [
                {
                  "internalType": "uint64",
                  "name": "_deadline",
                  "type": "uint64"
                }
              ],
              "internalType": "struct TimersUpgradeable.BlockNumber",
              "name": "voteStart",
              "type": "tuple"
            },
            {
              "components": [
                {
                  "internalType": "uint64",
                  "name": "_deadline",
                  "type": "uint64"
                }
              ],
              "internalType": "struct TimersUpgradeable.BlockNumber",
              "name": "voteEnd",
              "type": "tuple"
            },
            {
              "internalType": "bool",
              "name": "executed",
              "type": "bool"
            },
            {
              "internalType": "bool",
              "name": "canceled",
              "type": "bool"
            },
            {
              "internalType": "enum IGovernorUpgradeable.ProposalState",
              "name": "state",
              "type": "uint8"
            },
            {
              "internalType": "uint256",
              "name": "parent",
              "type": "uint256"
            },
            {
              "internalType": "string",
              "name": "cid",
              "type": "string"
            }
          ],
          "internalType": "struct GovernorUpgradeable.ProposalCore",
          "name": "proposal",
          "type": "tuple"
        }
      ],
      "stateMutability": "view",
      "type": "function"
    },
    {
      "inputs": [
        {
          "internalType": "address",
          "name": "account",
          "type": "address"
        },
        {
          "internalType": "uint256",
          "name": "blockNumber",
          "type": "uint256"
        }
      ],
      "name": "getVotes",
      "outputs": [
        {
          "internalType": "uint256",
          "name": "",
          "type": "uint256"
        }
      ],
      "stateMutability": "view",
      "type": "function"
    },
    {
      "inputs": [
        {
          "internalType": "address",
          "name": "account",
          "type": "address"
        },
        {
          "internalType": "uint256",
          "name": "blockNumber",
          "type": "uint256"
        },
        {
          "internalType": "bytes",
          "name": "params",
          "type": "bytes"
        }
      ],
      "name": "getVotesWithParams",
      "outputs": [
        {
          "internalType": "uint256",
          "name": "",
          "type": "uint256"
        }
      ],
      "stateMutability": "view",
      "type": "function"
    },
    {
      "inputs": [
        {
          "internalType": "address[]",
          "name": "foundingMembers",
          "type": "address[]"
        },
        {
          "internalType": "uint256",
          "name": "grantQuantity",
          "type": "uint256"
        }
      ],
      "name": "grantToFounders",
      "outputs": [],
      "stateMutability": "nonpayable",
      "type": "function"
    },
    {
      "inputs": [
        {
          "internalType": "uint256",
          "name": "proposalId",
          "type": "uint256"
        },
        {
          "internalType": "address",
          "name": "account",
          "type": "address"
        }
      ],
      "name": "hasVoted",
      "outputs": [
        {
          "internalType": "bool",
          "name": "",
          "type": "bool"
        }
      ],
      "stateMutability": "view",
      "type": "function"
    },
    {
      "inputs": [
        {
          "internalType": "uint256",
          "name": "proposalId",
          "type": "uint256"
        },
        {
          "internalType": "address[]",
          "name": "targets",
          "type": "address[]"
        },
        {
          "internalType": "uint256[]",
          "name": "values",
          "type": "uint256[]"
        },
        {
          "internalType": "bytes[]",
          "name": "calldatas",
          "type": "bytes[]"
        },
        {
          "internalType": "string",
          "name": "description",
          "type": "string"
        },
        {
          "internalType": "string",
          "name": "cid",
          "type": "string"
        }
      ],
      "name": "hashAmendment",
      "outputs": [
        {
          "internalType": "uint256",
          "name": "",
          "type": "uint256"
        }
      ],
      "stateMutability": "pure",
      "type": "function"
    },
    {
      "inputs": [
        {
          "internalType": "address[]",
          "name": "targets",
          "type": "address[]"
        },
        {
          "internalType": "uint256[]",
          "name": "values",
          "type": "uint256[]"
        },
        {
          "internalType": "bytes[]",
          "name": "calldatas",
          "type": "bytes[]"
        },
        {
          "internalType": "bytes32",
          "name": "descriptionHash",
          "type": "bytes32"
        }
      ],
      "name": "hashProposal",
      "outputs": [
        {
          "internalType": "uint256",
          "name": "",
          "type": "uint256"
        }
      ],
      "stateMutability": "pure",
      "type": "function"
    },
    {
      "inputs": [
        {
          "internalType": "contract IVotesUpgradeable",
          "name": "_token",
          "type": "address"
        }
      ],
      "name": "initialize",
      "outputs": [],
      "stateMutability": "nonpayable",
      "type": "function"
    },
    {
      "inputs": [
        {
          "internalType": "uint256",
          "name": "proposalId",
          "type": "uint256"
        }
      ],
      "name": "moveToVote",
      "outputs": [],
      "stateMutability": "nonpayable",
      "type": "function"
    },
    {
      "inputs": [],
      "name": "name",
      "outputs": [
        {
          "internalType": "string",
          "name": "",
          "type": "string"
        }
      ],
      "stateMutability": "view",
      "type": "function"
    },
    {
      "inputs": [
        {
          "internalType": "address",
          "name": "",
          "type": "address"
        },
        {
          "internalType": "address",
          "name": "",
          "type": "address"
        },
        {
          "internalType": "uint256[]",
          "name": "",
          "type": "uint256[]"
        },
        {
          "internalType": "uint256[]",
          "name": "",
          "type": "uint256[]"
        },
        {
          "internalType": "bytes",
          "name": "",
          "type": "bytes"
        }
      ],
      "name": "onERC1155BatchReceived",
      "outputs": [
        {
          "internalType": "bytes4",
          "name": "",
          "type": "bytes4"
        }
      ],
      "stateMutability": "nonpayable",
      "type": "function"
    },
    {
      "inputs": [
        {
          "internalType": "address",
          "name": "",
          "type": "address"
        },
        {
          "internalType": "address",
          "name": "",
          "type": "address"
        },
        {
          "internalType": "uint256",
          "name": "",
          "type": "uint256"
        },
        {
          "internalType": "uint256",
          "name": "",
          "type": "uint256"
        },
        {
          "internalType": "bytes",
          "name": "",
          "type": "bytes"
        }
      ],
      "name": "onERC1155Received",
      "outputs": [
        {
          "internalType": "bytes4",
          "name": "",
          "type": "bytes4"
        }
      ],
      "stateMutability": "nonpayable",
      "type": "function"
    },
    {
      "inputs": [
        {
          "internalType": "address",
          "name": "",
          "type": "address"
        },
        {
          "internalType": "address",
          "name": "",
          "type": "address"
        },
        {
          "internalType": "uint256",
          "name": "",
          "type": "uint256"
        },
        {
          "internalType": "bytes",
          "name": "",
          "type": "bytes"
        }
      ],
      "name": "onERC721Received",
      "outputs": [
        {
          "internalType": "bytes4",
          "name": "",
          "type": "bytes4"
        }
      ],
      "stateMutability": "nonpayable",
      "type": "function"
    },
    {
      "inputs": [
        {
          "internalType": "uint256",
          "name": "proposalId",
          "type": "uint256"
        }
      ],
      "name": "proposalDeadline",
      "outputs": [
        {
          "internalType": "uint256",
          "name": "",
          "type": "uint256"
        }
      ],
      "stateMutability": "view",
      "type": "function"
    },
    {
      "inputs": [
        {
          "internalType": "uint256",
          "name": "",
          "type": "uint256"
        }
      ],
      "name": "proposalIds",
      "outputs": [
        {
          "internalType": "uint256",
          "name": "",
          "type": "uint256"
        }
      ],
      "stateMutability": "view",
      "type": "function"
    },
    {
      "inputs": [
        {
          "internalType": "uint256",
          "name": "proposalId",
          "type": "uint256"
        }
      ],
      "name": "proposalSnapshot",
      "outputs": [
        {
          "internalType": "uint256",
          "name": "",
          "type": "uint256"
        }
      ],
      "stateMutability": "view",
      "type": "function"
    },
    {
      "inputs": [],
      "name": "proposalThreshold",
      "outputs": [
        {
          "internalType": "uint256",
          "name": "",
          "type": "uint256"
        }
      ],
      "stateMutability": "view",
      "type": "function"
    },
    {
      "inputs": [
        {
          "internalType": "uint256",
          "name": "proposalId",
          "type": "uint256"
        }
      ],
      "name": "proposalVotes",
      "outputs": [
        {
          "internalType": "uint256",
          "name": "againstVotes",
          "type": "uint256"
        },
        {
          "internalType": "uint256",
          "name": "forVotes",
          "type": "uint256"
        },
        {
          "internalType": "uint256",
          "name": "abstainVotes",
          "type": "uint256"
        }
      ],
      "stateMutability": "view",
      "type": "function"
    },
    {
      "inputs": [
        {
          "internalType": "address[]",
          "name": "targets",
          "type": "address[]"
        },
        {
          "internalType": "uint256[]",
          "name": "values",
          "type": "uint256[]"
        },
        {
          "internalType": "bytes[]",
          "name": "calldatas",
          "type": "bytes[]"
        },
        {
          "internalType": "string",
          "name": "description",
          "type": "string"
        },
        {
          "internalType": "string",
          "name": "cid",
          "type": "string"
        }
      ],
      "name": "propose",
      "outputs": [
        {
          "internalType": "uint256",
          "name": "",
          "type": "uint256"
        }
      ],
      "stateMutability": "nonpayable",
      "type": "function"
    },
    {
      "inputs": [
        {
          "internalType": "uint256",
          "name": "proposalId",
          "type": "uint256"
        },
        {
          "internalType": "address[]",
          "name": "targets",
          "type": "address[]"
        },
        {
          "internalType": "uint256[]",
          "name": "values",
          "type": "uint256[]"
        },
        {
          "internalType": "bytes[]",
          "name": "calldatas",
          "type": "bytes[]"
        },
        {
          "internalType": "string",
          "name": "description",
          "type": "string"
        },
        {
          "internalType": "string",
          "name": "cid",
          "type": "string"
        }
      ],
      "name": "proposeAmendment",
      "outputs": [
        {
          "internalType": "uint256",
          "name": "",
          "type": "uint256"
        }
      ],
      "stateMutability": "nonpayable",
      "type": "function"
    },
    {
      "inputs": [
        {
          "internalType": "uint256",
          "name": "blockNumber",
          "type": "uint256"
        }
      ],
      "name": "quorum",
      "outputs": [
        {
          "internalType": "uint256",
          "name": "",
          "type": "uint256"
        }
      ],
      "stateMutability": "view",
      "type": "function"
    },
    {
      "inputs": [],
      "name": "quorumDenominator",
      "outputs": [
        {
          "internalType": "uint256",
          "name": "",
          "type": "uint256"
        }
      ],
      "stateMutability": "view",
      "type": "function"
    },
    {
      "inputs": [
        {
          "internalType": "uint256",
          "name": "blockNumber",
          "type": "uint256"
        }
      ],
      "name": "quorumNumerator",
      "outputs": [
        {
          "internalType": "uint256",
          "name": "",
          "type": "uint256"
        }
      ],
      "stateMutability": "view",
      "type": "function"
    },
    {
      "inputs": [],
      "name": "quorumNumerator",
      "outputs": [
        {
          "internalType": "uint256",
          "name": "",
          "type": "uint256"
        }
      ],
      "stateMutability": "view",
      "type": "function"
    },
    {
      "inputs": [
        {
          "internalType": "address",
          "name": "target",
          "type": "address"
        },
        {
          "internalType": "uint256",
          "name": "value",
          "type": "uint256"
        },
        {
          "internalType": "bytes",
          "name": "data",
          "type": "bytes"
        }
      ],
      "name": "relay",
      "outputs": [],
      "stateMutability": "payable",
      "type": "function"
    },
    {
      "inputs": [
        {
          "internalType": "uint256",
          "name": "proposalId",
          "type": "uint256"
        }
      ],
      "name": "secondProposal",
      "outputs": [],
      "stateMutability": "nonpayable",
      "type": "function"
    },
    {
      "inputs": [
        {
          "internalType": "uint256",
          "name": "newProposalThreshold",
          "type": "uint256"
        }
      ],
      "name": "setProposalThreshold",
      "outputs": [],
      "stateMutability": "nonpayable",
      "type": "function"
    },
    {
      "inputs": [
        {
          "internalType": "uint256",
          "name": "newVotingDelay",
          "type": "uint256"
        }
      ],
      "name": "setVotingDelay",
      "outputs": [],
      "stateMutability": "nonpayable",
      "type": "function"
    },
    {
      "inputs": [
        {
          "internalType": "uint256",
          "name": "newVotingPeriod",
          "type": "uint256"
        }
      ],
      "name": "setVotingPeriod",
      "outputs": [],
      "stateMutability": "nonpayable",
      "type": "function"
    },
    {
      "inputs": [
        {
          "internalType": "uint256",
          "name": "proposalId",
          "type": "uint256"
        }
      ],
      "name": "state",
      "outputs": [
        {
          "internalType": "enum IGovernorUpgradeable.ProposalState",
          "name": "",
          "type": "uint8"
        }
      ],
      "stateMutability": "view",
      "type": "function"
    },
    {
      "inputs": [
        {
          "internalType": "bytes4",
          "name": "interfaceId",
          "type": "bytes4"
        }
      ],
      "name": "supportsInterface",
      "outputs": [
        {
          "internalType": "bool",
          "name": "",
          "type": "bool"
        }
      ],
      "stateMutability": "view",
      "type": "function"
    },
    {
      "inputs": [],
      "name": "token",
      "outputs": [
        {
          "internalType": "contract IVotesUpgradeable",
          "name": "",
          "type": "address"
        }
      ],
      "stateMutability": "view",
      "type": "function"
    },
    {
      "inputs": [
        {
          "internalType": "uint256",
          "name": "newQuorumNumerator",
          "type": "uint256"
        }
      ],
      "name": "updateQuorumNumerator",
      "outputs": [],
      "stateMutability": "nonpayable",
      "type": "function"
    },
    {
      "inputs": [],
      "name": "version",
      "outputs": [
        {
          "internalType": "string",
          "name": "",
          "type": "string"
        }
      ],
      "stateMutability": "view",
      "type": "function"
    },
    {
      "inputs": [],
      "name": "votingDelay",
      "outputs": [
        {
          "internalType": "uint256",
          "name": "",
          "type": "uint256"
        }
      ],
      "stateMutability": "view",
      "type": "function"
    },
    {
      "inputs": [],
      "name": "votingPeriod",
      "outputs": [
        {
          "internalType": "uint256",
          "name": "",
          "type": "uint256"
        }
      ],
      "stateMutability": "view",
      "type": "function"
    },
    {
      "stateMutability": "payable",
      "type": "receive"
    }
  ],
  "bytecode": "0x60806040523480156200001157600080fd5b506200001c62000022565b620000e4565b600054610100900460ff16156200008f5760405162461bcd60e51b815260206004820152602760248201527f496e697469616c697a61626c653a20636f6e747261637420697320696e697469604482015266616c697a696e6760c81b606482015260840160405180910390fd5b60005460ff9081161015620000e2576000805460ff191660ff9081179091556040519081527f7f26b83ff96e1f2b6a682f133852f6798a09c465da95921460cefb38474024989060200160405180910390a15b565b614b6180620000f46000396000f3fe6080604052600436106102b25760003560e01c80637b3c71d311610175578063c01f9e37116100dc578063deaaa7cc11610095578063ece40cc11161006f578063ece40cc114610950578063f23a6e6114610970578063f8ce560a1461099c578063fc0c546a146109bc57600080fd5b8063deaaa7cc146108dc578063ea0217cf14610910578063eb9019d41461093057600080fd5b8063c01f9e3714610803578063c28bc2fa14610823578063c4d66de814610836578063c59057e414610856578063d38761b814610876578063dd4e2ba51461089657600080fd5b8063a1d53b401161012e578063a1d53b401461074d578063a5b763891461076d578063a7713a701461078d578063ae125ff9146107a2578063b58131b0146107c2578063bc197c81146107d757600080fd5b80637b3c71d3146106875780638959dcb3146106a75780638ebb4c15146106c757806397c3d334146106f95780639a802a6d1461070d5780639b644a231461072d57600080fd5b80633bccf4fd1161021957806354fd4d50116101d257806354fd4d50146105bd57806356781388146105e75780635f398a141461060757806360c4247f1461062757806370b0f660146106475780637274307a1461066757600080fd5b80633bccf4fd1461048f5780633e4f49e6146104af578063424f5484146104dc57806343859632146104fc5780635051ab3114610547578063544ffc9c1461056757600080fd5b8063150b7a021161026b578063150b7a02146103ad5780632656227d146103e65780632d63f693146103f95780632fe3e261146104195780633656de211461044d5780633932abb11461047a57600080fd5b806301ffc9a7146102c057806302a251a3146102f5578063034201811461031857806306f3f9e61461033857806306fdde03146103585780630a4948401461037a57600080fd5b366102bb57005b005b600080fd5b3480156102cc57600080fd5b506102e06102db3660046137bc565b6109f5565b60405190151581526020015b60405180910390f35b34801561030157600080fd5b5061030a610a62565b6040519081526020016102ec565b34801561032457600080fd5b5061030a6103333660046138f2565b610a72565b34801561034457600080fd5b506102b9610353366004613998565b610b6a565b34801561036457600080fd5b5061036d610bb5565b6040516102ec9190613a01565b34801561038657600080fd5b5061039a610395366004613998565b610c47565b6040516102ec9796959493929190613a3e565b3480156103b957600080fd5b506103cd6103c8366004613ab0565b610d38565b6040516001600160e01b031990911681526020016102ec565b61030a6103f4366004613c8c565b610d49565b34801561040557600080fd5b5061030a610414366004613998565b610f6d565b34801561042557600080fd5b5061030a7fb3b3f3b703cd84ce352197dcff232b1b5d3cfb2025ce47cf04742d0651f1af8881565b34801561045957600080fd5b5061046d610468366004613998565b610fa4565b6040516102ec9190613d1b565b34801561048657600080fd5b5061030a611130565b34801561049b57600080fd5b5061030a6104aa366004613d8f565b61113b565b3480156104bb57600080fd5b506104cf6104ca366004613998565b6111b3565b6040516102ec9190613ddd565b3480156104e857600080fd5b506102b96104f7366004613998565b6112f6565b34801561050857600080fd5b506102e0610517366004613deb565b6000828152610130602090815260408083206001600160a01b038516845260030190915290205460ff1692915050565b34801561055357600080fd5b5061030a610562366004613e1b565b6113ea565b34801561057357600080fd5b506105a2610582366004613998565b600090815261013060205260409020805460018201546002909201549092565b604080519384526020840192909252908201526060016102ec565b3480156105c957600080fd5b506040805180820190915260018152603160f81b602082015261036d565b3480156105f357600080fd5b5061030a610602366004613eec565b61168e565b34801561061357600080fd5b5061030a610622366004613f18565b6116af565b34801561063357600080fd5b5061030a610642366004613998565b6116f9565b34801561065357600080fd5b506102b9610662366004613998565b611794565b34801561067357600080fd5b5061030a610682366004613f81565b6117d3565b34801561069357600080fd5b5061030a6106a236600461405a565b611816565b3480156106b357600080fd5b506102b96106c23660046140b3565b61185e565b3480156106d357600080fd5b506106e76106e2366004613998565b6119d0565b6040516102ec96959493929190614129565b34801561070557600080fd5b50606461030a565b34801561071957600080fd5b5061030a61072836600461416e565b611a91565b34801561073957600080fd5b5061030a610748366004613998565b611aa8565b34801561075957600080fd5b5061030a6107683660046140b3565b611ac9565b34801561077957600080fd5b5061030a610788366004613f81565b611b03565b34801561079957600080fd5b5061030a611d20565b3480156107ae57600080fd5b506102b96107bd3660046141c6565b611d4d565b3480156107ce57600080fd5b5061030a611e7a565b3480156107e357600080fd5b506103cd6107f236600461420a565b63bc197c8160e01b95945050505050565b34801561080f57600080fd5b5061030a61081e366004613998565b611e86565b6102b9610831366004614287565b611eb5565b34801561084257600080fd5b506102b96108513660046142ca565b611f7c565b34801561086257600080fd5b5061030a610871366004613c8c565b6120df565b34801561088257600080fd5b506102b9610891366004613998565b6120f8565b3480156108a257600080fd5b506040805180820190915260208082527f737570706f72743d627261766f2671756f72756d3d666f722c6162737461696e9082015261036d565b3480156108e857600080fd5b5061030a7f150214d74d59b7d1e90c73fc22ef3d991dd0a76b046543d4d80ab92d2a50328f81565b34801561091c57600080fd5b506102b961092b366004613998565b612217565b34801561093c57600080fd5b5061030a61094b3660046142e7565b612256565b34801561095c57600080fd5b506102b961096b366004613998565b612277565b34801561097c57600080fd5b506103cd61098b366004614313565b63f23a6e6160e01b95945050505050565b3480156109a857600080fd5b5061030a6109b7366004613998565b6122b6565b3480156109c857600080fd5b50610162546109dd906001600160a01b031681565b6040516001600160a01b0390911681526020016102ec565b60006001600160e01b0319821663248a7c9160e21b1480610a2657506001600160e01b0319821663153494ef60e21b145b80610a4157506001600160e01b03198216630271189760e51b145b80610a5c57506301ffc9a760e01b6001600160e01b03198316145b92915050565b6000610a6d60ff5490565b905090565b600080610b16610b0e7fb3b3f3b703cd84ce352197dcff232b1b5d3cfb2025ce47cf04742d0651f1af888c8c8c8c604051610aae92919061437b565b60405180910390208b80519060200120604051602001610af3959493929190948552602085019390935260ff9190911660408401526060830152608082015260a00190565b604051602081830303815290604052805190602001206122c1565b86868661230f565b9050610b5c8a828b8b8b8080601f0160208091040260200160405190810160405280939291908181526020018383808284376000920191909152508d9250612337915050565b9a9950505050505050505050565b333014610b925760405162461bcd60e51b8152600401610b899061438b565b60405180910390fd5b610ba9565b80610ba260ce61249b565b03610b9757505b610bb28161251a565b50565b606060cb8054610bc4906143c2565b80601f0160208091040260200160405190810160405280929190818152602001828054610bf0906143c2565b8015610c3d5780601f10610c1257610100808354040283529160200191610c3d565b820191906000526020600020905b815481529060010190602001808311610c2057829003601f168201915b5050505050905090565b60cc602090815260009182526040918290208251808301845281546001600160401b0390811682528451938401909452600182015490931682526002810154600382015460048301805460ff80851695610100860482169562010000900490911693929091610cb5906143c2565b80601f0160208091040260200160405190810160405280929190818152602001828054610ce1906143c2565b8015610d2e5780601f10610d0357610100808354040283529160200191610d2e565b820191906000526020600020905b815481529060010190602001808311610d1157829003601f168201915b5050505050905087565b630a85bd0160e11b5b949350505050565b600080610d58868686866120df565b90506000610d65826111b3565b600083815260cc60205260409020600301549091508015610e5d57600a82600d811115610d9457610d94613a14565b1480610db15750600b82600d811115610daf57610daf613a14565b145b80610dcd5750600982600d811115610dcb57610dcb613a14565b145b15610df357600081815260cc60205260409020600201805462ff00001916620200001790555b600083815260cc602052604090819020600201805460ff19166001179055517f0139a912250b11e869d906e69078e640df5efbc1505fe320669825dcd5e7b81590610e4a9085908490918252602082015260400190565b60405180910390a1829350505050610d41565b600a82600d811115610e7157610e71613a14565b1480610e8e5750600b82600d811115610e8c57610e8c613a14565b145b610ee45760405162461bcd60e51b815260206004820152602160248201527f476f7665726e6f723a2070726f706f73616c206e6f74207375636365737366756044820152601b60fa1b6064820152608401610b89565b600083815260cc602052604090819020600201805460ff19166001179055517f712ae1383f79ac853f8d882153778e0260ef8f03b504e2866e0593e04d2b291f90610f329085815260200190565b60405180910390a1610f478389898989612662565b610f5483898989896126ef565b610f618389898989612662565b50909695505050505050565b600081815260cc602090815260408083208151928301909152546001600160401b0316908190525b6001600160401b031692915050565b6040805161010081018252600060e08201818152825282516020808201855282825283015291810182905260608082018390526080820183905260a082019290925260c0810191909152600082815260cc60209081526040918290208251610100808201855282546001600160401b0390811660e084019081528352855180860187526001850154909116815293820193909352600282015460ff80821615159583019590955292830484161515606082015292909160808401916201000090910416600d81111561107857611078613a14565b600d81111561108957611089613a14565b8152602001600382015481526020016004820180546110a7906143c2565b80601f01602080910402602001604051908101604052809291908181526020018280546110d3906143c2565b80156111205780601f106110f557610100808354040283529160200191611120565b820191906000526020600020905b81548152906001019060200180831161110357829003601f168201915b5050505050815250509050919050565b6000610a6d60fe5490565b604080517f150214d74d59b7d1e90c73fc22ef3d991dd0a76b046543d4d80ab92d2a50328f602082015290810186905260ff85166060820152600090819061118990610b0e90608001610af3565b90506111a6878288604051806020016040528060008152506127e5565b9150505b95945050505050565b600081815260cc60205260408120600281015460ff16156111d75750600d92915050565b6002810154610100900460ff16156111f25750600892915050565b60006111fd84610f6d565b90508060000361124f5760405162461bcd60e51b815260206004820152601d60248201527f476f7665726e6f723a20756e6b6e6f776e2070726f706f73616c2069640000006044820152606401610b89565b438110611260575060069392505050565b600061126b85611e86565b905043811061127f57506007949350505050565b61129061128b86612808565b612877565b6112b261128b8660009081526101306020526040902080546001909101541190565b6112bb85612808565b80156112db57506000858152610130602052604090208054600190910154115b156112eb5750600a949350505050565b506009949350505050565b6112ff336128b8565b61131b5760405162461bcd60e51b8152600401610b89906143fc565b600081815260cc6020526040902060028082015462010000900460ff16600d81111561134957611349613a14565b1461138e5760405162461bcd60e51b815260206004820152601560248201527436bab9ba1031329034b7103234b9b1bab9b9b4b7b760591b6044820152606401610b89565b60028101805462ff00001916620400001790557f758e211783d2a5f06aca582eba7ea2e652d75e61ac18b0538cc0b317e0f7259d82335b604080519283526001600160a01b039091166020830152015b60405180910390a15050565b60006113f5336128b8565b6114115760405162461bcd60e51b8152600401610b89906143fc565b611419611e7a565b6114283361094b600143614437565b10156114905760405162461bcd60e51b815260206004820152603160248201527f476f7665726e6f723a2070726f706f73657220766f7465732062656c6f7720706044820152701c9bdc1bdcd85b081d1a1c995cda1bdb19607a1b6064820152608401610b89565b84518651146114b15760405162461bcd60e51b8152600401610b899061444a565b83518651146114d25760405162461bcd60e51b8152600401610b899061444a565b60006114e787878787805190602001206120df565b600081815260cc60205260408120919250600282015462010000900460ff16600d81111561151757611517613a14565b1461156e5760405162461bcd60e51b815260206004820152602160248201527f476f7665726e6f723a2070726f706f73616c20616c72656164792065786973746044820152607360f81b6064820152608401610b89565b6004810161157c85826144d1565b5060cd80546001810182556000919091527f83978b4c69c48dd978ab43fe30f077615294f938fb7f936d9eb340e51ea7db2e0182905560028101805462ff00001916620100001790557fb88787ccad609a4d41058c8a0928927dd2516296c139d218d1e9131c2c219bd382338a8a8c516001600160401b038111156116035761160361383d565b60405190808252806020026020018201604052801561163657816020015b60608152602001906001900390816116215790505b50604080516020808201835289546001600160401b03908116928390528351918201845260018b01541690819052915161167b9796959493928f92918f908f90614659565b60405180910390a1509695505050505050565b600080339050610d41848285604051806020016040528060008152506127e5565b6000803390506111a687828888888080601f0160208091040260200160405190810160405280939291908181526020018383808284376000920191909152508a9250612337915050565b6101965460009080820361171257505061019554919050565b6000610196611722600184614437565b8154811061173257611732614712565b60009182526020918290206040805180820190915291015463ffffffff8116808352600160201b9091046001600160e01b0316928201929092529150841061178857602001516001600160e01b03169392505050565b610d4161019685612932565b3330146117b35760405162461bcd60e51b8152600401610b899061438b565b6117ca565b806117c360ce61249b565b036117b857505b610bb2816129f2565b60008686868686866040516020016117f096959493929190614728565b6040516020818303038152906040528051906020012060001c90505b9695505050505050565b60008033905061180c86828787878080601f0160208091040260200160405190810160405280939291908181526020018383808284376000920191909152506127e592505050565b611867336128b8565b6118835760405162461bcd60e51b8152600401610b89906143fc565b600261188e85610fa4565b60800151600d8111156118a3576118a3613a14565b146118c05760405162461bcd60e51b8152600401610b899061478f565b8215806118e7575060008381526101c86020526040902080546118e2906143c2565b151590505b6119245760405162461bcd60e51b815260206004820152600e60248201526d1d5b9adb9bdddb881c185c995b9d60921b6044820152606401610b89565b600061193285858585611ac9565b60008181526101c86020526040902060028101879055600181018690559091508061195d85826144d1565b50828160050160006101000a81548160ff0219169083600581111561198457611984613a14565b02179055507fab9cbbc55d154611333c315f451d82f88c84b9254dec96cd2800ae487b17bb6e86338787876040516119c09594939291906147d4565b60405180910390a1505050505050565b6101c8602052600090815260409020805481906119ec906143c2565b80601f0160208091040260200160405190810160405280929190818152602001828054611a18906143c2565b8015611a655780601f10611a3a57610100808354040283529160200191611a65565b820191906000526020600020905b815481529060010190602001808311611a4857829003601f168201915b505050600184015460028501546003860154600487015460059097015495969295919450925060ff1686565b6000611a9e848484612a33565b90505b9392505050565b60cd8181548110611ab857600080fd5b600091825260209091200154905081565b600084848484604051602001611ae29493929190614810565b60408051601f19818403018152919052805160209091012095945050505050565b6000611b0e336128b8565b611b2a5760405162461bcd60e51b8152600401610b89906143fc565b8451865114611b4b5760405162461bcd60e51b8152600401610b899061444a565b8351865114611b6c5760405162461bcd60e51b8152600401610b899061444a565b600087815260cc6020526040902060028082015462010000900460ff16600d811115611b9a57611b9a613a14565b14611bb75760405162461bcd60e51b8152600401610b899061478f565b6000611bc78989898989896117d3565b600081815260cc60205260408120919250600282015462010000900460ff16600d811115611bf757611bf7613a14565b14611c445760405162461bcd60e51b815260206004820152601860248201527f616d656e646d656e7420616c72656164792065786973747300000000000000006044820152606401610b89565b60028101805462ff000019166201000017905560048101611c6586826144d1565b506002830180546203000062ff0000199091161790557f700333eab3015dc440dd21d32df65a85b7c7a09a4e45ad54be8e79d0c802f5388a83338c8c8e516001600160401b03811115611cba57611cba61383d565b604051908082528060200260200182016040528015611ced57816020015b6060815260200190600190039081611cd85790505b508d6000808f8f604051611d0b9b9a9998979695949392919061483e565b60405180910390a15098975050505050505050565b6101965460009015611d4557611d37610196612aaa565b6001600160e01b0316905090565b506101955490565b6101c75460ff1615611da15760405162461bcd60e51b815260206004820152601f60248201527f466f756e646572206772616e7420616c726561647920636f6d706c65746564006044820152606401610b89565b6101c7805460ff1916600117905560005b8251811015611e75576101625483516001600160a01b039091169063a9059cbb90859084908110611de557611de5614712565b6020026020010151846040518363ffffffff1660e01b8152600401611e1f9291906001600160a01b03929092168252602082015260400190565b6020604051808303816000875af1158015611e3e573d6000803e3d6000fd5b505050506040513d601f19601f82011682018060405250810190611e6291906148f5565b5080611e6d81614917565b915050611db2565b505050565b6000610a6d6101005490565b600081815260cc602090815260408083208151928301909152600101546001600160401b031690819052610f95565b333014611ed45760405162461bcd60e51b8152600401610b899061438b565b611eeb565b80611ee460ce61249b565b03611ed957505b600080856001600160a01b0316858585604051611f0992919061437b565b60006040518083038185875af1925050503d8060008114611f46576040519150601f19603f3d011682016040523d82523d6000602084013e611f4b565b606091505b5091509150611f738282604051806060016040528060288152602001614add60289139612ae3565b50505050505050565b600054610100900460ff1615808015611f9c5750600054600160ff909116105b80611fb65750303b158015611fb6575060005460ff166001145b6120195760405162461bcd60e51b815260206004820152602e60248201527f496e697469616c697a61626c653a20636f6e747261637420697320616c72656160448201526d191e481a5b9a5d1a585b1a5e995960921b6064820152608401610b89565b6000805460ff19166001179055801561203c576000805461ff0019166101001790555b6120646040518060400160405280600781526020016610dbdd5b98da5b60ca1b815250612afc565b612073600161c4e06000612b53565b61207b612b85565b61208482612bae565b61208e6004612bde565b6101c7805460ff1916905580156120db576000805461ff0019169055604051600181527f7f26b83ff96e1f2b6a682f133852f6798a09c465da95921460cefb3847402498906020016113de565b5050565b600084848484604051602001611ae29493929190614930565b612101336128b8565b61211d5760405162461bcd60e51b8152600401610b89906143fc565b600081815260cc602052604090206001600282015462010000900460ff16600d81111561214c5761214c613a14565b148061217657506004600282015462010000900460ff16600d81111561217457612174613a14565b145b61217f57600080fd5b6001600282015462010000900460ff16600d8111156121a0576121a0613a14565b036121b5576121b0826002612c0e565b6121ef565b6004600282015462010000900460ff16600d8111156121d6576121d6613a14565b036121ef576121e6826007612c0e565b6121ef81612c4b565b7f299432bdda7d2f4b8ed54b73f54bf39049288dd18fb7c4e59b703e789809eec782336113c5565b3330146122365760405162461bcd60e51b8152600401610b899061438b565b61224d565b8061224660ce61249b565b0361223b57505b610bb281612cca565b6000611aa1838361227260408051602081019091526000815290565b612a33565b3330146122965760405162461bcd60e51b8152600401610b899061438b565b6122ad565b806122a660ce61249b565b0361229b57505b610bb281612d6b565b6000610a5c82612dae565b6000610a5c6122ce612e3d565b8360405161190160f01b6020820152602281018390526042810182905260009060620160405160208183030381529060405280519060200120905092915050565b600080600061232087878787612eb8565b9150915061232d81612f7c565b5095945050505050565b600085815260cc602052604081206007612350886111b3565b600d81111561236157612361613a14565b146123ba5760405162461bcd60e51b815260206004820152602360248201527f476f7665726e6f723a20766f7465206e6f742063757272656e746c792061637460448201526269766560e81b6064820152608401610b89565b604080516020810190915281546001600160401b0316908190526000906123e390889086612a33565b90506123f288888884886130c6565b835160000361244757866001600160a01b03167fb8e138887d0aa13bab447e82de9d5c1777041ecd21ca36ba824ff1e6c07ddda48988848960405161243a949392919061497b565b60405180910390a26111a6565b866001600160a01b03167fe2babfbac5889a709b63bb7f598b324e08bc5a4fb9ec647fb3cbc9ec07eb871289888489896040516124889594939291906149a3565b60405180910390a2979650505050505050565b60006124b68254600f81810b600160801b909204900b131590565b156124d457604051631ed9509560e11b815260040160405180910390fd5b508054600f0b6000818152600180840160205260408220805492905583546fffffffffffffffffffffffffffffffff191692016001600160801b03169190911790915590565b606481111561259d5760405162461bcd60e51b815260206004820152604360248201527f476f7665726e6f72566f74657351756f72756d4672616374696f6e3a2071756f60448201527f72756d4e756d657261746f72206f7665722071756f72756d44656e6f6d696e616064820152623a37b960e91b608482015260a401610b89565b60006125a7611d20565b905080158015906125b9575061019654155b1561261e57604080518082019091526000815261019690602081016125dd84613241565b6001600160e01b039081169091528254600181018455600093845260209384902083519490930151909116600160201b0263ffffffff909316929092179101555b61262a610196836132ae565b505060408051828152602081018490527f0553476bf02ef2726e8ce5ced78d63e26e602e4a2257b1f559418e24b463399791016113de565b6126e8565b84518110156126e657306001600160a01b031685828151811061268c5761268c614712565b60200260200101516001600160a01b0316036126d6576126d68382815181106126b7576126b7614712565b60200260200101518051906020012060ce6132e490919063ffffffff16565b6126df81614917565b9050612667565b505b5050505050565b6000604051806060016040528060278152602001614b0560279139905060005b8551811015611f735760008087838151811061272d5761272d614712565b60200260200101516001600160a01b031687848151811061275057612750614712565b602002602001015187858151811061276a5761276a614712565b602002602001015160405161277f91906149e9565b60006040518083038185875af1925050503d80600081146127bc576040519150601f19603f3d011682016040523d82523d6000602084013e6127c1565b606091505b50915091506127d1828286612ae3565b505050806127de90614917565b905061270f565b60006111aa8585858561280360408051602081019091526000815290565b612337565b600081815261013060205260408120600181015461282590613320565b805461283090613320565b61283d8160020154613320565b61284e61284984610f6d565b613320565b806002015481600101546128629190614a05565b61286e6109b785610f6d565b11159392505050565b6040518115156024820152610bb29060440160408051601f198184030181529190526020810180516001600160e01b03166332458eed60e01b179052613361565b610162546040516370a0823160e01b81526001600160a01b03838116600483015260009283929116906370a0823190602401602060405180830381865afa158015612907573d6000803e3d6000fd5b505050506040513d601f19601f8201168201806040525081019061292b9190614a18565b1192915050565b60004382106129835760405162461bcd60e51b815260206004820181905260248201527f436865636b706f696e74733a20626c6f636b206e6f7420796574206d696e65646044820152606401610b89565b600061298e83613382565b845490915060006129a1868483856133e7565b905080156129dc576129c6866129b8600184614437565b600091825260209091200190565b54600160201b90046001600160e01b03166129df565b60005b6001600160e01b03169695505050505050565b60fe5460408051918252602082018390527fc565b045403dc03c2eea82b81a0465edad9e2e7fc4d97e11421c209da93d7a93910160405180910390a160fe55565b61016254604051630748d63560e31b81526001600160a01b038581166004830152602482018590526000921690633a46b1a890604401602060405180830381865afa158015612a86573d6000803e3d6000fd5b505050506040513d601f19601f82011682018060405250810190611a9e9190614a18565b80546000908015612ada57612ac4836129b8600184614437565b54600160201b90046001600160e01b0316611aa1565b60009392505050565b60608315612af2575081611aa1565b611aa18383613445565b600054610100900460ff16612b235760405162461bcd60e51b8152600401610b8990614a31565b612b4a81612b456040805180820190915260018152603160f81b602082015290565b61346f565b610bb2816134b0565b600054610100900460ff16612b7a5760405162461bcd60e51b8152600401610b8990614a31565b611e758383836134e3565b600054610100900460ff16612bac5760405162461bcd60e51b8152600401610b8990614a31565b565b600054610100900460ff16612bd55760405162461bcd60e51b8152600401610b8990614a31565b610bb281613525565b600054610100900460ff16612c055760405162461bcd60e51b8152600401610b8990614a31565b610bb28161356f565b600082815260cc6020526040902060028101805483919062ff000019166201000083600d811115612c4157612c41613a14565b0217905550505050565b6000612c5d612c58611130565b613596565b612c6643613596565b612c709190614a7c565b90506000612c7f612c58610a62565b612c899083614a7c565b835467ffffffffffffffff19166001600160401b03841617845590506001830180546001600160401b03831667ffffffffffffffff19909116179055505050565b60008111612d2a5760405162461bcd60e51b815260206004820152602760248201527f476f7665726e6f7253657474696e67733a20766f74696e6720706572696f6420604482015266746f6f206c6f7760c81b6064820152608401610b89565b60ff5460408051918252602082018390527f7e3f7f0708a84de9203036abaa450dccc85ad5ff52f78c170f3edb55cf5e8828910160405180910390a160ff55565b6101005460408051918252602082018390527fccb45da8d5717e6c4544694297c4ba5cf151d455c9bb0ed4fc7a38411bc05461910160405180910390a161010055565b60006064612dbb836116f9565b61016254604051632394e7a360e21b8152600481018690526001600160a01b0390911690638e539e8c90602401602060405180830381865afa158015612e05573d6000803e3d6000fd5b505050506040513d601f19601f82011682018060405250810190612e299190614a18565b612e339190614aa3565b610a5c9190614aba565b6000610a6d7f8b73c3c69bb8fe3d512ecc4cf759cc79239f7b179b0ffacaa9a75d522b39400f612e6c60655490565b6066546040805160208101859052908101839052606081018290524660808201523060a082015260009060c0016040516020818303038152906040528051906020012090509392505050565b6000807f7fffffffffffffffffffffffffffffff5d576e7357a4501ddfe92f46681b20a0831115612eef5750600090506003612f73565b6040805160008082526020820180845289905260ff881692820192909252606081018690526080810185905260019060a0016020604051602081039080840390855afa158015612f43573d6000803e3d6000fd5b5050604051601f1901519150506001600160a01b038116612f6c57600060019250925050612f73565b9150600090505b94509492505050565b6000816004811115612f9057612f90613a14565b03612f985750565b6001816004811115612fac57612fac613a14565b03612ff95760405162461bcd60e51b815260206004820152601860248201527f45434453413a20696e76616c6964207369676e617475726500000000000000006044820152606401610b89565b600281600481111561300d5761300d613a14565b0361305a5760405162461bcd60e51b815260206004820152601f60248201527f45434453413a20696e76616c6964207369676e6174757265206c656e677468006044820152606401610b89565b600381600481111561306e5761306e613a14565b03610bb25760405162461bcd60e51b815260206004820152602260248201527f45434453413a20696e76616c6964207369676e6174757265202773272076616c604482015261756560f01b6064820152608401610b89565b6000858152610130602090815260408083206001600160a01b0388168452600381019092529091205460ff161561314f5760405162461bcd60e51b815260206004820152602760248201527f476f7665726e6f72566f74696e6753696d706c653a20766f746520616c726561604482015266191e4818d85cdd60ca1b6064820152608401610b89565b6001600160a01b03851660009081526003820160205260409020805460ff1916600117905560ff841661319b57828160000160008282546131909190614a05565b909155506126e69050565b60001960ff8516016131bb57828160010160008282546131909190614a05565b60011960ff8516016131db57828160020160008282546131909190614a05565b60405162461bcd60e51b815260206004820152603560248201527f476f7665726e6f72566f74696e6753696d706c653a20696e76616c69642076616044820152746c756520666f7220656e756d20566f74655479706560581b6064820152608401610b89565b60006001600160e01b038211156132aa5760405162461bcd60e51b815260206004820152602760248201527f53616665436173743a2076616c756520646f65736e27742066697420696e20326044820152663234206269747360c81b6064820152608401610b89565b5090565b6000806132cc846132be43613382565b6132c786613241565b6135fe565b6001600160e01b0391821693501690505b9250929050565b8154600160801b90819004600f0b6000818152600180860160205260409091209390935583546001600160801b03908116939091011602179055565b610bb28160405160240161333691815260200190565b60408051601f198184030181529190526020810180516001600160e01b031663f82c50f160e01b1790525b80516a636f6e736f6c652e6c6f67602083016000808483855afa5050505050565b600063ffffffff8211156132aa5760405162461bcd60e51b815260206004820152602660248201527f53616665436173743a2076616c756520646f65736e27742066697420696e203360448201526532206269747360d01b6064820152608401610b89565b60005b8183101561343d5760006133fe84846137a1565b60008781526020902090915063ffffffff86169082015463ffffffff16111561342957809250613437565b613434816001614a05565b93505b506133ea565b509392505050565b8151156134555781518083602001fd5b8060405162461bcd60e51b8152600401610b899190613a01565b600054610100900460ff166134965760405162461bcd60e51b8152600401610b8990614a31565b815160209283012081519190920120606591909155606655565b600054610100900460ff166134d75760405162461bcd60e51b8152600401610b8990614a31565b60cb6120db82826144d1565b600054610100900460ff1661350a5760405162461bcd60e51b8152600401610b8990614a31565b613513836129f2565b61351c82612cca565b611e7581612d6b565b600054610100900460ff1661354c5760405162461bcd60e51b8152600401610b8990614a31565b61016280546001600160a01b0319166001600160a01b0392909216919091179055565b600054610100900460ff16610ba95760405162461bcd60e51b8152600401610b8990614a31565b60006001600160401b038211156132aa5760405162461bcd60e51b815260206004820152602660248201527f53616665436173743a2076616c756520646f65736e27742066697420696e203660448201526534206269747360d01b6064820152608401610b89565b82546000908190801561374457600061361c876129b8600185614437565b60408051808201909152905463ffffffff808216808452600160201b9092046001600160e01b03166020840152919250908716101561369d5760405162461bcd60e51b815260206004820152601760248201527f436865636b706f696e743a20696e76616c6964206b65790000000000000000006044820152606401610b89565b805163ffffffff8088169116036136e557846136be886129b8600186614437565b80546001600160e01b0392909216600160201b0263ffffffff909216919091179055613734565b6040805180820190915263ffffffff80881682526001600160e01b0380881660208085019182528b54600181018d5560008d81529190912094519151909216600160201b029216919091179101555b6020015192508391506137999050565b50506040805180820190915263ffffffff80851682526001600160e01b0380851660208085019182528854600181018a5560008a815291822095519251909316600160201b0291909316179201919091559050815b935093915050565b60006137b06002848418614aba565b611aa190848416614a05565b6000602082840312156137ce57600080fd5b81356001600160e01b031981168114611aa157600080fd5b803560ff811681146137f757600080fd5b919050565b60008083601f84011261380e57600080fd5b5081356001600160401b0381111561382557600080fd5b6020830191508360208285010111156132dd57600080fd5b634e487b7160e01b600052604160045260246000fd5b604051601f8201601f191681016001600160401b038111828210171561387b5761387b61383d565b604052919050565b600082601f83011261389457600080fd5b81356001600160401b038111156138ad576138ad61383d565b6138c0601f8201601f1916602001613853565b8181528460208386010111156138d557600080fd5b816020850160208301376000918101602001919091529392505050565b60008060008060008060008060e0898b03121561390e57600080fd5b8835975061391e60208a016137e6565b965060408901356001600160401b038082111561393a57600080fd5b6139468c838d016137fc565b909850965060608b013591508082111561395f57600080fd5b5061396c8b828c01613883565b94505061397b60808a016137e6565b925060a0890135915060c089013590509295985092959890939650565b6000602082840312156139aa57600080fd5b5035919050565b60005b838110156139cc5781810151838201526020016139b4565b50506000910152565b600081518084526139ed8160208601602086016139b1565b601f01601f19169290920160200192915050565b602081526000611aa160208301846139d5565b634e487b7160e01b600052602160045260246000fd5b600e8110613a3a57613a3a613a14565b9052565b87516001600160401b0390811682528751166020820152851515604082015284151560608201526000613a746080830186613a2a565b8360a083015260e060c0830152613a8e60e08301846139d5565b9998505050505050505050565b6001600160a01b0381168114610bb257600080fd5b60008060008060808587031215613ac657600080fd5b8435613ad181613a9b565b93506020850135613ae181613a9b565b92506040850135915060608501356001600160401b03811115613b0357600080fd5b613b0f87828801613883565b91505092959194509250565b60006001600160401b03821115613b3457613b3461383d565b5060051b60200190565b600082601f830112613b4f57600080fd5b81356020613b64613b5f83613b1b565b613853565b82815260059290921b84018101918181019086841115613b8357600080fd5b8286015b84811015613ba7578035613b9a81613a9b565b8352918301918301613b87565b509695505050505050565b600082601f830112613bc357600080fd5b81356020613bd3613b5f83613b1b565b82815260059290921b84018101918181019086841115613bf257600080fd5b8286015b84811015613ba75780358352918301918301613bf6565b600082601f830112613c1e57600080fd5b81356020613c2e613b5f83613b1b565b82815260059290921b84018101918181019086841115613c4d57600080fd5b8286015b84811015613ba75780356001600160401b03811115613c705760008081fd5b613c7e8986838b0101613883565b845250918301918301613c51565b60008060008060808587031215613ca257600080fd5b84356001600160401b0380821115613cb957600080fd5b613cc588838901613b3e565b95506020870135915080821115613cdb57600080fd5b613ce788838901613bb2565b94506040870135915080821115613cfd57600080fd5b50613d0a87828801613c0d565b949793965093946060013593505050565b6020815260006001600160401b038084515116602084015280602085015151166040840152506040830151151560608301526060830151151560808301526080830151613d6b60a0840182613a2a565b5060a083015160c083015260c083015160e080840152610d416101008401826139d5565b600080600080600060a08688031215613da757600080fd5b85359450613db7602087016137e6565b9350613dc5604087016137e6565b94979396509394606081013594506080013592915050565b60208101610a5c8284613a2a565b60008060408385031215613dfe57600080fd5b823591506020830135613e1081613a9b565b809150509250929050565b600080600080600060a08688031215613e3357600080fd5b85356001600160401b0380821115613e4a57600080fd5b613e5689838a01613b3e565b96506020880135915080821115613e6c57600080fd5b613e7889838a01613bb2565b95506040880135915080821115613e8e57600080fd5b613e9a89838a01613c0d565b94506060880135915080821115613eb057600080fd5b613ebc89838a01613883565b93506080880135915080821115613ed257600080fd5b50613edf88828901613883565b9150509295509295909350565b60008060408385031215613eff57600080fd5b82359150613f0f602084016137e6565b90509250929050565b600080600080600060808688031215613f3057600080fd5b85359450613f40602087016137e6565b935060408601356001600160401b0380821115613f5c57600080fd5b613f6889838a016137fc565b90955093506060880135915080821115613ed257600080fd5b60008060008060008060c08789031215613f9a57600080fd5b8635955060208701356001600160401b0380821115613fb857600080fd5b613fc48a838b01613b3e565b96506040890135915080821115613fda57600080fd5b613fe68a838b01613bb2565b95506060890135915080821115613ffc57600080fd5b6140088a838b01613c0d565b9450608089013591508082111561401e57600080fd5b61402a8a838b01613883565b935060a089013591508082111561404057600080fd5b5061404d89828a01613883565b9150509295509295509295565b6000806000806060858703121561407057600080fd5b84359350614080602086016137e6565b925060408501356001600160401b0381111561409b57600080fd5b6140a7878288016137fc565b95989497509550505050565b600080600080608085870312156140c957600080fd5b843593506020850135925060408501356001600160401b038111156140ed57600080fd5b6140f987828801613883565b92505060608501356006811061410e57600080fd5b939692955090935050565b60068110613a3a57613a3a613a14565b60c08152600061413c60c08301896139d5565b905086602083015285604083015284606083015283608083015261416360a0830184614119565b979650505050505050565b60008060006060848603121561418357600080fd5b833561418e81613a9b565b92506020840135915060408401356001600160401b038111156141b057600080fd5b6141bc86828701613883565b9150509250925092565b600080604083850312156141d957600080fd5b82356001600160401b038111156141ef57600080fd5b6141fb85828601613b3e565b95602094909401359450505050565b600080600080600060a0868803121561422257600080fd5b853561422d81613a9b565b9450602086013561423d81613a9b565b935060408601356001600160401b038082111561425957600080fd5b61426589838a01613bb2565b9450606088013591508082111561427b57600080fd5b613ebc89838a01613bb2565b6000806000806060858703121561429d57600080fd5b84356142a881613a9b565b93506020850135925060408501356001600160401b0381111561409b57600080fd5b6000602082840312156142dc57600080fd5b8135611aa181613a9b565b600080604083850312156142fa57600080fd5b823561430581613a9b565b946020939093013593505050565b600080600080600060a0868803121561432b57600080fd5b853561433681613a9b565b9450602086013561434681613a9b565b9350604086013592506060860135915060808601356001600160401b0381111561436f57600080fd5b613edf88828901613883565b8183823760009101908152919050565b60208082526018908201527f476f7665726e6f723a206f6e6c79476f7665726e616e63650000000000000000604082015260600190565b600181811c908216806143d657607f821691505b6020821081036143f657634e487b7160e01b600052602260045260246000fd5b50919050565b6020808252600b908201526a566f74657273206f6e6c7960a81b604082015260600190565b634e487b7160e01b600052601160045260246000fd5b81810381811115610a5c57610a5c614421565b60208082526021908201527f476f7665726e6f723a20696e76616c69642070726f706f73616c206c656e67746040820152600d60fb1b606082015260800190565b601f821115611e7557600081815260208120601f850160051c810160208610156144b25750805b601f850160051c820191505b818110156126e6578281556001016144be565b81516001600160401b038111156144ea576144ea61383d565b6144fe816144f884546143c2565b8461448b565b602080601f831160018114614533576000841561451b5750858301515b600019600386901b1c1916600185901b1785556126e6565b600085815260208120601f198616915b8281101561456257888601518255948401946001909101908401614543565b50858210156145805787850151600019600388901b60f8161c191681555b5050505050600190811b01905550565b600081518084526020808501945080840160005b838110156145c95781516001600160a01b0316875295820195908201906001016145a4565b509495945050505050565b600081518084526020808501945080840160005b838110156145c9578151875295820195908201906001016145e8565b600081518084526020808501808196508360051b8101915082860160005b8581101561464c57828403895261463a8483516139d5565b98850198935090840190600101614622565b5091979650505050505050565b8a81526001600160a01b038a166020820152610140604082018190526000906146848382018c614590565b90508281036060840152614698818b6145d4565b905082810360808401526146ac818a614604565b905082810360a08401526146c08189614604565b6001600160401b0388811660c0860152871660e085015283810361010085015290506146ec81866139d5565b905082810361012084015261470181856139d5565b9d9c50505050505050505050505050565b634e487b7160e01b600052603260045260246000fd5b86815260c06020820152600061474160c0830188614590565b828103604084015261475381886145d4565b905082810360608401526147678187614604565b9050828103608084015261477b81866139d5565b905082810360a0840152613a8e81856139d5565b60208082526025908201527f756e6b6e6f776e2070726f706f73616c206f72206e6f7420696e2d646973637560408201526439b9b4b7b760d91b606082015260800190565b85815260018060a01b038516602082015283604082015260a06060820152600061480160a08301856139d5565b905061180c6080830184614119565b84815283602082015260806040820152600061482f60808301856139d5565b90506111aa6060830184614119565b8b8152602081018b90526001600160a01b038a166040820152610160606082018190526000906148708382018c614590565b90508281036080840152614884818b6145d4565b905082810360a0840152614898818a614604565b905082810360c08401526148ac8189614604565b90508660e0840152856101008401528281036101208401526148ce81866139d5565b90508281036101408401526148e381856139d5565b9e9d5050505050505050505050505050565b60006020828403121561490757600080fd5b81518015158114611aa157600080fd5b60006001820161492957614929614421565b5060010190565b6080815260006149436080830187614590565b828103602084015261495581876145d4565b905082810360408401526149698186614604565b91505082606083015295945050505050565b84815260ff8416602082015282604082015260806060820152600061180c60808301846139d5565b85815260ff8516602082015283604082015260a0606082015260006149cb60a08301856139d5565b82810360808401526149dd81856139d5565b98975050505050505050565b600082516149fb8184602087016139b1565b9190910192915050565b80820180821115610a5c57610a5c614421565b600060208284031215614a2a57600080fd5b5051919050565b6020808252602b908201527f496e697469616c697a61626c653a20636f6e7472616374206973206e6f74206960408201526a6e697469616c697a696e6760a81b606082015260800190565b6001600160401b03818116838216019080821115614a9c57614a9c614421565b5092915050565b8082028115828204841417610a5c57610a5c614421565b600082614ad757634e487b7160e01b600052601260045260246000fd5b50049056fe476f7665726e6f723a2072656c617920726576657274656420776974686f7574206d657373616765476f7665726e6f723a2063616c6c20726576657274656420776974686f7574206d657373616765a2646970667358221220cce134d2687947b63e953cbf9e7e5b2e106d14d8e03a04507cd5b127d2f3f13064736f6c63430008110033",
  "linkReferences": {},
  "deployedLinkReferences": {}
}