{
  "_format": "hh-sol-artifact-1",
  "contractName": "Council",
  "sourceName": "contracts/Council.sol",
  "abi": [
    {
      "inputs": [],
      "stateMutability": "nonpayable",
      "type": "constructor"
    },
    {
      "inputs": [],
      "name": "Empty",
      "type": "error"
    },
    {
      "anonymous": false,
      "inputs": [
        {
          "indexed": false,
          "internalType": "uint8",
          "name": "version",
          "type": "uint8"
        }
      ],
      "name": "Initialized",
      "type": "event"
    },
    {
      "anonymous": false,
      "inputs": [
        {
          "indexed": false,
          "internalType": "uint256",
          "name": "proposalId",
          "type": "uint256"
        }
      ],
      "name": "ProposalCanceled",
      "type": "event"
    },
    {
      "anonymous": false,
      "inputs": [
        {
          "indexed": false,
          "internalType": "uint256",
          "name": "proposalId",
          "type": "uint256"
        },
        {
          "indexed": false,
          "internalType": "address",
          "name": "proposer",
          "type": "address"
        },
        {
          "indexed": false,
          "internalType": "address[]",
          "name": "targets",
          "type": "address[]"
        },
        {
          "indexed": false,
          "internalType": "uint256[]",
          "name": "values",
          "type": "uint256[]"
        },
        {
          "indexed": false,
          "internalType": "string[]",
          "name": "signatures",
          "type": "string[]"
        },
        {
          "indexed": false,
          "internalType": "bytes[]",
          "name": "calldatas",
          "type": "bytes[]"
        },
        {
          "indexed": false,
          "internalType": "uint256",
          "name": "startBlock",
          "type": "uint256"
        },
        {
          "indexed": false,
          "internalType": "uint256",
          "name": "endBlock",
          "type": "uint256"
        },
        {
          "indexed": false,
          "internalType": "string",
          "name": "description",
          "type": "string"
        }
      ],
      "name": "ProposalCreated",
      "type": "event"
    },
    {
      "anonymous": false,
      "inputs": [
        {
          "indexed": false,
          "internalType": "uint256",
          "name": "proposalId",
          "type": "uint256"
        }
      ],
      "name": "ProposalExecuted",
      "type": "event"
    },
    {
      "anonymous": false,
      "inputs": [
        {
          "indexed": false,
          "internalType": "uint256",
          "name": "oldProposalThreshold",
          "type": "uint256"
        },
        {
          "indexed": false,
          "internalType": "uint256",
          "name": "newProposalThreshold",
          "type": "uint256"
        }
      ],
      "name": "ProposalThresholdSet",
      "type": "event"
    },
    {
      "anonymous": false,
      "inputs": [
        {
          "indexed": false,
          "internalType": "uint256",
          "name": "oldQuorumNumerator",
          "type": "uint256"
        },
        {
          "indexed": false,
          "internalType": "uint256",
          "name": "newQuorumNumerator",
          "type": "uint256"
        }
      ],
      "name": "QuorumNumeratorUpdated",
      "type": "event"
    },
    {
      "anonymous": false,
      "inputs": [
        {
          "indexed": true,
          "internalType": "address",
          "name": "voter",
          "type": "address"
        },
        {
          "indexed": false,
          "internalType": "uint256",
          "name": "proposalId",
          "type": "uint256"
        },
        {
          "indexed": false,
          "internalType": "uint8",
          "name": "support",
          "type": "uint8"
        },
        {
          "indexed": false,
          "internalType": "uint256",
          "name": "weight",
          "type": "uint256"
        },
        {
          "indexed": false,
          "internalType": "string",
          "name": "reason",
          "type": "string"
        }
      ],
      "name": "VoteCast",
      "type": "event"
    },
    {
      "anonymous": false,
      "inputs": [
        {
          "indexed": true,
          "internalType": "address",
          "name": "voter",
          "type": "address"
        },
        {
          "indexed": false,
          "internalType": "uint256",
          "name": "proposalId",
          "type": "uint256"
        },
        {
          "indexed": false,
          "internalType": "uint8",
          "name": "support",
          "type": "uint8"
        },
        {
          "indexed": false,
          "internalType": "uint256",
          "name": "weight",
          "type": "uint256"
        },
        {
          "indexed": false,
          "internalType": "string",
          "name": "reason",
          "type": "string"
        },
        {
          "indexed": false,
          "internalType": "bytes",
          "name": "params",
          "type": "bytes"
        }
      ],
      "name": "VoteCastWithParams",
      "type": "event"
    },
    {
      "anonymous": false,
      "inputs": [
        {
          "indexed": false,
          "internalType": "uint256",
          "name": "oldVotingDelay",
          "type": "uint256"
        },
        {
          "indexed": false,
          "internalType": "uint256",
          "name": "newVotingDelay",
          "type": "uint256"
        }
      ],
      "name": "VotingDelaySet",
      "type": "event"
    },
    {
      "anonymous": false,
      "inputs": [
        {
          "indexed": false,
          "internalType": "uint256",
          "name": "oldVotingPeriod",
          "type": "uint256"
        },
        {
          "indexed": false,
          "internalType": "uint256",
          "name": "newVotingPeriod",
          "type": "uint256"
        }
      ],
      "name": "VotingPeriodSet",
      "type": "event"
    },
    {
      "inputs": [],
      "name": "BALLOT_TYPEHASH",
      "outputs": [
        {
          "internalType": "bytes32",
          "name": "",
          "type": "bytes32"
        }
      ],
      "stateMutability": "view",
      "type": "function"
    },
    {
      "inputs": [],
      "name": "COUNTING_MODE",
      "outputs": [
        {
          "internalType": "string",
          "name": "",
          "type": "string"
        }
      ],
      "stateMutability": "pure",
      "type": "function"
    },
    {
      "inputs": [],
      "name": "EXTENDED_BALLOT_TYPEHASH",
      "outputs": [
        {
          "internalType": "bytes32",
          "name": "",
          "type": "bytes32"
        }
      ],
      "stateMutability": "view",
      "type": "function"
    },
    {
      "inputs": [
        {
          "internalType": "uint256",
          "name": "proposalId",
          "type": "uint256"
        },
        {
          "internalType": "uint8",
          "name": "support",
          "type": "uint8"
        }
      ],
      "name": "castVote",
      "outputs": [
        {
          "internalType": "uint256",
          "name": "",
          "type": "uint256"
        }
      ],
      "stateMutability": "nonpayable",
      "type": "function"
    },
    {
      "inputs": [
        {
          "internalType": "uint256",
          "name": "proposalId",
          "type": "uint256"
        },
        {
          "internalType": "uint8",
          "name": "support",
          "type": "uint8"
        },
        {
          "internalType": "uint8",
          "name": "v",
          "type": "uint8"
        },
        {
          "internalType": "bytes32",
          "name": "r",
          "type": "bytes32"
        },
        {
          "internalType": "bytes32",
          "name": "s",
          "type": "bytes32"
        }
      ],
      "name": "castVoteBySig",
      "outputs": [
        {
          "internalType": "uint256",
          "name": "",
          "type": "uint256"
        }
      ],
      "stateMutability": "nonpayable",
      "type": "function"
    },
    {
      "inputs": [
        {
          "internalType": "uint256",
          "name": "proposalId",
          "type": "uint256"
        },
        {
          "internalType": "uint8",
          "name": "support",
          "type": "uint8"
        },
        {
          "internalType": "string",
          "name": "reason",
          "type": "string"
        }
      ],
      "name": "castVoteWithReason",
      "outputs": [
        {
          "internalType": "uint256",
          "name": "",
          "type": "uint256"
        }
      ],
      "stateMutability": "nonpayable",
      "type": "function"
    },
    {
      "inputs": [
        {
          "internalType": "uint256",
          "name": "proposalId",
          "type": "uint256"
        },
        {
          "internalType": "uint8",
          "name": "support",
          "type": "uint8"
        },
        {
          "internalType": "string",
          "name": "reason",
          "type": "string"
        },
        {
          "internalType": "bytes",
          "name": "params",
          "type": "bytes"
        }
      ],
      "name": "castVoteWithReasonAndParams",
      "outputs": [
        {
          "internalType": "uint256",
          "name": "",
          "type": "uint256"
        }
      ],
      "stateMutability": "nonpayable",
      "type": "function"
    },
    {
      "inputs": [
        {
          "internalType": "uint256",
          "name": "proposalId",
          "type": "uint256"
        },
        {
          "internalType": "uint8",
          "name": "support",
          "type": "uint8"
        },
        {
          "internalType": "string",
          "name": "reason",
          "type": "string"
        },
        {
          "internalType": "bytes",
          "name": "params",
          "type": "bytes"
        },
        {
          "internalType": "uint8",
          "name": "v",
          "type": "uint8"
        },
        {
          "internalType": "bytes32",
          "name": "r",
          "type": "bytes32"
        },
        {
          "internalType": "bytes32",
          "name": "s",
          "type": "bytes32"
        }
      ],
      "name": "castVoteWithReasonAndParamsBySig",
      "outputs": [
        {
          "internalType": "uint256",
          "name": "",
          "type": "uint256"
        }
      ],
      "stateMutability": "nonpayable",
      "type": "function"
    },
    {
      "inputs": [
        {
          "internalType": "address[]",
          "name": "targets",
          "type": "address[]"
        },
        {
          "internalType": "uint256[]",
          "name": "values",
          "type": "uint256[]"
        },
        {
          "internalType": "bytes[]",
          "name": "calldatas",
          "type": "bytes[]"
        },
        {
          "internalType": "bytes32",
          "name": "descriptionHash",
          "type": "bytes32"
        }
      ],
      "name": "execute",
      "outputs": [
        {
          "internalType": "uint256",
          "name": "",
          "type": "uint256"
        }
      ],
      "stateMutability": "payable",
      "type": "function"
    },
    {
      "inputs": [
        {
          "internalType": "uint256",
          "name": "proposalId",
          "type": "uint256"
        }
      ],
      "name": "getProposalById",
      "outputs": [
        {
          "components": [
            {
              "components": [
                {
                  "internalType": "uint64",
                  "name": "_deadline",
                  "type": "uint64"
                }
              ],
              "internalType": "struct TimersUpgradeable.BlockNumber",
              "name": "voteStart",
              "type": "tuple"
            },
            {
              "components": [
                {
                  "internalType": "uint64",
                  "name": "_deadline",
                  "type": "uint64"
                }
              ],
              "internalType": "struct TimersUpgradeable.BlockNumber",
              "name": "voteEnd",
              "type": "tuple"
            },
            {
              "internalType": "bool",
              "name": "executed",
              "type": "bool"
            },
            {
              "internalType": "bool",
              "name": "canceled",
              "type": "bool"
            },
            {
              "internalType": "enum IGovernorUpgradeable.ProposalState",
              "name": "state",
              "type": "uint8"
            }
          ],
          "internalType": "struct GovernorUpgradeable.ProposalCore",
          "name": "proposal",
          "type": "tuple"
        }
      ],
      "stateMutability": "view",
      "type": "function"
    },
    {
      "inputs": [
        {
          "internalType": "address",
          "name": "account",
          "type": "address"
        },
        {
          "internalType": "uint256",
          "name": "blockNumber",
          "type": "uint256"
        }
      ],
      "name": "getVotes",
      "outputs": [
        {
          "internalType": "uint256",
          "name": "",
          "type": "uint256"
        }
      ],
      "stateMutability": "view",
      "type": "function"
    },
    {
      "inputs": [
        {
          "internalType": "address",
          "name": "account",
          "type": "address"
        },
        {
          "internalType": "uint256",
          "name": "blockNumber",
          "type": "uint256"
        },
        {
          "internalType": "bytes",
          "name": "params",
          "type": "bytes"
        }
      ],
      "name": "getVotesWithParams",
      "outputs": [
        {
          "internalType": "uint256",
          "name": "",
          "type": "uint256"
        }
      ],
      "stateMutability": "view",
      "type": "function"
    },
    {
      "inputs": [
        {
          "internalType": "address[]",
          "name": "foundingMembers",
          "type": "address[]"
        },
        {
          "internalType": "uint256",
          "name": "grantQuantity",
          "type": "uint256"
        }
      ],
      "name": "grantToFounders",
      "outputs": [],
      "stateMutability": "nonpayable",
      "type": "function"
    },
    {
      "inputs": [
        {
          "internalType": "uint256",
          "name": "proposalId",
          "type": "uint256"
        },
        {
          "internalType": "address",
          "name": "account",
          "type": "address"
        }
      ],
      "name": "hasVoted",
      "outputs": [
        {
          "internalType": "bool",
          "name": "",
          "type": "bool"
        }
      ],
      "stateMutability": "view",
      "type": "function"
    },
    {
      "inputs": [
        {
          "internalType": "address[]",
          "name": "targets",
          "type": "address[]"
        },
        {
          "internalType": "uint256[]",
          "name": "values",
          "type": "uint256[]"
        },
        {
          "internalType": "bytes[]",
          "name": "calldatas",
          "type": "bytes[]"
        },
        {
          "internalType": "bytes32",
          "name": "descriptionHash",
          "type": "bytes32"
        }
      ],
      "name": "hashProposal",
      "outputs": [
        {
          "internalType": "uint256",
          "name": "",
          "type": "uint256"
        }
      ],
      "stateMutability": "pure",
      "type": "function"
    },
    {
      "inputs": [
        {
          "internalType": "contract IVotesUpgradeable",
          "name": "_token",
          "type": "address"
        }
      ],
      "name": "initialize",
      "outputs": [],
      "stateMutability": "nonpayable",
      "type": "function"
    },
    {
      "inputs": [],
      "name": "name",
      "outputs": [
        {
          "internalType": "string",
          "name": "",
          "type": "string"
        }
      ],
      "stateMutability": "view",
      "type": "function"
    },
    {
      "inputs": [
        {
          "internalType": "address",
          "name": "",
          "type": "address"
        },
        {
          "internalType": "address",
          "name": "",
          "type": "address"
        },
        {
          "internalType": "uint256[]",
          "name": "",
          "type": "uint256[]"
        },
        {
          "internalType": "uint256[]",
          "name": "",
          "type": "uint256[]"
        },
        {
          "internalType": "bytes",
          "name": "",
          "type": "bytes"
        }
      ],
      "name": "onERC1155BatchReceived",
      "outputs": [
        {
          "internalType": "bytes4",
          "name": "",
          "type": "bytes4"
        }
      ],
      "stateMutability": "nonpayable",
      "type": "function"
    },
    {
      "inputs": [
        {
          "internalType": "address",
          "name": "",
          "type": "address"
        },
        {
          "internalType": "address",
          "name": "",
          "type": "address"
        },
        {
          "internalType": "uint256",
          "name": "",
          "type": "uint256"
        },
        {
          "internalType": "uint256",
          "name": "",
          "type": "uint256"
        },
        {
          "internalType": "bytes",
          "name": "",
          "type": "bytes"
        }
      ],
      "name": "onERC1155Received",
      "outputs": [
        {
          "internalType": "bytes4",
          "name": "",
          "type": "bytes4"
        }
      ],
      "stateMutability": "nonpayable",
      "type": "function"
    },
    {
      "inputs": [
        {
          "internalType": "address",
          "name": "",
          "type": "address"
        },
        {
          "internalType": "address",
          "name": "",
          "type": "address"
        },
        {
          "internalType": "uint256",
          "name": "",
          "type": "uint256"
        },
        {
          "internalType": "bytes",
          "name": "",
          "type": "bytes"
        }
      ],
      "name": "onERC721Received",
      "outputs": [
        {
          "internalType": "bytes4",
          "name": "",
          "type": "bytes4"
        }
      ],
      "stateMutability": "nonpayable",
      "type": "function"
    },
    {
      "inputs": [
        {
          "internalType": "uint256",
          "name": "proposalId",
          "type": "uint256"
        }
      ],
      "name": "proposalDeadline",
      "outputs": [
        {
          "internalType": "uint256",
          "name": "",
          "type": "uint256"
        }
      ],
      "stateMutability": "view",
      "type": "function"
    },
    {
      "inputs": [
        {
          "internalType": "uint256",
          "name": "proposalId",
          "type": "uint256"
        }
      ],
      "name": "proposalSnapshot",
      "outputs": [
        {
          "internalType": "uint256",
          "name": "",
          "type": "uint256"
        }
      ],
      "stateMutability": "view",
      "type": "function"
    },
    {
      "inputs": [],
      "name": "proposalThreshold",
      "outputs": [
        {
          "internalType": "uint256",
          "name": "",
          "type": "uint256"
        }
      ],
      "stateMutability": "view",
      "type": "function"
    },
    {
      "inputs": [
        {
          "internalType": "uint256",
          "name": "proposalId",
          "type": "uint256"
        }
      ],
      "name": "proposalVotes",
      "outputs": [
        {
          "internalType": "uint256",
          "name": "againstVotes",
          "type": "uint256"
        },
        {
          "internalType": "uint256",
          "name": "forVotes",
          "type": "uint256"
        },
        {
          "internalType": "uint256",
          "name": "abstainVotes",
          "type": "uint256"
        }
      ],
      "stateMutability": "view",
      "type": "function"
    },
    {
      "inputs": [
        {
          "internalType": "address[]",
          "name": "targets",
          "type": "address[]"
        },
        {
          "internalType": "uint256[]",
          "name": "values",
          "type": "uint256[]"
        },
        {
          "internalType": "bytes[]",
          "name": "calldatas",
          "type": "bytes[]"
        },
        {
          "internalType": "string",
          "name": "description",
          "type": "string"
        }
      ],
      "name": "propose",
      "outputs": [
        {
          "internalType": "uint256",
          "name": "",
          "type": "uint256"
        }
      ],
      "stateMutability": "nonpayable",
      "type": "function"
    },
    {
      "inputs": [
        {
          "internalType": "uint256",
          "name": "blockNumber",
          "type": "uint256"
        }
      ],
      "name": "quorum",
      "outputs": [
        {
          "internalType": "uint256",
          "name": "",
          "type": "uint256"
        }
      ],
      "stateMutability": "view",
      "type": "function"
    },
    {
      "inputs": [],
      "name": "quorumDenominator",
      "outputs": [
        {
          "internalType": "uint256",
          "name": "",
          "type": "uint256"
        }
      ],
      "stateMutability": "view",
      "type": "function"
    },
    {
      "inputs": [
        {
          "internalType": "uint256",
          "name": "blockNumber",
          "type": "uint256"
        }
      ],
      "name": "quorumNumerator",
      "outputs": [
        {
          "internalType": "uint256",
          "name": "",
          "type": "uint256"
        }
      ],
      "stateMutability": "view",
      "type": "function"
    },
    {
      "inputs": [],
      "name": "quorumNumerator",
      "outputs": [
        {
          "internalType": "uint256",
          "name": "",
          "type": "uint256"
        }
      ],
      "stateMutability": "view",
      "type": "function"
    },
    {
      "inputs": [
        {
          "internalType": "address",
          "name": "target",
          "type": "address"
        },
        {
          "internalType": "uint256",
          "name": "value",
          "type": "uint256"
        },
        {
          "internalType": "bytes",
          "name": "data",
          "type": "bytes"
        }
      ],
      "name": "relay",
      "outputs": [],
      "stateMutability": "payable",
      "type": "function"
    },
    {
      "inputs": [
        {
          "internalType": "uint256",
          "name": "proposalId",
          "type": "uint256"
        }
      ],
      "name": "secondProposal",
      "outputs": [],
      "stateMutability": "nonpayable",
      "type": "function"
    },
    {
      "inputs": [
        {
          "internalType": "uint256",
          "name": "newProposalThreshold",
          "type": "uint256"
        }
      ],
      "name": "setProposalThreshold",
      "outputs": [],
      "stateMutability": "nonpayable",
      "type": "function"
    },
    {
      "inputs": [
        {
          "internalType": "uint256",
          "name": "newVotingDelay",
          "type": "uint256"
        }
      ],
      "name": "setVotingDelay",
      "outputs": [],
      "stateMutability": "nonpayable",
      "type": "function"
    },
    {
      "inputs": [
        {
          "internalType": "uint256",
          "name": "newVotingPeriod",
          "type": "uint256"
        }
      ],
      "name": "setVotingPeriod",
      "outputs": [],
      "stateMutability": "nonpayable",
      "type": "function"
    },
    {
      "inputs": [
        {
          "internalType": "uint256",
          "name": "proposalId",
          "type": "uint256"
        }
      ],
      "name": "state",
      "outputs": [
        {
          "internalType": "enum IGovernorUpgradeable.ProposalState",
          "name": "",
          "type": "uint8"
        }
      ],
      "stateMutability": "view",
      "type": "function"
    },
    {
      "inputs": [
        {
          "internalType": "bytes4",
          "name": "interfaceId",
          "type": "bytes4"
        }
      ],
      "name": "supportsInterface",
      "outputs": [
        {
          "internalType": "bool",
          "name": "",
          "type": "bool"
        }
      ],
      "stateMutability": "view",
      "type": "function"
    },
    {
      "inputs": [],
      "name": "token",
      "outputs": [
        {
          "internalType": "contract IVotesUpgradeable",
          "name": "",
          "type": "address"
        }
      ],
      "stateMutability": "view",
      "type": "function"
    },
    {
      "inputs": [
        {
          "internalType": "uint256",
          "name": "newQuorumNumerator",
          "type": "uint256"
        }
      ],
      "name": "updateQuorumNumerator",
      "outputs": [],
      "stateMutability": "nonpayable",
      "type": "function"
    },
    {
      "inputs": [],
      "name": "version",
      "outputs": [
        {
          "internalType": "string",
          "name": "",
          "type": "string"
        }
      ],
      "stateMutability": "view",
      "type": "function"
    },
    {
      "inputs": [],
      "name": "votingDelay",
      "outputs": [
        {
          "internalType": "uint256",
          "name": "",
          "type": "uint256"
        }
      ],
      "stateMutability": "view",
      "type": "function"
    },
    {
      "inputs": [],
      "name": "votingPeriod",
      "outputs": [
        {
          "internalType": "uint256",
          "name": "",
          "type": "uint256"
        }
      ],
      "stateMutability": "view",
      "type": "function"
    },
    {
      "stateMutability": "payable",
      "type": "receive"
    }
  ],
  "bytecode": "0x60806040523480156200001157600080fd5b506200001c62000022565b620000e4565b600054610100900460ff16156200008f5760405162461bcd60e51b815260206004820152602760248201527f496e697469616c697a61626c653a20636f6e747261637420697320696e697469604482015266616c697a696e6760c81b606482015260840160405180910390fd5b60005460ff9081161015620000e2576000805460ff191660ff9081179091556040519081527f7f26b83ff96e1f2b6a682f133852f6798a09c465da95921460cefb38474024989060200160405180910390a15b565b613a9880620000f46000396000f3fe60806040526004361061024a5760003560e01c80637b3c71d311610139578063c4d66de8116100b6578063ea0217cf1161007a578063ea0217cf1461078e578063eb9019d4146107ae578063ece40cc1146107ce578063f23a6e61146107ee578063f8ce560a1461081a578063fc0c546a1461083a57600080fd5b8063c4d66de8146106b4578063c59057e4146106d4578063d38761b8146106f4578063dd4e2ba514610714578063deaaa7cc1461075a57600080fd5b8063ae125ff9116100fd578063ae125ff914610620578063b58131b014610640578063bc197c8114610655578063c01f9e3714610681578063c28bc2fa146106a157600080fd5b80637b3c71d3146105975780637d5e81e2146105b757806397c3d334146105d75780639a802a6d146105eb578063a7713a701461060b57600080fd5b80633932abb1116101c757806354fd4d501161018b57806354fd4d50146104ed57806356781388146105175780635f398a141461053757806360c4247f1461055757806370b0f6601461057757600080fd5b80633932abb1146103ea5780633bccf4fd146103ff5780633e4f49e61461041f578063438596321461044c578063544ffc9c1461049757600080fd5b8063150b7a021161020e578063150b7a02146103125780632656227d146103565780632d63f693146103695780632fe3e261146103895780633656de21146103bd57600080fd5b806301ffc9a71461025857806302a251a31461028d57806303420181146102b057806306f3f9e6146102d057806306fdde03146102f057600080fd5b3661025357005b005b600080fd5b34801561026457600080fd5b50610278610273366004612abc565b610873565b60405190151581526020015b60405180910390f35b34801561029957600080fd5b506102a26108e0565b604051908152602001610284565b3480156102bc57600080fd5b506102a26102cb366004612bfa565b6108f0565b3480156102dc57600080fd5b506102516102eb366004612ca0565b6109e8565b3480156102fc57600080fd5b50610305610a33565b6040516102849190612d09565b34801561031e57600080fd5b5061033d61032d366004612d31565b630a85bd0160e11b949350505050565b6040516001600160e01b03199091168152602001610284565b6102a2610364366004612f0d565b610ac5565b34801561037557600080fd5b506102a2610384366004612ca0565b610bf1565b34801561039557600080fd5b506102a27fb3b3f3b703cd84ce352197dcff232b1b5d3cfb2025ce47cf04742d0651f1af8881565b3480156103c957600080fd5b506103dd6103d8366004612ca0565b610c28565b6040516102849190612fd4565b3480156103f657600080fd5b506102a2610d06565b34801561040b57600080fd5b506102a261041a36600461302a565b610d11565b34801561042b57600080fd5b5061043f61043a366004612ca0565b610d87565b6040516102849190613078565b34801561045857600080fd5b50610278610467366004613086565b600082815261012f602090815260408083206001600160a01b038516845260030190915290205460ff1692915050565b3480156104a357600080fd5b506104d26104b2366004612ca0565b600090815261012f60205260409020805460018201546002909201549092565b60408051938452602084019290925290820152606001610284565b3480156104f957600080fd5b506040805180820190915260018152603160f81b6020820152610305565b34801561052357600080fd5b506102a26105323660046130b6565b610e97565b34801561054357600080fd5b506102a26105523660046130e2565b610ec0565b34801561056357600080fd5b506102a2610572366004612ca0565b610f0a565b34801561058357600080fd5b50610251610592366004612ca0565b610fa5565b3480156105a357600080fd5b506102a26105b2366004613165565b610fe4565b3480156105c357600080fd5b506102a26105d23660046131be565b611036565b3480156105e357600080fd5b5060646102a2565b3480156105f757600080fd5b506102a2610606366004613272565b6112c0565b34801561061757600080fd5b506102a26112d7565b34801561062c57600080fd5b5061025161063b3660046132ca565b611304565b34801561064c57600080fd5b506102a2611431565b34801561066157600080fd5b5061033d61067036600461330e565b63bc197c8160e01b95945050505050565b34801561068d57600080fd5b506102a261069c366004612ca0565b61143c565b6102516106af3660046133a1565b61146b565b3480156106c057600080fd5b506102516106cf3660046133e4565b611532565b3480156106e057600080fd5b506102a26106ef366004612f0d565b61169a565b34801561070057600080fd5b5061025161070f366004612ca0565b6116d4565b34801561072057600080fd5b506040805180820190915260208082527f737570706f72743d627261766f2671756f72756d3d666f722c6162737461696e90820152610305565b34801561076657600080fd5b506102a27f150214d74d59b7d1e90c73fc22ef3d991dd0a76b046543d4d80ab92d2a50328f81565b34801561079a57600080fd5b506102516107a9366004612ca0565b611755565b3480156107ba57600080fd5b506102a26107c9366004613401565b611794565b3480156107da57600080fd5b506102516107e9366004612ca0565b6117b5565b3480156107fa57600080fd5b5061033d61080936600461342d565b63f23a6e6160e01b95945050505050565b34801561082657600080fd5b506102a2610835366004612ca0565b6117f4565b34801561084657600080fd5b506101615461085b906001600160a01b031681565b6040516001600160a01b039091168152602001610284565b60006001600160e01b0319821663bf26d89760e01b14806108a457506001600160e01b031982166379dd796f60e01b145b806108bf57506001600160e01b03198216630271189760e51b145b806108da57506301ffc9a760e01b6001600160e01b03198316145b92915050565b60006108eb60fe5490565b905090565b60008061099461098c7fb3b3f3b703cd84ce352197dcff232b1b5d3cfb2025ce47cf04742d0651f1af888c8c8c8c60405161092c929190613495565b60405180910390208b80519060200120604051602001610971959493929190948552602085019390935260ff9190911660408401526060830152608082015260a00190565b604051602081830303815290604052805190602001206117ff565b86868661184d565b90506109da8a828b8b8b8080601f0160208091040260200160405190810160405280939291908181526020018383808284376000920191909152508d925061186b915050565b9a9950505050505050505050565b333014610a105760405162461bcd60e51b8152600401610a07906134a5565b60405180910390fd5b610a27565b80610a2060cd6119cf565b03610a1557505b610a3081611a4e565b50565b606060cb8054610a42906134dc565b80601f0160208091040260200160405190810160405280929190818152602001828054610a6e906134dc565b8015610abb5780601f10610a9057610100808354040283529160200191610abb565b820191906000526020600020905b815481529060010190602001808311610a9e57829003601f168201915b5050505050905090565b600080610ad48686868661169a565b90506000610ae182610d87565b9050600781600a811115610af757610af7612f9c565b1480610b145750600881600a811115610b1257610b12612f9c565b145b610b6a5760405162461bcd60e51b815260206004820152602160248201527f476f7665726e6f723a2070726f706f73616c206e6f74207375636365737366756044820152601b60fa1b6064820152608401610a07565b600082815260cc602052604090819020600201805460ff19166001179055517f712ae1383f79ac853f8d882153778e0260ef8f03b504e2866e0593e04d2b291f90610bb89084815260200190565b60405180910390a1610bcd8288888888611b96565b610bda8288888888611c23565b610be78288888888611b96565b5095945050505050565b600081815260cc602090815260408083208151928301909152546001600160401b0316908190525b6001600160401b031692915050565b6040805160c081018252600060a082018181528252825160208082018552828252830152918101829052606081018290526080810191909152600082815260cc6020908152604091829020825160c08101845281546001600160401b0390811660a083019081528252845180850186526001840154909116815292810192909252600281015460ff80821615159484019490945261010081048416151560608401529192909160808401916201000090910416600a811115610cec57610cec612f9c565b600a811115610cfd57610cfd612f9c565b90525092915050565b60006108eb60fd5490565b604080517f150214d74d59b7d1e90c73fc22ef3d991dd0a76b046543d4d80ab92d2a50328f602082015290810186905260ff851660608201526000908190610d5f9061098c90608001610971565b9050610d7c87828860405180602001604052806000815250611d19565b979650505050505050565b600081815260cc60205260408120600281015460ff1615610dab5750600a92915050565b6002810154610100900460ff1615610dc65750600592915050565b6000610dd184610bf1565b905080600003610e235760405162461bcd60e51b815260206004820152601d60248201527f476f7665726e6f723a20756e6b6e6f776e2070726f706f73616c2069640000006044820152606401610a07565b438110610e34575060039392505050565b6000610e3f8561143c565b9050438110610e5357506004949350505050565b610e5c85611d45565b8015610e7c5750600085815261012f602052604090208054600190910154115b15610e8c57506007949350505050565b506006949350505050565b600080339050610eb884828560405180602001604052806000815250611d19565b949350505050565b600080339050610d7c87828888888080601f0160208091040260200160405190810160405280939291908181526020018383808284376000920191909152508a925061186b915050565b61019554600090808203610f2357505061019454919050565b6000610195610f3360018461352c565b81548110610f4357610f4361353f565b60009182526020918290206040805180820190915291015463ffffffff8116808352600160201b9091046001600160e01b03169282019290925291508410610f9957602001516001600160e01b03169392505050565b610eb861019585611d7d565b333014610fc45760405162461bcd60e51b8152600401610a07906134a5565b610fdb565b80610fd460cd6119cf565b03610fc957505b610a3081611e3d565b60008033905061102c86828787878080601f016020809104026020016040519081016040528093929190818152602001838380828437600092019190915250611d1992505050565b9695505050505050565b6000611040611431565b611050335b6107c960014361352c565b10156110b85760405162461bcd60e51b815260206004820152603160248201527f476f7665726e6f723a2070726f706f73657220766f7465732062656c6f7720706044820152701c9bdc1bdcd85b081d1a1c995cda1bdb19607a1b6064820152608401610a07565b60006110cd868686868051906020012061169a565b905084518651146110f05760405162461bcd60e51b8152600401610a0790613555565b83518651146111115760405162461bcd60e51b8152600401610a0790613555565b60008651116111625760405162461bcd60e51b815260206004820152601860248201527f476f7665726e6f723a20656d7074792070726f706f73616c00000000000000006044820152606401610a07565b600081815260cc6020526040812090600282015462010000900460ff16600a81111561119057611190612f9c565b036111e75760405162461bcd60e51b815260206004820152602160248201527f476f7665726e6f723a2070726f706f73616c20616c72656164792065786973746044820152607360f81b6064820152608401610a07565b60028101805462ff00001916620100001790557f7d84a6263ae0d98d3329bd7b46bb4e8d6f98cd35a7adb45c274c8b7fd5ebd5e0823389898b516001600160401b0381111561123857611238612b3d565b60405190808252806020026020018201604052801561126b57816020015b60608152602001906001900390816112565790505b50604080516020808201835289546001600160401b03908116928390528351918201845260018b0154169081905291516112ae9796959493928e92918e9061365f565b60405180910390a15095945050505050565b60006112cd848484611e7e565b90505b9392505050565b61019554600090156112fc576112ee610195611ef5565b6001600160e01b0316905090565b506101945490565b6101c65460ff16156113585760405162461bcd60e51b815260206004820152601f60248201527f466f756e646572206772616e7420616c726561647920636f6d706c65746564006044820152606401610a07565b6101c6805460ff1916600117905560005b825181101561142c576101615483516001600160a01b039091169063a9059cbb9085908490811061139c5761139c61353f565b6020026020010151846040518363ffffffff1660e01b81526004016113d69291906001600160a01b03929092168252602082015260400190565b6020604051808303816000875af11580156113f5573d6000803e3d6000fd5b505050506040513d601f19601f82011682018060405250810190611419919061374e565b508061142481613770565b915050611369565b505050565b60006108eb60ff5490565b600081815260cc602090815260408083208151928301909152600101546001600160401b031690819052610c19565b33301461148a5760405162461bcd60e51b8152600401610a07906134a5565b6114a1565b8061149a60cd6119cf565b0361148f57505b600080856001600160a01b03168585856040516114bf929190613495565b60006040518083038185875af1925050503d80600081146114fc576040519150601f19603f3d011682016040523d82523d6000602084013e611501565b606091505b50915091506115298282604051806060016040528060288152602001613a1460289139611f2e565b50505050505050565b600054610100900460ff16158080156115525750600054600160ff909116105b8061156c5750303b15801561156c575060005460ff166001145b6115cf5760405162461bcd60e51b815260206004820152602e60248201527f496e697469616c697a61626c653a20636f6e747261637420697320616c72656160448201526d191e481a5b9a5d1a585b1a5e995960921b6064820152608401610a07565b6000805460ff1916600117905580156115f2576000805461ff0019166101001790555b61161a6040518060400160405280600781526020016610dbdd5b98da5b60ca1b815250611f47565b611629600161c4e06000611f9e565b611631611fd0565b61163a82611ff9565b6116446004612029565b6101c6805460ff191690558015611696576000805461ff0019169055604051600181527f7f26b83ff96e1f2b6a682f133852f6798a09c465da95921460cefb3847402498906020015b60405180910390a15b5050565b6000848484846040516020016116b39493929190613789565b60408051601f19818403018152919052805160209091012095945050505050565b60006116df33611045565b101561171b5760405162461bcd60e51b815260206004820152600b60248201526a566f74657273206f6e6c7960a81b6044820152606401610a07565b600061172682610c28565b905060018160800151600a81111561174057611740612f9c565b1461174a57600080fd5b611696826002612059565b3330146117745760405162461bcd60e51b8152600401610a07906134a5565b61178b565b8061178460cd6119cf565b0361177957505b610a3081612096565b60006112d083836117b060408051602081019091526000815290565b611e7e565b3330146117d45760405162461bcd60e51b8152600401610a07906134a5565b6117eb565b806117e460cd6119cf565b036117d957505b610a3081612137565b60006108da82612178565b60006108da61180c612207565b8360405161190160f01b6020820152602281018390526042810182905260009060620160405160208183030381529060405280519060200120905092915050565b600080600061185e87878787612282565b91509150610be781612346565b600085815260cc60205260408120600461188488610d87565b600a81111561189557611895612f9c565b146118ee5760405162461bcd60e51b815260206004820152602360248201527f476f7665726e6f723a20766f7465206e6f742063757272656e746c792061637460448201526269766560e81b6064820152608401610a07565b604080516020810190915281546001600160401b03169081905260009061191790889086611e7e565b90506119268888888488612490565b835160000361197b57866001600160a01b03167fb8e138887d0aa13bab447e82de9d5c1777041ecd21ca36ba824ff1e6c07ddda48988848960405161196e94939291906137d4565b60405180910390a2610d7c565b866001600160a01b03167fe2babfbac5889a709b63bb7f598b324e08bc5a4fb9ec647fb3cbc9ec07eb871289888489896040516119bc9594939291906137fc565b60405180910390a2979650505050505050565b60006119ea8254600f81810b600160801b909204900b131590565b15611a0857604051631ed9509560e11b815260040160405180910390fd5b508054600f0b6000818152600180840160205260408220805492905583546fffffffffffffffffffffffffffffffff191692016001600160801b03169190911790915590565b6064811115611ad15760405162461bcd60e51b815260206004820152604360248201527f476f7665726e6f72566f74657351756f72756d4672616374696f6e3a2071756f60448201527f72756d4e756d657261746f72206f7665722071756f72756d44656e6f6d696e616064820152623a37b960e91b608482015260a401610a07565b6000611adb6112d7565b90508015801590611aed575061019554155b15611b525760408051808201909152600081526101959060208101611b118461260b565b6001600160e01b039081169091528254600181018455600093845260209384902083519490930151909116600160201b0263ffffffff909316929092179101555b611b5e61019583612678565b505060408051828152602081018490527f0553476bf02ef2726e8ce5ced78d63e26e602e4a2257b1f559418e24b4633997910161168d565b611c1c565b8451811015611c1a57306001600160a01b0316858281518110611bc057611bc061353f565b60200260200101516001600160a01b031603611c0a57611c0a838281518110611beb57611beb61353f565b60200260200101518051906020012060cd6126ae90919063ffffffff16565b611c1381613770565b9050611b9b565b505b5050505050565b6000604051806060016040528060278152602001613a3c60279139905060005b855181101561152957600080878381518110611c6157611c6161353f565b60200260200101516001600160a01b0316878481518110611c8457611c8461353f565b6020026020010151878581518110611c9e57611c9e61353f565b6020026020010151604051611cb39190613842565b60006040518083038185875af1925050503d8060008114611cf0576040519150601f19603f3d011682016040523d82523d6000602084013e611cf5565b606091505b5091509150611d05828286611f2e565b50505080611d1290613770565b9050611c43565b6000611d3c85858585611d3760408051602081019091526000815290565b61186b565b95945050505050565b600081815261012f6020526040812060028101546001820154611d68919061385e565b611d7461083585610bf1565b11159392505050565b6000438210611dce5760405162461bcd60e51b815260206004820181905260248201527f436865636b706f696e74733a20626c6f636b206e6f7420796574206d696e65646044820152606401610a07565b6000611dd9836126ea565b84549091506000611dec8684838561274f565b90508015611e2757611e1186611e0360018461352c565b600091825260209091200190565b54600160201b90046001600160e01b0316611e2a565b60005b6001600160e01b03169695505050505050565b60fd5460408051918252602082018390527fc565b045403dc03c2eea82b81a0465edad9e2e7fc4d97e11421c209da93d7a93910160405180910390a160fd55565b61016154604051630748d63560e31b81526001600160a01b038581166004830152602482018590526000921690633a46b1a890604401602060405180830381865afa158015611ed1573d6000803e3d6000fd5b505050506040513d601f19601f820116820180604052508101906112cd9190613871565b80546000908015611f2557611f0f83611e0360018461352c565b54600160201b90046001600160e01b03166112d0565b60009392505050565b60608315611f3d5750816112d0565b6112d083836127ad565b600054610100900460ff16611f6e5760405162461bcd60e51b8152600401610a079061388a565b611f9581611f906040805180820190915260018152603160f81b602082015290565b6127d7565b610a3081612818565b600054610100900460ff16611fc55760405162461bcd60e51b8152600401610a079061388a565b61142c83838361284b565b600054610100900460ff16611ff75760405162461bcd60e51b8152600401610a079061388a565b565b600054610100900460ff166120205760405162461bcd60e51b8152600401610a079061388a565b610a308161288d565b600054610100900460ff166120505760405162461bcd60e51b8152600401610a079061388a565b610a30816128d7565b600082815260cc6020526040902060028101805483919062ff000019166201000083600a81111561208c5761208c612f9c565b0217905550505050565b600081116120f65760405162461bcd60e51b815260206004820152602760248201527f476f7665726e6f7253657474696e67733a20766f74696e6720706572696f6420604482015266746f6f206c6f7760c81b6064820152608401610a07565b60fe5460408051918252602082018390527f7e3f7f0708a84de9203036abaa450dccc85ad5ff52f78c170f3edb55cf5e8828910160405180910390a160fe55565b60ff5460408051918252602082018390527fccb45da8d5717e6c4544694297c4ba5cf151d455c9bb0ed4fc7a38411bc05461910160405180910390a160ff55565b6000606461218583610f0a565b61016154604051632394e7a360e21b8152600481018690526001600160a01b0390911690638e539e8c90602401602060405180830381865afa1580156121cf573d6000803e3d6000fd5b505050506040513d601f19601f820116820180604052508101906121f39190613871565b6121fd91906138d5565b6108da91906138ec565b60006108eb7f8b73c3c69bb8fe3d512ecc4cf759cc79239f7b179b0ffacaa9a75d522b39400f61223660655490565b6066546040805160208101859052908101839052606081018290524660808201523060a082015260009060c0016040516020818303038152906040528051906020012090509392505050565b6000807f7fffffffffffffffffffffffffffffff5d576e7357a4501ddfe92f46681b20a08311156122b9575060009050600361233d565b6040805160008082526020820180845289905260ff881692820192909252606081018690526080810185905260019060a0016020604051602081039080840390855afa15801561230d573d6000803e3d6000fd5b5050604051601f1901519150506001600160a01b0381166123365760006001925092505061233d565b9150600090505b94509492505050565b600081600481111561235a5761235a612f9c565b036123625750565b600181600481111561237657612376612f9c565b036123c35760405162461bcd60e51b815260206004820152601860248201527f45434453413a20696e76616c6964207369676e617475726500000000000000006044820152606401610a07565b60028160048111156123d7576123d7612f9c565b036124245760405162461bcd60e51b815260206004820152601f60248201527f45434453413a20696e76616c6964207369676e6174757265206c656e677468006044820152606401610a07565b600381600481111561243857612438612f9c565b03610a305760405162461bcd60e51b815260206004820152602260248201527f45434453413a20696e76616c6964207369676e6174757265202773272076616c604482015261756560f01b6064820152608401610a07565b600085815261012f602090815260408083206001600160a01b0388168452600381019092529091205460ff16156125195760405162461bcd60e51b815260206004820152602760248201527f476f7665726e6f72566f74696e6753696d706c653a20766f746520616c726561604482015266191e4818d85cdd60ca1b6064820152608401610a07565b6001600160a01b03851660009081526003820160205260409020805460ff1916600117905560ff8416612565578281600001600082825461255a919061385e565b90915550611c1a9050565b60001960ff851601612585578281600101600082825461255a919061385e565b60011960ff8516016125a5578281600201600082825461255a919061385e565b60405162461bcd60e51b815260206004820152603560248201527f476f7665726e6f72566f74696e6753696d706c653a20696e76616c69642076616044820152746c756520666f7220656e756d20566f74655479706560581b6064820152608401610a07565b60006001600160e01b038211156126745760405162461bcd60e51b815260206004820152602760248201527f53616665436173743a2076616c756520646f65736e27742066697420696e20326044820152663234206269747360c81b6064820152608401610a07565b5090565b60008061269684612688436126ea565b6126918661260b565b6128fe565b6001600160e01b0391821693501690505b9250929050565b8154600160801b90819004600f0b6000818152600180860160205260409091209390935583546001600160801b03908116939091011602179055565b600063ffffffff8211156126745760405162461bcd60e51b815260206004820152602660248201527f53616665436173743a2076616c756520646f65736e27742066697420696e203360448201526532206269747360d01b6064820152608401610a07565b60005b818310156127a55760006127668484612aa1565b60008781526020902090915063ffffffff86169082015463ffffffff1611156127915780925061279f565b61279c81600161385e565b93505b50612752565b509392505050565b8151156127bd5781518083602001fd5b8060405162461bcd60e51b8152600401610a079190612d09565b600054610100900460ff166127fe5760405162461bcd60e51b8152600401610a079061388a565b815160209283012081519190920120606591909155606655565b600054610100900460ff1661283f5760405162461bcd60e51b8152600401610a079061388a565b60cb6116968282613954565b600054610100900460ff166128725760405162461bcd60e51b8152600401610a079061388a565b61287b83611e3d565b61288482612096565b61142c81612137565b600054610100900460ff166128b45760405162461bcd60e51b8152600401610a079061388a565b61016180546001600160a01b0319166001600160a01b0392909216919091179055565b600054610100900460ff16610a275760405162461bcd60e51b8152600401610a079061388a565b825460009081908015612a4457600061291c87611e0360018561352c565b60408051808201909152905463ffffffff808216808452600160201b9092046001600160e01b03166020840152919250908716101561299d5760405162461bcd60e51b815260206004820152601760248201527f436865636b706f696e743a20696e76616c6964206b65790000000000000000006044820152606401610a07565b805163ffffffff8088169116036129e557846129be88611e0360018661352c565b80546001600160e01b0392909216600160201b0263ffffffff909216919091179055612a34565b6040805180820190915263ffffffff80881682526001600160e01b0380881660208085019182528b54600181018d5560008d81529190912094519151909216600160201b029216919091179101555b602001519250839150612a999050565b50506040805180820190915263ffffffff80851682526001600160e01b0380851660208085019182528854600181018a5560008a815291822095519251909316600160201b0291909316179201919091559050815b935093915050565b6000612ab060028484186138ec565b6112d09084841661385e565b600060208284031215612ace57600080fd5b81356001600160e01b0319811681146112d057600080fd5b803560ff81168114612af757600080fd5b919050565b60008083601f840112612b0e57600080fd5b5081356001600160401b03811115612b2557600080fd5b6020830191508360208285010111156126a757600080fd5b634e487b7160e01b600052604160045260246000fd5b604051601f8201601f191681016001600160401b0381118282101715612b7b57612b7b612b3d565b604052919050565b60006001600160401b03831115612b9c57612b9c612b3d565b612baf601f8401601f1916602001612b53565b9050828152838383011115612bc357600080fd5b828260208301376000602084830101529392505050565b600082601f830112612beb57600080fd5b6112d083833560208501612b83565b60008060008060008060008060e0898b031215612c1657600080fd5b88359750612c2660208a01612ae6565b965060408901356001600160401b0380821115612c4257600080fd5b612c4e8c838d01612afc565b909850965060608b0135915080821115612c6757600080fd5b50612c748b828c01612bda565b945050612c8360808a01612ae6565b925060a0890135915060c089013590509295985092959890939650565b600060208284031215612cb257600080fd5b5035919050565b60005b83811015612cd4578181015183820152602001612cbc565b50506000910152565b60008151808452612cf5816020860160208601612cb9565b601f01601f19169290920160200192915050565b6020815260006112d06020830184612cdd565b6001600160a01b0381168114610a3057600080fd5b60008060008060808587031215612d4757600080fd5b8435612d5281612d1c565b93506020850135612d6281612d1c565b92506040850135915060608501356001600160401b03811115612d8457600080fd5b612d9087828801612bda565b91505092959194509250565b60006001600160401b03821115612db557612db5612b3d565b5060051b60200190565b600082601f830112612dd057600080fd5b81356020612de5612de083612d9c565b612b53565b82815260059290921b84018101918181019086841115612e0457600080fd5b8286015b84811015612e28578035612e1b81612d1c565b8352918301918301612e08565b509695505050505050565b600082601f830112612e4457600080fd5b81356020612e54612de083612d9c565b82815260059290921b84018101918181019086841115612e7357600080fd5b8286015b84811015612e285780358352918301918301612e77565b600082601f830112612e9f57600080fd5b81356020612eaf612de083612d9c565b82815260059290921b84018101918181019086841115612ece57600080fd5b8286015b84811015612e285780356001600160401b03811115612ef15760008081fd5b612eff8986838b0101612bda565b845250918301918301612ed2565b60008060008060808587031215612f2357600080fd5b84356001600160401b0380821115612f3a57600080fd5b612f4688838901612dbf565b95506020870135915080821115612f5c57600080fd5b612f6888838901612e33565b94506040870135915080821115612f7e57600080fd5b50612f8b87828801612e8e565b949793965093946060013593505050565b634e487b7160e01b600052602160045260246000fd5b600b8110612fd057634e487b7160e01b600052602160045260246000fd5b9052565b600060a0820190506001600160401b0380845151168352806020850151511660208401525060408301511515604083015260608301511515606083015260808301516130236080840182612fb2565b5092915050565b600080600080600060a0868803121561304257600080fd5b8535945061305260208701612ae6565b935061306060408701612ae6565b94979396509394606081013594506080013592915050565b602081016108da8284612fb2565b6000806040838503121561309957600080fd5b8235915060208301356130ab81612d1c565b809150509250929050565b600080604083850312156130c957600080fd5b823591506130d960208401612ae6565b90509250929050565b6000806000806000608086880312156130fa57600080fd5b8535945061310a60208701612ae6565b935060408601356001600160401b038082111561312657600080fd5b61313289838a01612afc565b9095509350606088013591508082111561314b57600080fd5b5061315888828901612bda565b9150509295509295909350565b6000806000806060858703121561317b57600080fd5b8435935061318b60208601612ae6565b925060408501356001600160401b038111156131a657600080fd5b6131b287828801612afc565b95989497509550505050565b600080600080608085870312156131d457600080fd5b84356001600160401b03808211156131eb57600080fd5b6131f788838901612dbf565b9550602087013591508082111561320d57600080fd5b61321988838901612e33565b9450604087013591508082111561322f57600080fd5b61323b88838901612e8e565b9350606087013591508082111561325157600080fd5b508501601f8101871361326357600080fd5b612d9087823560208401612b83565b60008060006060848603121561328757600080fd5b833561329281612d1c565b92506020840135915060408401356001600160401b038111156132b457600080fd5b6132c086828701612bda565b9150509250925092565b600080604083850312156132dd57600080fd5b82356001600160401b038111156132f357600080fd5b6132ff85828601612dbf565b95602094909401359450505050565b600080600080600060a0868803121561332657600080fd5b853561333181612d1c565b9450602086013561334181612d1c565b935060408601356001600160401b038082111561335d57600080fd5b61336989838a01612e33565b9450606088013591508082111561337f57600080fd5b61338b89838a01612e33565b9350608088013591508082111561314b57600080fd5b600080600080606085870312156133b757600080fd5b84356133c281612d1c565b93506020850135925060408501356001600160401b038111156131a657600080fd5b6000602082840312156133f657600080fd5b81356112d081612d1c565b6000806040838503121561341457600080fd5b823561341f81612d1c565b946020939093013593505050565b600080600080600060a0868803121561344557600080fd5b853561345081612d1c565b9450602086013561346081612d1c565b9350604086013592506060860135915060808601356001600160401b0381111561348957600080fd5b61315888828901612bda565b8183823760009101908152919050565b60208082526018908201527f476f7665726e6f723a206f6e6c79476f7665726e616e63650000000000000000604082015260600190565b600181811c908216806134f057607f821691505b60208210810361351057634e487b7160e01b600052602260045260246000fd5b50919050565b634e487b7160e01b600052601160045260246000fd5b818103818111156108da576108da613516565b634e487b7160e01b600052603260045260246000fd5b60208082526021908201527f476f7665726e6f723a20696e76616c69642070726f706f73616c206c656e67746040820152600d60fb1b606082015260800190565b600081518084526020808501945080840160005b838110156135cf5781516001600160a01b0316875295820195908201906001016135aa565b509495945050505050565b600081518084526020808501945080840160005b838110156135cf578151875295820195908201906001016135ee565b600081518084526020808501808196508360051b8101915082860160005b85811015613652578284038952613640848351612cdd565b98850198935090840190600101613628565b5091979650505050505050565b60006101208b8352602060018060a01b038c16818501528160408501526136888285018c613596565b9150838203606085015261369c828b6135da565b915083820360808501528189518084528284019150828160051b850101838c0160005b838110156136ed57601f198784030185526136db838351612cdd565b948601949250908501906001016136bf565b505086810360a0880152613701818c61360a565b94505050505061371c60c08401876001600160401b03169052565b6001600160401b03851660e084015282810361010084015261373e8185612cdd565b9c9b505050505050505050505050565b60006020828403121561376057600080fd5b815180151581146112d057600080fd5b60006001820161378257613782613516565b5060010190565b60808152600061379c6080830187613596565b82810360208401526137ae81876135da565b905082810360408401526137c2818661360a565b91505082606083015295945050505050565b84815260ff8416602082015282604082015260806060820152600061102c6080830184612cdd565b85815260ff8516602082015283604082015260a06060820152600061382460a0830185612cdd565b82810360808401526138368185612cdd565b98975050505050505050565b60008251613854818460208701612cb9565b9190910192915050565b808201808211156108da576108da613516565b60006020828403121561388357600080fd5b5051919050565b6020808252602b908201527f496e697469616c697a61626c653a20636f6e7472616374206973206e6f74206960408201526a6e697469616c697a696e6760a81b606082015260800190565b80820281158282048414176108da576108da613516565b60008261390957634e487b7160e01b600052601260045260246000fd5b500490565b601f82111561142c57600081815260208120601f850160051c810160208610156139355750805b601f850160051c820191505b81811015611c1a57828155600101613941565b81516001600160401b0381111561396d5761396d612b3d565b6139818161397b84546134dc565b8461390e565b602080601f8311600181146139b6576000841561399e5750858301515b600019600386901b1c1916600185901b178555611c1a565b600085815260208120601f198616915b828110156139e5578886015182559484019460019091019084016139c6565b5085821015613a035787850151600019600388901b60f8161c191681555b5050505050600190811b0190555056fe476f7665726e6f723a2072656c617920726576657274656420776974686f7574206d657373616765476f7665726e6f723a2063616c6c20726576657274656420776974686f7574206d657373616765a2646970667358221220e623ab2f3e23c33266993a87a98663f58fb55893372ea0da1aecef3020e47daf64736f6c63430008110033",
  "linkReferences": {},
  "deployedLinkReferences": {}
}