{
  "_format": "hh-sol-artifact-1",
  "contractName": "Council",
  "sourceName": "contracts/Council.sol",
  "abi": [
    {
      "inputs": [],
      "stateMutability": "nonpayable",
      "type": "constructor"
    },
    {
      "inputs": [],
      "name": "Empty",
      "type": "error"
    },
    {
      "anonymous": false,
      "inputs": [
        {
          "indexed": false,
          "internalType": "uint8",
          "name": "version",
          "type": "uint8"
        }
      ],
      "name": "Initialized",
      "type": "event"
    },
    {
      "anonymous": false,
      "inputs": [
        {
          "indexed": false,
          "internalType": "uint256",
          "name": "proposalId",
          "type": "uint256"
        }
      ],
      "name": "ProposalCanceled",
      "type": "event"
    },
    {
      "anonymous": false,
      "inputs": [
        {
          "indexed": false,
          "internalType": "uint256",
          "name": "proposalId",
          "type": "uint256"
        },
        {
          "indexed": false,
          "internalType": "address",
          "name": "proposer",
          "type": "address"
        },
        {
          "indexed": false,
          "internalType": "address[]",
          "name": "targets",
          "type": "address[]"
        },
        {
          "indexed": false,
          "internalType": "uint256[]",
          "name": "values",
          "type": "uint256[]"
        },
        {
          "indexed": false,
          "internalType": "string[]",
          "name": "signatures",
          "type": "string[]"
        },
        {
          "indexed": false,
          "internalType": "bytes[]",
          "name": "calldatas",
          "type": "bytes[]"
        },
        {
          "indexed": false,
          "internalType": "uint256",
          "name": "startBlock",
          "type": "uint256"
        },
        {
          "indexed": false,
          "internalType": "uint256",
          "name": "endBlock",
          "type": "uint256"
        },
        {
          "indexed": false,
          "internalType": "string",
          "name": "description",
          "type": "string"
        }
      ],
      "name": "ProposalCreated",
      "type": "event"
    },
    {
      "anonymous": false,
      "inputs": [
        {
          "indexed": false,
          "internalType": "uint256",
          "name": "proposalId",
          "type": "uint256"
        }
      ],
      "name": "ProposalExecuted",
      "type": "event"
    },
    {
      "anonymous": false,
      "inputs": [
        {
          "indexed": false,
          "internalType": "uint256",
          "name": "oldProposalThreshold",
          "type": "uint256"
        },
        {
          "indexed": false,
          "internalType": "uint256",
          "name": "newProposalThreshold",
          "type": "uint256"
        }
      ],
      "name": "ProposalThresholdSet",
      "type": "event"
    },
    {
      "anonymous": false,
      "inputs": [
        {
          "indexed": false,
          "internalType": "uint256",
          "name": "oldQuorumNumerator",
          "type": "uint256"
        },
        {
          "indexed": false,
          "internalType": "uint256",
          "name": "newQuorumNumerator",
          "type": "uint256"
        }
      ],
      "name": "QuorumNumeratorUpdated",
      "type": "event"
    },
    {
      "anonymous": false,
      "inputs": [
        {
          "indexed": true,
          "internalType": "address",
          "name": "voter",
          "type": "address"
        },
        {
          "indexed": false,
          "internalType": "uint256",
          "name": "proposalId",
          "type": "uint256"
        },
        {
          "indexed": false,
          "internalType": "uint8",
          "name": "support",
          "type": "uint8"
        },
        {
          "indexed": false,
          "internalType": "uint256",
          "name": "weight",
          "type": "uint256"
        },
        {
          "indexed": false,
          "internalType": "string",
          "name": "reason",
          "type": "string"
        }
      ],
      "name": "VoteCast",
      "type": "event"
    },
    {
      "anonymous": false,
      "inputs": [
        {
          "indexed": true,
          "internalType": "address",
          "name": "voter",
          "type": "address"
        },
        {
          "indexed": false,
          "internalType": "uint256",
          "name": "proposalId",
          "type": "uint256"
        },
        {
          "indexed": false,
          "internalType": "uint8",
          "name": "support",
          "type": "uint8"
        },
        {
          "indexed": false,
          "internalType": "uint256",
          "name": "weight",
          "type": "uint256"
        },
        {
          "indexed": false,
          "internalType": "string",
          "name": "reason",
          "type": "string"
        },
        {
          "indexed": false,
          "internalType": "bytes",
          "name": "params",
          "type": "bytes"
        }
      ],
      "name": "VoteCastWithParams",
      "type": "event"
    },
    {
      "anonymous": false,
      "inputs": [
        {
          "indexed": false,
          "internalType": "uint256",
          "name": "oldVotingDelay",
          "type": "uint256"
        },
        {
          "indexed": false,
          "internalType": "uint256",
          "name": "newVotingDelay",
          "type": "uint256"
        }
      ],
      "name": "VotingDelaySet",
      "type": "event"
    },
    {
      "anonymous": false,
      "inputs": [
        {
          "indexed": false,
          "internalType": "uint256",
          "name": "oldVotingPeriod",
          "type": "uint256"
        },
        {
          "indexed": false,
          "internalType": "uint256",
          "name": "newVotingPeriod",
          "type": "uint256"
        }
      ],
      "name": "VotingPeriodSet",
      "type": "event"
    },
    {
      "inputs": [],
      "name": "BALLOT_TYPEHASH",
      "outputs": [
        {
          "internalType": "bytes32",
          "name": "",
          "type": "bytes32"
        }
      ],
      "stateMutability": "view",
      "type": "function"
    },
    {
      "inputs": [],
      "name": "COUNTING_MODE",
      "outputs": [
        {
          "internalType": "string",
          "name": "",
          "type": "string"
        }
      ],
      "stateMutability": "pure",
      "type": "function"
    },
    {
      "inputs": [],
      "name": "EXTENDED_BALLOT_TYPEHASH",
      "outputs": [
        {
          "internalType": "bytes32",
          "name": "",
          "type": "bytes32"
        }
      ],
      "stateMutability": "view",
      "type": "function"
    },
    {
      "inputs": [
        {
          "internalType": "uint256",
          "name": "proposalId",
          "type": "uint256"
        },
        {
          "internalType": "uint8",
          "name": "support",
          "type": "uint8"
        }
      ],
      "name": "castVote",
      "outputs": [
        {
          "internalType": "uint256",
          "name": "",
          "type": "uint256"
        }
      ],
      "stateMutability": "nonpayable",
      "type": "function"
    },
    {
      "inputs": [
        {
          "internalType": "uint256",
          "name": "proposalId",
          "type": "uint256"
        },
        {
          "internalType": "uint8",
          "name": "support",
          "type": "uint8"
        },
        {
          "internalType": "uint8",
          "name": "v",
          "type": "uint8"
        },
        {
          "internalType": "bytes32",
          "name": "r",
          "type": "bytes32"
        },
        {
          "internalType": "bytes32",
          "name": "s",
          "type": "bytes32"
        }
      ],
      "name": "castVoteBySig",
      "outputs": [
        {
          "internalType": "uint256",
          "name": "",
          "type": "uint256"
        }
      ],
      "stateMutability": "nonpayable",
      "type": "function"
    },
    {
      "inputs": [
        {
          "internalType": "uint256",
          "name": "proposalId",
          "type": "uint256"
        },
        {
          "internalType": "uint8",
          "name": "support",
          "type": "uint8"
        },
        {
          "internalType": "string",
          "name": "reason",
          "type": "string"
        }
      ],
      "name": "castVoteWithReason",
      "outputs": [
        {
          "internalType": "uint256",
          "name": "",
          "type": "uint256"
        }
      ],
      "stateMutability": "nonpayable",
      "type": "function"
    },
    {
      "inputs": [
        {
          "internalType": "uint256",
          "name": "proposalId",
          "type": "uint256"
        },
        {
          "internalType": "uint8",
          "name": "support",
          "type": "uint8"
        },
        {
          "internalType": "string",
          "name": "reason",
          "type": "string"
        },
        {
          "internalType": "bytes",
          "name": "params",
          "type": "bytes"
        }
      ],
      "name": "castVoteWithReasonAndParams",
      "outputs": [
        {
          "internalType": "uint256",
          "name": "",
          "type": "uint256"
        }
      ],
      "stateMutability": "nonpayable",
      "type": "function"
    },
    {
      "inputs": [
        {
          "internalType": "uint256",
          "name": "proposalId",
          "type": "uint256"
        },
        {
          "internalType": "uint8",
          "name": "support",
          "type": "uint8"
        },
        {
          "internalType": "string",
          "name": "reason",
          "type": "string"
        },
        {
          "internalType": "bytes",
          "name": "params",
          "type": "bytes"
        },
        {
          "internalType": "uint8",
          "name": "v",
          "type": "uint8"
        },
        {
          "internalType": "bytes32",
          "name": "r",
          "type": "bytes32"
        },
        {
          "internalType": "bytes32",
          "name": "s",
          "type": "bytes32"
        }
      ],
      "name": "castVoteWithReasonAndParamsBySig",
      "outputs": [
        {
          "internalType": "uint256",
          "name": "",
          "type": "uint256"
        }
      ],
      "stateMutability": "nonpayable",
      "type": "function"
    },
    {
      "inputs": [
        {
          "internalType": "address[]",
          "name": "targets",
          "type": "address[]"
        },
        {
          "internalType": "uint256[]",
          "name": "values",
          "type": "uint256[]"
        },
        {
          "internalType": "bytes[]",
          "name": "calldatas",
          "type": "bytes[]"
        },
        {
          "internalType": "bytes32",
          "name": "descriptionHash",
          "type": "bytes32"
        }
      ],
      "name": "execute",
      "outputs": [
        {
          "internalType": "uint256",
          "name": "",
          "type": "uint256"
        }
      ],
      "stateMutability": "payable",
      "type": "function"
    },
    {
      "inputs": [
        {
          "internalType": "address",
          "name": "account",
          "type": "address"
        },
        {
          "internalType": "uint256",
          "name": "blockNumber",
          "type": "uint256"
        }
      ],
      "name": "getVotes",
      "outputs": [
        {
          "internalType": "uint256",
          "name": "",
          "type": "uint256"
        }
      ],
      "stateMutability": "view",
      "type": "function"
    },
    {
      "inputs": [
        {
          "internalType": "address",
          "name": "account",
          "type": "address"
        },
        {
          "internalType": "uint256",
          "name": "blockNumber",
          "type": "uint256"
        },
        {
          "internalType": "bytes",
          "name": "params",
          "type": "bytes"
        }
      ],
      "name": "getVotesWithParams",
      "outputs": [
        {
          "internalType": "uint256",
          "name": "",
          "type": "uint256"
        }
      ],
      "stateMutability": "view",
      "type": "function"
    },
    {
      "inputs": [
        {
          "internalType": "address[]",
          "name": "foundingMembers",
          "type": "address[]"
        },
        {
          "internalType": "uint256",
          "name": "grantQuantity",
          "type": "uint256"
        }
      ],
      "name": "grantToFounders",
      "outputs": [],
      "stateMutability": "nonpayable",
      "type": "function"
    },
    {
      "inputs": [
        {
          "internalType": "uint256",
          "name": "proposalId",
          "type": "uint256"
        },
        {
          "internalType": "address",
          "name": "account",
          "type": "address"
        }
      ],
      "name": "hasVoted",
      "outputs": [
        {
          "internalType": "bool",
          "name": "",
          "type": "bool"
        }
      ],
      "stateMutability": "view",
      "type": "function"
    },
    {
      "inputs": [
        {
          "internalType": "address[]",
          "name": "targets",
          "type": "address[]"
        },
        {
          "internalType": "uint256[]",
          "name": "values",
          "type": "uint256[]"
        },
        {
          "internalType": "bytes[]",
          "name": "calldatas",
          "type": "bytes[]"
        },
        {
          "internalType": "bytes32",
          "name": "descriptionHash",
          "type": "bytes32"
        }
      ],
      "name": "hashProposal",
      "outputs": [
        {
          "internalType": "uint256",
          "name": "",
          "type": "uint256"
        }
      ],
      "stateMutability": "pure",
      "type": "function"
    },
    {
      "inputs": [
        {
          "internalType": "contract IVotesUpgradeable",
          "name": "_token",
          "type": "address"
        }
      ],
      "name": "initialize",
      "outputs": [],
      "stateMutability": "nonpayable",
      "type": "function"
    },
    {
      "inputs": [],
      "name": "name",
      "outputs": [
        {
          "internalType": "string",
          "name": "",
          "type": "string"
        }
      ],
      "stateMutability": "view",
      "type": "function"
    },
    {
      "inputs": [
        {
          "internalType": "address",
          "name": "",
          "type": "address"
        },
        {
          "internalType": "address",
          "name": "",
          "type": "address"
        },
        {
          "internalType": "uint256[]",
          "name": "",
          "type": "uint256[]"
        },
        {
          "internalType": "uint256[]",
          "name": "",
          "type": "uint256[]"
        },
        {
          "internalType": "bytes",
          "name": "",
          "type": "bytes"
        }
      ],
      "name": "onERC1155BatchReceived",
      "outputs": [
        {
          "internalType": "bytes4",
          "name": "",
          "type": "bytes4"
        }
      ],
      "stateMutability": "nonpayable",
      "type": "function"
    },
    {
      "inputs": [
        {
          "internalType": "address",
          "name": "",
          "type": "address"
        },
        {
          "internalType": "address",
          "name": "",
          "type": "address"
        },
        {
          "internalType": "uint256",
          "name": "",
          "type": "uint256"
        },
        {
          "internalType": "uint256",
          "name": "",
          "type": "uint256"
        },
        {
          "internalType": "bytes",
          "name": "",
          "type": "bytes"
        }
      ],
      "name": "onERC1155Received",
      "outputs": [
        {
          "internalType": "bytes4",
          "name": "",
          "type": "bytes4"
        }
      ],
      "stateMutability": "nonpayable",
      "type": "function"
    },
    {
      "inputs": [
        {
          "internalType": "address",
          "name": "",
          "type": "address"
        },
        {
          "internalType": "address",
          "name": "",
          "type": "address"
        },
        {
          "internalType": "uint256",
          "name": "",
          "type": "uint256"
        },
        {
          "internalType": "bytes",
          "name": "",
          "type": "bytes"
        }
      ],
      "name": "onERC721Received",
      "outputs": [
        {
          "internalType": "bytes4",
          "name": "",
          "type": "bytes4"
        }
      ],
      "stateMutability": "nonpayable",
      "type": "function"
    },
    {
      "inputs": [
        {
          "internalType": "uint256",
          "name": "proposalId",
          "type": "uint256"
        }
      ],
      "name": "proposalDeadline",
      "outputs": [
        {
          "internalType": "uint256",
          "name": "",
          "type": "uint256"
        }
      ],
      "stateMutability": "view",
      "type": "function"
    },
    {
      "inputs": [
        {
          "internalType": "uint256",
          "name": "proposalId",
          "type": "uint256"
        }
      ],
      "name": "proposalSnapshot",
      "outputs": [
        {
          "internalType": "uint256",
          "name": "",
          "type": "uint256"
        }
      ],
      "stateMutability": "view",
      "type": "function"
    },
    {
      "inputs": [],
      "name": "proposalThreshold",
      "outputs": [
        {
          "internalType": "uint256",
          "name": "",
          "type": "uint256"
        }
      ],
      "stateMutability": "view",
      "type": "function"
    },
    {
      "inputs": [
        {
          "internalType": "uint256",
          "name": "proposalId",
          "type": "uint256"
        }
      ],
      "name": "proposalVotes",
      "outputs": [
        {
          "internalType": "uint256",
          "name": "againstVotes",
          "type": "uint256"
        },
        {
          "internalType": "uint256",
          "name": "forVotes",
          "type": "uint256"
        },
        {
          "internalType": "uint256",
          "name": "abstainVotes",
          "type": "uint256"
        }
      ],
      "stateMutability": "view",
      "type": "function"
    },
    {
      "inputs": [
        {
          "internalType": "address[]",
          "name": "targets",
          "type": "address[]"
        },
        {
          "internalType": "uint256[]",
          "name": "values",
          "type": "uint256[]"
        },
        {
          "internalType": "bytes[]",
          "name": "calldatas",
          "type": "bytes[]"
        },
        {
          "internalType": "string",
          "name": "description",
          "type": "string"
        }
      ],
      "name": "propose",
      "outputs": [
        {
          "internalType": "uint256",
          "name": "",
          "type": "uint256"
        }
      ],
      "stateMutability": "nonpayable",
      "type": "function"
    },
    {
      "inputs": [
        {
          "internalType": "uint256",
          "name": "blockNumber",
          "type": "uint256"
        }
      ],
      "name": "quorum",
      "outputs": [
        {
          "internalType": "uint256",
          "name": "",
          "type": "uint256"
        }
      ],
      "stateMutability": "view",
      "type": "function"
    },
    {
      "inputs": [],
      "name": "quorumDenominator",
      "outputs": [
        {
          "internalType": "uint256",
          "name": "",
          "type": "uint256"
        }
      ],
      "stateMutability": "view",
      "type": "function"
    },
    {
      "inputs": [
        {
          "internalType": "uint256",
          "name": "blockNumber",
          "type": "uint256"
        }
      ],
      "name": "quorumNumerator",
      "outputs": [
        {
          "internalType": "uint256",
          "name": "",
          "type": "uint256"
        }
      ],
      "stateMutability": "view",
      "type": "function"
    },
    {
      "inputs": [],
      "name": "quorumNumerator",
      "outputs": [
        {
          "internalType": "uint256",
          "name": "",
          "type": "uint256"
        }
      ],
      "stateMutability": "view",
      "type": "function"
    },
    {
      "inputs": [
        {
          "internalType": "address",
          "name": "target",
          "type": "address"
        },
        {
          "internalType": "uint256",
          "name": "value",
          "type": "uint256"
        },
        {
          "internalType": "bytes",
          "name": "data",
          "type": "bytes"
        }
      ],
      "name": "relay",
      "outputs": [],
      "stateMutability": "payable",
      "type": "function"
    },
    {
      "inputs": [
        {
          "internalType": "uint256",
          "name": "newProposalThreshold",
          "type": "uint256"
        }
      ],
      "name": "setProposalThreshold",
      "outputs": [],
      "stateMutability": "nonpayable",
      "type": "function"
    },
    {
      "inputs": [
        {
          "internalType": "uint256",
          "name": "newVotingDelay",
          "type": "uint256"
        }
      ],
      "name": "setVotingDelay",
      "outputs": [],
      "stateMutability": "nonpayable",
      "type": "function"
    },
    {
      "inputs": [
        {
          "internalType": "uint256",
          "name": "newVotingPeriod",
          "type": "uint256"
        }
      ],
      "name": "setVotingPeriod",
      "outputs": [],
      "stateMutability": "nonpayable",
      "type": "function"
    },
    {
      "inputs": [
        {
          "internalType": "uint256",
          "name": "proposalId",
          "type": "uint256"
        }
      ],
      "name": "state",
      "outputs": [
        {
          "internalType": "enum IGovernorUpgradeable.ProposalState",
          "name": "",
          "type": "uint8"
        }
      ],
      "stateMutability": "view",
      "type": "function"
    },
    {
      "inputs": [
        {
          "internalType": "bytes4",
          "name": "interfaceId",
          "type": "bytes4"
        }
      ],
      "name": "supportsInterface",
      "outputs": [
        {
          "internalType": "bool",
          "name": "",
          "type": "bool"
        }
      ],
      "stateMutability": "view",
      "type": "function"
    },
    {
      "inputs": [],
      "name": "token",
      "outputs": [
        {
          "internalType": "contract IVotesUpgradeable",
          "name": "",
          "type": "address"
        }
      ],
      "stateMutability": "view",
      "type": "function"
    },
    {
      "inputs": [
        {
          "internalType": "uint256",
          "name": "newQuorumNumerator",
          "type": "uint256"
        }
      ],
      "name": "updateQuorumNumerator",
      "outputs": [],
      "stateMutability": "nonpayable",
      "type": "function"
    },
    {
      "inputs": [],
      "name": "version",
      "outputs": [
        {
          "internalType": "string",
          "name": "",
          "type": "string"
        }
      ],
      "stateMutability": "view",
      "type": "function"
    },
    {
      "inputs": [],
      "name": "votingDelay",
      "outputs": [
        {
          "internalType": "uint256",
          "name": "",
          "type": "uint256"
        }
      ],
      "stateMutability": "view",
      "type": "function"
    },
    {
      "inputs": [],
      "name": "votingPeriod",
      "outputs": [
        {
          "internalType": "uint256",
          "name": "",
          "type": "uint256"
        }
      ],
      "stateMutability": "view",
      "type": "function"
    },
    {
      "stateMutability": "payable",
      "type": "receive"
    }
  ],
  "bytecode": "0x60806040523480156200001157600080fd5b506200001c62000022565b620000e4565b600054610100900460ff16156200008f5760405162461bcd60e51b815260206004820152602760248201527f496e697469616c697a61626c653a20636f6e747261637420697320696e697469604482015266616c697a696e6760c81b606482015260840160405180910390fd5b60005460ff9081161015620000e2576000805460ff191660ff9081179091556040519081527f7f26b83ff96e1f2b6a682f133852f6798a09c465da95921460cefb38474024989060200160405180910390a15b565b61390080620000f46000396000f3fe6080604052600436106102345760003560e01c80637b3c71d31161012e578063c4d66de8116100ab578063eb9019d41161006f578063eb9019d41461074b578063ece40cc11461076b578063f23a6e611461078b578063f8ce560a146107b7578063fc0c546a146107d757600080fd5b8063c4d66de814610671578063c59057e414610691578063dd4e2ba5146106b1578063deaaa7cc146106f7578063ea0217cf1461072b57600080fd5b8063ae125ff9116100f2578063ae125ff9146105dd578063b58131b0146105fd578063bc197c8114610612578063c01f9e371461063e578063c28bc2fa1461065e57600080fd5b80637b3c71d3146105545780637d5e81e21461057457806397c3d334146105945780639a802a6d146105a8578063a7713a70146105c857600080fd5b80633932abb1116101bc57806354fd4d501161018057806354fd4d50146104aa57806356781388146104d45780635f398a14146104f457806360c4247f1461051457806370b0f6601461053457600080fd5b80633932abb1146103a75780633bccf4fd146103bc5780633e4f49e6146103dc5780634385963214610409578063544ffc9c1461045457600080fd5b806306fdde031161020357806306fdde03146102da578063150b7a02146102fc5780632656227d146103405780632d63f693146103535780632fe3e2611461037357600080fd5b806301ffc9a71461024257806302a251a314610277578063034201811461029a57806306f3f9e6146102ba57600080fd5b3661023d57005b005b600080fd5b34801561024e57600080fd5b5061026261025d36600461295e565b610810565b60405190151581526020015b60405180910390f35b34801561028357600080fd5b5061028c61087d565b60405190815260200161026e565b3480156102a657600080fd5b5061028c6102b5366004612a9c565b61088d565b3480156102c657600080fd5b5061023b6102d5366004612b42565b610985565b3480156102e657600080fd5b506102ef6109d0565b60405161026e9190612bab565b34801561030857600080fd5b50610327610317366004612bd3565b630a85bd0160e11b949350505050565b6040516001600160e01b0319909116815260200161026e565b61028c61034e366004612daf565b610a62565b34801561035f57600080fd5b5061028c61036e366004612b42565b610b8e565b34801561037f57600080fd5b5061028c7fb3b3f3b703cd84ce352197dcff232b1b5d3cfb2025ce47cf04742d0651f1af8881565b3480156103b357600080fd5b5061028c610bc5565b3480156103c857600080fd5b5061028c6103d7366004612e3e565b610bd0565b3480156103e857600080fd5b506103fc6103f7366004612b42565b610c46565b60405161026e9190612ea2565b34801561041557600080fd5b50610262610424366004612eca565b600082815261012f602090815260408083206001600160a01b038516845260030190915290205460ff1692915050565b34801561046057600080fd5b5061048f61046f366004612b42565b600090815261012f60205260409020805460018201546002909201549092565b6040805193845260208401929092529082015260600161026e565b3480156104b657600080fd5b506040805180820190915260018152603160f81b60208201526102ef565b3480156104e057600080fd5b5061028c6104ef366004612efa565b610d56565b34801561050057600080fd5b5061028c61050f366004612f26565b610d7f565b34801561052057600080fd5b5061028c61052f366004612b42565b610dc9565b34801561054057600080fd5b5061023b61054f366004612b42565b610e64565b34801561056057600080fd5b5061028c61056f366004612fa9565b610ea3565b34801561058057600080fd5b5061028c61058f366004613002565b610ef5565b3480156105a057600080fd5b50606461028c565b3480156105b457600080fd5b5061028c6105c33660046130b6565b6111b8565b3480156105d457600080fd5b5061028c6111cf565b3480156105e957600080fd5b5061023b6105f836600461310e565b6111fc565b34801561060957600080fd5b5061028c611329565b34801561061e57600080fd5b5061032761062d366004613152565b63bc197c8160e01b95945050505050565b34801561064a57600080fd5b5061028c610659366004612b42565b611334565b61023b61066c3660046131e5565b611363565b34801561067d57600080fd5b5061023b61068c366004613228565b61142a565b34801561069d57600080fd5b5061028c6106ac366004612daf565b611592565b3480156106bd57600080fd5b506040805180820190915260208082527f737570706f72743d627261766f2671756f72756d3d666f722c6162737461696e908201526102ef565b34801561070357600080fd5b5061028c7f150214d74d59b7d1e90c73fc22ef3d991dd0a76b046543d4d80ab92d2a50328f81565b34801561073757600080fd5b5061023b610746366004612b42565b6115cc565b34801561075757600080fd5b5061028c610766366004613245565b61160b565b34801561077757600080fd5b5061023b610786366004612b42565b61162c565b34801561079757600080fd5b506103276107a6366004613271565b63f23a6e6160e01b95945050505050565b3480156107c357600080fd5b5061028c6107d2366004612b42565b61166b565b3480156107e357600080fd5b50610161546107f8906001600160a01b031681565b6040516001600160a01b03909116815260200161026e565b60006001600160e01b0319821663bf26d89760e01b148061084157506001600160e01b031982166379dd796f60e01b145b8061085c57506001600160e01b03198216630271189760e51b145b8061087757506301ffc9a760e01b6001600160e01b03198316145b92915050565b600061088860fe5490565b905090565b6000806109316109297fb3b3f3b703cd84ce352197dcff232b1b5d3cfb2025ce47cf04742d0651f1af888c8c8c8c6040516108c99291906132d9565b60405180910390208b8051906020012060405160200161090e959493929190948552602085019390935260ff9190911660408401526060830152608082015260a00190565b60405160208183030381529060405280519060200120611676565b8686866116c4565b90506109778a828b8b8b8080601f0160208091040260200160405190810160405280939291908181526020018383808284376000920191909152508d92506116e2915050565b9a9950505050505050505050565b3330146109ad5760405162461bcd60e51b81526004016109a4906132e9565b60405180910390fd5b6109c4565b806109bd60cd611846565b036109b257505b6109cd816118c5565b50565b606060cb80546109df90613320565b80601f0160208091040260200160405190810160405280929190818152602001828054610a0b90613320565b8015610a585780601f10610a2d57610100808354040283529160200191610a58565b820191906000526020600020905b815481529060010190602001808311610a3b57829003601f168201915b5050505050905090565b600080610a7186868686611592565b90506000610a7e82610c46565b90506004816007811115610a9457610a94612e8c565b1480610ab157506005816007811115610aaf57610aaf612e8c565b145b610b075760405162461bcd60e51b815260206004820152602160248201527f476f7665726e6f723a2070726f706f73616c206e6f74207375636365737366756044820152601b60fa1b60648201526084016109a4565b600082815260cc602052604090819020600201805460ff19166001179055517f712ae1383f79ac853f8d882153778e0260ef8f03b504e2866e0593e04d2b291f90610b559084815260200190565b60405180910390a1610b6a8288888888611a0d565b610b778288888888611a9a565b610b848288888888611a0d565b5095945050505050565b600081815260cc602090815260408083208151928301909152546001600160401b0316908190525b6001600160401b031692915050565b600061088860fd5490565b604080517f150214d74d59b7d1e90c73fc22ef3d991dd0a76b046543d4d80ab92d2a50328f602082015290810186905260ff851660608201526000908190610c1e906109299060800161090e565b9050610c3b87828860405180602001604052806000815250611b90565b979650505050505050565b600081815260cc60205260408120600281015460ff1615610c6a5750600792915050565b6002810154610100900460ff1615610c855750600292915050565b6000610c9084610b8e565b905080600003610ce25760405162461bcd60e51b815260206004820152601d60248201527f476f7665726e6f723a20756e6b6e6f776e2070726f706f73616c20696400000060448201526064016109a4565b438110610cf3575060009392505050565b6000610cfe85611334565b9050438110610d1257506001949350505050565b610d1b85611bbc565b8015610d3b5750600085815261012f602052604090208054600190910154115b15610d4b57506004949350505050565b506003949350505050565b600080339050610d7784828560405180602001604052806000815250611b90565b949350505050565b600080339050610c3b87828888888080601f0160208091040260200160405190810160405280939291908181526020018383808284376000920191909152508a92506116e2915050565b61019554600090808203610de257505061019454919050565b6000610195610df2600184613370565b81548110610e0257610e02613383565b60009182526020918290206040805180820190915291015463ffffffff8116808352600160201b9091046001600160e01b03169282019290925291508410610e5857602001516001600160e01b03169392505050565b610d7761019585611bf4565b333014610e835760405162461bcd60e51b81526004016109a4906132e9565b610e9a565b80610e9360cd611846565b03610e8857505b6109cd81611cb4565b600080339050610eeb86828787878080601f016020809104026020016040519081016040528093929190818152602001838380828437600092019190915250611b9092505050565b9695505050505050565b6000610eff611329565b610f0e33610766600143613370565b1015610f765760405162461bcd60e51b815260206004820152603160248201527f476f7665726e6f723a2070726f706f73657220766f7465732062656c6f7720706044820152701c9bdc1bdcd85b081d1a1c995cda1bdb19607a1b60648201526084016109a4565b6000610f8b8686868680519060200120611592565b90508451865114610fae5760405162461bcd60e51b81526004016109a490613399565b8351865114610fcf5760405162461bcd60e51b81526004016109a490613399565b60008651116110205760405162461bcd60e51b815260206004820152601860248201527f476f7665726e6f723a20656d7074792070726f706f73616c000000000000000060448201526064016109a4565b600081815260cc6020908152604091829020825191820190925281546001600160401b031690819052156110a05760405162461bcd60e51b815260206004820152602160248201527f476f7665726e6f723a2070726f706f73616c20616c72656164792065786973746044820152607360f81b60648201526084016109a4565b60006110b26110ad610bc5565b611cf5565b6110bb43611cf5565b6110c591906133da565b905060006110d46110ad61087d565b6110de90836133da565b835467ffffffffffffffff19166001600160401b038416178455905060018301805467ffffffffffffffff19166001600160401b0383161790557f7d84a6263ae0d98d3329bd7b46bb4e8d6f98cd35a7adb45c274c8b7fd5ebd5e084338b8b8d516001600160401b03811115611156576111566129df565b60405190808252806020026020018201604052801561118957816020015b60608152602001906001900390816111745790505b508c88888e6040516111a3999897969594939291906134c7565b60405180910390a15091979650505050505050565b60006111c5848484611d61565b90505b9392505050565b61019554600090156111f4576111e6610195611dd8565b6001600160e01b0316905090565b506101945490565b6101c65460ff16156112505760405162461bcd60e51b815260206004820152601f60248201527f466f756e646572206772616e7420616c726561647920636f6d706c657465640060448201526064016109a4565b6101c6805460ff1916600117905560005b8251811015611324576101615483516001600160a01b039091169063a9059cbb9085908490811061129457611294613383565b6020026020010151846040518363ffffffff1660e01b81526004016112ce9291906001600160a01b03929092168252602082015260400190565b6020604051808303816000875af11580156112ed573d6000803e3d6000fd5b505050506040513d601f19601f8201168201806040525081019061131191906135b6565b508061131c816135d8565b915050611261565b505050565b600061088860ff5490565b600081815260cc602090815260408083208151928301909152600101546001600160401b031690819052610bb6565b3330146113825760405162461bcd60e51b81526004016109a4906132e9565b611399565b8061139260cd611846565b0361138757505b600080856001600160a01b03168585856040516113b79291906132d9565b60006040518083038185875af1925050503d80600081146113f4576040519150601f19603f3d011682016040523d82523d6000602084013e6113f9565b606091505b5091509150611421828260405180606001604052806028815260200161387c60289139611e11565b50505050505050565b600054610100900460ff161580801561144a5750600054600160ff909116105b806114645750303b158015611464575060005460ff166001145b6114c75760405162461bcd60e51b815260206004820152602e60248201527f496e697469616c697a61626c653a20636f6e747261637420697320616c72656160448201526d191e481a5b9a5d1a585b1a5e995960921b60648201526084016109a4565b6000805460ff1916600117905580156114ea576000805461ff0019166101001790555b6115126040518060400160405280600781526020016610dbdd5b98da5b60ca1b815250611e2a565b611521600161c4e06000611e81565b611529611eb3565b61153282611edc565b61153c6004611f0c565b6101c6805460ff19169055801561158e576000805461ff0019169055604051600181527f7f26b83ff96e1f2b6a682f133852f6798a09c465da95921460cefb3847402498906020015b60405180910390a15b5050565b6000848484846040516020016115ab94939291906135f1565b60408051601f19818403018152919052805160209091012095945050505050565b3330146115eb5760405162461bcd60e51b81526004016109a4906132e9565b611602565b806115fb60cd611846565b036115f057505b6109cd81611f3c565b60006111c8838361162760408051602081019091526000815290565b611d61565b33301461164b5760405162461bcd60e51b81526004016109a4906132e9565b611662565b8061165b60cd611846565b0361165057505b6109cd81611fdd565b60006108778261201e565b60006108776116836120ad565b8360405161190160f01b6020820152602281018390526042810182905260009060620160405160208183030381529060405280519060200120905092915050565b60008060006116d587878787612128565b91509150610b84816121ec565b600085815260cc6020526040812060016116fb88610c46565b600781111561170c5761170c612e8c565b146117655760405162461bcd60e51b815260206004820152602360248201527f476f7665726e6f723a20766f7465206e6f742063757272656e746c792061637460448201526269766560e81b60648201526084016109a4565b604080516020810190915281546001600160401b03169081905260009061178e90889086611d61565b905061179d8888888488612336565b83516000036117f257866001600160a01b03167fb8e138887d0aa13bab447e82de9d5c1777041ecd21ca36ba824ff1e6c07ddda4898884896040516117e5949392919061363c565b60405180910390a2610c3b565b866001600160a01b03167fe2babfbac5889a709b63bb7f598b324e08bc5a4fb9ec647fb3cbc9ec07eb87128988848989604051611833959493929190613664565b60405180910390a2979650505050505050565b60006118618254600f81810b600160801b909204900b131590565b1561187f57604051631ed9509560e11b815260040160405180910390fd5b508054600f0b6000818152600180840160205260408220805492905583546fffffffffffffffffffffffffffffffff191692016001600160801b03169190911790915590565b60648111156119485760405162461bcd60e51b815260206004820152604360248201527f476f7665726e6f72566f74657351756f72756d4672616374696f6e3a2071756f60448201527f72756d4e756d657261746f72206f7665722071756f72756d44656e6f6d696e616064820152623a37b960e91b608482015260a4016109a4565b60006119526111cf565b90508015801590611964575061019554155b156119c95760408051808201909152600081526101959060208101611988846124b1565b6001600160e01b039081169091528254600181018455600093845260209384902083519490930151909116600160201b0263ffffffff909316929092179101555b6119d56101958361251a565b505060408051828152602081018490527f0553476bf02ef2726e8ce5ced78d63e26e602e4a2257b1f559418e24b46339979101611585565b611a93565b8451811015611a9157306001600160a01b0316858281518110611a3757611a37613383565b60200260200101516001600160a01b031603611a8157611a81838281518110611a6257611a62613383565b60200260200101518051906020012060cd61255090919063ffffffff16565b611a8a816135d8565b9050611a12565b505b5050505050565b60006040518060600160405280602781526020016138a460279139905060005b855181101561142157600080878381518110611ad857611ad8613383565b60200260200101516001600160a01b0316878481518110611afb57611afb613383565b6020026020010151878581518110611b1557611b15613383565b6020026020010151604051611b2a91906136aa565b60006040518083038185875af1925050503d8060008114611b67576040519150601f19603f3d011682016040523d82523d6000602084013e611b6c565b606091505b5091509150611b7c828286611e11565b50505080611b89906135d8565b9050611aba565b6000611bb385858585611bae60408051602081019091526000815290565b6116e2565b95945050505050565b600081815261012f6020526040812060028101546001820154611bdf91906136c6565b611beb6107d285610b8e565b11159392505050565b6000438210611c455760405162461bcd60e51b815260206004820181905260248201527f436865636b706f696e74733a20626c6f636b206e6f7420796574206d696e656460448201526064016109a4565b6000611c508361258c565b84549091506000611c63868483856125f1565b90508015611c9e57611c8886611c7a600184613370565b600091825260209091200190565b54600160201b90046001600160e01b0316611ca1565b60005b6001600160e01b03169695505050505050565b60fd5460408051918252602082018390527fc565b045403dc03c2eea82b81a0465edad9e2e7fc4d97e11421c209da93d7a93910160405180910390a160fd55565b60006001600160401b03821115611d5d5760405162461bcd60e51b815260206004820152602660248201527f53616665436173743a2076616c756520646f65736e27742066697420696e203660448201526534206269747360d01b60648201526084016109a4565b5090565b61016154604051630748d63560e31b81526001600160a01b038581166004830152602482018590526000921690633a46b1a890604401602060405180830381865afa158015611db4573d6000803e3d6000fd5b505050506040513d601f19601f820116820180604052508101906111c591906136d9565b80546000908015611e0857611df283611c7a600184613370565b54600160201b90046001600160e01b03166111c8565b60009392505050565b60608315611e205750816111c8565b6111c8838361264f565b600054610100900460ff16611e515760405162461bcd60e51b81526004016109a4906136f2565b611e7881611e736040805180820190915260018152603160f81b602082015290565b612679565b6109cd816126ba565b600054610100900460ff16611ea85760405162461bcd60e51b81526004016109a4906136f2565b6113248383836126ed565b600054610100900460ff16611eda5760405162461bcd60e51b81526004016109a4906136f2565b565b600054610100900460ff16611f035760405162461bcd60e51b81526004016109a4906136f2565b6109cd8161272f565b600054610100900460ff16611f335760405162461bcd60e51b81526004016109a4906136f2565b6109cd81612779565b60008111611f9c5760405162461bcd60e51b815260206004820152602760248201527f476f7665726e6f7253657474696e67733a20766f74696e6720706572696f6420604482015266746f6f206c6f7760c81b60648201526084016109a4565b60fe5460408051918252602082018390527f7e3f7f0708a84de9203036abaa450dccc85ad5ff52f78c170f3edb55cf5e8828910160405180910390a160fe55565b60ff5460408051918252602082018390527fccb45da8d5717e6c4544694297c4ba5cf151d455c9bb0ed4fc7a38411bc05461910160405180910390a160ff55565b6000606461202b83610dc9565b61016154604051632394e7a360e21b8152600481018690526001600160a01b0390911690638e539e8c90602401602060405180830381865afa158015612075573d6000803e3d6000fd5b505050506040513d601f19601f8201168201806040525081019061209991906136d9565b6120a3919061373d565b6108779190613754565b60006108887f8b73c3c69bb8fe3d512ecc4cf759cc79239f7b179b0ffacaa9a75d522b39400f6120dc60655490565b6066546040805160208101859052908101839052606081018290524660808201523060a082015260009060c0016040516020818303038152906040528051906020012090509392505050565b6000807f7fffffffffffffffffffffffffffffff5d576e7357a4501ddfe92f46681b20a083111561215f57506000905060036121e3565b6040805160008082526020820180845289905260ff881692820192909252606081018690526080810185905260019060a0016020604051602081039080840390855afa1580156121b3573d6000803e3d6000fd5b5050604051601f1901519150506001600160a01b0381166121dc576000600192509250506121e3565b9150600090505b94509492505050565b600081600481111561220057612200612e8c565b036122085750565b600181600481111561221c5761221c612e8c565b036122695760405162461bcd60e51b815260206004820152601860248201527f45434453413a20696e76616c6964207369676e6174757265000000000000000060448201526064016109a4565b600281600481111561227d5761227d612e8c565b036122ca5760405162461bcd60e51b815260206004820152601f60248201527f45434453413a20696e76616c6964207369676e6174757265206c656e6774680060448201526064016109a4565b60038160048111156122de576122de612e8c565b036109cd5760405162461bcd60e51b815260206004820152602260248201527f45434453413a20696e76616c6964207369676e6174757265202773272076616c604482015261756560f01b60648201526084016109a4565b600085815261012f602090815260408083206001600160a01b0388168452600381019092529091205460ff16156123bf5760405162461bcd60e51b815260206004820152602760248201527f476f7665726e6f72566f74696e6753696d706c653a20766f746520616c726561604482015266191e4818d85cdd60ca1b60648201526084016109a4565b6001600160a01b03851660009081526003820160205260409020805460ff1916600117905560ff841661240b578281600001600082825461240091906136c6565b90915550611a919050565b60001960ff85160161242b578281600101600082825461240091906136c6565b60011960ff85160161244b578281600201600082825461240091906136c6565b60405162461bcd60e51b815260206004820152603560248201527f476f7665726e6f72566f74696e6753696d706c653a20696e76616c69642076616044820152746c756520666f7220656e756d20566f74655479706560581b60648201526084016109a4565b60006001600160e01b03821115611d5d5760405162461bcd60e51b815260206004820152602760248201527f53616665436173743a2076616c756520646f65736e27742066697420696e20326044820152663234206269747360c81b60648201526084016109a4565b6000806125388461252a4361258c565b612533866124b1565b6127a0565b6001600160e01b0391821693501690505b9250929050565b8154600160801b90819004600f0b6000818152600180860160205260409091209390935583546001600160801b03908116939091011602179055565b600063ffffffff821115611d5d5760405162461bcd60e51b815260206004820152602660248201527f53616665436173743a2076616c756520646f65736e27742066697420696e203360448201526532206269747360d01b60648201526084016109a4565b60005b818310156126475760006126088484612943565b60008781526020902090915063ffffffff86169082015463ffffffff16111561263357809250612641565b61263e8160016136c6565b93505b506125f4565b509392505050565b81511561265f5781518083602001fd5b8060405162461bcd60e51b81526004016109a49190612bab565b600054610100900460ff166126a05760405162461bcd60e51b81526004016109a4906136f2565b815160209283012081519190920120606591909155606655565b600054610100900460ff166126e15760405162461bcd60e51b81526004016109a4906136f2565b60cb61158e82826137bc565b600054610100900460ff166127145760405162461bcd60e51b81526004016109a4906136f2565b61271d83611cb4565b61272682611f3c565b61132481611fdd565b600054610100900460ff166127565760405162461bcd60e51b81526004016109a4906136f2565b61016180546001600160a01b0319166001600160a01b0392909216919091179055565b600054610100900460ff166109c45760405162461bcd60e51b81526004016109a4906136f2565b8254600090819080156128e65760006127be87611c7a600185613370565b60408051808201909152905463ffffffff808216808452600160201b9092046001600160e01b03166020840152919250908716101561283f5760405162461bcd60e51b815260206004820152601760248201527f436865636b706f696e743a20696e76616c6964206b657900000000000000000060448201526064016109a4565b805163ffffffff808816911603612887578461286088611c7a600186613370565b80546001600160e01b0392909216600160201b0263ffffffff9092169190911790556128d6565b6040805180820190915263ffffffff80881682526001600160e01b0380881660208085019182528b54600181018d5560008d81529190912094519151909216600160201b029216919091179101555b60200151925083915061293b9050565b50506040805180820190915263ffffffff80851682526001600160e01b0380851660208085019182528854600181018a5560008a815291822095519251909316600160201b0291909316179201919091559050815b935093915050565b60006129526002848418613754565b6111c8908484166136c6565b60006020828403121561297057600080fd5b81356001600160e01b0319811681146111c857600080fd5b803560ff8116811461299957600080fd5b919050565b60008083601f8401126129b057600080fd5b5081356001600160401b038111156129c757600080fd5b60208301915083602082850101111561254957600080fd5b634e487b7160e01b600052604160045260246000fd5b604051601f8201601f191681016001600160401b0381118282101715612a1d57612a1d6129df565b604052919050565b60006001600160401b03831115612a3e57612a3e6129df565b612a51601f8401601f19166020016129f5565b9050828152838383011115612a6557600080fd5b828260208301376000602084830101529392505050565b600082601f830112612a8d57600080fd5b6111c883833560208501612a25565b60008060008060008060008060e0898b031215612ab857600080fd5b88359750612ac860208a01612988565b965060408901356001600160401b0380821115612ae457600080fd5b612af08c838d0161299e565b909850965060608b0135915080821115612b0957600080fd5b50612b168b828c01612a7c565b945050612b2560808a01612988565b925060a0890135915060c089013590509295985092959890939650565b600060208284031215612b5457600080fd5b5035919050565b60005b83811015612b76578181015183820152602001612b5e565b50506000910152565b60008151808452612b97816020860160208601612b5b565b601f01601f19169290920160200192915050565b6020815260006111c86020830184612b7f565b6001600160a01b03811681146109cd57600080fd5b60008060008060808587031215612be957600080fd5b8435612bf481612bbe565b93506020850135612c0481612bbe565b92506040850135915060608501356001600160401b03811115612c2657600080fd5b612c3287828801612a7c565b91505092959194509250565b60006001600160401b03821115612c5757612c576129df565b5060051b60200190565b600082601f830112612c7257600080fd5b81356020612c87612c8283612c3e565b6129f5565b82815260059290921b84018101918181019086841115612ca657600080fd5b8286015b84811015612cca578035612cbd81612bbe565b8352918301918301612caa565b509695505050505050565b600082601f830112612ce657600080fd5b81356020612cf6612c8283612c3e565b82815260059290921b84018101918181019086841115612d1557600080fd5b8286015b84811015612cca5780358352918301918301612d19565b600082601f830112612d4157600080fd5b81356020612d51612c8283612c3e565b82815260059290921b84018101918181019086841115612d7057600080fd5b8286015b84811015612cca5780356001600160401b03811115612d935760008081fd5b612da18986838b0101612a7c565b845250918301918301612d74565b60008060008060808587031215612dc557600080fd5b84356001600160401b0380821115612ddc57600080fd5b612de888838901612c61565b95506020870135915080821115612dfe57600080fd5b612e0a88838901612cd5565b94506040870135915080821115612e2057600080fd5b50612e2d87828801612d30565b949793965093946060013593505050565b600080600080600060a08688031215612e5657600080fd5b85359450612e6660208701612988565b9350612e7460408701612988565b94979396509394606081013594506080013592915050565b634e487b7160e01b600052602160045260246000fd5b6020810160088310612ec457634e487b7160e01b600052602160045260246000fd5b91905290565b60008060408385031215612edd57600080fd5b823591506020830135612eef81612bbe565b809150509250929050565b60008060408385031215612f0d57600080fd5b82359150612f1d60208401612988565b90509250929050565b600080600080600060808688031215612f3e57600080fd5b85359450612f4e60208701612988565b935060408601356001600160401b0380821115612f6a57600080fd5b612f7689838a0161299e565b90955093506060880135915080821115612f8f57600080fd5b50612f9c88828901612a7c565b9150509295509295909350565b60008060008060608587031215612fbf57600080fd5b84359350612fcf60208601612988565b925060408501356001600160401b03811115612fea57600080fd5b612ff68782880161299e565b95989497509550505050565b6000806000806080858703121561301857600080fd5b84356001600160401b038082111561302f57600080fd5b61303b88838901612c61565b9550602087013591508082111561305157600080fd5b61305d88838901612cd5565b9450604087013591508082111561307357600080fd5b61307f88838901612d30565b9350606087013591508082111561309557600080fd5b508501601f810187136130a757600080fd5b612c3287823560208401612a25565b6000806000606084860312156130cb57600080fd5b83356130d681612bbe565b92506020840135915060408401356001600160401b038111156130f857600080fd5b61310486828701612a7c565b9150509250925092565b6000806040838503121561312157600080fd5b82356001600160401b0381111561313757600080fd5b61314385828601612c61565b95602094909401359450505050565b600080600080600060a0868803121561316a57600080fd5b853561317581612bbe565b9450602086013561318581612bbe565b935060408601356001600160401b03808211156131a157600080fd5b6131ad89838a01612cd5565b945060608801359150808211156131c357600080fd5b6131cf89838a01612cd5565b93506080880135915080821115612f8f57600080fd5b600080600080606085870312156131fb57600080fd5b843561320681612bbe565b93506020850135925060408501356001600160401b03811115612fea57600080fd5b60006020828403121561323a57600080fd5b81356111c881612bbe565b6000806040838503121561325857600080fd5b823561326381612bbe565b946020939093013593505050565b600080600080600060a0868803121561328957600080fd5b853561329481612bbe565b945060208601356132a481612bbe565b9350604086013592506060860135915060808601356001600160401b038111156132cd57600080fd5b612f9c88828901612a7c565b8183823760009101908152919050565b60208082526018908201527f476f7665726e6f723a206f6e6c79476f7665726e616e63650000000000000000604082015260600190565b600181811c9082168061333457607f821691505b60208210810361335457634e487b7160e01b600052602260045260246000fd5b50919050565b634e487b7160e01b600052601160045260246000fd5b818103818111156108775761087761335a565b634e487b7160e01b600052603260045260246000fd5b60208082526021908201527f476f7665726e6f723a20696e76616c69642070726f706f73616c206c656e67746040820152600d60fb1b606082015260800190565b6001600160401b038181168382160190808211156133fa576133fa61335a565b5092915050565b600081518084526020808501945080840160005b8381101561343a5781516001600160a01b031687529582019590820190600101613415565b509495945050505050565b600081518084526020808501945080840160005b8381101561343a57815187529582019590820190600101613459565b6000815180845260208085019450848260051b860182860160005b858110156134ba5783830389526134a8838351612b7f565b98850198925090840190600101613490565b5090979650505050505050565b60006101208b8352602060018060a01b038c16818501528160408501526134f08285018c613401565b91508382036060850152613504828b613445565b915083820360808501528189518084528284019150828160051b850101838c0160005b8381101561355557601f19878403018552613543838351612b7f565b94860194925090850190600101613527565b505086810360a0880152613569818c613475565b94505050505061358460c08401876001600160401b03169052565b6001600160401b03851660e08401528281036101008401526135a68185612b7f565b9c9b505050505050505050505050565b6000602082840312156135c857600080fd5b815180151581146111c857600080fd5b6000600182016135ea576135ea61335a565b5060010190565b6080815260006136046080830187613401565b82810360208401526136168187613445565b9050828103604084015261362a8186613475565b91505082606083015295945050505050565b84815260ff84166020820152826040820152608060608201526000610eeb6080830184612b7f565b85815260ff8516602082015283604082015260a06060820152600061368c60a0830185612b7f565b828103608084015261369e8185612b7f565b98975050505050505050565b600082516136bc818460208701612b5b565b9190910192915050565b808201808211156108775761087761335a565b6000602082840312156136eb57600080fd5b5051919050565b6020808252602b908201527f496e697469616c697a61626c653a20636f6e7472616374206973206e6f74206960408201526a6e697469616c697a696e6760a81b606082015260800190565b80820281158282048414176108775761087761335a565b60008261377157634e487b7160e01b600052601260045260246000fd5b500490565b601f82111561132457600081815260208120601f850160051c8101602086101561379d5750805b601f850160051c820191505b81811015611a91578281556001016137a9565b81516001600160401b038111156137d5576137d56129df565b6137e9816137e38454613320565b84613776565b602080601f83116001811461381e57600084156138065750858301515b600019600386901b1c1916600185901b178555611a91565b600085815260208120601f198616915b8281101561384d5788860151825594840194600190910190840161382e565b508582101561386b5787850151600019600388901b60f8161c191681555b5050505050600190811b0190555056fe476f7665726e6f723a2072656c617920726576657274656420776974686f7574206d657373616765476f7665726e6f723a2063616c6c20726576657274656420776974686f7574206d657373616765a2646970667358221220ff4a23c84b9fc18172715e85fd129dad2a0e7128c1b1553e7f1b2b11917a950964736f6c63430008110033",
  "linkReferences": {},
  "deployedLinkReferences": {}
}