{
  "_format": "hh-sol-artifact-1",
  "contractName": "Council",
  "sourceName": "contracts/Council.sol",
  "abi": [
    {
      "inputs": [],
      "stateMutability": "nonpayable",
      "type": "constructor"
    },
    {
      "inputs": [],
      "name": "Empty",
      "type": "error"
    },
    {
      "anonymous": false,
      "inputs": [
        {
          "indexed": false,
          "internalType": "uint256",
          "name": "proposalId",
          "type": "uint256"
        },
        {
          "indexed": false,
          "internalType": "uint256",
          "name": "amendmentId",
          "type": "uint256"
        },
        {
          "indexed": false,
          "internalType": "address",
          "name": "proposer",
          "type": "address"
        },
        {
          "indexed": false,
          "internalType": "address[]",
          "name": "targets",
          "type": "address[]"
        },
        {
          "indexed": false,
          "internalType": "uint256[]",
          "name": "values",
          "type": "uint256[]"
        },
        {
          "indexed": false,
          "internalType": "string[]",
          "name": "signatures",
          "type": "string[]"
        },
        {
          "indexed": false,
          "internalType": "bytes[]",
          "name": "calldatas",
          "type": "bytes[]"
        },
        {
          "indexed": false,
          "internalType": "uint256",
          "name": "startBlock",
          "type": "uint256"
        },
        {
          "indexed": false,
          "internalType": "uint256",
          "name": "endBlock",
          "type": "uint256"
        },
        {
          "indexed": false,
          "internalType": "string",
          "name": "description",
          "type": "string"
        },
        {
          "indexed": false,
          "internalType": "string",
          "name": "cid",
          "type": "string"
        }
      ],
      "name": "AmendmentCreated",
      "type": "event"
    },
    {
      "anonymous": false,
      "inputs": [
        {
          "indexed": false,
          "internalType": "uint256",
          "name": "proposalId",
          "type": "uint256"
        },
        {
          "indexed": false,
          "internalType": "address",
          "name": "commenter",
          "type": "address"
        },
        {
          "indexed": false,
          "internalType": "uint256",
          "name": "parent",
          "type": "uint256"
        },
        {
          "indexed": false,
          "internalType": "string",
          "name": "cid",
          "type": "string"
        },
        {
          "indexed": false,
          "internalType": "enum ICouncil.Sentiment",
          "name": "sentiment",
          "type": "uint8"
        }
      ],
      "name": "CommentEvent",
      "type": "event"
    },
    {
      "anonymous": false,
      "inputs": [
        {
          "indexed": false,
          "internalType": "uint8",
          "name": "version",
          "type": "uint8"
        }
      ],
      "name": "Initialized",
      "type": "event"
    },
    {
      "anonymous": false,
      "inputs": [
        {
          "indexed": false,
          "internalType": "uint256",
          "name": "proposalId",
          "type": "uint256"
        },
        {
          "indexed": false,
          "internalType": "address",
          "name": "requestor",
          "type": "address"
        }
      ],
      "name": "MoveToVoteRequested",
      "type": "event"
    },
    {
      "anonymous": false,
      "inputs": [
        {
          "indexed": false,
          "internalType": "uint256",
          "name": "proposalId",
          "type": "uint256"
        }
      ],
      "name": "ProposalCanceled",
      "type": "event"
    },
    {
      "anonymous": false,
      "inputs": [
        {
          "indexed": false,
          "internalType": "uint256",
          "name": "proposalId",
          "type": "uint256"
        },
        {
          "indexed": false,
          "internalType": "address",
          "name": "proposer",
          "type": "address"
        },
        {
          "indexed": false,
          "internalType": "address[]",
          "name": "targets",
          "type": "address[]"
        },
        {
          "indexed": false,
          "internalType": "uint256[]",
          "name": "values",
          "type": "uint256[]"
        },
        {
          "indexed": false,
          "internalType": "string[]",
          "name": "signatures",
          "type": "string[]"
        },
        {
          "indexed": false,
          "internalType": "bytes[]",
          "name": "calldatas",
          "type": "bytes[]"
        },
        {
          "indexed": false,
          "internalType": "uint256",
          "name": "startBlock",
          "type": "uint256"
        },
        {
          "indexed": false,
          "internalType": "uint256",
          "name": "endBlock",
          "type": "uint256"
        },
        {
          "indexed": false,
          "internalType": "string",
          "name": "description",
          "type": "string"
        },
        {
          "indexed": false,
          "internalType": "string",
          "name": "cid",
          "type": "string"
        }
      ],
      "name": "ProposalCreated",
      "type": "event"
    },
    {
      "anonymous": false,
      "inputs": [
        {
          "indexed": false,
          "internalType": "uint256",
          "name": "proposalId",
          "type": "uint256"
        }
      ],
      "name": "ProposalExecuted",
      "type": "event"
    },
    {
      "anonymous": false,
      "inputs": [
        {
          "indexed": false,
          "internalType": "uint256",
          "name": "proposalId",
          "type": "uint256"
        },
        {
          "indexed": false,
          "internalType": "address",
          "name": "seconder",
          "type": "address"
        }
      ],
      "name": "ProposalSeconded",
      "type": "event"
    },
    {
      "anonymous": false,
      "inputs": [
        {
          "indexed": false,
          "internalType": "uint256",
          "name": "oldProposalThreshold",
          "type": "uint256"
        },
        {
          "indexed": false,
          "internalType": "uint256",
          "name": "newProposalThreshold",
          "type": "uint256"
        }
      ],
      "name": "ProposalThresholdSet",
      "type": "event"
    },
    {
      "anonymous": false,
      "inputs": [
        {
          "indexed": false,
          "internalType": "uint256",
          "name": "oldQuorumNumerator",
          "type": "uint256"
        },
        {
          "indexed": false,
          "internalType": "uint256",
          "name": "newQuorumNumerator",
          "type": "uint256"
        }
      ],
      "name": "QuorumNumeratorUpdated",
      "type": "event"
    },
    {
      "anonymous": false,
      "inputs": [
        {
          "indexed": true,
          "internalType": "address",
          "name": "voter",
          "type": "address"
        },
        {
          "indexed": false,
          "internalType": "uint256",
          "name": "proposalId",
          "type": "uint256"
        },
        {
          "indexed": false,
          "internalType": "uint8",
          "name": "support",
          "type": "uint8"
        },
        {
          "indexed": false,
          "internalType": "uint256",
          "name": "weight",
          "type": "uint256"
        },
        {
          "indexed": false,
          "internalType": "string",
          "name": "reason",
          "type": "string"
        }
      ],
      "name": "VoteCast",
      "type": "event"
    },
    {
      "anonymous": false,
      "inputs": [
        {
          "indexed": true,
          "internalType": "address",
          "name": "voter",
          "type": "address"
        },
        {
          "indexed": false,
          "internalType": "uint256",
          "name": "proposalId",
          "type": "uint256"
        },
        {
          "indexed": false,
          "internalType": "uint8",
          "name": "support",
          "type": "uint8"
        },
        {
          "indexed": false,
          "internalType": "uint256",
          "name": "weight",
          "type": "uint256"
        },
        {
          "indexed": false,
          "internalType": "string",
          "name": "reason",
          "type": "string"
        },
        {
          "indexed": false,
          "internalType": "bytes",
          "name": "params",
          "type": "bytes"
        }
      ],
      "name": "VoteCastWithParams",
      "type": "event"
    },
    {
      "anonymous": false,
      "inputs": [
        {
          "indexed": false,
          "internalType": "uint256",
          "name": "oldVotingDelay",
          "type": "uint256"
        },
        {
          "indexed": false,
          "internalType": "uint256",
          "name": "newVotingDelay",
          "type": "uint256"
        }
      ],
      "name": "VotingDelaySet",
      "type": "event"
    },
    {
      "anonymous": false,
      "inputs": [
        {
          "indexed": false,
          "internalType": "uint256",
          "name": "oldVotingPeriod",
          "type": "uint256"
        },
        {
          "indexed": false,
          "internalType": "uint256",
          "name": "newVotingPeriod",
          "type": "uint256"
        }
      ],
      "name": "VotingPeriodSet",
      "type": "event"
    },
    {
      "inputs": [],
      "name": "BALLOT_TYPEHASH",
      "outputs": [
        {
          "internalType": "bytes32",
          "name": "",
          "type": "bytes32"
        }
      ],
      "stateMutability": "view",
      "type": "function"
    },
    {
      "inputs": [],
      "name": "COUNTING_MODE",
      "outputs": [
        {
          "internalType": "string",
          "name": "",
          "type": "string"
        }
      ],
      "stateMutability": "pure",
      "type": "function"
    },
    {
      "inputs": [],
      "name": "EXTENDED_BALLOT_TYPEHASH",
      "outputs": [
        {
          "internalType": "bytes32",
          "name": "",
          "type": "bytes32"
        }
      ],
      "stateMutability": "view",
      "type": "function"
    },
    {
      "inputs": [
        {
          "internalType": "uint256",
          "name": "",
          "type": "uint256"
        }
      ],
      "name": "_proposals",
      "outputs": [
        {
          "components": [
            {
              "internalType": "uint64",
              "name": "_deadline",
              "type": "uint64"
            }
          ],
          "internalType": "struct TimersUpgradeable.BlockNumber",
          "name": "voteStart",
          "type": "tuple"
        },
        {
          "components": [
            {
              "internalType": "uint64",
              "name": "_deadline",
              "type": "uint64"
            }
          ],
          "internalType": "struct TimersUpgradeable.BlockNumber",
          "name": "voteEnd",
          "type": "tuple"
        },
        {
          "internalType": "bool",
          "name": "executed",
          "type": "bool"
        },
        {
          "internalType": "bool",
          "name": "canceled",
          "type": "bool"
        },
        {
          "internalType": "enum IGovernorUpgradeable.ProposalState",
          "name": "state",
          "type": "uint8"
        },
        {
          "internalType": "uint256",
          "name": "parent",
          "type": "uint256"
        },
        {
          "internalType": "string",
          "name": "cid",
          "type": "string"
        }
      ],
      "stateMutability": "view",
      "type": "function"
    },
    {
      "inputs": [
        {
          "internalType": "uint256",
          "name": "proposalId",
          "type": "uint256"
        },
        {
          "internalType": "uint256",
          "name": "parent",
          "type": "uint256"
        },
        {
          "internalType": "string",
          "name": "cid",
          "type": "string"
        },
        {
          "internalType": "enum ICouncil.Sentiment",
          "name": "sentiment",
          "type": "uint8"
        }
      ],
      "name": "addComment",
      "outputs": [],
      "stateMutability": "nonpayable",
      "type": "function"
    },
    {
      "inputs": [
        {
          "internalType": "uint256",
          "name": "proposalId",
          "type": "uint256"
        },
        {
          "internalType": "uint8",
          "name": "support",
          "type": "uint8"
        }
      ],
      "name": "castVote",
      "outputs": [
        {
          "internalType": "uint256",
          "name": "",
          "type": "uint256"
        }
      ],
      "stateMutability": "nonpayable",
      "type": "function"
    },
    {
      "inputs": [
        {
          "internalType": "uint256",
          "name": "proposalId",
          "type": "uint256"
        },
        {
          "internalType": "uint8",
          "name": "support",
          "type": "uint8"
        },
        {
          "internalType": "uint8",
          "name": "v",
          "type": "uint8"
        },
        {
          "internalType": "bytes32",
          "name": "r",
          "type": "bytes32"
        },
        {
          "internalType": "bytes32",
          "name": "s",
          "type": "bytes32"
        }
      ],
      "name": "castVoteBySig",
      "outputs": [
        {
          "internalType": "uint256",
          "name": "",
          "type": "uint256"
        }
      ],
      "stateMutability": "nonpayable",
      "type": "function"
    },
    {
      "inputs": [
        {
          "internalType": "uint256",
          "name": "proposalId",
          "type": "uint256"
        },
        {
          "internalType": "uint8",
          "name": "support",
          "type": "uint8"
        },
        {
          "internalType": "string",
          "name": "reason",
          "type": "string"
        }
      ],
      "name": "castVoteWithReason",
      "outputs": [
        {
          "internalType": "uint256",
          "name": "",
          "type": "uint256"
        }
      ],
      "stateMutability": "nonpayable",
      "type": "function"
    },
    {
      "inputs": [
        {
          "internalType": "uint256",
          "name": "proposalId",
          "type": "uint256"
        },
        {
          "internalType": "uint8",
          "name": "support",
          "type": "uint8"
        },
        {
          "internalType": "string",
          "name": "reason",
          "type": "string"
        },
        {
          "internalType": "bytes",
          "name": "params",
          "type": "bytes"
        }
      ],
      "name": "castVoteWithReasonAndParams",
      "outputs": [
        {
          "internalType": "uint256",
          "name": "",
          "type": "uint256"
        }
      ],
      "stateMutability": "nonpayable",
      "type": "function"
    },
    {
      "inputs": [
        {
          "internalType": "uint256",
          "name": "proposalId",
          "type": "uint256"
        },
        {
          "internalType": "uint8",
          "name": "support",
          "type": "uint8"
        },
        {
          "internalType": "string",
          "name": "reason",
          "type": "string"
        },
        {
          "internalType": "bytes",
          "name": "params",
          "type": "bytes"
        },
        {
          "internalType": "uint8",
          "name": "v",
          "type": "uint8"
        },
        {
          "internalType": "bytes32",
          "name": "r",
          "type": "bytes32"
        },
        {
          "internalType": "bytes32",
          "name": "s",
          "type": "bytes32"
        }
      ],
      "name": "castVoteWithReasonAndParamsBySig",
      "outputs": [
        {
          "internalType": "uint256",
          "name": "",
          "type": "uint256"
        }
      ],
      "stateMutability": "nonpayable",
      "type": "function"
    },
    {
      "inputs": [
        {
          "internalType": "uint256",
          "name": "proposal",
          "type": "uint256"
        },
        {
          "internalType": "uint256",
          "name": "parent",
          "type": "uint256"
        },
        {
          "internalType": "string",
          "name": "cid",
          "type": "string"
        },
        {
          "internalType": "enum ICouncil.Sentiment",
          "name": "sentiment",
          "type": "uint8"
        }
      ],
      "name": "commentHash",
      "outputs": [
        {
          "internalType": "uint256",
          "name": "hash",
          "type": "uint256"
        }
      ],
      "stateMutability": "pure",
      "type": "function"
    },
    {
      "inputs": [
        {
          "internalType": "uint256",
          "name": "",
          "type": "uint256"
        }
      ],
      "name": "comments",
      "outputs": [
        {
          "internalType": "string",
          "name": "cid",
          "type": "string"
        },
        {
          "internalType": "uint256",
          "name": "parent",
          "type": "uint256"
        },
        {
          "internalType": "uint256",
          "name": "proposal",
          "type": "uint256"
        },
        {
          "internalType": "uint256",
          "name": "upvotes",
          "type": "uint256"
        },
        {
          "internalType": "uint256",
          "name": "downvotes",
          "type": "uint256"
        },
        {
          "internalType": "enum ICouncil.Sentiment",
          "name": "sentiment",
          "type": "uint8"
        }
      ],
      "stateMutability": "view",
      "type": "function"
    },
    {
      "inputs": [
        {
          "internalType": "address[]",
          "name": "targets",
          "type": "address[]"
        },
        {
          "internalType": "uint256[]",
          "name": "values",
          "type": "uint256[]"
        },
        {
          "internalType": "bytes[]",
          "name": "calldatas",
          "type": "bytes[]"
        },
        {
          "internalType": "bytes32",
          "name": "descriptionHash",
          "type": "bytes32"
        }
      ],
      "name": "execute",
      "outputs": [
        {
          "internalType": "uint256",
          "name": "",
          "type": "uint256"
        }
      ],
      "stateMutability": "payable",
      "type": "function"
    },
    {
      "inputs": [
        {
          "internalType": "uint256",
          "name": "proposalId",
          "type": "uint256"
        }
      ],
      "name": "getProposalById",
      "outputs": [
        {
          "components": [
            {
              "components": [
                {
                  "internalType": "uint64",
                  "name": "_deadline",
                  "type": "uint64"
                }
              ],
              "internalType": "struct TimersUpgradeable.BlockNumber",
              "name": "voteStart",
              "type": "tuple"
            },
            {
              "components": [
                {
                  "internalType": "uint64",
                  "name": "_deadline",
                  "type": "uint64"
                }
              ],
              "internalType": "struct TimersUpgradeable.BlockNumber",
              "name": "voteEnd",
              "type": "tuple"
            },
            {
              "internalType": "bool",
              "name": "executed",
              "type": "bool"
            },
            {
              "internalType": "bool",
              "name": "canceled",
              "type": "bool"
            },
            {
              "internalType": "enum IGovernorUpgradeable.ProposalState",
              "name": "state",
              "type": "uint8"
            },
            {
              "internalType": "uint256",
              "name": "parent",
              "type": "uint256"
            },
            {
              "internalType": "string",
              "name": "cid",
              "type": "string"
            }
          ],
          "internalType": "struct GovernorUpgradeable.ProposalCore",
          "name": "proposal",
          "type": "tuple"
        }
      ],
      "stateMutability": "view",
      "type": "function"
    },
    {
      "inputs": [
        {
          "internalType": "address",
          "name": "account",
          "type": "address"
        },
        {
          "internalType": "uint256",
          "name": "blockNumber",
          "type": "uint256"
        }
      ],
      "name": "getVotes",
      "outputs": [
        {
          "internalType": "uint256",
          "name": "",
          "type": "uint256"
        }
      ],
      "stateMutability": "view",
      "type": "function"
    },
    {
      "inputs": [
        {
          "internalType": "address",
          "name": "account",
          "type": "address"
        },
        {
          "internalType": "uint256",
          "name": "blockNumber",
          "type": "uint256"
        },
        {
          "internalType": "bytes",
          "name": "params",
          "type": "bytes"
        }
      ],
      "name": "getVotesWithParams",
      "outputs": [
        {
          "internalType": "uint256",
          "name": "",
          "type": "uint256"
        }
      ],
      "stateMutability": "view",
      "type": "function"
    },
    {
      "inputs": [
        {
          "internalType": "address[]",
          "name": "foundingMembers",
          "type": "address[]"
        },
        {
          "internalType": "uint256",
          "name": "grantQuantity",
          "type": "uint256"
        }
      ],
      "name": "grantToFounders",
      "outputs": [],
      "stateMutability": "nonpayable",
      "type": "function"
    },
    {
      "inputs": [
        {
          "internalType": "uint256",
          "name": "proposalId",
          "type": "uint256"
        },
        {
          "internalType": "address",
          "name": "account",
          "type": "address"
        }
      ],
      "name": "hasVoted",
      "outputs": [
        {
          "internalType": "bool",
          "name": "",
          "type": "bool"
        }
      ],
      "stateMutability": "view",
      "type": "function"
    },
    {
      "inputs": [
        {
          "internalType": "uint256",
          "name": "proposalId",
          "type": "uint256"
        },
        {
          "internalType": "address[]",
          "name": "targets",
          "type": "address[]"
        },
        {
          "internalType": "uint256[]",
          "name": "values",
          "type": "uint256[]"
        },
        {
          "internalType": "bytes[]",
          "name": "calldatas",
          "type": "bytes[]"
        },
        {
          "internalType": "string",
          "name": "description",
          "type": "string"
        },
        {
          "internalType": "string",
          "name": "cid",
          "type": "string"
        }
      ],
      "name": "hashAmendment",
      "outputs": [
        {
          "internalType": "uint256",
          "name": "",
          "type": "uint256"
        }
      ],
      "stateMutability": "pure",
      "type": "function"
    },
    {
      "inputs": [
        {
          "internalType": "address[]",
          "name": "targets",
          "type": "address[]"
        },
        {
          "internalType": "uint256[]",
          "name": "values",
          "type": "uint256[]"
        },
        {
          "internalType": "bytes[]",
          "name": "calldatas",
          "type": "bytes[]"
        },
        {
          "internalType": "bytes32",
          "name": "descriptionHash",
          "type": "bytes32"
        }
      ],
      "name": "hashProposal",
      "outputs": [
        {
          "internalType": "uint256",
          "name": "",
          "type": "uint256"
        }
      ],
      "stateMutability": "pure",
      "type": "function"
    },
    {
      "inputs": [
        {
          "internalType": "contract IVotesUpgradeable",
          "name": "_token",
          "type": "address"
        }
      ],
      "name": "initialize",
      "outputs": [],
      "stateMutability": "nonpayable",
      "type": "function"
    },
    {
      "inputs": [
        {
          "internalType": "uint256",
          "name": "proposalId",
          "type": "uint256"
        }
      ],
      "name": "moveToVote",
      "outputs": [],
      "stateMutability": "nonpayable",
      "type": "function"
    },
    {
      "inputs": [],
      "name": "name",
      "outputs": [
        {
          "internalType": "string",
          "name": "",
          "type": "string"
        }
      ],
      "stateMutability": "view",
      "type": "function"
    },
    {
      "inputs": [
        {
          "internalType": "address",
          "name": "",
          "type": "address"
        },
        {
          "internalType": "address",
          "name": "",
          "type": "address"
        },
        {
          "internalType": "uint256[]",
          "name": "",
          "type": "uint256[]"
        },
        {
          "internalType": "uint256[]",
          "name": "",
          "type": "uint256[]"
        },
        {
          "internalType": "bytes",
          "name": "",
          "type": "bytes"
        }
      ],
      "name": "onERC1155BatchReceived",
      "outputs": [
        {
          "internalType": "bytes4",
          "name": "",
          "type": "bytes4"
        }
      ],
      "stateMutability": "nonpayable",
      "type": "function"
    },
    {
      "inputs": [
        {
          "internalType": "address",
          "name": "",
          "type": "address"
        },
        {
          "internalType": "address",
          "name": "",
          "type": "address"
        },
        {
          "internalType": "uint256",
          "name": "",
          "type": "uint256"
        },
        {
          "internalType": "uint256",
          "name": "",
          "type": "uint256"
        },
        {
          "internalType": "bytes",
          "name": "",
          "type": "bytes"
        }
      ],
      "name": "onERC1155Received",
      "outputs": [
        {
          "internalType": "bytes4",
          "name": "",
          "type": "bytes4"
        }
      ],
      "stateMutability": "nonpayable",
      "type": "function"
    },
    {
      "inputs": [
        {
          "internalType": "address",
          "name": "",
          "type": "address"
        },
        {
          "internalType": "address",
          "name": "",
          "type": "address"
        },
        {
          "internalType": "uint256",
          "name": "",
          "type": "uint256"
        },
        {
          "internalType": "bytes",
          "name": "",
          "type": "bytes"
        }
      ],
      "name": "onERC721Received",
      "outputs": [
        {
          "internalType": "bytes4",
          "name": "",
          "type": "bytes4"
        }
      ],
      "stateMutability": "nonpayable",
      "type": "function"
    },
    {
      "inputs": [
        {
          "internalType": "uint256",
          "name": "proposalId",
          "type": "uint256"
        }
      ],
      "name": "proposalDeadline",
      "outputs": [
        {
          "internalType": "uint256",
          "name": "",
          "type": "uint256"
        }
      ],
      "stateMutability": "view",
      "type": "function"
    },
    {
      "inputs": [
        {
          "internalType": "uint256",
          "name": "",
          "type": "uint256"
        }
      ],
      "name": "proposalIds",
      "outputs": [
        {
          "internalType": "uint256",
          "name": "",
          "type": "uint256"
        }
      ],
      "stateMutability": "view",
      "type": "function"
    },
    {
      "inputs": [
        {
          "internalType": "uint256",
          "name": "proposalId",
          "type": "uint256"
        }
      ],
      "name": "proposalSnapshot",
      "outputs": [
        {
          "internalType": "uint256",
          "name": "",
          "type": "uint256"
        }
      ],
      "stateMutability": "view",
      "type": "function"
    },
    {
      "inputs": [],
      "name": "proposalThreshold",
      "outputs": [
        {
          "internalType": "uint256",
          "name": "",
          "type": "uint256"
        }
      ],
      "stateMutability": "view",
      "type": "function"
    },
    {
      "inputs": [
        {
          "internalType": "uint256",
          "name": "proposalId",
          "type": "uint256"
        }
      ],
      "name": "proposalVotes",
      "outputs": [
        {
          "internalType": "uint256",
          "name": "againstVotes",
          "type": "uint256"
        },
        {
          "internalType": "uint256",
          "name": "forVotes",
          "type": "uint256"
        },
        {
          "internalType": "uint256",
          "name": "abstainVotes",
          "type": "uint256"
        }
      ],
      "stateMutability": "view",
      "type": "function"
    },
    {
      "inputs": [
        {
          "internalType": "address[]",
          "name": "targets",
          "type": "address[]"
        },
        {
          "internalType": "uint256[]",
          "name": "values",
          "type": "uint256[]"
        },
        {
          "internalType": "bytes[]",
          "name": "calldatas",
          "type": "bytes[]"
        },
        {
          "internalType": "string",
          "name": "description",
          "type": "string"
        },
        {
          "internalType": "string",
          "name": "cid",
          "type": "string"
        }
      ],
      "name": "propose",
      "outputs": [
        {
          "internalType": "uint256",
          "name": "",
          "type": "uint256"
        }
      ],
      "stateMutability": "nonpayable",
      "type": "function"
    },
    {
      "inputs": [
        {
          "internalType": "uint256",
          "name": "proposalId",
          "type": "uint256"
        },
        {
          "internalType": "address[]",
          "name": "targets",
          "type": "address[]"
        },
        {
          "internalType": "uint256[]",
          "name": "values",
          "type": "uint256[]"
        },
        {
          "internalType": "bytes[]",
          "name": "calldatas",
          "type": "bytes[]"
        },
        {
          "internalType": "string",
          "name": "description",
          "type": "string"
        },
        {
          "internalType": "string",
          "name": "cid",
          "type": "string"
        }
      ],
      "name": "proposeAmendment",
      "outputs": [
        {
          "internalType": "uint256",
          "name": "",
          "type": "uint256"
        }
      ],
      "stateMutability": "nonpayable",
      "type": "function"
    },
    {
      "inputs": [
        {
          "internalType": "uint256",
          "name": "blockNumber",
          "type": "uint256"
        }
      ],
      "name": "quorum",
      "outputs": [
        {
          "internalType": "uint256",
          "name": "",
          "type": "uint256"
        }
      ],
      "stateMutability": "view",
      "type": "function"
    },
    {
      "inputs": [],
      "name": "quorumDenominator",
      "outputs": [
        {
          "internalType": "uint256",
          "name": "",
          "type": "uint256"
        }
      ],
      "stateMutability": "view",
      "type": "function"
    },
    {
      "inputs": [
        {
          "internalType": "uint256",
          "name": "blockNumber",
          "type": "uint256"
        }
      ],
      "name": "quorumNumerator",
      "outputs": [
        {
          "internalType": "uint256",
          "name": "",
          "type": "uint256"
        }
      ],
      "stateMutability": "view",
      "type": "function"
    },
    {
      "inputs": [],
      "name": "quorumNumerator",
      "outputs": [
        {
          "internalType": "uint256",
          "name": "",
          "type": "uint256"
        }
      ],
      "stateMutability": "view",
      "type": "function"
    },
    {
      "inputs": [
        {
          "internalType": "address",
          "name": "target",
          "type": "address"
        },
        {
          "internalType": "uint256",
          "name": "value",
          "type": "uint256"
        },
        {
          "internalType": "bytes",
          "name": "data",
          "type": "bytes"
        }
      ],
      "name": "relay",
      "outputs": [],
      "stateMutability": "payable",
      "type": "function"
    },
    {
      "inputs": [
        {
          "internalType": "uint256",
          "name": "proposalId",
          "type": "uint256"
        }
      ],
      "name": "secondProposal",
      "outputs": [],
      "stateMutability": "nonpayable",
      "type": "function"
    },
    {
      "inputs": [
        {
          "internalType": "uint256",
          "name": "newProposalThreshold",
          "type": "uint256"
        }
      ],
      "name": "setProposalThreshold",
      "outputs": [],
      "stateMutability": "nonpayable",
      "type": "function"
    },
    {
      "inputs": [
        {
          "internalType": "uint256",
          "name": "newVotingDelay",
          "type": "uint256"
        }
      ],
      "name": "setVotingDelay",
      "outputs": [],
      "stateMutability": "nonpayable",
      "type": "function"
    },
    {
      "inputs": [
        {
          "internalType": "uint256",
          "name": "newVotingPeriod",
          "type": "uint256"
        }
      ],
      "name": "setVotingPeriod",
      "outputs": [],
      "stateMutability": "nonpayable",
      "type": "function"
    },
    {
      "inputs": [
        {
          "internalType": "uint256",
          "name": "proposalId",
          "type": "uint256"
        }
      ],
      "name": "state",
      "outputs": [
        {
          "internalType": "enum IGovernorUpgradeable.ProposalState",
          "name": "",
          "type": "uint8"
        }
      ],
      "stateMutability": "view",
      "type": "function"
    },
    {
      "inputs": [
        {
          "internalType": "bytes4",
          "name": "interfaceId",
          "type": "bytes4"
        }
      ],
      "name": "supportsInterface",
      "outputs": [
        {
          "internalType": "bool",
          "name": "",
          "type": "bool"
        }
      ],
      "stateMutability": "view",
      "type": "function"
    },
    {
      "inputs": [],
      "name": "token",
      "outputs": [
        {
          "internalType": "contract IVotesUpgradeable",
          "name": "",
          "type": "address"
        }
      ],
      "stateMutability": "view",
      "type": "function"
    },
    {
      "inputs": [
        {
          "internalType": "uint256",
          "name": "newQuorumNumerator",
          "type": "uint256"
        }
      ],
      "name": "updateQuorumNumerator",
      "outputs": [],
      "stateMutability": "nonpayable",
      "type": "function"
    },
    {
      "inputs": [],
      "name": "version",
      "outputs": [
        {
          "internalType": "string",
          "name": "",
          "type": "string"
        }
      ],
      "stateMutability": "view",
      "type": "function"
    },
    {
      "inputs": [],
      "name": "votingDelay",
      "outputs": [
        {
          "internalType": "uint256",
          "name": "",
          "type": "uint256"
        }
      ],
      "stateMutability": "view",
      "type": "function"
    },
    {
      "inputs": [],
      "name": "votingPeriod",
      "outputs": [
        {
          "internalType": "uint256",
          "name": "",
          "type": "uint256"
        }
      ],
      "stateMutability": "view",
      "type": "function"
    },
    {
      "stateMutability": "payable",
      "type": "receive"
    }
  ],
  "bytecode": "0x60806040523480156200001157600080fd5b506200001c62000022565b620000e4565b600054610100900460ff16156200008f5760405162461bcd60e51b815260206004820152602760248201527f496e697469616c697a61626c653a20636f6e747261637420697320696e697469604482015266616c697a696e6760c81b606482015260840160405180910390fd5b60005460ff9081161015620000e2576000805460ff191660ff9081179091556040519081527f7f26b83ff96e1f2b6a682f133852f6798a09c465da95921460cefb38474024989060200160405180910390a15b565b61481580620000f46000396000f3fe6080604052600436106102b25760003560e01c80637b3c71d311610175578063c01f9e37116100dc578063deaaa7cc11610095578063ece40cc11161006f578063ece40cc11461095b578063f23a6e611461097b578063f8ce560a146109a7578063fc0c546a146109c757600080fd5b8063deaaa7cc146108e7578063ea0217cf1461091b578063eb9019d41461093b57600080fd5b8063c01f9e371461080e578063c28bc2fa1461082e578063c4d66de814610841578063c59057e414610861578063d38761b814610881578063dd4e2ba5146108a157600080fd5b8063a1d53b401161012e578063a1d53b4014610758578063a5b7638914610778578063a7713a7014610798578063ae125ff9146107ad578063b58131b0146107cd578063bc197c81146107e257600080fd5b80637b3c71d3146106925780638959dcb3146106b25780638ebb4c15146106d257806397c3d334146107045780639a802a6d146107185780639b644a231461073857600080fd5b80633bccf4fd1161021957806354fd4d50116101d257806354fd4d50146105c857806356781388146105f25780635f398a141461061257806360c4247f1461063257806370b0f660146106525780637274307a1461067257600080fd5b80633bccf4fd1461049a5780633e4f49e6146104ba578063424f5484146104e757806343859632146105075780635051ab3114610552578063544ffc9c1461057257600080fd5b8063150b7a021161026b578063150b7a02146103ad5780632656227d146103f15780632d63f693146104045780632fe3e261146104245780633656de21146104585780633932abb11461048557600080fd5b806301ffc9a7146102c057806302a251a3146102f5578063034201811461031857806306f3f9e61461033857806306fdde03146103585780630a4948401461037a57600080fd5b366102bb57005b005b600080fd5b3480156102cc57600080fd5b506102e06102db36600461349a565b610a00565b60405190151581526020015b60405180910390f35b34801561030157600080fd5b5061030a610a6d565b6040519081526020016102ec565b34801561032457600080fd5b5061030a6103333660046135d0565b610a7d565b34801561034457600080fd5b506102b9610353366004613676565b610b75565b34801561036457600080fd5b5061036d610bc0565b6040516102ec91906136df565b34801561038657600080fd5b5061039a610395366004613676565b610c52565b6040516102ec979695949392919061371c565b3480156103b957600080fd5b506103d86103c836600461378e565b630a85bd0160e11b949350505050565b6040516001600160e01b031990911681526020016102ec565b61030a6103ff36600461396a565b610d43565b34801561041057600080fd5b5061030a61041f366004613676565b610e6f565b34801561043057600080fd5b5061030a7fb3b3f3b703cd84ce352197dcff232b1b5d3cfb2025ce47cf04742d0651f1af8881565b34801561046457600080fd5b50610478610473366004613676565b610ea6565b6040516102ec91906139f9565b34801561049157600080fd5b5061030a611032565b3480156104a657600080fd5b5061030a6104b5366004613a6d565b61103d565b3480156104c657600080fd5b506104da6104d5366004613676565b6110b5565b6040516102ec9190613abb565b3480156104f357600080fd5b506102b9610502366004613676565b6111c5565b34801561051357600080fd5b506102e0610522366004613ac9565b6000828152610130602090815260408083206001600160a01b038516845260030190915290205460ff1692915050565b34801561055e57600080fd5b5061030a61056d366004613af9565b6112b9565b34801561057e57600080fd5b506105ad61058d366004613676565b600090815261013060205260409020805460018201546002909201549092565b604080519384526020840192909252908201526060016102ec565b3480156105d457600080fd5b506040805180820190915260018152603160f81b602082015261036d565b3480156105fe57600080fd5b5061030a61060d366004613bca565b61155d565b34801561061e57600080fd5b5061030a61062d366004613bf6565b611586565b34801561063e57600080fd5b5061030a61064d366004613676565b6115d0565b34801561065e57600080fd5b506102b961066d366004613676565b61166b565b34801561067e57600080fd5b5061030a61068d366004613c5f565b6116aa565b34801561069e57600080fd5b5061030a6106ad366004613d38565b6116ed565b3480156106be57600080fd5b506102b96106cd366004613d91565b611735565b3480156106de57600080fd5b506106f26106ed366004613676565b6118a7565b6040516102ec96959493929190613e07565b34801561071057600080fd5b50606461030a565b34801561072457600080fd5b5061030a610733366004613e4c565b611968565b34801561074457600080fd5b5061030a610753366004613676565b61197f565b34801561076457600080fd5b5061030a610773366004613d91565b6119a0565b34801561078457600080fd5b5061030a610793366004613c5f565b6119da565b3480156107a457600080fd5b5061030a611bf7565b3480156107b957600080fd5b506102b96107c8366004613ea4565b611c24565b3480156107d957600080fd5b5061030a611d51565b3480156107ee57600080fd5b506103d86107fd366004613ee8565b63bc197c8160e01b95945050505050565b34801561081a57600080fd5b5061030a610829366004613676565b611d5d565b6102b961083c366004613f65565b611d8c565b34801561084d57600080fd5b506102b961085c366004613fa8565b611e53565b34801561086d57600080fd5b5061030a61087c36600461396a565b611fb6565b34801561088d57600080fd5b506102b961089c366004613676565b611fcf565b3480156108ad57600080fd5b506040805180820190915260208082527f737570706f72743d627261766f2671756f72756d3d666f722c6162737461696e9082015261036d565b3480156108f357600080fd5b5061030a7f150214d74d59b7d1e90c73fc22ef3d991dd0a76b046543d4d80ab92d2a50328f81565b34801561092757600080fd5b506102b9610936366004613676565b6120c0565b34801561094757600080fd5b5061030a610956366004613fc5565b6120ff565b34801561096757600080fd5b506102b9610976366004613676565b612120565b34801561098757600080fd5b506103d8610996366004613ff1565b63f23a6e6160e01b95945050505050565b3480156109b357600080fd5b5061030a6109c2366004613676565b61215f565b3480156109d357600080fd5b50610162546109e8906001600160a01b031681565b6040516001600160a01b0390911681526020016102ec565b60006001600160e01b0319821663248a7c9160e21b1480610a3157506001600160e01b0319821663153494ef60e21b145b80610a4c57506001600160e01b03198216630271189760e51b145b80610a6757506301ffc9a760e01b6001600160e01b03198316145b92915050565b6000610a7860ff5490565b905090565b600080610b21610b197fb3b3f3b703cd84ce352197dcff232b1b5d3cfb2025ce47cf04742d0651f1af888c8c8c8c604051610ab9929190614059565b60405180910390208b80519060200120604051602001610afe959493929190948552602085019390935260ff9190911660408401526060830152608082015260a00190565b6040516020818303038152906040528051906020012061216a565b8686866121b8565b9050610b678a828b8b8b8080601f0160208091040260200160405190810160405280939291908181526020018383808284376000920191909152508d92506121d6915050565b9a9950505050505050505050565b333014610b9d5760405162461bcd60e51b8152600401610b9490614069565b60405180910390fd5b610bb4565b80610bad60ce61233a565b03610ba257505b610bbd816123b9565b50565b606060cb8054610bcf906140a0565b80601f0160208091040260200160405190810160405280929190818152602001828054610bfb906140a0565b8015610c485780601f10610c1d57610100808354040283529160200191610c48565b820191906000526020600020905b815481529060010190602001808311610c2b57829003601f168201915b5050505050905090565b60cc602090815260009182526040918290208251808301845281546001600160401b0390811682528451938401909452600182015490931682526002810154600382015460048301805460ff80851695610100860482169562010000900490911693929091610cc0906140a0565b80601f0160208091040260200160405190810160405280929190818152602001828054610cec906140a0565b8015610d395780601f10610d0e57610100808354040283529160200191610d39565b820191906000526020600020905b815481529060010190602001808311610d1c57829003601f168201915b5050505050905087565b600080610d5286868686611fb6565b90506000610d5f826110b5565b9050600a81600d811115610d7557610d756136f2565b1480610d925750600b81600d811115610d9057610d906136f2565b145b610de85760405162461bcd60e51b815260206004820152602160248201527f476f7665726e6f723a2070726f706f73616c206e6f74207375636365737366756044820152601b60fa1b6064820152608401610b94565b600082815260cc602052604090819020600201805460ff19166001179055517f712ae1383f79ac853f8d882153778e0260ef8f03b504e2866e0593e04d2b291f90610e369084815260200190565b60405180910390a1610e4b8288888888612501565b610e58828888888861258e565b610e658288888888612501565b5095945050505050565b600081815260cc602090815260408083208151928301909152546001600160401b0316908190525b6001600160401b031692915050565b6040805161010081018252600060e08201818152825282516020808201855282825283015291810182905260608082018390526080820183905260a082019290925260c0810191909152600082815260cc60209081526040918290208251610100808201855282546001600160401b0390811660e084019081528352855180860187526001850154909116815293820193909352600282015460ff80821615159583019590955292830484161515606082015292909160808401916201000090910416600d811115610f7a57610f7a6136f2565b600d811115610f8b57610f8b6136f2565b815260200160038201548152602001600482018054610fa9906140a0565b80601f0160208091040260200160405190810160405280929190818152602001828054610fd5906140a0565b80156110225780601f10610ff757610100808354040283529160200191611022565b820191906000526020600020905b81548152906001019060200180831161100557829003601f168201915b5050505050815250509050919050565b6000610a7860fe5490565b604080517f150214d74d59b7d1e90c73fc22ef3d991dd0a76b046543d4d80ab92d2a50328f602082015290810186905260ff85166060820152600090819061108b90610b1990608001610afe565b90506110a887828860405180602001604052806000815250612684565b9150505b95945050505050565b600081815260cc60205260408120600281015460ff16156110d95750600d92915050565b6002810154610100900460ff16156110f45750600892915050565b60006110ff84610e6f565b9050806000036111515760405162461bcd60e51b815260206004820152601d60248201527f476f7665726e6f723a20756e6b6e6f776e2070726f706f73616c2069640000006044820152606401610b94565b438110611162575060069392505050565b600061116d85611d5d565b905043811061118157506007949350505050565b61118a856126a7565b80156111aa57506000858152610130602052604090208054600190910154115b156111ba5750600a949350505050565b506009949350505050565b6111ce336126df565b6111ea5760405162461bcd60e51b8152600401610b94906140da565b600081815260cc6020526040902060028082015462010000900460ff16600d811115611218576112186136f2565b1461125d5760405162461bcd60e51b815260206004820152601560248201527436bab9ba1031329034b7103234b9b1bab9b9b4b7b760591b6044820152606401610b94565b60028101805462ff00001916620400001790557f758e211783d2a5f06aca582eba7ea2e652d75e61ac18b0538cc0b317e0f7259d82335b604080519283526001600160a01b039091166020830152015b60405180910390a15050565b60006112c4336126df565b6112e05760405162461bcd60e51b8152600401610b94906140da565b6112e8611d51565b6112f733610956600143614115565b101561135f5760405162461bcd60e51b815260206004820152603160248201527f476f7665726e6f723a2070726f706f73657220766f7465732062656c6f7720706044820152701c9bdc1bdcd85b081d1a1c995cda1bdb19607a1b6064820152608401610b94565b84518651146113805760405162461bcd60e51b8152600401610b9490614128565b83518651146113a15760405162461bcd60e51b8152600401610b9490614128565b60006113b68787878780519060200120611fb6565b600081815260cc60205260408120919250600282015462010000900460ff16600d8111156113e6576113e66136f2565b1461143d5760405162461bcd60e51b815260206004820152602160248201527f476f7665726e6f723a2070726f706f73616c20616c72656164792065786973746044820152607360f81b6064820152608401610b94565b6004810161144b85826141af565b5060cd80546001810182556000919091527f83978b4c69c48dd978ab43fe30f077615294f938fb7f936d9eb340e51ea7db2e0182905560028101805462ff00001916620100001790557fb88787ccad609a4d41058c8a0928927dd2516296c139d218d1e9131c2c219bd382338a8a8c516001600160401b038111156114d2576114d261351b565b60405190808252806020026020018201604052801561150557816020015b60608152602001906001900390816114f05790505b50604080516020808201835289546001600160401b03908116928390528351918201845260018b01541690819052915161154a9796959493928f92918f908f90614334565b60405180910390a1509695505050505050565b60008033905061157e84828560405180602001604052806000815250612684565b949350505050565b6000803390506110a887828888888080601f0160208091040260200160405190810160405280939291908181526020018383808284376000920191909152508a92506121d6915050565b610196546000908082036115e957505061019554919050565b60006101966115f9600184614115565b81548110611609576116096143ed565b60009182526020918290206040805180820190915291015463ffffffff8116808352600160201b9091046001600160e01b0316928201929092529150841061165f57602001516001600160e01b03169392505050565b61157e61019685612759565b33301461168a5760405162461bcd60e51b8152600401610b9490614069565b6116a1565b8061169a60ce61233a565b0361168f57505b610bbd81612819565b60008686868686866040516020016116c796959493929190614403565b6040516020818303038152906040528051906020012060001c90505b9695505050505050565b6000803390506116e386828787878080601f01602080910402602001604051908101604052809392919081815260200183838082843760009201919091525061268492505050565b61173e336126df565b61175a5760405162461bcd60e51b8152600401610b94906140da565b600261176585610ea6565b60800151600d81111561177a5761177a6136f2565b146117975760405162461bcd60e51b8152600401610b949061446a565b8215806117be575060008381526101c86020526040902080546117b9906140a0565b151590505b6117fb5760405162461bcd60e51b815260206004820152600e60248201526d1d5b9adb9bdddb881c185c995b9d60921b6044820152606401610b94565b6000611809858585856119a0565b60008181526101c86020526040902060028101879055600181018690559091508061183485826141af565b50828160050160006101000a81548160ff0219169083600581111561185b5761185b6136f2565b02179055507fab9cbbc55d154611333c315f451d82f88c84b9254dec96cd2800ae487b17bb6e86338787876040516118979594939291906144af565b60405180910390a1505050505050565b6101c8602052600090815260409020805481906118c3906140a0565b80601f01602080910402602001604051908101604052809291908181526020018280546118ef906140a0565b801561193c5780601f106119115761010080835404028352916020019161193c565b820191906000526020600020905b81548152906001019060200180831161191f57829003601f168201915b505050600184015460028501546003860154600487015460059097015495969295919450925060ff1686565b600061197584848461285a565b90505b9392505050565b60cd818154811061198f57600080fd5b600091825260209091200154905081565b6000848484846040516020016119b994939291906144eb565b60408051601f19818403018152919052805160209091012095945050505050565b60006119e5336126df565b611a015760405162461bcd60e51b8152600401610b94906140da565b8451865114611a225760405162461bcd60e51b8152600401610b9490614128565b8351865114611a435760405162461bcd60e51b8152600401610b9490614128565b600087815260cc6020526040902060028082015462010000900460ff16600d811115611a7157611a716136f2565b14611a8e5760405162461bcd60e51b8152600401610b949061446a565b6000611a9e8989898989896116aa565b600081815260cc60205260408120919250600282015462010000900460ff16600d811115611ace57611ace6136f2565b14611b1b5760405162461bcd60e51b815260206004820152601860248201527f616d656e646d656e7420616c72656164792065786973747300000000000000006044820152606401610b94565b60028101805462ff000019166201000017905560048101611b3c86826141af565b506002830180546203000062ff0000199091161790557f700333eab3015dc440dd21d32df65a85b7c7a09a4e45ad54be8e79d0c802f5388a83338c8c8e516001600160401b03811115611b9157611b9161351b565b604051908082528060200260200182016040528015611bc457816020015b6060815260200190600190039081611baf5790505b508d6000808f8f604051611be29b9a99989796959493929190614519565b60405180910390a15098975050505050505050565b6101965460009015611c1c57611c0e6101966128d1565b6001600160e01b0316905090565b506101955490565b6101c75460ff1615611c785760405162461bcd60e51b815260206004820152601f60248201527f466f756e646572206772616e7420616c726561647920636f6d706c65746564006044820152606401610b94565b6101c7805460ff1916600117905560005b8251811015611d4c576101625483516001600160a01b039091169063a9059cbb90859084908110611cbc57611cbc6143ed565b6020026020010151846040518363ffffffff1660e01b8152600401611cf69291906001600160a01b03929092168252602082015260400190565b6020604051808303816000875af1158015611d15573d6000803e3d6000fd5b505050506040513d601f19601f82011682018060405250810190611d3991906145d0565b5080611d44816145f2565b915050611c89565b505050565b6000610a786101005490565b600081815260cc602090815260408083208151928301909152600101546001600160401b031690819052610e97565b333014611dab5760405162461bcd60e51b8152600401610b9490614069565b611dc2565b80611dbb60ce61233a565b03611db057505b600080856001600160a01b0316858585604051611de0929190614059565b60006040518083038185875af1925050503d8060008114611e1d576040519150601f19603f3d011682016040523d82523d6000602084013e611e22565b606091505b5091509150611e4a82826040518060600160405280602881526020016147916028913961290a565b50505050505050565b600054610100900460ff1615808015611e735750600054600160ff909116105b80611e8d5750303b158015611e8d575060005460ff166001145b611ef05760405162461bcd60e51b815260206004820152602e60248201527f496e697469616c697a61626c653a20636f6e747261637420697320616c72656160448201526d191e481a5b9a5d1a585b1a5e995960921b6064820152608401610b94565b6000805460ff191660011790558015611f13576000805461ff0019166101001790555b611f3b6040518060400160405280600781526020016610dbdd5b98da5b60ca1b815250612923565b611f4a600161c4e0600061297a565b611f526129ac565b611f5b826129d5565b611f656004612a05565b6101c7805460ff191690558015611fb2576000805461ff0019169055604051600181527f7f26b83ff96e1f2b6a682f133852f6798a09c465da95921460cefb3847402498906020016112ad565b5050565b6000848484846040516020016119b9949392919061460b565b611fd8336126df565b611ff45760405162461bcd60e51b8152600401610b94906140da565b6000611fff82610ea6565b905060018160800151600d811115612019576120196136f2565b148061203a575060048160800151600d811115612038576120386136f2565b145b61204357600080fd5b60018160800151600d81111561205b5761205b6136f2565b036120705761206b826002612a35565b612098565b60048160800151600d811115612088576120886136f2565b0361209857612098826007612a35565b7f299432bdda7d2f4b8ed54b73f54bf39049288dd18fb7c4e59b703e789809eec78233611294565b3330146120df5760405162461bcd60e51b8152600401610b9490614069565b6120f6565b806120ef60ce61233a565b036120e457505b610bbd81612a72565b6000611978838361211b60408051602081019091526000815290565b61285a565b33301461213f5760405162461bcd60e51b8152600401610b9490614069565b612156565b8061214f60ce61233a565b0361214457505b610bbd81612b13565b6000610a6782612b56565b6000610a67612177612be5565b8360405161190160f01b6020820152602281018390526042810182905260009060620160405160208183030381529060405280519060200120905092915050565b60008060006121c987878787612c60565b91509150610e6581612d24565b600085815260cc6020526040812060076121ef886110b5565b600d811115612200576122006136f2565b146122595760405162461bcd60e51b815260206004820152602360248201527f476f7665726e6f723a20766f7465206e6f742063757272656e746c792061637460448201526269766560e81b6064820152608401610b94565b604080516020810190915281546001600160401b0316908190526000906122829088908661285a565b90506122918888888488612e6e565b83516000036122e657866001600160a01b03167fb8e138887d0aa13bab447e82de9d5c1777041ecd21ca36ba824ff1e6c07ddda4898884896040516122d99493929190614656565b60405180910390a26110a8565b866001600160a01b03167fe2babfbac5889a709b63bb7f598b324e08bc5a4fb9ec647fb3cbc9ec07eb8712898884898960405161232795949392919061467e565b60405180910390a2979650505050505050565b60006123558254600f81810b600160801b909204900b131590565b1561237357604051631ed9509560e11b815260040160405180910390fd5b508054600f0b6000818152600180840160205260408220805492905583546fffffffffffffffffffffffffffffffff191692016001600160801b03169190911790915590565b606481111561243c5760405162461bcd60e51b815260206004820152604360248201527f476f7665726e6f72566f74657351756f72756d4672616374696f6e3a2071756f60448201527f72756d4e756d657261746f72206f7665722071756f72756d44656e6f6d696e616064820152623a37b960e91b608482015260a401610b94565b6000612446611bf7565b90508015801590612458575061019654155b156124bd576040805180820190915260008152610196906020810161247c84612fe9565b6001600160e01b039081169091528254600181018455600093845260209384902083519490930151909116600160201b0263ffffffff909316929092179101555b6124c961019683613056565b505060408051828152602081018490527f0553476bf02ef2726e8ce5ced78d63e26e602e4a2257b1f559418e24b463399791016112ad565b612587565b845181101561258557306001600160a01b031685828151811061252b5761252b6143ed565b60200260200101516001600160a01b03160361257557612575838281518110612556576125566143ed565b60200260200101518051906020012060ce61308c90919063ffffffff16565b61257e816145f2565b9050612506565b505b5050505050565b60006040518060600160405280602781526020016147b960279139905060005b8551811015611e4a576000808783815181106125cc576125cc6143ed565b60200260200101516001600160a01b03168784815181106125ef576125ef6143ed565b6020026020010151878581518110612609576126096143ed565b602002602001015160405161261e91906146c4565b60006040518083038185875af1925050503d806000811461265b576040519150601f19603f3d011682016040523d82523d6000602084013e612660565b606091505b509150915061267082828661290a565b5050508061267d906145f2565b90506125ae565b60006110ac858585856126a260408051602081019091526000815290565b6121d6565b600081815261013060205260408120600281015460018201546126ca91906146e0565b6126d66109c285610e6f565b11159392505050565b610162546040516370a0823160e01b81526001600160a01b03838116600483015260009283929116906370a0823190602401602060405180830381865afa15801561272e573d6000803e3d6000fd5b505050506040513d601f19601f8201168201806040525081019061275291906146f3565b1192915050565b60004382106127aa5760405162461bcd60e51b815260206004820181905260248201527f436865636b706f696e74733a20626c6f636b206e6f7420796574206d696e65646044820152606401610b94565b60006127b5836130c8565b845490915060006127c88684838561312d565b90508015612803576127ed866127df600184614115565b600091825260209091200190565b54600160201b90046001600160e01b0316612806565b60005b6001600160e01b03169695505050505050565b60fe5460408051918252602082018390527fc565b045403dc03c2eea82b81a0465edad9e2e7fc4d97e11421c209da93d7a93910160405180910390a160fe55565b61016254604051630748d63560e31b81526001600160a01b038581166004830152602482018590526000921690633a46b1a890604401602060405180830381865afa1580156128ad573d6000803e3d6000fd5b505050506040513d601f19601f8201168201806040525081019061197591906146f3565b80546000908015612901576128eb836127df600184614115565b54600160201b90046001600160e01b0316611978565b60009392505050565b60608315612919575081611978565b611978838361318b565b600054610100900460ff1661294a5760405162461bcd60e51b8152600401610b949061470c565b6129718161296c6040805180820190915260018152603160f81b602082015290565b6131b5565b610bbd816131f6565b600054610100900460ff166129a15760405162461bcd60e51b8152600401610b949061470c565b611d4c838383613229565b600054610100900460ff166129d35760405162461bcd60e51b8152600401610b949061470c565b565b600054610100900460ff166129fc5760405162461bcd60e51b8152600401610b949061470c565b610bbd8161326b565b600054610100900460ff16612a2c5760405162461bcd60e51b8152600401610b949061470c565b610bbd816132b5565b600082815260cc6020526040902060028101805483919062ff000019166201000083600d811115612a6857612a686136f2565b0217905550505050565b60008111612ad25760405162461bcd60e51b815260206004820152602760248201527f476f7665726e6f7253657474696e67733a20766f74696e6720706572696f6420604482015266746f6f206c6f7760c81b6064820152608401610b94565b60ff5460408051918252602082018390527f7e3f7f0708a84de9203036abaa450dccc85ad5ff52f78c170f3edb55cf5e8828910160405180910390a160ff55565b6101005460408051918252602082018390527fccb45da8d5717e6c4544694297c4ba5cf151d455c9bb0ed4fc7a38411bc05461910160405180910390a161010055565b60006064612b63836115d0565b61016254604051632394e7a360e21b8152600481018690526001600160a01b0390911690638e539e8c90602401602060405180830381865afa158015612bad573d6000803e3d6000fd5b505050506040513d601f19601f82011682018060405250810190612bd191906146f3565b612bdb9190614757565b610a67919061476e565b6000610a787f8b73c3c69bb8fe3d512ecc4cf759cc79239f7b179b0ffacaa9a75d522b39400f612c1460655490565b6066546040805160208101859052908101839052606081018290524660808201523060a082015260009060c0016040516020818303038152906040528051906020012090509392505050565b6000807f7fffffffffffffffffffffffffffffff5d576e7357a4501ddfe92f46681b20a0831115612c975750600090506003612d1b565b6040805160008082526020820180845289905260ff881692820192909252606081018690526080810185905260019060a0016020604051602081039080840390855afa158015612ceb573d6000803e3d6000fd5b5050604051601f1901519150506001600160a01b038116612d1457600060019250925050612d1b565b9150600090505b94509492505050565b6000816004811115612d3857612d386136f2565b03612d405750565b6001816004811115612d5457612d546136f2565b03612da15760405162461bcd60e51b815260206004820152601860248201527f45434453413a20696e76616c6964207369676e617475726500000000000000006044820152606401610b94565b6002816004811115612db557612db56136f2565b03612e025760405162461bcd60e51b815260206004820152601f60248201527f45434453413a20696e76616c6964207369676e6174757265206c656e677468006044820152606401610b94565b6003816004811115612e1657612e166136f2565b03610bbd5760405162461bcd60e51b815260206004820152602260248201527f45434453413a20696e76616c6964207369676e6174757265202773272076616c604482015261756560f01b6064820152608401610b94565b6000858152610130602090815260408083206001600160a01b0388168452600381019092529091205460ff1615612ef75760405162461bcd60e51b815260206004820152602760248201527f476f7665726e6f72566f74696e6753696d706c653a20766f746520616c726561604482015266191e4818d85cdd60ca1b6064820152608401610b94565b6001600160a01b03851660009081526003820160205260409020805460ff1916600117905560ff8416612f435782816000016000828254612f3891906146e0565b909155506125859050565b60001960ff851601612f635782816001016000828254612f3891906146e0565b60011960ff851601612f835782816002016000828254612f3891906146e0565b60405162461bcd60e51b815260206004820152603560248201527f476f7665726e6f72566f74696e6753696d706c653a20696e76616c69642076616044820152746c756520666f7220656e756d20566f74655479706560581b6064820152608401610b94565b60006001600160e01b038211156130525760405162461bcd60e51b815260206004820152602760248201527f53616665436173743a2076616c756520646f65736e27742066697420696e20326044820152663234206269747360c81b6064820152608401610b94565b5090565b60008061307484613066436130c8565b61306f86612fe9565b6132dc565b6001600160e01b0391821693501690505b9250929050565b8154600160801b90819004600f0b6000818152600180860160205260409091209390935583546001600160801b03908116939091011602179055565b600063ffffffff8211156130525760405162461bcd60e51b815260206004820152602660248201527f53616665436173743a2076616c756520646f65736e27742066697420696e203360448201526532206269747360d01b6064820152608401610b94565b60005b81831015613183576000613144848461347f565b60008781526020902090915063ffffffff86169082015463ffffffff16111561316f5780925061317d565b61317a8160016146e0565b93505b50613130565b509392505050565b81511561319b5781518083602001fd5b8060405162461bcd60e51b8152600401610b9491906136df565b600054610100900460ff166131dc5760405162461bcd60e51b8152600401610b949061470c565b815160209283012081519190920120606591909155606655565b600054610100900460ff1661321d5760405162461bcd60e51b8152600401610b949061470c565b60cb611fb282826141af565b600054610100900460ff166132505760405162461bcd60e51b8152600401610b949061470c565b61325983612819565b61326282612a72565b611d4c81612b13565b600054610100900460ff166132925760405162461bcd60e51b8152600401610b949061470c565b61016280546001600160a01b0319166001600160a01b0392909216919091179055565b600054610100900460ff16610bb45760405162461bcd60e51b8152600401610b949061470c565b8254600090819080156134225760006132fa876127df600185614115565b60408051808201909152905463ffffffff808216808452600160201b9092046001600160e01b03166020840152919250908716101561337b5760405162461bcd60e51b815260206004820152601760248201527f436865636b706f696e743a20696e76616c6964206b65790000000000000000006044820152606401610b94565b805163ffffffff8088169116036133c3578461339c886127df600186614115565b80546001600160e01b0392909216600160201b0263ffffffff909216919091179055613412565b6040805180820190915263ffffffff80881682526001600160e01b0380881660208085019182528b54600181018d5560008d81529190912094519151909216600160201b029216919091179101555b6020015192508391506134779050565b50506040805180820190915263ffffffff80851682526001600160e01b0380851660208085019182528854600181018a5560008a815291822095519251909316600160201b0291909316179201919091559050815b935093915050565b600061348e600284841861476e565b611978908484166146e0565b6000602082840312156134ac57600080fd5b81356001600160e01b03198116811461197857600080fd5b803560ff811681146134d557600080fd5b919050565b60008083601f8401126134ec57600080fd5b5081356001600160401b0381111561350357600080fd5b60208301915083602082850101111561308557600080fd5b634e487b7160e01b600052604160045260246000fd5b604051601f8201601f191681016001600160401b03811182821017156135595761355961351b565b604052919050565b600082601f83011261357257600080fd5b81356001600160401b0381111561358b5761358b61351b565b61359e601f8201601f1916602001613531565b8181528460208386010111156135b357600080fd5b816020850160208301376000918101602001919091529392505050565b60008060008060008060008060e0898b0312156135ec57600080fd5b883597506135fc60208a016134c4565b965060408901356001600160401b038082111561361857600080fd5b6136248c838d016134da565b909850965060608b013591508082111561363d57600080fd5b5061364a8b828c01613561565b94505061365960808a016134c4565b925060a0890135915060c089013590509295985092959890939650565b60006020828403121561368857600080fd5b5035919050565b60005b838110156136aa578181015183820152602001613692565b50506000910152565b600081518084526136cb81602086016020860161368f565b601f01601f19169290920160200192915050565b60208152600061197860208301846136b3565b634e487b7160e01b600052602160045260246000fd5b600e8110613718576137186136f2565b9052565b87516001600160401b03908116825287511660208201528515156040820152841515606082015260006137526080830186613708565b8360a083015260e060c083015261376c60e08301846136b3565b9998505050505050505050565b6001600160a01b0381168114610bbd57600080fd5b600080600080608085870312156137a457600080fd5b84356137af81613779565b935060208501356137bf81613779565b92506040850135915060608501356001600160401b038111156137e157600080fd5b6137ed87828801613561565b91505092959194509250565b60006001600160401b038211156138125761381261351b565b5060051b60200190565b600082601f83011261382d57600080fd5b8135602061384261383d836137f9565b613531565b82815260059290921b8401810191818101908684111561386157600080fd5b8286015b8481101561388557803561387881613779565b8352918301918301613865565b509695505050505050565b600082601f8301126138a157600080fd5b813560206138b161383d836137f9565b82815260059290921b840181019181810190868411156138d057600080fd5b8286015b8481101561388557803583529183019183016138d4565b600082601f8301126138fc57600080fd5b8135602061390c61383d836137f9565b82815260059290921b8401810191818101908684111561392b57600080fd5b8286015b848110156138855780356001600160401b0381111561394e5760008081fd5b61395c8986838b0101613561565b84525091830191830161392f565b6000806000806080858703121561398057600080fd5b84356001600160401b038082111561399757600080fd5b6139a38883890161381c565b955060208701359150808211156139b957600080fd5b6139c588838901613890565b945060408701359150808211156139db57600080fd5b506139e8878288016138eb565b949793965093946060013593505050565b6020815260006001600160401b038084515116602084015280602085015151166040840152506040830151151560608301526060830151151560808301526080830151613a4960a0840182613708565b5060a083015160c083015260c083015160e08084015261157e6101008401826136b3565b600080600080600060a08688031215613a8557600080fd5b85359450613a95602087016134c4565b9350613aa3604087016134c4565b94979396509394606081013594506080013592915050565b60208101610a678284613708565b60008060408385031215613adc57600080fd5b823591506020830135613aee81613779565b809150509250929050565b600080600080600060a08688031215613b1157600080fd5b85356001600160401b0380821115613b2857600080fd5b613b3489838a0161381c565b96506020880135915080821115613b4a57600080fd5b613b5689838a01613890565b95506040880135915080821115613b6c57600080fd5b613b7889838a016138eb565b94506060880135915080821115613b8e57600080fd5b613b9a89838a01613561565b93506080880135915080821115613bb057600080fd5b50613bbd88828901613561565b9150509295509295909350565b60008060408385031215613bdd57600080fd5b82359150613bed602084016134c4565b90509250929050565b600080600080600060808688031215613c0e57600080fd5b85359450613c1e602087016134c4565b935060408601356001600160401b0380821115613c3a57600080fd5b613c4689838a016134da565b90955093506060880135915080821115613bb057600080fd5b60008060008060008060c08789031215613c7857600080fd5b8635955060208701356001600160401b0380821115613c9657600080fd5b613ca28a838b0161381c565b96506040890135915080821115613cb857600080fd5b613cc48a838b01613890565b95506060890135915080821115613cda57600080fd5b613ce68a838b016138eb565b94506080890135915080821115613cfc57600080fd5b613d088a838b01613561565b935060a0890135915080821115613d1e57600080fd5b50613d2b89828a01613561565b9150509295509295509295565b60008060008060608587031215613d4e57600080fd5b84359350613d5e602086016134c4565b925060408501356001600160401b03811115613d7957600080fd5b613d85878288016134da565b95989497509550505050565b60008060008060808587031215613da757600080fd5b843593506020850135925060408501356001600160401b03811115613dcb57600080fd5b613dd787828801613561565b925050606085013560068110613dec57600080fd5b939692955090935050565b60068110613718576137186136f2565b60c081526000613e1a60c08301896136b3565b9050866020830152856040830152846060830152836080830152613e4160a0830184613df7565b979650505050505050565b600080600060608486031215613e6157600080fd5b8335613e6c81613779565b92506020840135915060408401356001600160401b03811115613e8e57600080fd5b613e9a86828701613561565b9150509250925092565b60008060408385031215613eb757600080fd5b82356001600160401b03811115613ecd57600080fd5b613ed98582860161381c565b95602094909401359450505050565b600080600080600060a08688031215613f0057600080fd5b8535613f0b81613779565b94506020860135613f1b81613779565b935060408601356001600160401b0380821115613f3757600080fd5b613f4389838a01613890565b94506060880135915080821115613f5957600080fd5b613b9a89838a01613890565b60008060008060608587031215613f7b57600080fd5b8435613f8681613779565b93506020850135925060408501356001600160401b03811115613d7957600080fd5b600060208284031215613fba57600080fd5b813561197881613779565b60008060408385031215613fd857600080fd5b8235613fe381613779565b946020939093013593505050565b600080600080600060a0868803121561400957600080fd5b853561401481613779565b9450602086013561402481613779565b9350604086013592506060860135915060808601356001600160401b0381111561404d57600080fd5b613bbd88828901613561565b8183823760009101908152919050565b60208082526018908201527f476f7665726e6f723a206f6e6c79476f7665726e616e63650000000000000000604082015260600190565b600181811c908216806140b457607f821691505b6020821081036140d457634e487b7160e01b600052602260045260246000fd5b50919050565b6020808252600b908201526a566f74657273206f6e6c7960a81b604082015260600190565b634e487b7160e01b600052601160045260246000fd5b81810381811115610a6757610a676140ff565b60208082526021908201527f476f7665726e6f723a20696e76616c69642070726f706f73616c206c656e67746040820152600d60fb1b606082015260800190565b601f821115611d4c57600081815260208120601f850160051c810160208610156141905750805b601f850160051c820191505b818110156125855782815560010161419c565b81516001600160401b038111156141c8576141c861351b565b6141dc816141d684546140a0565b84614169565b602080601f83116001811461421157600084156141f95750858301515b600019600386901b1c1916600185901b178555612585565b600085815260208120601f198616915b8281101561424057888601518255948401946001909101908401614221565b508582101561425e5787850151600019600388901b60f8161c191681555b5050505050600190811b01905550565b600081518084526020808501945080840160005b838110156142a75781516001600160a01b031687529582019590820190600101614282565b509495945050505050565b600081518084526020808501945080840160005b838110156142a7578151875295820195908201906001016142c6565b6000815180845260208085019450848260051b860182860160005b858110156143275783830389526143158383516136b3565b988501989250908401906001016142fd565b5090979650505050505050565b8a81526001600160a01b038a1660208201526101406040820181905260009061435f8382018c61426e565b90508281036060840152614373818b6142b2565b90508281036080840152614387818a6142e2565b905082810360a084015261439b81896142e2565b6001600160401b0388811660c0860152871660e085015283810361010085015290506143c781866136b3565b90508281036101208401526143dc81856136b3565b9d9c50505050505050505050505050565b634e487b7160e01b600052603260045260246000fd5b86815260c06020820152600061441c60c083018861426e565b828103604084015261442e81886142b2565b9050828103606084015261444281876142e2565b9050828103608084015261445681866136b3565b905082810360a084015261376c81856136b3565b60208082526025908201527f756e6b6e6f776e2070726f706f73616c206f72206e6f7420696e2d646973637560408201526439b9b4b7b760d91b606082015260800190565b85815260018060a01b038516602082015283604082015260a0606082015260006144dc60a08301856136b3565b90506116e36080830184613df7565b84815283602082015260806040820152600061450a60808301856136b3565b90506110ac6060830184613df7565b8b8152602081018b90526001600160a01b038a1660408201526101606060820181905260009061454b8382018c61426e565b9050828103608084015261455f818b6142b2565b905082810360a0840152614573818a6142e2565b905082810360c084015261458781896142e2565b90508660e0840152856101008401528281036101208401526145a981866136b3565b90508281036101408401526145be81856136b3565b9e9d5050505050505050505050505050565b6000602082840312156145e257600080fd5b8151801515811461197857600080fd5b600060018201614604576146046140ff565b5060010190565b60808152600061461e608083018761426e565b828103602084015261463081876142b2565b9050828103604084015261464481866142e2565b91505082606083015295945050505050565b84815260ff841660208201528260408201526080606082015260006116e360808301846136b3565b85815260ff8516602082015283604082015260a0606082015260006146a660a08301856136b3565b82810360808401526146b881856136b3565b98975050505050505050565b600082516146d681846020870161368f565b9190910192915050565b80820180821115610a6757610a676140ff565b60006020828403121561470557600080fd5b5051919050565b6020808252602b908201527f496e697469616c697a61626c653a20636f6e7472616374206973206e6f74206960408201526a6e697469616c697a696e6760a81b606082015260800190565b8082028115828204841417610a6757610a676140ff565b60008261478b57634e487b7160e01b600052601260045260246000fd5b50049056fe476f7665726e6f723a2072656c617920726576657274656420776974686f7574206d657373616765476f7665726e6f723a2063616c6c20726576657274656420776974686f7574206d657373616765a26469706673582212206f66eafb00b8545341421e922ace5e6e388b4474de41a370974e7cd74662a5ed64736f6c63430008110033",
  "linkReferences": {},
  "deployedLinkReferences": {}
}