{
  "_format": "hh-sol-artifact-1",
  "contractName": "Council",
  "sourceName": "contracts/Council.sol",
  "abi": [
    {
      "inputs": [],
      "stateMutability": "nonpayable",
      "type": "constructor"
    },
    {
      "inputs": [],
      "name": "Empty",
      "type": "error"
    },
    {
      "anonymous": false,
      "inputs": [
        {
          "indexed": false,
          "internalType": "uint256",
          "name": "proposalId",
          "type": "uint256"
        },
        {
          "indexed": false,
          "internalType": "address",
          "name": "commenter",
          "type": "address"
        },
        {
          "indexed": false,
          "internalType": "uint256",
          "name": "parent",
          "type": "uint256"
        },
        {
          "indexed": false,
          "internalType": "string",
          "name": "cid",
          "type": "string"
        },
        {
          "indexed": false,
          "internalType": "enum ICouncil.Sentiment",
          "name": "sentiment",
          "type": "uint8"
        }
      ],
      "name": "CommentEvent",
      "type": "event"
    },
    {
      "anonymous": false,
      "inputs": [
        {
          "indexed": false,
          "internalType": "uint8",
          "name": "version",
          "type": "uint8"
        }
      ],
      "name": "Initialized",
      "type": "event"
    },
    {
      "anonymous": false,
      "inputs": [
        {
          "indexed": false,
          "internalType": "uint256",
          "name": "proposalId",
          "type": "uint256"
        }
      ],
      "name": "ProposalCanceled",
      "type": "event"
    },
    {
      "anonymous": false,
      "inputs": [
        {
          "indexed": false,
          "internalType": "uint256",
          "name": "proposalId",
          "type": "uint256"
        },
        {
          "indexed": false,
          "internalType": "address",
          "name": "proposer",
          "type": "address"
        },
        {
          "indexed": false,
          "internalType": "address[]",
          "name": "targets",
          "type": "address[]"
        },
        {
          "indexed": false,
          "internalType": "uint256[]",
          "name": "values",
          "type": "uint256[]"
        },
        {
          "indexed": false,
          "internalType": "string[]",
          "name": "signatures",
          "type": "string[]"
        },
        {
          "indexed": false,
          "internalType": "bytes[]",
          "name": "calldatas",
          "type": "bytes[]"
        },
        {
          "indexed": false,
          "internalType": "uint256",
          "name": "startBlock",
          "type": "uint256"
        },
        {
          "indexed": false,
          "internalType": "uint256",
          "name": "endBlock",
          "type": "uint256"
        },
        {
          "indexed": false,
          "internalType": "string",
          "name": "description",
          "type": "string"
        },
        {
          "indexed": false,
          "internalType": "string",
          "name": "cid",
          "type": "string"
        }
      ],
      "name": "ProposalCreated",
      "type": "event"
    },
    {
      "anonymous": false,
      "inputs": [
        {
          "indexed": false,
          "internalType": "uint256",
          "name": "proposalId",
          "type": "uint256"
        }
      ],
      "name": "ProposalExecuted",
      "type": "event"
    },
    {
      "anonymous": false,
      "inputs": [
        {
          "indexed": false,
          "internalType": "uint256",
          "name": "proposalId",
          "type": "uint256"
        },
        {
          "indexed": false,
          "internalType": "address",
          "name": "seconder",
          "type": "address"
        }
      ],
      "name": "ProposalSeconded",
      "type": "event"
    },
    {
      "anonymous": false,
      "inputs": [
        {
          "indexed": false,
          "internalType": "uint256",
          "name": "oldProposalThreshold",
          "type": "uint256"
        },
        {
          "indexed": false,
          "internalType": "uint256",
          "name": "newProposalThreshold",
          "type": "uint256"
        }
      ],
      "name": "ProposalThresholdSet",
      "type": "event"
    },
    {
      "anonymous": false,
      "inputs": [
        {
          "indexed": false,
          "internalType": "uint256",
          "name": "oldQuorumNumerator",
          "type": "uint256"
        },
        {
          "indexed": false,
          "internalType": "uint256",
          "name": "newQuorumNumerator",
          "type": "uint256"
        }
      ],
      "name": "QuorumNumeratorUpdated",
      "type": "event"
    },
    {
      "anonymous": false,
      "inputs": [
        {
          "indexed": true,
          "internalType": "address",
          "name": "voter",
          "type": "address"
        },
        {
          "indexed": false,
          "internalType": "uint256",
          "name": "proposalId",
          "type": "uint256"
        },
        {
          "indexed": false,
          "internalType": "uint8",
          "name": "support",
          "type": "uint8"
        },
        {
          "indexed": false,
          "internalType": "uint256",
          "name": "weight",
          "type": "uint256"
        },
        {
          "indexed": false,
          "internalType": "string",
          "name": "reason",
          "type": "string"
        }
      ],
      "name": "VoteCast",
      "type": "event"
    },
    {
      "anonymous": false,
      "inputs": [
        {
          "indexed": true,
          "internalType": "address",
          "name": "voter",
          "type": "address"
        },
        {
          "indexed": false,
          "internalType": "uint256",
          "name": "proposalId",
          "type": "uint256"
        },
        {
          "indexed": false,
          "internalType": "uint8",
          "name": "support",
          "type": "uint8"
        },
        {
          "indexed": false,
          "internalType": "uint256",
          "name": "weight",
          "type": "uint256"
        },
        {
          "indexed": false,
          "internalType": "string",
          "name": "reason",
          "type": "string"
        },
        {
          "indexed": false,
          "internalType": "bytes",
          "name": "params",
          "type": "bytes"
        }
      ],
      "name": "VoteCastWithParams",
      "type": "event"
    },
    {
      "anonymous": false,
      "inputs": [
        {
          "indexed": false,
          "internalType": "uint256",
          "name": "oldVotingDelay",
          "type": "uint256"
        },
        {
          "indexed": false,
          "internalType": "uint256",
          "name": "newVotingDelay",
          "type": "uint256"
        }
      ],
      "name": "VotingDelaySet",
      "type": "event"
    },
    {
      "anonymous": false,
      "inputs": [
        {
          "indexed": false,
          "internalType": "uint256",
          "name": "oldVotingPeriod",
          "type": "uint256"
        },
        {
          "indexed": false,
          "internalType": "uint256",
          "name": "newVotingPeriod",
          "type": "uint256"
        }
      ],
      "name": "VotingPeriodSet",
      "type": "event"
    },
    {
      "inputs": [],
      "name": "BALLOT_TYPEHASH",
      "outputs": [
        {
          "internalType": "bytes32",
          "name": "",
          "type": "bytes32"
        }
      ],
      "stateMutability": "view",
      "type": "function"
    },
    {
      "inputs": [],
      "name": "COUNTING_MODE",
      "outputs": [
        {
          "internalType": "string",
          "name": "",
          "type": "string"
        }
      ],
      "stateMutability": "pure",
      "type": "function"
    },
    {
      "inputs": [],
      "name": "EXTENDED_BALLOT_TYPEHASH",
      "outputs": [
        {
          "internalType": "bytes32",
          "name": "",
          "type": "bytes32"
        }
      ],
      "stateMutability": "view",
      "type": "function"
    },
    {
      "inputs": [
        {
          "internalType": "uint256",
          "name": "proposalId",
          "type": "uint256"
        },
        {
          "internalType": "uint256",
          "name": "parent",
          "type": "uint256"
        },
        {
          "internalType": "string",
          "name": "cid",
          "type": "string"
        },
        {
          "internalType": "enum ICouncil.Sentiment",
          "name": "sentiment",
          "type": "uint8"
        }
      ],
      "name": "addComment",
      "outputs": [],
      "stateMutability": "nonpayable",
      "type": "function"
    },
    {
      "inputs": [
        {
          "internalType": "uint256",
          "name": "proposalId",
          "type": "uint256"
        },
        {
          "internalType": "uint8",
          "name": "support",
          "type": "uint8"
        }
      ],
      "name": "castVote",
      "outputs": [
        {
          "internalType": "uint256",
          "name": "",
          "type": "uint256"
        }
      ],
      "stateMutability": "nonpayable",
      "type": "function"
    },
    {
      "inputs": [
        {
          "internalType": "uint256",
          "name": "proposalId",
          "type": "uint256"
        },
        {
          "internalType": "uint8",
          "name": "support",
          "type": "uint8"
        },
        {
          "internalType": "uint8",
          "name": "v",
          "type": "uint8"
        },
        {
          "internalType": "bytes32",
          "name": "r",
          "type": "bytes32"
        },
        {
          "internalType": "bytes32",
          "name": "s",
          "type": "bytes32"
        }
      ],
      "name": "castVoteBySig",
      "outputs": [
        {
          "internalType": "uint256",
          "name": "",
          "type": "uint256"
        }
      ],
      "stateMutability": "nonpayable",
      "type": "function"
    },
    {
      "inputs": [
        {
          "internalType": "uint256",
          "name": "proposalId",
          "type": "uint256"
        },
        {
          "internalType": "uint8",
          "name": "support",
          "type": "uint8"
        },
        {
          "internalType": "string",
          "name": "reason",
          "type": "string"
        }
      ],
      "name": "castVoteWithReason",
      "outputs": [
        {
          "internalType": "uint256",
          "name": "",
          "type": "uint256"
        }
      ],
      "stateMutability": "nonpayable",
      "type": "function"
    },
    {
      "inputs": [
        {
          "internalType": "uint256",
          "name": "proposalId",
          "type": "uint256"
        },
        {
          "internalType": "uint8",
          "name": "support",
          "type": "uint8"
        },
        {
          "internalType": "string",
          "name": "reason",
          "type": "string"
        },
        {
          "internalType": "bytes",
          "name": "params",
          "type": "bytes"
        }
      ],
      "name": "castVoteWithReasonAndParams",
      "outputs": [
        {
          "internalType": "uint256",
          "name": "",
          "type": "uint256"
        }
      ],
      "stateMutability": "nonpayable",
      "type": "function"
    },
    {
      "inputs": [
        {
          "internalType": "uint256",
          "name": "proposalId",
          "type": "uint256"
        },
        {
          "internalType": "uint8",
          "name": "support",
          "type": "uint8"
        },
        {
          "internalType": "string",
          "name": "reason",
          "type": "string"
        },
        {
          "internalType": "bytes",
          "name": "params",
          "type": "bytes"
        },
        {
          "internalType": "uint8",
          "name": "v",
          "type": "uint8"
        },
        {
          "internalType": "bytes32",
          "name": "r",
          "type": "bytes32"
        },
        {
          "internalType": "bytes32",
          "name": "s",
          "type": "bytes32"
        }
      ],
      "name": "castVoteWithReasonAndParamsBySig",
      "outputs": [
        {
          "internalType": "uint256",
          "name": "",
          "type": "uint256"
        }
      ],
      "stateMutability": "nonpayable",
      "type": "function"
    },
    {
      "inputs": [
        {
          "internalType": "uint256",
          "name": "proposal",
          "type": "uint256"
        },
        {
          "internalType": "uint256",
          "name": "parent",
          "type": "uint256"
        },
        {
          "internalType": "string",
          "name": "cid",
          "type": "string"
        },
        {
          "internalType": "enum ICouncil.Sentiment",
          "name": "sentiment",
          "type": "uint8"
        }
      ],
      "name": "commentHash",
      "outputs": [
        {
          "internalType": "uint256",
          "name": "hash",
          "type": "uint256"
        }
      ],
      "stateMutability": "pure",
      "type": "function"
    },
    {
      "inputs": [
        {
          "internalType": "uint256",
          "name": "",
          "type": "uint256"
        }
      ],
      "name": "comments",
      "outputs": [
        {
          "internalType": "string",
          "name": "cid",
          "type": "string"
        },
        {
          "internalType": "uint256",
          "name": "parent",
          "type": "uint256"
        },
        {
          "internalType": "uint256",
          "name": "proposal",
          "type": "uint256"
        },
        {
          "internalType": "uint256",
          "name": "upvotes",
          "type": "uint256"
        },
        {
          "internalType": "uint256",
          "name": "downvotes",
          "type": "uint256"
        },
        {
          "internalType": "enum ICouncil.Sentiment",
          "name": "sentiment",
          "type": "uint8"
        }
      ],
      "stateMutability": "view",
      "type": "function"
    },
    {
      "inputs": [
        {
          "internalType": "address[]",
          "name": "targets",
          "type": "address[]"
        },
        {
          "internalType": "uint256[]",
          "name": "values",
          "type": "uint256[]"
        },
        {
          "internalType": "bytes[]",
          "name": "calldatas",
          "type": "bytes[]"
        },
        {
          "internalType": "bytes32",
          "name": "descriptionHash",
          "type": "bytes32"
        }
      ],
      "name": "execute",
      "outputs": [
        {
          "internalType": "uint256",
          "name": "",
          "type": "uint256"
        }
      ],
      "stateMutability": "payable",
      "type": "function"
    },
    {
      "inputs": [
        {
          "internalType": "uint256",
          "name": "proposalId",
          "type": "uint256"
        }
      ],
      "name": "getProposalById",
      "outputs": [
        {
          "components": [
            {
              "components": [
                {
                  "internalType": "uint64",
                  "name": "_deadline",
                  "type": "uint64"
                }
              ],
              "internalType": "struct TimersUpgradeable.BlockNumber",
              "name": "voteStart",
              "type": "tuple"
            },
            {
              "components": [
                {
                  "internalType": "uint64",
                  "name": "_deadline",
                  "type": "uint64"
                }
              ],
              "internalType": "struct TimersUpgradeable.BlockNumber",
              "name": "voteEnd",
              "type": "tuple"
            },
            {
              "internalType": "bool",
              "name": "executed",
              "type": "bool"
            },
            {
              "internalType": "bool",
              "name": "canceled",
              "type": "bool"
            },
            {
              "internalType": "enum IGovernorUpgradeable.ProposalState",
              "name": "state",
              "type": "uint8"
            },
            {
              "internalType": "uint256",
              "name": "parent",
              "type": "uint256"
            },
            {
              "internalType": "string",
              "name": "cid",
              "type": "string"
            }
          ],
          "internalType": "struct GovernorUpgradeable.ProposalCore",
          "name": "proposal",
          "type": "tuple"
        }
      ],
      "stateMutability": "view",
      "type": "function"
    },
    {
      "inputs": [
        {
          "internalType": "address",
          "name": "account",
          "type": "address"
        },
        {
          "internalType": "uint256",
          "name": "blockNumber",
          "type": "uint256"
        }
      ],
      "name": "getVotes",
      "outputs": [
        {
          "internalType": "uint256",
          "name": "",
          "type": "uint256"
        }
      ],
      "stateMutability": "view",
      "type": "function"
    },
    {
      "inputs": [
        {
          "internalType": "address",
          "name": "account",
          "type": "address"
        },
        {
          "internalType": "uint256",
          "name": "blockNumber",
          "type": "uint256"
        },
        {
          "internalType": "bytes",
          "name": "params",
          "type": "bytes"
        }
      ],
      "name": "getVotesWithParams",
      "outputs": [
        {
          "internalType": "uint256",
          "name": "",
          "type": "uint256"
        }
      ],
      "stateMutability": "view",
      "type": "function"
    },
    {
      "inputs": [
        {
          "internalType": "address[]",
          "name": "foundingMembers",
          "type": "address[]"
        },
        {
          "internalType": "uint256",
          "name": "grantQuantity",
          "type": "uint256"
        }
      ],
      "name": "grantToFounders",
      "outputs": [],
      "stateMutability": "nonpayable",
      "type": "function"
    },
    {
      "inputs": [
        {
          "internalType": "uint256",
          "name": "proposalId",
          "type": "uint256"
        },
        {
          "internalType": "address",
          "name": "account",
          "type": "address"
        }
      ],
      "name": "hasVoted",
      "outputs": [
        {
          "internalType": "bool",
          "name": "",
          "type": "bool"
        }
      ],
      "stateMutability": "view",
      "type": "function"
    },
    {
      "inputs": [
        {
          "internalType": "address[]",
          "name": "targets",
          "type": "address[]"
        },
        {
          "internalType": "uint256[]",
          "name": "values",
          "type": "uint256[]"
        },
        {
          "internalType": "bytes[]",
          "name": "calldatas",
          "type": "bytes[]"
        },
        {
          "internalType": "bytes32",
          "name": "descriptionHash",
          "type": "bytes32"
        }
      ],
      "name": "hashProposal",
      "outputs": [
        {
          "internalType": "uint256",
          "name": "",
          "type": "uint256"
        }
      ],
      "stateMutability": "pure",
      "type": "function"
    },
    {
      "inputs": [
        {
          "internalType": "contract IVotesUpgradeable",
          "name": "_token",
          "type": "address"
        }
      ],
      "name": "initialize",
      "outputs": [],
      "stateMutability": "nonpayable",
      "type": "function"
    },
    {
      "inputs": [],
      "name": "name",
      "outputs": [
        {
          "internalType": "string",
          "name": "",
          "type": "string"
        }
      ],
      "stateMutability": "view",
      "type": "function"
    },
    {
      "inputs": [
        {
          "internalType": "address",
          "name": "",
          "type": "address"
        },
        {
          "internalType": "address",
          "name": "",
          "type": "address"
        },
        {
          "internalType": "uint256[]",
          "name": "",
          "type": "uint256[]"
        },
        {
          "internalType": "uint256[]",
          "name": "",
          "type": "uint256[]"
        },
        {
          "internalType": "bytes",
          "name": "",
          "type": "bytes"
        }
      ],
      "name": "onERC1155BatchReceived",
      "outputs": [
        {
          "internalType": "bytes4",
          "name": "",
          "type": "bytes4"
        }
      ],
      "stateMutability": "nonpayable",
      "type": "function"
    },
    {
      "inputs": [
        {
          "internalType": "address",
          "name": "",
          "type": "address"
        },
        {
          "internalType": "address",
          "name": "",
          "type": "address"
        },
        {
          "internalType": "uint256",
          "name": "",
          "type": "uint256"
        },
        {
          "internalType": "uint256",
          "name": "",
          "type": "uint256"
        },
        {
          "internalType": "bytes",
          "name": "",
          "type": "bytes"
        }
      ],
      "name": "onERC1155Received",
      "outputs": [
        {
          "internalType": "bytes4",
          "name": "",
          "type": "bytes4"
        }
      ],
      "stateMutability": "nonpayable",
      "type": "function"
    },
    {
      "inputs": [
        {
          "internalType": "address",
          "name": "",
          "type": "address"
        },
        {
          "internalType": "address",
          "name": "",
          "type": "address"
        },
        {
          "internalType": "uint256",
          "name": "",
          "type": "uint256"
        },
        {
          "internalType": "bytes",
          "name": "",
          "type": "bytes"
        }
      ],
      "name": "onERC721Received",
      "outputs": [
        {
          "internalType": "bytes4",
          "name": "",
          "type": "bytes4"
        }
      ],
      "stateMutability": "nonpayable",
      "type": "function"
    },
    {
      "inputs": [
        {
          "internalType": "uint256",
          "name": "proposalId",
          "type": "uint256"
        }
      ],
      "name": "proposalDeadline",
      "outputs": [
        {
          "internalType": "uint256",
          "name": "",
          "type": "uint256"
        }
      ],
      "stateMutability": "view",
      "type": "function"
    },
    {
      "inputs": [
        {
          "internalType": "uint256",
          "name": "",
          "type": "uint256"
        }
      ],
      "name": "proposalIds",
      "outputs": [
        {
          "internalType": "uint256",
          "name": "",
          "type": "uint256"
        }
      ],
      "stateMutability": "view",
      "type": "function"
    },
    {
      "inputs": [
        {
          "internalType": "uint256",
          "name": "proposalId",
          "type": "uint256"
        }
      ],
      "name": "proposalSnapshot",
      "outputs": [
        {
          "internalType": "uint256",
          "name": "",
          "type": "uint256"
        }
      ],
      "stateMutability": "view",
      "type": "function"
    },
    {
      "inputs": [],
      "name": "proposalThreshold",
      "outputs": [
        {
          "internalType": "uint256",
          "name": "",
          "type": "uint256"
        }
      ],
      "stateMutability": "view",
      "type": "function"
    },
    {
      "inputs": [
        {
          "internalType": "uint256",
          "name": "proposalId",
          "type": "uint256"
        }
      ],
      "name": "proposalVotes",
      "outputs": [
        {
          "internalType": "uint256",
          "name": "againstVotes",
          "type": "uint256"
        },
        {
          "internalType": "uint256",
          "name": "forVotes",
          "type": "uint256"
        },
        {
          "internalType": "uint256",
          "name": "abstainVotes",
          "type": "uint256"
        }
      ],
      "stateMutability": "view",
      "type": "function"
    },
    {
      "inputs": [
        {
          "internalType": "address[]",
          "name": "targets",
          "type": "address[]"
        },
        {
          "internalType": "uint256[]",
          "name": "values",
          "type": "uint256[]"
        },
        {
          "internalType": "bytes[]",
          "name": "calldatas",
          "type": "bytes[]"
        },
        {
          "internalType": "string",
          "name": "description",
          "type": "string"
        },
        {
          "internalType": "string",
          "name": "cid",
          "type": "string"
        }
      ],
      "name": "propose",
      "outputs": [
        {
          "internalType": "uint256",
          "name": "",
          "type": "uint256"
        }
      ],
      "stateMutability": "nonpayable",
      "type": "function"
    },
    {
      "inputs": [
        {
          "internalType": "uint256",
          "name": "blockNumber",
          "type": "uint256"
        }
      ],
      "name": "quorum",
      "outputs": [
        {
          "internalType": "uint256",
          "name": "",
          "type": "uint256"
        }
      ],
      "stateMutability": "view",
      "type": "function"
    },
    {
      "inputs": [],
      "name": "quorumDenominator",
      "outputs": [
        {
          "internalType": "uint256",
          "name": "",
          "type": "uint256"
        }
      ],
      "stateMutability": "view",
      "type": "function"
    },
    {
      "inputs": [
        {
          "internalType": "uint256",
          "name": "blockNumber",
          "type": "uint256"
        }
      ],
      "name": "quorumNumerator",
      "outputs": [
        {
          "internalType": "uint256",
          "name": "",
          "type": "uint256"
        }
      ],
      "stateMutability": "view",
      "type": "function"
    },
    {
      "inputs": [],
      "name": "quorumNumerator",
      "outputs": [
        {
          "internalType": "uint256",
          "name": "",
          "type": "uint256"
        }
      ],
      "stateMutability": "view",
      "type": "function"
    },
    {
      "inputs": [
        {
          "internalType": "address",
          "name": "target",
          "type": "address"
        },
        {
          "internalType": "uint256",
          "name": "value",
          "type": "uint256"
        },
        {
          "internalType": "bytes",
          "name": "data",
          "type": "bytes"
        }
      ],
      "name": "relay",
      "outputs": [],
      "stateMutability": "payable",
      "type": "function"
    },
    {
      "inputs": [
        {
          "internalType": "uint256",
          "name": "proposalId",
          "type": "uint256"
        }
      ],
      "name": "secondProposal",
      "outputs": [],
      "stateMutability": "nonpayable",
      "type": "function"
    },
    {
      "inputs": [
        {
          "internalType": "uint256",
          "name": "newProposalThreshold",
          "type": "uint256"
        }
      ],
      "name": "setProposalThreshold",
      "outputs": [],
      "stateMutability": "nonpayable",
      "type": "function"
    },
    {
      "inputs": [
        {
          "internalType": "uint256",
          "name": "newVotingDelay",
          "type": "uint256"
        }
      ],
      "name": "setVotingDelay",
      "outputs": [],
      "stateMutability": "nonpayable",
      "type": "function"
    },
    {
      "inputs": [
        {
          "internalType": "uint256",
          "name": "newVotingPeriod",
          "type": "uint256"
        }
      ],
      "name": "setVotingPeriod",
      "outputs": [],
      "stateMutability": "nonpayable",
      "type": "function"
    },
    {
      "inputs": [
        {
          "internalType": "uint256",
          "name": "proposalId",
          "type": "uint256"
        }
      ],
      "name": "state",
      "outputs": [
        {
          "internalType": "enum IGovernorUpgradeable.ProposalState",
          "name": "",
          "type": "uint8"
        }
      ],
      "stateMutability": "view",
      "type": "function"
    },
    {
      "inputs": [
        {
          "internalType": "bytes4",
          "name": "interfaceId",
          "type": "bytes4"
        }
      ],
      "name": "supportsInterface",
      "outputs": [
        {
          "internalType": "bool",
          "name": "",
          "type": "bool"
        }
      ],
      "stateMutability": "view",
      "type": "function"
    },
    {
      "inputs": [],
      "name": "token",
      "outputs": [
        {
          "internalType": "contract IVotesUpgradeable",
          "name": "",
          "type": "address"
        }
      ],
      "stateMutability": "view",
      "type": "function"
    },
    {
      "inputs": [
        {
          "internalType": "uint256",
          "name": "newQuorumNumerator",
          "type": "uint256"
        }
      ],
      "name": "updateQuorumNumerator",
      "outputs": [],
      "stateMutability": "nonpayable",
      "type": "function"
    },
    {
      "inputs": [],
      "name": "version",
      "outputs": [
        {
          "internalType": "string",
          "name": "",
          "type": "string"
        }
      ],
      "stateMutability": "view",
      "type": "function"
    },
    {
      "inputs": [],
      "name": "votingDelay",
      "outputs": [
        {
          "internalType": "uint256",
          "name": "",
          "type": "uint256"
        }
      ],
      "stateMutability": "view",
      "type": "function"
    },
    {
      "inputs": [],
      "name": "votingPeriod",
      "outputs": [
        {
          "internalType": "uint256",
          "name": "",
          "type": "uint256"
        }
      ],
      "stateMutability": "view",
      "type": "function"
    },
    {
      "stateMutability": "payable",
      "type": "receive"
    }
  ],
  "bytecode": "0x60806040523480156200001157600080fd5b506200001c62000022565b620000e4565b600054610100900460ff16156200008f5760405162461bcd60e51b815260206004820152602760248201527f496e697469616c697a61626c653a20636f6e747261637420697320696e697469604482015266616c697a696e6760c81b606482015260840160405180910390fd5b60005460ff9081161015620000e2576000805460ff191660ff9081179091556040519081527f7f26b83ff96e1f2b6a682f133852f6798a09c465da95921460cefb38474024989060200160405180910390a15b565b61404c80620000f46000396000f3fe6080604052600436106102765760003560e01c80638959dcb31161014f578063c28bc2fa116100c1578063ea0217cf1161007a578063ea0217cf1461084c578063eb9019d41461086c578063ece40cc11461088c578063f23a6e61146108ac578063f8ce560a146108d8578063fc0c546a146108f857600080fd5b8063c28bc2fa1461075f578063c4d66de814610772578063c59057e414610792578063d38761b8146107b2578063dd4e2ba5146107d2578063deaaa7cc1461081857600080fd5b8063a1d53b4011610113578063a1d53b40146106a9578063a7713a70146106c9578063ae125ff9146106de578063b58131b0146106fe578063bc197c8114610713578063c01f9e371461073f57600080fd5b80638959dcb3146106035780638ebb4c151461062357806397c3d334146106555780639a802a6d146106695780639b644a231461068957600080fd5b80633bccf4fd116101e857806354fd4d50116101ac57806354fd4d501461053957806356781388146105635780635f398a141461058357806360c4247f146105a357806370b0f660146105c35780637b3c71d3146105e357600080fd5b80633bccf4fd1461042b5780633e4f49e61461044b57806343859632146104785780635051ab31146104c3578063544ffc9c146104e357600080fd5b8063150b7a021161023a578063150b7a021461033e5780632656227d146103825780632d63f693146103955780632fe3e261146103b55780633656de21146103e95780633932abb11461041657600080fd5b806301ffc9a71461028457806302a251a3146102b957806303420181146102dc57806306f3f9e6146102fc57806306fdde031461031c57600080fd5b3661027f57005b005b600080fd5b34801561029057600080fd5b506102a461029f366004612f67565b610931565b60405190151581526020015b60405180910390f35b3480156102c557600080fd5b506102ce61099e565b6040519081526020016102b0565b3480156102e857600080fd5b506102ce6102f736600461309d565b6109ae565b34801561030857600080fd5b5061027d610317366004613143565b610aa6565b34801561032857600080fd5b50610331610af1565b6040516102b091906131ac565b34801561034a57600080fd5b506103696103593660046131d4565b630a85bd0160e11b949350505050565b6040516001600160e01b031990911681526020016102b0565b6102ce6103903660046133b0565b610b83565b3480156103a157600080fd5b506102ce6103b0366004613143565b610caf565b3480156103c157600080fd5b506102ce7fb3b3f3b703cd84ce352197dcff232b1b5d3cfb2025ce47cf04742d0651f1af8881565b3480156103f557600080fd5b50610409610404366004613143565b610ce6565b6040516102b09190613469565b34801561042257600080fd5b506102ce610e72565b34801561043757600080fd5b506102ce6104463660046134dd565b610e7d565b34801561045757600080fd5b5061046b610466366004613143565b610ef5565b6040516102b0919061352b565b34801561048457600080fd5b506102a4610493366004613539565b6000828152610130602090815260408083206001600160a01b038516845260030190915290205460ff1692915050565b3480156104cf57600080fd5b506102ce6104de366004613569565b611005565b3480156104ef57600080fd5b5061051e6104fe366004613143565b600090815261013060205260409020805460018201546002909201549092565b604080519384526020840192909252908201526060016102b0565b34801561054557600080fd5b506040805180820190915260018152603160f81b6020820152610331565b34801561056f57600080fd5b506102ce61057e36600461363a565b61129a565b34801561058f57600080fd5b506102ce61059e366004613666565b6112c3565b3480156105af57600080fd5b506102ce6105be366004613143565b61130d565b3480156105cf57600080fd5b5061027d6105de366004613143565b6113a8565b3480156105ef57600080fd5b506102ce6105fe3660046136cf565b6113e7565b34801561060f57600080fd5b5061027d61061e366004613728565b611439565b34801561062f57600080fd5b5061064361063e366004613143565b6115e9565b6040516102b09695949392919061379e565b34801561066157600080fd5b5060646102ce565b34801561067557600080fd5b506102ce6106843660046137e3565b6116aa565b34801561069557600080fd5b506102ce6106a4366004613143565b6116c1565b3480156106b557600080fd5b506102ce6106c4366004613728565b6116e2565b3480156106d557600080fd5b506102ce61171c565b3480156106ea57600080fd5b5061027d6106f936600461383b565b611749565b34801561070a57600080fd5b506102ce611876565b34801561071f57600080fd5b5061036961072e36600461387f565b63bc197c8160e01b95945050505050565b34801561074b57600080fd5b506102ce61075a366004613143565b611882565b61027d61076d3660046138fc565b6118b1565b34801561077e57600080fd5b5061027d61078d36600461393f565b611978565b34801561079e57600080fd5b506102ce6107ad3660046133b0565b611ae0565b3480156107be57600080fd5b5061027d6107cd366004613143565b611af9565b3480156107de57600080fd5b506040805180820190915260208082527f737570706f72743d627261766f2671756f72756d3d666f722c6162737461696e90820152610331565b34801561082457600080fd5b506102ce7f150214d74d59b7d1e90c73fc22ef3d991dd0a76b046543d4d80ab92d2a50328f81565b34801561085857600080fd5b5061027d610867366004613143565b611b8d565b34801561087857600080fd5b506102ce61088736600461395c565b611bcc565b34801561089857600080fd5b5061027d6108a7366004613143565b611bed565b3480156108b857600080fd5b506103696108c7366004613988565b63f23a6e6160e01b95945050505050565b3480156108e457600080fd5b506102ce6108f3366004613143565b611c2c565b34801561090457600080fd5b5061016254610919906001600160a01b031681565b6040516001600160a01b0390911681526020016102b0565b60006001600160e01b0319821663248a7c9160e21b148061096257506001600160e01b0319821663153494ef60e21b145b8061097d57506001600160e01b03198216630271189760e51b145b8061099857506301ffc9a760e01b6001600160e01b03198316145b92915050565b60006109a960ff5490565b905090565b600080610a52610a4a7fb3b3f3b703cd84ce352197dcff232b1b5d3cfb2025ce47cf04742d0651f1af888c8c8c8c6040516109ea9291906139f0565b60405180910390208b80519060200120604051602001610a2f959493929190948552602085019390935260ff9190911660408401526060830152608082015260a00190565b60405160208183030381529060405280519060200120611c37565b868686611c85565b9050610a988a828b8b8b8080601f0160208091040260200160405190810160405280939291908181526020018383808284376000920191909152508d9250611ca3915050565b9a9950505050505050505050565b333014610ace5760405162461bcd60e51b8152600401610ac590613a00565b60405180910390fd5b610ae5565b80610ade60ce611e07565b03610ad357505b610aee81611e86565b50565b606060cb8054610b0090613a37565b80601f0160208091040260200160405190810160405280929190818152602001828054610b2c90613a37565b8015610b795780601f10610b4e57610100808354040283529160200191610b79565b820191906000526020600020905b815481529060010190602001808311610b5c57829003601f168201915b5050505050905090565b600080610b9286868686611ae0565b90506000610b9f82610ef5565b9050600881600b811115610bb557610bb561343f565b1480610bd25750600981600b811115610bd057610bd061343f565b145b610c285760405162461bcd60e51b815260206004820152602160248201527f476f7665726e6f723a2070726f706f73616c206e6f74207375636365737366756044820152601b60fa1b6064820152608401610ac5565b600082815260cc602052604090819020600201805460ff19166001179055517f712ae1383f79ac853f8d882153778e0260ef8f03b504e2866e0593e04d2b291f90610c769084815260200190565b60405180910390a1610c8b8288888888611fce565b610c98828888888861205b565b610ca58288888888611fce565b5095945050505050565b600081815260cc602090815260408083208151928301909152546001600160401b0316908190525b6001600160401b031692915050565b6040805161010081018252600060e08201818152825282516020808201855282825283015291810182905260608082018390526080820183905260a082019290925260c0810191909152600082815260cc60209081526040918290208251610100808201855282546001600160401b0390811660e084019081528352855180860187526001850154909116815293820193909352600282015460ff80821615159583019590955292830484161515606082015292909160808401916201000090910416600b811115610dba57610dba61343f565b600b811115610dcb57610dcb61343f565b815260200160038201548152602001600482018054610de990613a37565b80601f0160208091040260200160405190810160405280929190818152602001828054610e1590613a37565b8015610e625780601f10610e3757610100808354040283529160200191610e62565b820191906000526020600020905b815481529060010190602001808311610e4557829003601f168201915b5050505050815250509050919050565b60006109a960fe5490565b604080517f150214d74d59b7d1e90c73fc22ef3d991dd0a76b046543d4d80ab92d2a50328f602082015290810186905260ff851660608201526000908190610ecb90610a4a90608001610a2f565b9050610ee887828860405180602001604052806000815250612151565b9150505b95945050505050565b600081815260cc60205260408120600281015460ff1615610f195750600b92915050565b6002810154610100900460ff1615610f345750600692915050565b6000610f3f84610caf565b905080600003610f915760405162461bcd60e51b815260206004820152601d60248201527f476f7665726e6f723a20756e6b6e6f776e2070726f706f73616c2069640000006044820152606401610ac5565b438110610fa2575060049392505050565b6000610fad85611882565b9050438110610fc157506005949350505050565b610fca85612174565b8015610fea57506000858152610130602052604090208054600190910154115b15610ffa57506008949350505050565b506007949350505050565b6000611010336121ac565b61102c5760405162461bcd60e51b8152600401610ac590613a71565b611034611876565b61104333610887600143613aac565b10156110ab5760405162461bcd60e51b815260206004820152603160248201527f476f7665726e6f723a2070726f706f73657220766f7465732062656c6f7720706044820152701c9bdc1bdcd85b081d1a1c995cda1bdb19607a1b6064820152608401610ac5565b60006110c08787878780519060200120611ae0565b905085518751146110e35760405162461bcd60e51b8152600401610ac590613abf565b84518751146111045760405162461bcd60e51b8152600401610ac590613abf565b600081815260cc6020526040812090600282015462010000900460ff16600b8111156111325761113261343f565b146111895760405162461bcd60e51b815260206004820152602160248201527f476f7665726e6f723a2070726f706f73616c20616c72656164792065786973746044820152607360f81b6064820152608401610ac5565b60cd80546001810182556000919091527f83978b4c69c48dd978ab43fe30f077615294f938fb7f936d9eb340e51ea7db2e0182905560028101805462ff00001916620100001790557fb88787ccad609a4d41058c8a0928927dd2516296c139d218d1e9131c2c219bd382338a8a8c516001600160401b0381111561120f5761120f612fe8565b60405190808252806020026020018201604052801561124257816020015b606081526020019060019003908161122d5790505b50604080516020808201835289546001600160401b03908116928390528351918201845260018b0154169081905291516112879796959493928f92918f908f90613bc9565b60405180910390a1509695505050505050565b6000803390506112bb84828560405180602001604052806000815250612151565b949350505050565b600080339050610ee887828888888080601f0160208091040260200160405190810160405280939291908181526020018383808284376000920191909152508a9250611ca3915050565b6101965460009080820361132657505061019554919050565b6000610196611336600184613aac565b8154811061134657611346613c82565b60009182526020918290206040805180820190915291015463ffffffff8116808352600160201b9091046001600160e01b0316928201929092529150841061139c57602001516001600160e01b03169392505050565b6112bb61019685612226565b3330146113c75760405162461bcd60e51b8152600401610ac590613a00565b6113de565b806113d760ce611e07565b036113cc57505b610aee816122e6565b60008033905061142f86828787878080601f01602080910402602001604051908101604052809392919081815260200183838082843760009201919091525061215192505050565b9695505050505050565b611442336121ac565b61145e5760405162461bcd60e51b8152600401610ac590613a71565b600261146985610ce6565b60800151600b81111561147e5761147e61343f565b146114d95760405162461bcd60e51b815260206004820152602560248201527f756e6b6e6f776e2070726f706f73616c206f72206e6f7420696e2d646973637560448201526439b9b4b7b760d91b6064820152608401610ac5565b821580611500575060008381526101c86020526040902080546114fb90613a37565b151590505b61153d5760405162461bcd60e51b815260206004820152600e60248201526d1d5b9adb9bdddb881c185c995b9d60921b6044820152606401610ac5565b600061154b858585856116e2565b60008181526101c8602052604090206002810187905560018101869055909150806115768582613cde565b50828160050160006101000a81548160ff0219169083600581111561159d5761159d61343f565b02179055507fab9cbbc55d154611333c315f451d82f88c84b9254dec96cd2800ae487b17bb6e86338787876040516115d9959493929190613d9d565b60405180910390a1505050505050565b6101c86020526000908152604090208054819061160590613a37565b80601f016020809104026020016040519081016040528092919081815260200182805461163190613a37565b801561167e5780601f106116535761010080835404028352916020019161167e565b820191906000526020600020905b81548152906001019060200180831161166157829003601f168201915b505050600184015460028501546003860154600487015460059097015495969295919450925060ff1686565b60006116b7848484612327565b90505b9392505050565b60cd81815481106116d157600080fd5b600091825260209091200154905081565b6000848484846040516020016116fb9493929190613dd9565b60408051601f19818403018152919052805160209091012095945050505050565b61019654600090156117415761173361019661239e565b6001600160e01b0316905090565b506101955490565b6101c75460ff161561179d5760405162461bcd60e51b815260206004820152601f60248201527f466f756e646572206772616e7420616c726561647920636f6d706c65746564006044820152606401610ac5565b6101c7805460ff1916600117905560005b8251811015611871576101625483516001600160a01b039091169063a9059cbb908590849081106117e1576117e1613c82565b6020026020010151846040518363ffffffff1660e01b815260040161181b9291906001600160a01b03929092168252602082015260400190565b6020604051808303816000875af115801561183a573d6000803e3d6000fd5b505050506040513d601f19601f8201168201806040525081019061185e9190613e07565b508061186981613e29565b9150506117ae565b505050565b60006109a96101005490565b600081815260cc602090815260408083208151928301909152600101546001600160401b031690819052610cd7565b3330146118d05760405162461bcd60e51b8152600401610ac590613a00565b6118e7565b806118e060ce611e07565b036118d557505b600080856001600160a01b03168585856040516119059291906139f0565b60006040518083038185875af1925050503d8060008114611942576040519150601f19603f3d011682016040523d82523d6000602084013e611947565b606091505b509150915061196f8282604051806060016040528060288152602001613fc8602891396123d7565b50505050505050565b600054610100900460ff16158080156119985750600054600160ff909116105b806119b25750303b1580156119b2575060005460ff166001145b611a155760405162461bcd60e51b815260206004820152602e60248201527f496e697469616c697a61626c653a20636f6e747261637420697320616c72656160448201526d191e481a5b9a5d1a585b1a5e995960921b6064820152608401610ac5565b6000805460ff191660011790558015611a38576000805461ff0019166101001790555b611a606040518060400160405280600781526020016610dbdd5b98da5b60ca1b8152506123f0565b611a6f600161c4e06000612447565b611a77612479565b611a80826124a2565b611a8a60046124d2565b6101c7805460ff191690558015611adc576000805461ff0019169055604051600181527f7f26b83ff96e1f2b6a682f133852f6798a09c465da95921460cefb3847402498906020015b60405180910390a15b5050565b6000848484846040516020016116fb9493929190613e42565b611b02336121ac565b611b1e5760405162461bcd60e51b8152600401610ac590613a71565b6000611b2982610ce6565b905060018160800151600b811115611b4357611b4361343f565b14611b4d57600080fd5b611b58826002612502565b604080518381523360208201527f299432bdda7d2f4b8ed54b73f54bf39049288dd18fb7c4e59b703e789809eec79101611ad3565b333014611bac5760405162461bcd60e51b8152600401610ac590613a00565b611bc3565b80611bbc60ce611e07565b03611bb157505b610aee8161253f565b60006116ba8383611be860408051602081019091526000815290565b612327565b333014611c0c5760405162461bcd60e51b8152600401610ac590613a00565b611c23565b80611c1c60ce611e07565b03611c1157505b610aee816125e0565b600061099882612623565b6000610998611c446126b2565b8360405161190160f01b6020820152602281018390526042810182905260009060620160405160208183030381529060405280519060200120905092915050565b6000806000611c968787878761272d565b91509150610ca5816127f1565b600085815260cc602052604081206005611cbc88610ef5565b600b811115611ccd57611ccd61343f565b14611d265760405162461bcd60e51b815260206004820152602360248201527f476f7665726e6f723a20766f7465206e6f742063757272656e746c792061637460448201526269766560e81b6064820152608401610ac5565b604080516020810190915281546001600160401b031690819052600090611d4f90889086612327565b9050611d5e888888848861293b565b8351600003611db357866001600160a01b03167fb8e138887d0aa13bab447e82de9d5c1777041ecd21ca36ba824ff1e6c07ddda489888489604051611da69493929190613e8d565b60405180910390a2610ee8565b866001600160a01b03167fe2babfbac5889a709b63bb7f598b324e08bc5a4fb9ec647fb3cbc9ec07eb87128988848989604051611df4959493929190613eb5565b60405180910390a2979650505050505050565b6000611e228254600f81810b600160801b909204900b131590565b15611e4057604051631ed9509560e11b815260040160405180910390fd5b508054600f0b6000818152600180840160205260408220805492905583546fffffffffffffffffffffffffffffffff191692016001600160801b03169190911790915590565b6064811115611f095760405162461bcd60e51b815260206004820152604360248201527f476f7665726e6f72566f74657351756f72756d4672616374696f6e3a2071756f60448201527f72756d4e756d657261746f72206f7665722071756f72756d44656e6f6d696e616064820152623a37b960e91b608482015260a401610ac5565b6000611f1361171c565b90508015801590611f25575061019654155b15611f8a5760408051808201909152600081526101969060208101611f4984612ab6565b6001600160e01b039081169091528254600181018455600093845260209384902083519490930151909116600160201b0263ffffffff909316929092179101555b611f9661019683612b23565b505060408051828152602081018490527f0553476bf02ef2726e8ce5ced78d63e26e602e4a2257b1f559418e24b46339979101611ad3565b612054565b845181101561205257306001600160a01b0316858281518110611ff857611ff8613c82565b60200260200101516001600160a01b0316036120425761204283828151811061202357612023613c82565b60200260200101518051906020012060ce612b5990919063ffffffff16565b61204b81613e29565b9050611fd3565b505b5050505050565b6000604051806060016040528060278152602001613ff060279139905060005b855181101561196f5760008087838151811061209957612099613c82565b60200260200101516001600160a01b03168784815181106120bc576120bc613c82565b60200260200101518785815181106120d6576120d6613c82565b60200260200101516040516120eb9190613efb565b60006040518083038185875af1925050503d8060008114612128576040519150601f19603f3d011682016040523d82523d6000602084013e61212d565b606091505b509150915061213d8282866123d7565b5050508061214a90613e29565b905061207b565b6000610eec8585858561216f60408051602081019091526000815290565b611ca3565b600081815261013060205260408120600281015460018201546121979190613f17565b6121a36108f385610caf565b11159392505050565b610162546040516370a0823160e01b81526001600160a01b03838116600483015260009283929116906370a0823190602401602060405180830381865afa1580156121fb573d6000803e3d6000fd5b505050506040513d601f19601f8201168201806040525081019061221f9190613f2a565b1192915050565b60004382106122775760405162461bcd60e51b815260206004820181905260248201527f436865636b706f696e74733a20626c6f636b206e6f7420796574206d696e65646044820152606401610ac5565b600061228283612b95565b8454909150600061229586848385612bfa565b905080156122d0576122ba866122ac600184613aac565b600091825260209091200190565b54600160201b90046001600160e01b03166122d3565b60005b6001600160e01b03169695505050505050565b60fe5460408051918252602082018390527fc565b045403dc03c2eea82b81a0465edad9e2e7fc4d97e11421c209da93d7a93910160405180910390a160fe55565b61016254604051630748d63560e31b81526001600160a01b038581166004830152602482018590526000921690633a46b1a890604401602060405180830381865afa15801561237a573d6000803e3d6000fd5b505050506040513d601f19601f820116820180604052508101906116b79190613f2a565b805460009080156123ce576123b8836122ac600184613aac565b54600160201b90046001600160e01b03166116ba565b60009392505050565b606083156123e65750816116ba565b6116ba8383612c58565b600054610100900460ff166124175760405162461bcd60e51b8152600401610ac590613f43565b61243e816124396040805180820190915260018152603160f81b602082015290565b612c82565b610aee81612cc3565b600054610100900460ff1661246e5760405162461bcd60e51b8152600401610ac590613f43565b611871838383612cf6565b600054610100900460ff166124a05760405162461bcd60e51b8152600401610ac590613f43565b565b600054610100900460ff166124c95760405162461bcd60e51b8152600401610ac590613f43565b610aee81612d38565b600054610100900460ff166124f95760405162461bcd60e51b8152600401610ac590613f43565b610aee81612d82565b600082815260cc6020526040902060028101805483919062ff000019166201000083600b8111156125355761253561343f565b0217905550505050565b6000811161259f5760405162461bcd60e51b815260206004820152602760248201527f476f7665726e6f7253657474696e67733a20766f74696e6720706572696f6420604482015266746f6f206c6f7760c81b6064820152608401610ac5565b60ff5460408051918252602082018390527f7e3f7f0708a84de9203036abaa450dccc85ad5ff52f78c170f3edb55cf5e8828910160405180910390a160ff55565b6101005460408051918252602082018390527fccb45da8d5717e6c4544694297c4ba5cf151d455c9bb0ed4fc7a38411bc05461910160405180910390a161010055565b600060646126308361130d565b61016254604051632394e7a360e21b8152600481018690526001600160a01b0390911690638e539e8c90602401602060405180830381865afa15801561267a573d6000803e3d6000fd5b505050506040513d601f19601f8201168201806040525081019061269e9190613f2a565b6126a89190613f8e565b6109989190613fa5565b60006109a97f8b73c3c69bb8fe3d512ecc4cf759cc79239f7b179b0ffacaa9a75d522b39400f6126e160655490565b6066546040805160208101859052908101839052606081018290524660808201523060a082015260009060c0016040516020818303038152906040528051906020012090509392505050565b6000807f7fffffffffffffffffffffffffffffff5d576e7357a4501ddfe92f46681b20a083111561276457506000905060036127e8565b6040805160008082526020820180845289905260ff881692820192909252606081018690526080810185905260019060a0016020604051602081039080840390855afa1580156127b8573d6000803e3d6000fd5b5050604051601f1901519150506001600160a01b0381166127e1576000600192509250506127e8565b9150600090505b94509492505050565b60008160048111156128055761280561343f565b0361280d5750565b60018160048111156128215761282161343f565b0361286e5760405162461bcd60e51b815260206004820152601860248201527f45434453413a20696e76616c6964207369676e617475726500000000000000006044820152606401610ac5565b60028160048111156128825761288261343f565b036128cf5760405162461bcd60e51b815260206004820152601f60248201527f45434453413a20696e76616c6964207369676e6174757265206c656e677468006044820152606401610ac5565b60038160048111156128e3576128e361343f565b03610aee5760405162461bcd60e51b815260206004820152602260248201527f45434453413a20696e76616c6964207369676e6174757265202773272076616c604482015261756560f01b6064820152608401610ac5565b6000858152610130602090815260408083206001600160a01b0388168452600381019092529091205460ff16156129c45760405162461bcd60e51b815260206004820152602760248201527f476f7665726e6f72566f74696e6753696d706c653a20766f746520616c726561604482015266191e4818d85cdd60ca1b6064820152608401610ac5565b6001600160a01b03851660009081526003820160205260409020805460ff1916600117905560ff8416612a105782816000016000828254612a059190613f17565b909155506120529050565b60001960ff851601612a305782816001016000828254612a059190613f17565b60011960ff851601612a505782816002016000828254612a059190613f17565b60405162461bcd60e51b815260206004820152603560248201527f476f7665726e6f72566f74696e6753696d706c653a20696e76616c69642076616044820152746c756520666f7220656e756d20566f74655479706560581b6064820152608401610ac5565b60006001600160e01b03821115612b1f5760405162461bcd60e51b815260206004820152602760248201527f53616665436173743a2076616c756520646f65736e27742066697420696e20326044820152663234206269747360c81b6064820152608401610ac5565b5090565b600080612b4184612b3343612b95565b612b3c86612ab6565b612da9565b6001600160e01b0391821693501690505b9250929050565b8154600160801b90819004600f0b6000818152600180860160205260409091209390935583546001600160801b03908116939091011602179055565b600063ffffffff821115612b1f5760405162461bcd60e51b815260206004820152602660248201527f53616665436173743a2076616c756520646f65736e27742066697420696e203360448201526532206269747360d01b6064820152608401610ac5565b60005b81831015612c50576000612c118484612f4c565b60008781526020902090915063ffffffff86169082015463ffffffff161115612c3c57809250612c4a565b612c47816001613f17565b93505b50612bfd565b509392505050565b815115612c685781518083602001fd5b8060405162461bcd60e51b8152600401610ac591906131ac565b600054610100900460ff16612ca95760405162461bcd60e51b8152600401610ac590613f43565b815160209283012081519190920120606591909155606655565b600054610100900460ff16612cea5760405162461bcd60e51b8152600401610ac590613f43565b60cb611adc8282613cde565b600054610100900460ff16612d1d5760405162461bcd60e51b8152600401610ac590613f43565b612d26836122e6565b612d2f8261253f565b611871816125e0565b600054610100900460ff16612d5f5760405162461bcd60e51b8152600401610ac590613f43565b61016280546001600160a01b0319166001600160a01b0392909216919091179055565b600054610100900460ff16610ae55760405162461bcd60e51b8152600401610ac590613f43565b825460009081908015612eef576000612dc7876122ac600185613aac565b60408051808201909152905463ffffffff808216808452600160201b9092046001600160e01b031660208401529192509087161015612e485760405162461bcd60e51b815260206004820152601760248201527f436865636b706f696e743a20696e76616c6964206b65790000000000000000006044820152606401610ac5565b805163ffffffff808816911603612e905784612e69886122ac600186613aac565b80546001600160e01b0392909216600160201b0263ffffffff909216919091179055612edf565b6040805180820190915263ffffffff80881682526001600160e01b0380881660208085019182528b54600181018d5560008d81529190912094519151909216600160201b029216919091179101555b602001519250839150612f449050565b50506040805180820190915263ffffffff80851682526001600160e01b0380851660208085019182528854600181018a5560008a815291822095519251909316600160201b0291909316179201919091559050815b935093915050565b6000612f5b6002848418613fa5565b6116ba90848416613f17565b600060208284031215612f7957600080fd5b81356001600160e01b0319811681146116ba57600080fd5b803560ff81168114612fa257600080fd5b919050565b60008083601f840112612fb957600080fd5b5081356001600160401b03811115612fd057600080fd5b602083019150836020828501011115612b5257600080fd5b634e487b7160e01b600052604160045260246000fd5b604051601f8201601f191681016001600160401b038111828210171561302657613026612fe8565b604052919050565b600082601f83011261303f57600080fd5b81356001600160401b0381111561305857613058612fe8565b61306b601f8201601f1916602001612ffe565b81815284602083860101111561308057600080fd5b816020850160208301376000918101602001919091529392505050565b60008060008060008060008060e0898b0312156130b957600080fd5b883597506130c960208a01612f91565b965060408901356001600160401b03808211156130e557600080fd5b6130f18c838d01612fa7565b909850965060608b013591508082111561310a57600080fd5b506131178b828c0161302e565b94505061312660808a01612f91565b925060a0890135915060c089013590509295985092959890939650565b60006020828403121561315557600080fd5b5035919050565b60005b8381101561317757818101518382015260200161315f565b50506000910152565b6000815180845261319881602086016020860161315c565b601f01601f19169290920160200192915050565b6020815260006116ba6020830184613180565b6001600160a01b0381168114610aee57600080fd5b600080600080608085870312156131ea57600080fd5b84356131f5816131bf565b93506020850135613205816131bf565b92506040850135915060608501356001600160401b0381111561322757600080fd5b6132338782880161302e565b91505092959194509250565b60006001600160401b0382111561325857613258612fe8565b5060051b60200190565b600082601f83011261327357600080fd5b813560206132886132838361323f565b612ffe565b82815260059290921b840181019181810190868411156132a757600080fd5b8286015b848110156132cb5780356132be816131bf565b83529183019183016132ab565b509695505050505050565b600082601f8301126132e757600080fd5b813560206132f76132838361323f565b82815260059290921b8401810191818101908684111561331657600080fd5b8286015b848110156132cb578035835291830191830161331a565b600082601f83011261334257600080fd5b813560206133526132838361323f565b82815260059290921b8401810191818101908684111561337157600080fd5b8286015b848110156132cb5780356001600160401b038111156133945760008081fd5b6133a28986838b010161302e565b845250918301918301613375565b600080600080608085870312156133c657600080fd5b84356001600160401b03808211156133dd57600080fd5b6133e988838901613262565b955060208701359150808211156133ff57600080fd5b61340b888389016132d6565b9450604087013591508082111561342157600080fd5b5061342e87828801613331565b949793965093946060013593505050565b634e487b7160e01b600052602160045260246000fd5b600c81106134655761346561343f565b9052565b6020815260006001600160401b0380845151166020840152806020850151511660408401525060408301511515606083015260608301511515608083015260808301516134b960a0840182613455565b5060a083015160c083015260c083015160e0808401526112bb610100840182613180565b600080600080600060a086880312156134f557600080fd5b8535945061350560208701612f91565b935061351360408701612f91565b94979396509394606081013594506080013592915050565b602081016109988284613455565b6000806040838503121561354c57600080fd5b82359150602083013561355e816131bf565b809150509250929050565b600080600080600060a0868803121561358157600080fd5b85356001600160401b038082111561359857600080fd5b6135a489838a01613262565b965060208801359150808211156135ba57600080fd5b6135c689838a016132d6565b955060408801359150808211156135dc57600080fd5b6135e889838a01613331565b945060608801359150808211156135fe57600080fd5b61360a89838a0161302e565b9350608088013591508082111561362057600080fd5b5061362d8882890161302e565b9150509295509295909350565b6000806040838503121561364d57600080fd5b8235915061365d60208401612f91565b90509250929050565b60008060008060006080868803121561367e57600080fd5b8535945061368e60208701612f91565b935060408601356001600160401b03808211156136aa57600080fd5b6136b689838a01612fa7565b9095509350606088013591508082111561362057600080fd5b600080600080606085870312156136e557600080fd5b843593506136f560208601612f91565b925060408501356001600160401b0381111561371057600080fd5b61371c87828801612fa7565b95989497509550505050565b6000806000806080858703121561373e57600080fd5b843593506020850135925060408501356001600160401b0381111561376257600080fd5b61376e8782880161302e565b92505060608501356006811061378357600080fd5b939692955090935050565b600681106134655761346561343f565b60c0815260006137b160c0830189613180565b90508660208301528560408301528460608301528360808301526137d860a083018461378e565b979650505050505050565b6000806000606084860312156137f857600080fd5b8335613803816131bf565b92506020840135915060408401356001600160401b0381111561382557600080fd5b6138318682870161302e565b9150509250925092565b6000806040838503121561384e57600080fd5b82356001600160401b0381111561386457600080fd5b61387085828601613262565b95602094909401359450505050565b600080600080600060a0868803121561389757600080fd5b85356138a2816131bf565b945060208601356138b2816131bf565b935060408601356001600160401b03808211156138ce57600080fd5b6138da89838a016132d6565b945060608801359150808211156138f057600080fd5b61360a89838a016132d6565b6000806000806060858703121561391257600080fd5b843561391d816131bf565b93506020850135925060408501356001600160401b0381111561371057600080fd5b60006020828403121561395157600080fd5b81356116ba816131bf565b6000806040838503121561396f57600080fd5b823561397a816131bf565b946020939093013593505050565b600080600080600060a086880312156139a057600080fd5b85356139ab816131bf565b945060208601356139bb816131bf565b9350604086013592506060860135915060808601356001600160401b038111156139e457600080fd5b61362d8882890161302e565b8183823760009101908152919050565b60208082526018908201527f476f7665726e6f723a206f6e6c79476f7665726e616e63650000000000000000604082015260600190565b600181811c90821680613a4b57607f821691505b602082108103613a6b57634e487b7160e01b600052602260045260246000fd5b50919050565b6020808252600b908201526a566f74657273206f6e6c7960a81b604082015260600190565b634e487b7160e01b600052601160045260246000fd5b8181038181111561099857610998613a96565b60208082526021908201527f476f7665726e6f723a20696e76616c69642070726f706f73616c206c656e67746040820152600d60fb1b606082015260800190565b600081518084526020808501945080840160005b83811015613b395781516001600160a01b031687529582019590820190600101613b14565b509495945050505050565b600081518084526020808501945080840160005b83811015613b3957815187529582019590820190600101613b58565b600081518084526020808501808196508360051b8101915082860160005b85811015613bbc578284038952613baa848351613180565b98850198935090840190600101613b92565b5091979650505050505050565b8a81526001600160a01b038a16602082015261014060408201819052600090613bf48382018c613b00565b90508281036060840152613c08818b613b44565b90508281036080840152613c1c818a613b74565b905082810360a0840152613c308189613b74565b6001600160401b0388811660c0860152871660e08501528381036101008501529050613c5c8186613180565b9050828103610120840152613c718185613180565b9d9c50505050505050505050505050565b634e487b7160e01b600052603260045260246000fd5b601f82111561187157600081815260208120601f850160051c81016020861015613cbf5750805b601f850160051c820191505b8181101561205257828155600101613ccb565b81516001600160401b03811115613cf757613cf7612fe8565b613d0b81613d058454613a37565b84613c98565b602080601f831160018114613d405760008415613d285750858301515b600019600386901b1c1916600185901b178555612052565b600085815260208120601f198616915b82811015613d6f57888601518255948401946001909101908401613d50565b5085821015613d8d5787850151600019600388901b60f8161c191681555b5050505050600190811b01905550565b85815260018060a01b038516602082015283604082015260a060608201526000613dca60a0830185613180565b905061142f608083018461378e565b848152836020820152608060408201526000613df86080830185613180565b9050610eec606083018461378e565b600060208284031215613e1957600080fd5b815180151581146116ba57600080fd5b600060018201613e3b57613e3b613a96565b5060010190565b608081526000613e556080830187613b00565b8281036020840152613e678187613b44565b90508281036040840152613e7b8186613b74565b91505082606083015295945050505050565b84815260ff8416602082015282604082015260806060820152600061142f6080830184613180565b85815260ff8516602082015283604082015260a060608201526000613edd60a0830185613180565b8281036080840152613eef8185613180565b98975050505050505050565b60008251613f0d81846020870161315c565b9190910192915050565b8082018082111561099857610998613a96565b600060208284031215613f3c57600080fd5b5051919050565b6020808252602b908201527f496e697469616c697a61626c653a20636f6e7472616374206973206e6f74206960408201526a6e697469616c697a696e6760a81b606082015260800190565b808202811582820484141761099857610998613a96565b600082613fc257634e487b7160e01b600052601260045260246000fd5b50049056fe476f7665726e6f723a2072656c617920726576657274656420776974686f7574206d657373616765476f7665726e6f723a2063616c6c20726576657274656420776974686f7574206d657373616765a26469706673582212202141dfd89135d9fb5034e540b96e09844b556db1aaa7a5926a940a1343f6d75164736f6c63430008110033",
  "linkReferences": {},
  "deployedLinkReferences": {}
}