{
  "_format": "hh-sol-artifact-1",
  "contractName": "Council",
  "sourceName": "contracts/Council.sol",
  "abi": [
    {
      "inputs": [],
      "stateMutability": "nonpayable",
      "type": "constructor"
    },
    {
      "inputs": [],
      "name": "Empty",
      "type": "error"
    },
    {
      "anonymous": false,
      "inputs": [
        {
          "indexed": false,
          "internalType": "uint8",
          "name": "version",
          "type": "uint8"
        }
      ],
      "name": "Initialized",
      "type": "event"
    },
    {
      "anonymous": false,
      "inputs": [
        {
          "indexed": false,
          "internalType": "uint256",
          "name": "proposalId",
          "type": "uint256"
        }
      ],
      "name": "ProposalCanceled",
      "type": "event"
    },
    {
      "anonymous": false,
      "inputs": [
        {
          "indexed": false,
          "internalType": "uint256",
          "name": "proposalId",
          "type": "uint256"
        },
        {
          "indexed": false,
          "internalType": "address",
          "name": "proposer",
          "type": "address"
        },
        {
          "indexed": false,
          "internalType": "address[]",
          "name": "targets",
          "type": "address[]"
        },
        {
          "indexed": false,
          "internalType": "uint256[]",
          "name": "values",
          "type": "uint256[]"
        },
        {
          "indexed": false,
          "internalType": "string[]",
          "name": "signatures",
          "type": "string[]"
        },
        {
          "indexed": false,
          "internalType": "bytes[]",
          "name": "calldatas",
          "type": "bytes[]"
        },
        {
          "indexed": false,
          "internalType": "uint256",
          "name": "startBlock",
          "type": "uint256"
        },
        {
          "indexed": false,
          "internalType": "uint256",
          "name": "endBlock",
          "type": "uint256"
        },
        {
          "indexed": false,
          "internalType": "string",
          "name": "description",
          "type": "string"
        },
        {
          "indexed": false,
          "internalType": "string",
          "name": "cid",
          "type": "string"
        }
      ],
      "name": "ProposalCreated",
      "type": "event"
    },
    {
      "anonymous": false,
      "inputs": [
        {
          "indexed": false,
          "internalType": "uint256",
          "name": "proposalId",
          "type": "uint256"
        }
      ],
      "name": "ProposalExecuted",
      "type": "event"
    },
    {
      "anonymous": false,
      "inputs": [
        {
          "indexed": false,
          "internalType": "uint256",
          "name": "proposalId",
          "type": "uint256"
        },
        {
          "indexed": false,
          "internalType": "address",
          "name": "seconder",
          "type": "address"
        }
      ],
      "name": "ProposalSeconded",
      "type": "event"
    },
    {
      "anonymous": false,
      "inputs": [
        {
          "indexed": false,
          "internalType": "uint256",
          "name": "oldProposalThreshold",
          "type": "uint256"
        },
        {
          "indexed": false,
          "internalType": "uint256",
          "name": "newProposalThreshold",
          "type": "uint256"
        }
      ],
      "name": "ProposalThresholdSet",
      "type": "event"
    },
    {
      "anonymous": false,
      "inputs": [
        {
          "indexed": false,
          "internalType": "uint256",
          "name": "oldQuorumNumerator",
          "type": "uint256"
        },
        {
          "indexed": false,
          "internalType": "uint256",
          "name": "newQuorumNumerator",
          "type": "uint256"
        }
      ],
      "name": "QuorumNumeratorUpdated",
      "type": "event"
    },
    {
      "anonymous": false,
      "inputs": [
        {
          "indexed": true,
          "internalType": "address",
          "name": "voter",
          "type": "address"
        },
        {
          "indexed": false,
          "internalType": "uint256",
          "name": "proposalId",
          "type": "uint256"
        },
        {
          "indexed": false,
          "internalType": "uint8",
          "name": "support",
          "type": "uint8"
        },
        {
          "indexed": false,
          "internalType": "uint256",
          "name": "weight",
          "type": "uint256"
        },
        {
          "indexed": false,
          "internalType": "string",
          "name": "reason",
          "type": "string"
        }
      ],
      "name": "VoteCast",
      "type": "event"
    },
    {
      "anonymous": false,
      "inputs": [
        {
          "indexed": true,
          "internalType": "address",
          "name": "voter",
          "type": "address"
        },
        {
          "indexed": false,
          "internalType": "uint256",
          "name": "proposalId",
          "type": "uint256"
        },
        {
          "indexed": false,
          "internalType": "uint8",
          "name": "support",
          "type": "uint8"
        },
        {
          "indexed": false,
          "internalType": "uint256",
          "name": "weight",
          "type": "uint256"
        },
        {
          "indexed": false,
          "internalType": "string",
          "name": "reason",
          "type": "string"
        },
        {
          "indexed": false,
          "internalType": "bytes",
          "name": "params",
          "type": "bytes"
        }
      ],
      "name": "VoteCastWithParams",
      "type": "event"
    },
    {
      "anonymous": false,
      "inputs": [
        {
          "indexed": false,
          "internalType": "uint256",
          "name": "oldVotingDelay",
          "type": "uint256"
        },
        {
          "indexed": false,
          "internalType": "uint256",
          "name": "newVotingDelay",
          "type": "uint256"
        }
      ],
      "name": "VotingDelaySet",
      "type": "event"
    },
    {
      "anonymous": false,
      "inputs": [
        {
          "indexed": false,
          "internalType": "uint256",
          "name": "oldVotingPeriod",
          "type": "uint256"
        },
        {
          "indexed": false,
          "internalType": "uint256",
          "name": "newVotingPeriod",
          "type": "uint256"
        }
      ],
      "name": "VotingPeriodSet",
      "type": "event"
    },
    {
      "inputs": [],
      "name": "BALLOT_TYPEHASH",
      "outputs": [
        {
          "internalType": "bytes32",
          "name": "",
          "type": "bytes32"
        }
      ],
      "stateMutability": "view",
      "type": "function"
    },
    {
      "inputs": [],
      "name": "COUNTING_MODE",
      "outputs": [
        {
          "internalType": "string",
          "name": "",
          "type": "string"
        }
      ],
      "stateMutability": "pure",
      "type": "function"
    },
    {
      "inputs": [],
      "name": "EXTENDED_BALLOT_TYPEHASH",
      "outputs": [
        {
          "internalType": "bytes32",
          "name": "",
          "type": "bytes32"
        }
      ],
      "stateMutability": "view",
      "type": "function"
    },
    {
      "inputs": [
        {
          "internalType": "uint256",
          "name": "proposalId",
          "type": "uint256"
        },
        {
          "internalType": "uint8",
          "name": "support",
          "type": "uint8"
        }
      ],
      "name": "castVote",
      "outputs": [
        {
          "internalType": "uint256",
          "name": "",
          "type": "uint256"
        }
      ],
      "stateMutability": "nonpayable",
      "type": "function"
    },
    {
      "inputs": [
        {
          "internalType": "uint256",
          "name": "proposalId",
          "type": "uint256"
        },
        {
          "internalType": "uint8",
          "name": "support",
          "type": "uint8"
        },
        {
          "internalType": "uint8",
          "name": "v",
          "type": "uint8"
        },
        {
          "internalType": "bytes32",
          "name": "r",
          "type": "bytes32"
        },
        {
          "internalType": "bytes32",
          "name": "s",
          "type": "bytes32"
        }
      ],
      "name": "castVoteBySig",
      "outputs": [
        {
          "internalType": "uint256",
          "name": "",
          "type": "uint256"
        }
      ],
      "stateMutability": "nonpayable",
      "type": "function"
    },
    {
      "inputs": [
        {
          "internalType": "uint256",
          "name": "proposalId",
          "type": "uint256"
        },
        {
          "internalType": "uint8",
          "name": "support",
          "type": "uint8"
        },
        {
          "internalType": "string",
          "name": "reason",
          "type": "string"
        }
      ],
      "name": "castVoteWithReason",
      "outputs": [
        {
          "internalType": "uint256",
          "name": "",
          "type": "uint256"
        }
      ],
      "stateMutability": "nonpayable",
      "type": "function"
    },
    {
      "inputs": [
        {
          "internalType": "uint256",
          "name": "proposalId",
          "type": "uint256"
        },
        {
          "internalType": "uint8",
          "name": "support",
          "type": "uint8"
        },
        {
          "internalType": "string",
          "name": "reason",
          "type": "string"
        },
        {
          "internalType": "bytes",
          "name": "params",
          "type": "bytes"
        }
      ],
      "name": "castVoteWithReasonAndParams",
      "outputs": [
        {
          "internalType": "uint256",
          "name": "",
          "type": "uint256"
        }
      ],
      "stateMutability": "nonpayable",
      "type": "function"
    },
    {
      "inputs": [
        {
          "internalType": "uint256",
          "name": "proposalId",
          "type": "uint256"
        },
        {
          "internalType": "uint8",
          "name": "support",
          "type": "uint8"
        },
        {
          "internalType": "string",
          "name": "reason",
          "type": "string"
        },
        {
          "internalType": "bytes",
          "name": "params",
          "type": "bytes"
        },
        {
          "internalType": "uint8",
          "name": "v",
          "type": "uint8"
        },
        {
          "internalType": "bytes32",
          "name": "r",
          "type": "bytes32"
        },
        {
          "internalType": "bytes32",
          "name": "s",
          "type": "bytes32"
        }
      ],
      "name": "castVoteWithReasonAndParamsBySig",
      "outputs": [
        {
          "internalType": "uint256",
          "name": "",
          "type": "uint256"
        }
      ],
      "stateMutability": "nonpayable",
      "type": "function"
    },
    {
      "inputs": [
        {
          "internalType": "address[]",
          "name": "targets",
          "type": "address[]"
        },
        {
          "internalType": "uint256[]",
          "name": "values",
          "type": "uint256[]"
        },
        {
          "internalType": "bytes[]",
          "name": "calldatas",
          "type": "bytes[]"
        },
        {
          "internalType": "bytes32",
          "name": "descriptionHash",
          "type": "bytes32"
        }
      ],
      "name": "execute",
      "outputs": [
        {
          "internalType": "uint256",
          "name": "",
          "type": "uint256"
        }
      ],
      "stateMutability": "payable",
      "type": "function"
    },
    {
      "inputs": [
        {
          "internalType": "uint256",
          "name": "proposalId",
          "type": "uint256"
        }
      ],
      "name": "getProposalById",
      "outputs": [
        {
          "components": [
            {
              "components": [
                {
                  "internalType": "uint64",
                  "name": "_deadline",
                  "type": "uint64"
                }
              ],
              "internalType": "struct TimersUpgradeable.BlockNumber",
              "name": "voteStart",
              "type": "tuple"
            },
            {
              "components": [
                {
                  "internalType": "uint64",
                  "name": "_deadline",
                  "type": "uint64"
                }
              ],
              "internalType": "struct TimersUpgradeable.BlockNumber",
              "name": "voteEnd",
              "type": "tuple"
            },
            {
              "internalType": "bool",
              "name": "executed",
              "type": "bool"
            },
            {
              "internalType": "bool",
              "name": "canceled",
              "type": "bool"
            },
            {
              "internalType": "enum IGovernorUpgradeable.ProposalState",
              "name": "state",
              "type": "uint8"
            },
            {
              "internalType": "uint256",
              "name": "parent",
              "type": "uint256"
            },
            {
              "internalType": "string",
              "name": "cid",
              "type": "string"
            }
          ],
          "internalType": "struct GovernorUpgradeable.ProposalCore",
          "name": "proposal",
          "type": "tuple"
        }
      ],
      "stateMutability": "view",
      "type": "function"
    },
    {
      "inputs": [
        {
          "internalType": "address",
          "name": "account",
          "type": "address"
        },
        {
          "internalType": "uint256",
          "name": "blockNumber",
          "type": "uint256"
        }
      ],
      "name": "getVotes",
      "outputs": [
        {
          "internalType": "uint256",
          "name": "",
          "type": "uint256"
        }
      ],
      "stateMutability": "view",
      "type": "function"
    },
    {
      "inputs": [
        {
          "internalType": "address",
          "name": "account",
          "type": "address"
        },
        {
          "internalType": "uint256",
          "name": "blockNumber",
          "type": "uint256"
        },
        {
          "internalType": "bytes",
          "name": "params",
          "type": "bytes"
        }
      ],
      "name": "getVotesWithParams",
      "outputs": [
        {
          "internalType": "uint256",
          "name": "",
          "type": "uint256"
        }
      ],
      "stateMutability": "view",
      "type": "function"
    },
    {
      "inputs": [
        {
          "internalType": "address[]",
          "name": "foundingMembers",
          "type": "address[]"
        },
        {
          "internalType": "uint256",
          "name": "grantQuantity",
          "type": "uint256"
        }
      ],
      "name": "grantToFounders",
      "outputs": [],
      "stateMutability": "nonpayable",
      "type": "function"
    },
    {
      "inputs": [
        {
          "internalType": "uint256",
          "name": "proposalId",
          "type": "uint256"
        },
        {
          "internalType": "address",
          "name": "account",
          "type": "address"
        }
      ],
      "name": "hasVoted",
      "outputs": [
        {
          "internalType": "bool",
          "name": "",
          "type": "bool"
        }
      ],
      "stateMutability": "view",
      "type": "function"
    },
    {
      "inputs": [
        {
          "internalType": "address[]",
          "name": "targets",
          "type": "address[]"
        },
        {
          "internalType": "uint256[]",
          "name": "values",
          "type": "uint256[]"
        },
        {
          "internalType": "bytes[]",
          "name": "calldatas",
          "type": "bytes[]"
        },
        {
          "internalType": "bytes32",
          "name": "descriptionHash",
          "type": "bytes32"
        }
      ],
      "name": "hashProposal",
      "outputs": [
        {
          "internalType": "uint256",
          "name": "",
          "type": "uint256"
        }
      ],
      "stateMutability": "pure",
      "type": "function"
    },
    {
      "inputs": [
        {
          "internalType": "contract IVotesUpgradeable",
          "name": "_token",
          "type": "address"
        }
      ],
      "name": "initialize",
      "outputs": [],
      "stateMutability": "nonpayable",
      "type": "function"
    },
    {
      "inputs": [],
      "name": "name",
      "outputs": [
        {
          "internalType": "string",
          "name": "",
          "type": "string"
        }
      ],
      "stateMutability": "view",
      "type": "function"
    },
    {
      "inputs": [
        {
          "internalType": "address",
          "name": "",
          "type": "address"
        },
        {
          "internalType": "address",
          "name": "",
          "type": "address"
        },
        {
          "internalType": "uint256[]",
          "name": "",
          "type": "uint256[]"
        },
        {
          "internalType": "uint256[]",
          "name": "",
          "type": "uint256[]"
        },
        {
          "internalType": "bytes",
          "name": "",
          "type": "bytes"
        }
      ],
      "name": "onERC1155BatchReceived",
      "outputs": [
        {
          "internalType": "bytes4",
          "name": "",
          "type": "bytes4"
        }
      ],
      "stateMutability": "nonpayable",
      "type": "function"
    },
    {
      "inputs": [
        {
          "internalType": "address",
          "name": "",
          "type": "address"
        },
        {
          "internalType": "address",
          "name": "",
          "type": "address"
        },
        {
          "internalType": "uint256",
          "name": "",
          "type": "uint256"
        },
        {
          "internalType": "uint256",
          "name": "",
          "type": "uint256"
        },
        {
          "internalType": "bytes",
          "name": "",
          "type": "bytes"
        }
      ],
      "name": "onERC1155Received",
      "outputs": [
        {
          "internalType": "bytes4",
          "name": "",
          "type": "bytes4"
        }
      ],
      "stateMutability": "nonpayable",
      "type": "function"
    },
    {
      "inputs": [
        {
          "internalType": "address",
          "name": "",
          "type": "address"
        },
        {
          "internalType": "address",
          "name": "",
          "type": "address"
        },
        {
          "internalType": "uint256",
          "name": "",
          "type": "uint256"
        },
        {
          "internalType": "bytes",
          "name": "",
          "type": "bytes"
        }
      ],
      "name": "onERC721Received",
      "outputs": [
        {
          "internalType": "bytes4",
          "name": "",
          "type": "bytes4"
        }
      ],
      "stateMutability": "nonpayable",
      "type": "function"
    },
    {
      "inputs": [
        {
          "internalType": "uint256",
          "name": "proposalId",
          "type": "uint256"
        }
      ],
      "name": "proposalDeadline",
      "outputs": [
        {
          "internalType": "uint256",
          "name": "",
          "type": "uint256"
        }
      ],
      "stateMutability": "view",
      "type": "function"
    },
    {
      "inputs": [
        {
          "internalType": "uint256",
          "name": "proposalId",
          "type": "uint256"
        }
      ],
      "name": "proposalSnapshot",
      "outputs": [
        {
          "internalType": "uint256",
          "name": "",
          "type": "uint256"
        }
      ],
      "stateMutability": "view",
      "type": "function"
    },
    {
      "inputs": [],
      "name": "proposalThreshold",
      "outputs": [
        {
          "internalType": "uint256",
          "name": "",
          "type": "uint256"
        }
      ],
      "stateMutability": "view",
      "type": "function"
    },
    {
      "inputs": [
        {
          "internalType": "uint256",
          "name": "proposalId",
          "type": "uint256"
        }
      ],
      "name": "proposalVotes",
      "outputs": [
        {
          "internalType": "uint256",
          "name": "againstVotes",
          "type": "uint256"
        },
        {
          "internalType": "uint256",
          "name": "forVotes",
          "type": "uint256"
        },
        {
          "internalType": "uint256",
          "name": "abstainVotes",
          "type": "uint256"
        }
      ],
      "stateMutability": "view",
      "type": "function"
    },
    {
      "inputs": [
        {
          "internalType": "address[]",
          "name": "targets",
          "type": "address[]"
        },
        {
          "internalType": "uint256[]",
          "name": "values",
          "type": "uint256[]"
        },
        {
          "internalType": "bytes[]",
          "name": "calldatas",
          "type": "bytes[]"
        },
        {
          "internalType": "string",
          "name": "description",
          "type": "string"
        },
        {
          "internalType": "string",
          "name": "cid",
          "type": "string"
        }
      ],
      "name": "propose",
      "outputs": [
        {
          "internalType": "uint256",
          "name": "",
          "type": "uint256"
        }
      ],
      "stateMutability": "nonpayable",
      "type": "function"
    },
    {
      "inputs": [
        {
          "internalType": "uint256",
          "name": "blockNumber",
          "type": "uint256"
        }
      ],
      "name": "quorum",
      "outputs": [
        {
          "internalType": "uint256",
          "name": "",
          "type": "uint256"
        }
      ],
      "stateMutability": "view",
      "type": "function"
    },
    {
      "inputs": [],
      "name": "quorumDenominator",
      "outputs": [
        {
          "internalType": "uint256",
          "name": "",
          "type": "uint256"
        }
      ],
      "stateMutability": "view",
      "type": "function"
    },
    {
      "inputs": [
        {
          "internalType": "uint256",
          "name": "blockNumber",
          "type": "uint256"
        }
      ],
      "name": "quorumNumerator",
      "outputs": [
        {
          "internalType": "uint256",
          "name": "",
          "type": "uint256"
        }
      ],
      "stateMutability": "view",
      "type": "function"
    },
    {
      "inputs": [],
      "name": "quorumNumerator",
      "outputs": [
        {
          "internalType": "uint256",
          "name": "",
          "type": "uint256"
        }
      ],
      "stateMutability": "view",
      "type": "function"
    },
    {
      "inputs": [
        {
          "internalType": "address",
          "name": "target",
          "type": "address"
        },
        {
          "internalType": "uint256",
          "name": "value",
          "type": "uint256"
        },
        {
          "internalType": "bytes",
          "name": "data",
          "type": "bytes"
        }
      ],
      "name": "relay",
      "outputs": [],
      "stateMutability": "payable",
      "type": "function"
    },
    {
      "inputs": [
        {
          "internalType": "uint256",
          "name": "proposalId",
          "type": "uint256"
        }
      ],
      "name": "secondProposal",
      "outputs": [],
      "stateMutability": "nonpayable",
      "type": "function"
    },
    {
      "inputs": [
        {
          "internalType": "uint256",
          "name": "newProposalThreshold",
          "type": "uint256"
        }
      ],
      "name": "setProposalThreshold",
      "outputs": [],
      "stateMutability": "nonpayable",
      "type": "function"
    },
    {
      "inputs": [
        {
          "internalType": "uint256",
          "name": "newVotingDelay",
          "type": "uint256"
        }
      ],
      "name": "setVotingDelay",
      "outputs": [],
      "stateMutability": "nonpayable",
      "type": "function"
    },
    {
      "inputs": [
        {
          "internalType": "uint256",
          "name": "newVotingPeriod",
          "type": "uint256"
        }
      ],
      "name": "setVotingPeriod",
      "outputs": [],
      "stateMutability": "nonpayable",
      "type": "function"
    },
    {
      "inputs": [
        {
          "internalType": "uint256",
          "name": "proposalId",
          "type": "uint256"
        }
      ],
      "name": "state",
      "outputs": [
        {
          "internalType": "enum IGovernorUpgradeable.ProposalState",
          "name": "",
          "type": "uint8"
        }
      ],
      "stateMutability": "view",
      "type": "function"
    },
    {
      "inputs": [
        {
          "internalType": "bytes4",
          "name": "interfaceId",
          "type": "bytes4"
        }
      ],
      "name": "supportsInterface",
      "outputs": [
        {
          "internalType": "bool",
          "name": "",
          "type": "bool"
        }
      ],
      "stateMutability": "view",
      "type": "function"
    },
    {
      "inputs": [],
      "name": "token",
      "outputs": [
        {
          "internalType": "contract IVotesUpgradeable",
          "name": "",
          "type": "address"
        }
      ],
      "stateMutability": "view",
      "type": "function"
    },
    {
      "inputs": [
        {
          "internalType": "uint256",
          "name": "newQuorumNumerator",
          "type": "uint256"
        }
      ],
      "name": "updateQuorumNumerator",
      "outputs": [],
      "stateMutability": "nonpayable",
      "type": "function"
    },
    {
      "inputs": [],
      "name": "version",
      "outputs": [
        {
          "internalType": "string",
          "name": "",
          "type": "string"
        }
      ],
      "stateMutability": "view",
      "type": "function"
    },
    {
      "inputs": [],
      "name": "votingDelay",
      "outputs": [
        {
          "internalType": "uint256",
          "name": "",
          "type": "uint256"
        }
      ],
      "stateMutability": "view",
      "type": "function"
    },
    {
      "inputs": [],
      "name": "votingPeriod",
      "outputs": [
        {
          "internalType": "uint256",
          "name": "",
          "type": "uint256"
        }
      ],
      "stateMutability": "view",
      "type": "function"
    },
    {
      "stateMutability": "payable",
      "type": "receive"
    }
  ],
  "bytecode": "0x60806040523480156200001157600080fd5b506200001c62000022565b620000e4565b600054610100900460ff16156200008f5760405162461bcd60e51b815260206004820152602760248201527f496e697469616c697a61626c653a20636f6e747261637420697320696e697469604482015266616c697a696e6760c81b606482015260840160405180910390fd5b60005460ff9081161015620000e2576000805460ff191660ff9081179091556040519081527f7f26b83ff96e1f2b6a682f133852f6798a09c465da95921460cefb38474024989060200160405180910390a15b565b613bb280620000f46000396000f3fe60806040526004361061024a5760003560e01c806370b0f66011610139578063c4d66de8116100b6578063ea0217cf1161007a578063ea0217cf1461078e578063eb9019d4146107ae578063ece40cc1146107ce578063f23a6e61146107ee578063f8ce560a1461081a578063fc0c546a1461083a57600080fd5b8063c4d66de8146106b4578063c59057e4146106d4578063d38761b8146106f4578063dd4e2ba514610714578063deaaa7cc1461075a57600080fd5b8063ae125ff9116100fd578063ae125ff914610620578063b58131b014610640578063bc197c8114610655578063c01f9e3714610681578063c28bc2fa146106a157600080fd5b806370b0f660146105975780637b3c71d3146105b757806397c3d334146105d75780639a802a6d146105eb578063a7713a701461060b57600080fd5b80633932abb1116101c7578063544ffc9c1161018b578063544ffc9c146104b757806354fd4d501461050d57806356781388146105375780635f398a141461055757806360c4247f1461057757600080fd5b80633932abb1146103ea5780633bccf4fd146103ff5780633e4f49e61461041f578063438596321461044c5780635051ab311461049757600080fd5b8063150b7a021161020e578063150b7a02146103125780632656227d146103565780632d63f693146103695780632fe3e261146103895780633656de21146103bd57600080fd5b806301ffc9a71461025857806302a251a31461028d57806303420181146102b057806306f3f9e6146102d057806306fdde03146102f057600080fd5b3661025357005b005b600080fd5b34801561026457600080fd5b50610278610273366004612c09565b610873565b60405190151581526020015b60405180910390f35b34801561029957600080fd5b506102a26108e0565b604051908152602001610284565b3480156102bc57600080fd5b506102a26102cb366004612d3f565b6108f0565b3480156102dc57600080fd5b506102516102eb366004612de5565b6109e8565b3480156102fc57600080fd5b50610305610a33565b6040516102849190612e4e565b34801561031e57600080fd5b5061033d61032d366004612e76565b630a85bd0160e11b949350505050565b6040516001600160e01b03199091168152602001610284565b6102a2610364366004613052565b610ac5565b34801561037557600080fd5b506102a2610384366004612de5565b610bf1565b34801561039557600080fd5b506102a27fb3b3f3b703cd84ce352197dcff232b1b5d3cfb2025ce47cf04742d0651f1af8881565b3480156103c957600080fd5b506103dd6103d8366004612de5565b610c28565b6040516102849190613119565b3480156103f657600080fd5b506102a2610db4565b34801561040b57600080fd5b506102a261041a36600461318d565b610dbf565b34801561042b57600080fd5b5061043f61043a366004612de5565b610e35565b60405161028491906131db565b34801561045857600080fd5b506102786104673660046131e9565b600082815261012f602090815260408083206001600160a01b038516845260030190915290205460ff1692915050565b3480156104a357600080fd5b506102a26104b2366004613219565b610f45565b3480156104c357600080fd5b506104f26104d2366004612de5565b600090815261012f60205260409020805460018201546002909201549092565b60408051938452602084019290925290820152606001610284565b34801561051957600080fd5b506040805180820190915260018152603160f81b6020820152610305565b34801561054357600080fd5b506102a26105523660046132ea565b6111c3565b34801561056357600080fd5b506102a2610572366004613316565b6111ec565b34801561058357600080fd5b506102a2610592366004612de5565b611236565b3480156105a357600080fd5b506102516105b2366004612de5565b6112d1565b3480156105c357600080fd5b506102a26105d236600461337f565b611310565b3480156105e357600080fd5b5060646102a2565b3480156105f757600080fd5b506102a26106063660046133d8565b611362565b34801561061757600080fd5b506102a2611379565b34801561062c57600080fd5b5061025161063b366004613430565b6113a6565b34801561064c57600080fd5b506102a26114d3565b34801561066157600080fd5b5061033d610670366004613474565b63bc197c8160e01b95945050505050565b34801561068d57600080fd5b506102a261069c366004612de5565b6114de565b6102516106af3660046134f1565b61150d565b3480156106c057600080fd5b506102516106cf366004613534565b6115d4565b3480156106e057600080fd5b506102a26106ef366004613052565b61173c565b34801561070057600080fd5b5061025161070f366004612de5565b611776565b34801561072057600080fd5b506040805180820190915260208082527f737570706f72743d627261766f2671756f72756d3d666f722c6162737461696e90820152610305565b34801561076657600080fd5b506102a27f150214d74d59b7d1e90c73fc22ef3d991dd0a76b046543d4d80ab92d2a50328f81565b34801561079a57600080fd5b506102516107a9366004612de5565b611828565b3480156107ba57600080fd5b506102a26107c9366004613551565b611867565b3480156107da57600080fd5b506102516107e9366004612de5565b611888565b3480156107fa57600080fd5b5061033d61080936600461357d565b63f23a6e6160e01b95945050505050565b34801561082657600080fd5b506102a2610835366004612de5565b6118c7565b34801561084657600080fd5b506101615461085b906001600160a01b031681565b6040516001600160a01b039091168152602001610284565b60006001600160e01b0319821663248a7c9160e21b14806108a457506001600160e01b0319821663153494ef60e21b145b806108bf57506001600160e01b03198216630271189760e51b145b806108da57506301ffc9a760e01b6001600160e01b03198316145b92915050565b60006108eb60fe5490565b905090565b60008061099461098c7fb3b3f3b703cd84ce352197dcff232b1b5d3cfb2025ce47cf04742d0651f1af888c8c8c8c60405161092c9291906135e5565b60405180910390208b80519060200120604051602001610971959493929190948552602085019390935260ff9190911660408401526060830152608082015260a00190565b604051602081830303815290604052805190602001206118d2565b868686611920565b90506109da8a828b8b8b8080601f0160208091040260200160405190810160405280939291908181526020018383808284376000920191909152508d925061193e915050565b9a9950505050505050505050565b333014610a105760405162461bcd60e51b8152600401610a07906135f5565b60405180910390fd5b610a27565b80610a2060cd611aa2565b03610a1557505b610a3081611b21565b50565b606060cb8054610a429061362c565b80601f0160208091040260200160405190810160405280929190818152602001828054610a6e9061362c565b8015610abb5780601f10610a9057610100808354040283529160200191610abb565b820191906000526020600020905b815481529060010190602001808311610a9e57829003601f168201915b5050505050905090565b600080610ad48686868661173c565b90506000610ae182610e35565b9050600881600b811115610af757610af76130e1565b1480610b145750600981600b811115610b1257610b126130e1565b145b610b6a5760405162461bcd60e51b815260206004820152602160248201527f476f7665726e6f723a2070726f706f73616c206e6f74207375636365737366756044820152601b60fa1b6064820152608401610a07565b600082815260cc602052604090819020600201805460ff19166001179055517f712ae1383f79ac853f8d882153778e0260ef8f03b504e2866e0593e04d2b291f90610bb89084815260200190565b60405180910390a1610bcd8288888888611c69565b610bda8288888888611cf6565b610be78288888888611c69565b5095945050505050565b600081815260cc602090815260408083208151928301909152546001600160401b0316908190525b6001600160401b031692915050565b6040805161010081018252600060e08201818152825282516020808201855282825283015291810182905260608082018390526080820183905260a082019290925260c0810191909152600082815260cc60209081526040918290208251610100808201855282546001600160401b0390811660e084019081528352855180860187526001850154909116815293820193909352600282015460ff80821615159583019590955292830484161515606082015292909160808401916201000090910416600b811115610cfc57610cfc6130e1565b600b811115610d0d57610d0d6130e1565b815260200160038201548152602001600482018054610d2b9061362c565b80601f0160208091040260200160405190810160405280929190818152602001828054610d579061362c565b8015610da45780601f10610d7957610100808354040283529160200191610da4565b820191906000526020600020905b815481529060010190602001808311610d8757829003601f168201915b5050505050815250509050919050565b60006108eb60fd5490565b604080517f150214d74d59b7d1e90c73fc22ef3d991dd0a76b046543d4d80ab92d2a50328f602082015290810186905260ff851660608201526000908190610e0d9061098c90608001610971565b9050610e2a87828860405180602001604052806000815250611dec565b979650505050505050565b600081815260cc60205260408120600281015460ff1615610e595750600b92915050565b6002810154610100900460ff1615610e745750600692915050565b6000610e7f84610bf1565b905080600003610ed15760405162461bcd60e51b815260206004820152601d60248201527f476f7665726e6f723a20756e6b6e6f776e2070726f706f73616c2069640000006044820152606401610a07565b438110610ee2575060049392505050565b6000610eed856114de565b9050438110610f0157506005949350505050565b610f0a85611e18565b8015610f2a5750600085815261012f602052604090208054600190910154115b15610f3a57506008949350505050565b506007949350505050565b6000610f5033611e50565b610f8a5760405162461bcd60e51b815260206004820152600b60248201526a566f74657273206f6e6c7960a81b6044820152606401610a07565b610f926114d3565b610fa1336107c960014361367c565b10156110095760405162461bcd60e51b815260206004820152603160248201527f476f7665726e6f723a2070726f706f73657220766f7465732062656c6f7720706044820152701c9bdc1bdcd85b081d1a1c995cda1bdb19607a1b6064820152608401610a07565b600061101e878787878051906020012061173c565b905085518751146110415760405162461bcd60e51b8152600401610a079061368f565b84518751146110625760405162461bcd60e51b8152600401610a079061368f565b600081815260cc6020526040812090600282015462010000900460ff16600b811115611090576110906130e1565b146110e75760405162461bcd60e51b815260206004820152602160248201527f476f7665726e6f723a2070726f706f73616c20616c72656164792065786973746044820152607360f81b6064820152608401610a07565b60028101805462ff00001916620100001790557fb88787ccad609a4d41058c8a0928927dd2516296c139d218d1e9131c2c219bd382338a8a8c516001600160401b0381111561113857611138612c8a565b60405190808252806020026020018201604052801561116b57816020015b60608152602001906001900390816111565790505b50604080516020808201835289546001600160401b03908116928390528351918201845260018b0154169081905291516111b09796959493928f92918f908f90613799565b60405180910390a1509695505050505050565b6000803390506111e484828560405180602001604052806000815250611dec565b949350505050565b600080339050610e2a87828888888080601f0160208091040260200160405190810160405280939291908181526020018383808284376000920191909152508a925061193e915050565b6101955460009080820361124f57505061019454919050565b600061019561125f60018461367c565b8154811061126f5761126f613852565b60009182526020918290206040805180820190915291015463ffffffff8116808352600160201b9091046001600160e01b031692820192909252915084106112c557602001516001600160e01b03169392505050565b6111e461019585611eca565b3330146112f05760405162461bcd60e51b8152600401610a07906135f5565b611307565b8061130060cd611aa2565b036112f557505b610a3081611f8a565b60008033905061135886828787878080601f016020809104026020016040519081016040528093929190818152602001838380828437600092019190915250611dec92505050565b9695505050505050565b600061136f848484611fcb565b90505b9392505050565b610195546000901561139e57611390610195612042565b6001600160e01b0316905090565b506101945490565b6101c65460ff16156113fa5760405162461bcd60e51b815260206004820152601f60248201527f466f756e646572206772616e7420616c726561647920636f6d706c65746564006044820152606401610a07565b6101c6805460ff1916600117905560005b82518110156114ce576101615483516001600160a01b039091169063a9059cbb9085908490811061143e5761143e613852565b6020026020010151846040518363ffffffff1660e01b81526004016114789291906001600160a01b03929092168252602082015260400190565b6020604051808303816000875af1158015611497573d6000803e3d6000fd5b505050506040513d601f19601f820116820180604052508101906114bb9190613868565b50806114c68161388a565b91505061140b565b505050565b60006108eb60ff5490565b600081815260cc602090815260408083208151928301909152600101546001600160401b031690819052610c19565b33301461152c5760405162461bcd60e51b8152600401610a07906135f5565b611543565b8061153c60cd611aa2565b0361153157505b600080856001600160a01b03168585856040516115619291906135e5565b60006040518083038185875af1925050503d806000811461159e576040519150601f19603f3d011682016040523d82523d6000602084013e6115a3565b606091505b50915091506115cb8282604051806060016040528060288152602001613b2e6028913961207b565b50505050505050565b600054610100900460ff16158080156115f45750600054600160ff909116105b8061160e5750303b15801561160e575060005460ff166001145b6116715760405162461bcd60e51b815260206004820152602e60248201527f496e697469616c697a61626c653a20636f6e747261637420697320616c72656160448201526d191e481a5b9a5d1a585b1a5e995960921b6064820152608401610a07565b6000805460ff191660011790558015611694576000805461ff0019166101001790555b6116bc6040518060400160405280600781526020016610dbdd5b98da5b60ca1b815250612094565b6116cb600161c4e060006120eb565b6116d361211d565b6116dc82612146565b6116e66004612176565b6101c6805460ff191690558015611738576000805461ff0019169055604051600181527f7f26b83ff96e1f2b6a682f133852f6798a09c465da95921460cefb3847402498906020015b60405180910390a15b5050565b60008484848460405160200161175594939291906138a3565b60408051601f19818403018152919052805160209091012095945050505050565b61177f33611e50565b6117b95760405162461bcd60e51b815260206004820152600b60248201526a566f74657273206f6e6c7960a81b6044820152606401610a07565b60006117c482610c28565b905060018160800151600b8111156117de576117de6130e1565b146117e857600080fd5b6117f38260026121a6565b604080518381523360208201527f299432bdda7d2f4b8ed54b73f54bf39049288dd18fb7c4e59b703e789809eec7910161172f565b3330146118475760405162461bcd60e51b8152600401610a07906135f5565b61185e565b8061185760cd611aa2565b0361184c57505b610a30816121e3565b6000611372838361188360408051602081019091526000815290565b611fcb565b3330146118a75760405162461bcd60e51b8152600401610a07906135f5565b6118be565b806118b760cd611aa2565b036118ac57505b610a3081612284565b60006108da826122c5565b60006108da6118df612354565b8360405161190160f01b6020820152602281018390526042810182905260009060620160405160208183030381529060405280519060200120905092915050565b6000806000611931878787876123cf565b91509150610be781612493565b600085815260cc60205260408120600561195788610e35565b600b811115611968576119686130e1565b146119c15760405162461bcd60e51b815260206004820152602360248201527f476f7665726e6f723a20766f7465206e6f742063757272656e746c792061637460448201526269766560e81b6064820152608401610a07565b604080516020810190915281546001600160401b0316908190526000906119ea90889086611fcb565b90506119f988888884886125dd565b8351600003611a4e57866001600160a01b03167fb8e138887d0aa13bab447e82de9d5c1777041ecd21ca36ba824ff1e6c07ddda489888489604051611a4194939291906138ee565b60405180910390a2610e2a565b866001600160a01b03167fe2babfbac5889a709b63bb7f598b324e08bc5a4fb9ec647fb3cbc9ec07eb87128988848989604051611a8f959493929190613916565b60405180910390a2979650505050505050565b6000611abd8254600f81810b600160801b909204900b131590565b15611adb57604051631ed9509560e11b815260040160405180910390fd5b508054600f0b6000818152600180840160205260408220805492905583546fffffffffffffffffffffffffffffffff191692016001600160801b03169190911790915590565b6064811115611ba45760405162461bcd60e51b815260206004820152604360248201527f476f7665726e6f72566f74657351756f72756d4672616374696f6e3a2071756f60448201527f72756d4e756d657261746f72206f7665722071756f72756d44656e6f6d696e616064820152623a37b960e91b608482015260a401610a07565b6000611bae611379565b90508015801590611bc0575061019554155b15611c255760408051808201909152600081526101959060208101611be484612758565b6001600160e01b039081169091528254600181018455600093845260209384902083519490930151909116600160201b0263ffffffff909316929092179101555b611c31610195836127c5565b505060408051828152602081018490527f0553476bf02ef2726e8ce5ced78d63e26e602e4a2257b1f559418e24b4633997910161172f565b611cef565b8451811015611ced57306001600160a01b0316858281518110611c9357611c93613852565b60200260200101516001600160a01b031603611cdd57611cdd838281518110611cbe57611cbe613852565b60200260200101518051906020012060cd6127fb90919063ffffffff16565b611ce68161388a565b9050611c6e565b505b5050505050565b6000604051806060016040528060278152602001613b5660279139905060005b85518110156115cb57600080878381518110611d3457611d34613852565b60200260200101516001600160a01b0316878481518110611d5757611d57613852565b6020026020010151878581518110611d7157611d71613852565b6020026020010151604051611d86919061395c565b60006040518083038185875af1925050503d8060008114611dc3576040519150601f19603f3d011682016040523d82523d6000602084013e611dc8565b606091505b5091509150611dd882828661207b565b50505080611de59061388a565b9050611d16565b6000611e0f85858585611e0a60408051602081019091526000815290565b61193e565b95945050505050565b600081815261012f6020526040812060028101546001820154611e3b9190613978565b611e4761083585610bf1565b11159392505050565b610161546040516370a0823160e01b81526001600160a01b03838116600483015260009283929116906370a0823190602401602060405180830381865afa158015611e9f573d6000803e3d6000fd5b505050506040513d601f19601f82011682018060405250810190611ec3919061398b565b1192915050565b6000438210611f1b5760405162461bcd60e51b815260206004820181905260248201527f436865636b706f696e74733a20626c6f636b206e6f7420796574206d696e65646044820152606401610a07565b6000611f2683612837565b84549091506000611f398684838561289c565b90508015611f7457611f5e86611f5060018461367c565b600091825260209091200190565b54600160201b90046001600160e01b0316611f77565b60005b6001600160e01b03169695505050505050565b60fd5460408051918252602082018390527fc565b045403dc03c2eea82b81a0465edad9e2e7fc4d97e11421c209da93d7a93910160405180910390a160fd55565b61016154604051630748d63560e31b81526001600160a01b038581166004830152602482018590526000921690633a46b1a890604401602060405180830381865afa15801561201e573d6000803e3d6000fd5b505050506040513d601f19601f8201168201806040525081019061136f919061398b565b805460009080156120725761205c83611f5060018461367c565b54600160201b90046001600160e01b0316611372565b60009392505050565b6060831561208a575081611372565b61137283836128fa565b600054610100900460ff166120bb5760405162461bcd60e51b8152600401610a07906139a4565b6120e2816120dd6040805180820190915260018152603160f81b602082015290565b612924565b610a3081612965565b600054610100900460ff166121125760405162461bcd60e51b8152600401610a07906139a4565b6114ce838383612998565b600054610100900460ff166121445760405162461bcd60e51b8152600401610a07906139a4565b565b600054610100900460ff1661216d5760405162461bcd60e51b8152600401610a07906139a4565b610a30816129da565b600054610100900460ff1661219d5760405162461bcd60e51b8152600401610a07906139a4565b610a3081612a24565b600082815260cc6020526040902060028101805483919062ff000019166201000083600b8111156121d9576121d96130e1565b0217905550505050565b600081116122435760405162461bcd60e51b815260206004820152602760248201527f476f7665726e6f7253657474696e67733a20766f74696e6720706572696f6420604482015266746f6f206c6f7760c81b6064820152608401610a07565b60fe5460408051918252602082018390527f7e3f7f0708a84de9203036abaa450dccc85ad5ff52f78c170f3edb55cf5e8828910160405180910390a160fe55565b60ff5460408051918252602082018390527fccb45da8d5717e6c4544694297c4ba5cf151d455c9bb0ed4fc7a38411bc05461910160405180910390a160ff55565b600060646122d283611236565b61016154604051632394e7a360e21b8152600481018690526001600160a01b0390911690638e539e8c90602401602060405180830381865afa15801561231c573d6000803e3d6000fd5b505050506040513d601f19601f82011682018060405250810190612340919061398b565b61234a91906139ef565b6108da9190613a06565b60006108eb7f8b73c3c69bb8fe3d512ecc4cf759cc79239f7b179b0ffacaa9a75d522b39400f61238360655490565b6066546040805160208101859052908101839052606081018290524660808201523060a082015260009060c0016040516020818303038152906040528051906020012090509392505050565b6000807f7fffffffffffffffffffffffffffffff5d576e7357a4501ddfe92f46681b20a0831115612406575060009050600361248a565b6040805160008082526020820180845289905260ff881692820192909252606081018690526080810185905260019060a0016020604051602081039080840390855afa15801561245a573d6000803e3d6000fd5b5050604051601f1901519150506001600160a01b0381166124835760006001925092505061248a565b9150600090505b94509492505050565b60008160048111156124a7576124a76130e1565b036124af5750565b60018160048111156124c3576124c36130e1565b036125105760405162461bcd60e51b815260206004820152601860248201527f45434453413a20696e76616c6964207369676e617475726500000000000000006044820152606401610a07565b6002816004811115612524576125246130e1565b036125715760405162461bcd60e51b815260206004820152601f60248201527f45434453413a20696e76616c6964207369676e6174757265206c656e677468006044820152606401610a07565b6003816004811115612585576125856130e1565b03610a305760405162461bcd60e51b815260206004820152602260248201527f45434453413a20696e76616c6964207369676e6174757265202773272076616c604482015261756560f01b6064820152608401610a07565b600085815261012f602090815260408083206001600160a01b0388168452600381019092529091205460ff16156126665760405162461bcd60e51b815260206004820152602760248201527f476f7665726e6f72566f74696e6753696d706c653a20766f746520616c726561604482015266191e4818d85cdd60ca1b6064820152608401610a07565b6001600160a01b03851660009081526003820160205260409020805460ff1916600117905560ff84166126b257828160000160008282546126a79190613978565b90915550611ced9050565b60001960ff8516016126d257828160010160008282546126a79190613978565b60011960ff8516016126f257828160020160008282546126a79190613978565b60405162461bcd60e51b815260206004820152603560248201527f476f7665726e6f72566f74696e6753696d706c653a20696e76616c69642076616044820152746c756520666f7220656e756d20566f74655479706560581b6064820152608401610a07565b60006001600160e01b038211156127c15760405162461bcd60e51b815260206004820152602760248201527f53616665436173743a2076616c756520646f65736e27742066697420696e20326044820152663234206269747360c81b6064820152608401610a07565b5090565b6000806127e3846127d543612837565b6127de86612758565b612a4b565b6001600160e01b0391821693501690505b9250929050565b8154600160801b90819004600f0b6000818152600180860160205260409091209390935583546001600160801b03908116939091011602179055565b600063ffffffff8211156127c15760405162461bcd60e51b815260206004820152602660248201527f53616665436173743a2076616c756520646f65736e27742066697420696e203360448201526532206269747360d01b6064820152608401610a07565b60005b818310156128f25760006128b38484612bee565b60008781526020902090915063ffffffff86169082015463ffffffff1611156128de578092506128ec565b6128e9816001613978565b93505b5061289f565b509392505050565b81511561290a5781518083602001fd5b8060405162461bcd60e51b8152600401610a079190612e4e565b600054610100900460ff1661294b5760405162461bcd60e51b8152600401610a07906139a4565b815160209283012081519190920120606591909155606655565b600054610100900460ff1661298c5760405162461bcd60e51b8152600401610a07906139a4565b60cb6117388282613a6e565b600054610100900460ff166129bf5760405162461bcd60e51b8152600401610a07906139a4565b6129c883611f8a565b6129d1826121e3565b6114ce81612284565b600054610100900460ff16612a015760405162461bcd60e51b8152600401610a07906139a4565b61016180546001600160a01b0319166001600160a01b0392909216919091179055565b600054610100900460ff16610a275760405162461bcd60e51b8152600401610a07906139a4565b825460009081908015612b91576000612a6987611f5060018561367c565b60408051808201909152905463ffffffff808216808452600160201b9092046001600160e01b031660208401529192509087161015612aea5760405162461bcd60e51b815260206004820152601760248201527f436865636b706f696e743a20696e76616c6964206b65790000000000000000006044820152606401610a07565b805163ffffffff808816911603612b325784612b0b88611f5060018661367c565b80546001600160e01b0392909216600160201b0263ffffffff909216919091179055612b81565b6040805180820190915263ffffffff80881682526001600160e01b0380881660208085019182528b54600181018d5560008d81529190912094519151909216600160201b029216919091179101555b602001519250839150612be69050565b50506040805180820190915263ffffffff80851682526001600160e01b0380851660208085019182528854600181018a5560008a815291822095519251909316600160201b0291909316179201919091559050815b935093915050565b6000612bfd6002848418613a06565b61137290848416613978565b600060208284031215612c1b57600080fd5b81356001600160e01b03198116811461137257600080fd5b803560ff81168114612c4457600080fd5b919050565b60008083601f840112612c5b57600080fd5b5081356001600160401b03811115612c7257600080fd5b6020830191508360208285010111156127f457600080fd5b634e487b7160e01b600052604160045260246000fd5b604051601f8201601f191681016001600160401b0381118282101715612cc857612cc8612c8a565b604052919050565b600082601f830112612ce157600080fd5b81356001600160401b03811115612cfa57612cfa612c8a565b612d0d601f8201601f1916602001612ca0565b818152846020838601011115612d2257600080fd5b816020850160208301376000918101602001919091529392505050565b60008060008060008060008060e0898b031215612d5b57600080fd5b88359750612d6b60208a01612c33565b965060408901356001600160401b0380821115612d8757600080fd5b612d938c838d01612c49565b909850965060608b0135915080821115612dac57600080fd5b50612db98b828c01612cd0565b945050612dc860808a01612c33565b925060a0890135915060c089013590509295985092959890939650565b600060208284031215612df757600080fd5b5035919050565b60005b83811015612e19578181015183820152602001612e01565b50506000910152565b60008151808452612e3a816020860160208601612dfe565b601f01601f19169290920160200192915050565b6020815260006113726020830184612e22565b6001600160a01b0381168114610a3057600080fd5b60008060008060808587031215612e8c57600080fd5b8435612e9781612e61565b93506020850135612ea781612e61565b92506040850135915060608501356001600160401b03811115612ec957600080fd5b612ed587828801612cd0565b91505092959194509250565b60006001600160401b03821115612efa57612efa612c8a565b5060051b60200190565b600082601f830112612f1557600080fd5b81356020612f2a612f2583612ee1565b612ca0565b82815260059290921b84018101918181019086841115612f4957600080fd5b8286015b84811015612f6d578035612f6081612e61565b8352918301918301612f4d565b509695505050505050565b600082601f830112612f8957600080fd5b81356020612f99612f2583612ee1565b82815260059290921b84018101918181019086841115612fb857600080fd5b8286015b84811015612f6d5780358352918301918301612fbc565b600082601f830112612fe457600080fd5b81356020612ff4612f2583612ee1565b82815260059290921b8401810191818101908684111561301357600080fd5b8286015b84811015612f6d5780356001600160401b038111156130365760008081fd5b6130448986838b0101612cd0565b845250918301918301613017565b6000806000806080858703121561306857600080fd5b84356001600160401b038082111561307f57600080fd5b61308b88838901612f04565b955060208701359150808211156130a157600080fd5b6130ad88838901612f78565b945060408701359150808211156130c357600080fd5b506130d087828801612fd3565b949793965093946060013593505050565b634e487b7160e01b600052602160045260246000fd5b600c811061311557634e487b7160e01b600052602160045260246000fd5b9052565b6020815260006001600160401b03808451511660208401528060208501515116604084015250604083015115156060830152606083015115156080830152608083015161316960a08401826130f7565b5060a083015160c083015260c083015160e0808401526111e4610100840182612e22565b600080600080600060a086880312156131a557600080fd5b853594506131b560208701612c33565b93506131c360408701612c33565b94979396509394606081013594506080013592915050565b602081016108da82846130f7565b600080604083850312156131fc57600080fd5b82359150602083013561320e81612e61565b809150509250929050565b600080600080600060a0868803121561323157600080fd5b85356001600160401b038082111561324857600080fd5b61325489838a01612f04565b9650602088013591508082111561326a57600080fd5b61327689838a01612f78565b9550604088013591508082111561328c57600080fd5b61329889838a01612fd3565b945060608801359150808211156132ae57600080fd5b6132ba89838a01612cd0565b935060808801359150808211156132d057600080fd5b506132dd88828901612cd0565b9150509295509295909350565b600080604083850312156132fd57600080fd5b8235915061330d60208401612c33565b90509250929050565b60008060008060006080868803121561332e57600080fd5b8535945061333e60208701612c33565b935060408601356001600160401b038082111561335a57600080fd5b61336689838a01612c49565b909550935060608801359150808211156132d057600080fd5b6000806000806060858703121561339557600080fd5b843593506133a560208601612c33565b925060408501356001600160401b038111156133c057600080fd5b6133cc87828801612c49565b95989497509550505050565b6000806000606084860312156133ed57600080fd5b83356133f881612e61565b92506020840135915060408401356001600160401b0381111561341a57600080fd5b61342686828701612cd0565b9150509250925092565b6000806040838503121561344357600080fd5b82356001600160401b0381111561345957600080fd5b61346585828601612f04565b95602094909401359450505050565b600080600080600060a0868803121561348c57600080fd5b853561349781612e61565b945060208601356134a781612e61565b935060408601356001600160401b03808211156134c357600080fd5b6134cf89838a01612f78565b945060608801359150808211156134e557600080fd5b6132ba89838a01612f78565b6000806000806060858703121561350757600080fd5b843561351281612e61565b93506020850135925060408501356001600160401b038111156133c057600080fd5b60006020828403121561354657600080fd5b813561137281612e61565b6000806040838503121561356457600080fd5b823561356f81612e61565b946020939093013593505050565b600080600080600060a0868803121561359557600080fd5b85356135a081612e61565b945060208601356135b081612e61565b9350604086013592506060860135915060808601356001600160401b038111156135d957600080fd5b6132dd88828901612cd0565b8183823760009101908152919050565b60208082526018908201527f476f7665726e6f723a206f6e6c79476f7665726e616e63650000000000000000604082015260600190565b600181811c9082168061364057607f821691505b60208210810361366057634e487b7160e01b600052602260045260246000fd5b50919050565b634e487b7160e01b600052601160045260246000fd5b818103818111156108da576108da613666565b60208082526021908201527f476f7665726e6f723a20696e76616c69642070726f706f73616c206c656e67746040820152600d60fb1b606082015260800190565b600081518084526020808501945080840160005b838110156137095781516001600160a01b0316875295820195908201906001016136e4565b509495945050505050565b600081518084526020808501945080840160005b8381101561370957815187529582019590820190600101613728565b600081518084526020808501808196508360051b8101915082860160005b8581101561378c57828403895261377a848351612e22565b98850198935090840190600101613762565b5091979650505050505050565b8a81526001600160a01b038a166020820152610140604082018190526000906137c48382018c6136d0565b905082810360608401526137d8818b613714565b905082810360808401526137ec818a613744565b905082810360a08401526138008189613744565b6001600160401b0388811660c0860152871660e0850152838103610100850152905061382c8186612e22565b90508281036101208401526138418185612e22565b9d9c50505050505050505050505050565b634e487b7160e01b600052603260045260246000fd5b60006020828403121561387a57600080fd5b8151801515811461137257600080fd5b60006001820161389c5761389c613666565b5060010190565b6080815260006138b660808301876136d0565b82810360208401526138c88187613714565b905082810360408401526138dc8186613744565b91505082606083015295945050505050565b84815260ff841660208201528260408201526080606082015260006113586080830184612e22565b85815260ff8516602082015283604082015260a06060820152600061393e60a0830185612e22565b82810360808401526139508185612e22565b98975050505050505050565b6000825161396e818460208701612dfe565b9190910192915050565b808201808211156108da576108da613666565b60006020828403121561399d57600080fd5b5051919050565b6020808252602b908201527f496e697469616c697a61626c653a20636f6e7472616374206973206e6f74206960408201526a6e697469616c697a696e6760a81b606082015260800190565b80820281158282048414176108da576108da613666565b600082613a2357634e487b7160e01b600052601260045260246000fd5b500490565b601f8211156114ce57600081815260208120601f850160051c81016020861015613a4f5750805b601f850160051c820191505b81811015611ced57828155600101613a5b565b81516001600160401b03811115613a8757613a87612c8a565b613a9b81613a95845461362c565b84613a28565b602080601f831160018114613ad05760008415613ab85750858301515b600019600386901b1c1916600185901b178555611ced565b600085815260208120601f198616915b82811015613aff57888601518255948401946001909101908401613ae0565b5085821015613b1d5787850151600019600388901b60f8161c191681555b5050505050600190811b0190555056fe476f7665726e6f723a2072656c617920726576657274656420776974686f7574206d657373616765476f7665726e6f723a2063616c6c20726576657274656420776974686f7574206d657373616765a2646970667358221220064631f498b1dc5a473e90abefbe3ea5b25ff8adc995a919f18b460dc8b4374464736f6c63430008110033",
  "linkReferences": {},
  "deployedLinkReferences": {}
}