{
  "_format": "hh-sol-artifact-1",
  "contractName": "CouncilToken",
  "sourceName": "contracts/CouncilToken.sol",
  "abi": [
    {
      "inputs": [],
      "stateMutability": "nonpayable",
      "type": "constructor"
    },
    {
      "anonymous": false,
      "inputs": [
        {
          "indexed": true,
          "internalType": "address",
          "name": "owner",
          "type": "address"
        },
        {
          "indexed": true,
          "internalType": "address",
          "name": "spender",
          "type": "address"
        },
        {
          "indexed": false,
          "internalType": "uint256",
          "name": "value",
          "type": "uint256"
        }
      ],
      "name": "Approval",
      "type": "event"
    },
    {
      "anonymous": false,
      "inputs": [
        {
          "indexed": true,
          "internalType": "address",
          "name": "delegator",
          "type": "address"
        },
        {
          "indexed": true,
          "internalType": "address",
          "name": "fromDelegate",
          "type": "address"
        },
        {
          "indexed": true,
          "internalType": "address",
          "name": "toDelegate",
          "type": "address"
        }
      ],
      "name": "DelegateChanged",
      "type": "event"
    },
    {
      "anonymous": false,
      "inputs": [
        {
          "indexed": true,
          "internalType": "address",
          "name": "delegate",
          "type": "address"
        },
        {
          "indexed": false,
          "internalType": "uint256",
          "name": "previousBalance",
          "type": "uint256"
        },
        {
          "indexed": false,
          "internalType": "uint256",
          "name": "newBalance",
          "type": "uint256"
        }
      ],
      "name": "DelegateVotesChanged",
      "type": "event"
    },
    {
      "anonymous": false,
      "inputs": [
        {
          "indexed": true,
          "internalType": "address",
          "name": "from",
          "type": "address"
        },
        {
          "indexed": true,
          "internalType": "address",
          "name": "to",
          "type": "address"
        },
        {
          "indexed": false,
          "internalType": "uint256",
          "name": "value",
          "type": "uint256"
        }
      ],
      "name": "Transfer",
      "type": "event"
    },
    {
      "inputs": [],
      "name": "DOMAIN_SEPARATOR",
      "outputs": [
        {
          "internalType": "bytes32",
          "name": "",
          "type": "bytes32"
        }
      ],
      "stateMutability": "view",
      "type": "function"
    },
    {
      "inputs": [
        {
          "internalType": "address",
          "name": "owner",
          "type": "address"
        },
        {
          "internalType": "address",
          "name": "spender",
          "type": "address"
        }
      ],
      "name": "allowance",
      "outputs": [
        {
          "internalType": "uint256",
          "name": "",
          "type": "uint256"
        }
      ],
      "stateMutability": "view",
      "type": "function"
    },
    {
      "inputs": [
        {
          "internalType": "address",
          "name": "spender",
          "type": "address"
        },
        {
          "internalType": "uint256",
          "name": "amount",
          "type": "uint256"
        }
      ],
      "name": "approve",
      "outputs": [
        {
          "internalType": "bool",
          "name": "",
          "type": "bool"
        }
      ],
      "stateMutability": "nonpayable",
      "type": "function"
    },
    {
      "inputs": [
        {
          "internalType": "address",
          "name": "account",
          "type": "address"
        }
      ],
      "name": "balanceOf",
      "outputs": [
        {
          "internalType": "uint256",
          "name": "",
          "type": "uint256"
        }
      ],
      "stateMutability": "view",
      "type": "function"
    },
    {
      "inputs": [
        {
          "internalType": "address",
          "name": "account",
          "type": "address"
        },
        {
          "internalType": "uint32",
          "name": "pos",
          "type": "uint32"
        }
      ],
      "name": "checkpoints",
      "outputs": [
        {
          "components": [
            {
              "internalType": "uint32",
              "name": "fromBlock",
              "type": "uint32"
            },
            {
              "internalType": "uint224",
              "name": "votes",
              "type": "uint224"
            }
          ],
          "internalType": "struct ERC20Votes.Checkpoint",
          "name": "",
          "type": "tuple"
        }
      ],
      "stateMutability": "view",
      "type": "function"
    },
    {
      "inputs": [],
      "name": "decimals",
      "outputs": [
        {
          "internalType": "uint8",
          "name": "",
          "type": "uint8"
        }
      ],
      "stateMutability": "view",
      "type": "function"
    },
    {
      "inputs": [
        {
          "internalType": "address",
          "name": "spender",
          "type": "address"
        },
        {
          "internalType": "uint256",
          "name": "subtractedValue",
          "type": "uint256"
        }
      ],
      "name": "decreaseAllowance",
      "outputs": [
        {
          "internalType": "bool",
          "name": "",
          "type": "bool"
        }
      ],
      "stateMutability": "nonpayable",
      "type": "function"
    },
    {
      "inputs": [
        {
          "internalType": "address",
          "name": "delegatee",
          "type": "address"
        }
      ],
      "name": "delegate",
      "outputs": [],
      "stateMutability": "nonpayable",
      "type": "function"
    },
    {
      "inputs": [
        {
          "internalType": "address",
          "name": "delegatee",
          "type": "address"
        },
        {
          "internalType": "uint256",
          "name": "nonce",
          "type": "uint256"
        },
        {
          "internalType": "uint256",
          "name": "expiry",
          "type": "uint256"
        },
        {
          "internalType": "uint8",
          "name": "v",
          "type": "uint8"
        },
        {
          "internalType": "bytes32",
          "name": "r",
          "type": "bytes32"
        },
        {
          "internalType": "bytes32",
          "name": "s",
          "type": "bytes32"
        }
      ],
      "name": "delegateBySig",
      "outputs": [],
      "stateMutability": "nonpayable",
      "type": "function"
    },
    {
      "inputs": [
        {
          "internalType": "address",
          "name": "account",
          "type": "address"
        }
      ],
      "name": "delegates",
      "outputs": [
        {
          "internalType": "address",
          "name": "",
          "type": "address"
        }
      ],
      "stateMutability": "view",
      "type": "function"
    },
    {
      "inputs": [
        {
          "internalType": "uint256",
          "name": "blockNumber",
          "type": "uint256"
        }
      ],
      "name": "getPastTotalSupply",
      "outputs": [
        {
          "internalType": "uint256",
          "name": "",
          "type": "uint256"
        }
      ],
      "stateMutability": "view",
      "type": "function"
    },
    {
      "inputs": [
        {
          "internalType": "address",
          "name": "account",
          "type": "address"
        },
        {
          "internalType": "uint256",
          "name": "blockNumber",
          "type": "uint256"
        }
      ],
      "name": "getPastVotes",
      "outputs": [
        {
          "internalType": "uint256",
          "name": "",
          "type": "uint256"
        }
      ],
      "stateMutability": "view",
      "type": "function"
    },
    {
      "inputs": [
        {
          "internalType": "address",
          "name": "account",
          "type": "address"
        }
      ],
      "name": "getVotes",
      "outputs": [
        {
          "internalType": "uint256",
          "name": "",
          "type": "uint256"
        }
      ],
      "stateMutability": "view",
      "type": "function"
    },
    {
      "inputs": [
        {
          "internalType": "address",
          "name": "spender",
          "type": "address"
        },
        {
          "internalType": "uint256",
          "name": "addedValue",
          "type": "uint256"
        }
      ],
      "name": "increaseAllowance",
      "outputs": [
        {
          "internalType": "bool",
          "name": "",
          "type": "bool"
        }
      ],
      "stateMutability": "nonpayable",
      "type": "function"
    },
    {
      "inputs": [
        {
          "internalType": "contract Council",
          "name": "councilContract",
          "type": "address"
        }
      ],
      "name": "initialize",
      "outputs": [],
      "stateMutability": "nonpayable",
      "type": "function"
    },
    {
      "inputs": [],
      "name": "name",
      "outputs": [
        {
          "internalType": "string",
          "name": "",
          "type": "string"
        }
      ],
      "stateMutability": "view",
      "type": "function"
    },
    {
      "inputs": [
        {
          "internalType": "address",
          "name": "owner",
          "type": "address"
        }
      ],
      "name": "nonces",
      "outputs": [
        {
          "internalType": "uint256",
          "name": "",
          "type": "uint256"
        }
      ],
      "stateMutability": "view",
      "type": "function"
    },
    {
      "inputs": [
        {
          "internalType": "address",
          "name": "account",
          "type": "address"
        }
      ],
      "name": "numCheckpoints",
      "outputs": [
        {
          "internalType": "uint32",
          "name": "",
          "type": "uint32"
        }
      ],
      "stateMutability": "view",
      "type": "function"
    },
    {
      "inputs": [
        {
          "internalType": "address",
          "name": "owner",
          "type": "address"
        },
        {
          "internalType": "address",
          "name": "spender",
          "type": "address"
        },
        {
          "internalType": "uint256",
          "name": "value",
          "type": "uint256"
        },
        {
          "internalType": "uint256",
          "name": "deadline",
          "type": "uint256"
        },
        {
          "internalType": "uint8",
          "name": "v",
          "type": "uint8"
        },
        {
          "internalType": "bytes32",
          "name": "r",
          "type": "bytes32"
        },
        {
          "internalType": "bytes32",
          "name": "s",
          "type": "bytes32"
        }
      ],
      "name": "permit",
      "outputs": [],
      "stateMutability": "nonpayable",
      "type": "function"
    },
    {
      "inputs": [],
      "name": "symbol",
      "outputs": [
        {
          "internalType": "string",
          "name": "",
          "type": "string"
        }
      ],
      "stateMutability": "view",
      "type": "function"
    },
    {
      "inputs": [],
      "name": "totalSupply",
      "outputs": [
        {
          "internalType": "uint256",
          "name": "",
          "type": "uint256"
        }
      ],
      "stateMutability": "view",
      "type": "function"
    },
    {
      "inputs": [
        {
          "internalType": "address",
          "name": "to",
          "type": "address"
        },
        {
          "internalType": "uint256",
          "name": "amount",
          "type": "uint256"
        }
      ],
      "name": "transfer",
      "outputs": [
        {
          "internalType": "bool",
          "name": "",
          "type": "bool"
        }
      ],
      "stateMutability": "nonpayable",
      "type": "function"
    },
    {
      "inputs": [
        {
          "internalType": "address",
          "name": "from",
          "type": "address"
        },
        {
          "internalType": "address",
          "name": "to",
          "type": "address"
        },
        {
          "internalType": "uint256",
          "name": "amount",
          "type": "uint256"
        }
      ],
      "name": "transferFrom",
      "outputs": [
        {
          "internalType": "bool",
          "name": "",
          "type": "bool"
        }
      ],
      "stateMutability": "nonpayable",
      "type": "function"
    }
  ],
  "bytecode": "0x610140604052600a805460ff191690553480156200001c57600080fd5b506040518060400160405280600c81526020016b21b7bab731b4b62a37b5b2b760a11b81525080604051806040016040528060018152602001603160f81b8152506040518060400160405280600c81526020016b21b7bab731b4b62a37b5b2b760a11b8152506040518060400160405280600381526020016243544b60e81b8152508160039081620000af9190620001ff565b506004620000be8282620001ff565b5050825160208085019190912083518483012060e08290526101008190524660a0818152604080517f8b73c3c69bb8fe3d512ecc4cf759cc79239f7b179b0ffacaa9a75d522b39400f81880181905281830187905260608201869052608082019490945230818401528151808203909301835260c0019052805194019390932091935091906080523060c0526101205250620002cb9350505050565b634e487b7160e01b600052604160045260246000fd5b600181811c908216806200018557607f821691505b602082108103620001a657634e487b7160e01b600052602260045260246000fd5b50919050565b601f821115620001fa57600081815260208120601f850160051c81016020861015620001d55750805b601f850160051c820191505b81811015620001f657828155600101620001e1565b5050505b505050565b81516001600160401b038111156200021b576200021b6200015a565b62000233816200022c845462000170565b84620001ac565b602080601f8311600181146200026b5760008415620002525750858301515b600019600386901b1c1916600185901b178555620001f6565b600085815260208120601f198616915b828110156200029c578886015182559484019460019091019084016200027b565b5085821015620002bb5787850151600019600388901b60f8161c191681555b5050505050600190811b01905550565b60805160a05160c05160e0516101005161012051611cfc6200031b6000396000610e1c01526000610e6b01526000610e4601526000610d9f01526000610dc901526000610df30152611cfc6000f3fe608060405234801561001057600080fd5b506004361061014d5760003560e01c806370a08231116100c3578063a9059cbb1161007c578063a9059cbb146102f3578063c3cda52014610306578063c4d66de814610319578063d505accf1461032c578063dd62ed3e1461033f578063f1127ed81461035257600080fd5b806370a08231146102765780637ecebe001461029f5780638e539e8c146102b257806395d89b41146102c55780639ab24eb0146102cd578063a457c2d7146102e057600080fd5b80633644e515116101155780633644e515146101c757806339509351146101cf5780633a46b1a8146101e2578063587cde1e146101f55780635c19a95c146102395780636fcfff451461024e57600080fd5b806306fdde0314610152578063095ea7b31461017057806318160ddd1461019357806323b872dd146101a5578063313ce567146101b8575b600080fd5b61015a61038f565b604051610167919061199e565b60405180910390f35b61018361017e366004611a01565b610421565b6040519015158152602001610167565b6002545b604051908152602001610167565b6101836101b3366004611a2d565b61043b565b60405160008152602001610167565b61019761045f565b6101836101dd366004611a01565b61046e565b6101976101f0366004611a01565b610490565b610221610203366004611a6e565b6001600160a01b039081166000908152600760205260409020541690565b6040516001600160a01b039091168152602001610167565b61024c610247366004611a6e565b61050f565b005b61026161025c366004611a6e565b61051c565b60405163ffffffff9091168152602001610167565b610197610284366004611a6e565b6001600160a01b031660009081526020819052604090205490565b6101976102ad366004611a6e565b61053e565b6101976102c0366004611a8b565b61055c565b61015a6105b8565b6101976102db366004611a6e565b6105c7565b6101836102ee366004611a01565b61064e565b610183610301366004611a01565b6106c9565b61024c610314366004611aba565b6106d7565b61024c610327366004611a6e565b61080d565b61024c61033a366004611b14565b610837565b61019761034d366004611b82565b61099b565b610365610360366004611bbb565b6109c6565b60408051825163ffffffff1681526020928301516001600160e01b03169281019290925201610167565b60606003805461039e90611bf2565b80601f01602080910402602001604051908101604052809291908181526020018280546103ca90611bf2565b80156104175780601f106103ec57610100808354040283529160200191610417565b820191906000526020600020905b8154815290600101906020018083116103fa57829003601f168201915b5050505050905090565b60003361042f818585610a4a565b60019150505b92915050565b600033610449858285610b6e565b610454858585610be8565b506001949350505050565b6000610469610d92565b905090565b60003361042f818585610481838361099b565b61048b9190611c3c565b610a4a565b60004382106104e65760405162461bcd60e51b815260206004820152601f60248201527f4552433230566f7465733a20626c6f636b206e6f7420796574206d696e65640060448201526064015b60405180910390fd5b6001600160a01b03831660009081526008602052604090206105089083610eb9565b9392505050565b6105193382610fb0565b50565b6001600160a01b03811660009081526008602052604081205461043590611029565b6001600160a01b038116600090815260056020526040812054610435565b60004382106105ad5760405162461bcd60e51b815260206004820152601f60248201527f4552433230566f7465733a20626c6f636b206e6f7420796574206d696e65640060448201526064016104dd565b610435600983610eb9565b60606004805461039e90611bf2565b6001600160a01b038116600090815260086020526040812054801561063b576001600160a01b0383166000908152600860205260409020610609600183611c4f565b8154811061061957610619611c62565b60009182526020909120015464010000000090046001600160e01b031661063e565b60005b6001600160e01b03169392505050565b6000338161065c828661099b565b9050838110156106bc5760405162461bcd60e51b815260206004820152602560248201527f45524332303a2064656372656173656420616c6c6f77616e63652062656c6f77604482015264207a65726f60d81b60648201526084016104dd565b6104548286868403610a4a565b60003361042f818585610be8565b834211156107275760405162461bcd60e51b815260206004820152601d60248201527f4552433230566f7465733a207369676e6174757265206578706972656400000060448201526064016104dd565b604080517fe48329057bfd03d55e49b547132e39cffd9c1820ad7b9d4c5307691425d15adf60208201526001600160a01b0388169181019190915260608101869052608081018590526000906107a1906107999060a00160405160208183030381529060405280519060200120611092565b8585856110e0565b90506107ac81611108565b86146107fa5760405162461bcd60e51b815260206004820152601960248201527f4552433230566f7465733a20696e76616c6964206e6f6e63650000000000000060448201526064016104dd565b6108048188610fb0565b50505050505050565b600a5460ff161561081d57600080fd5b600a805460ff1916600117905561051981620f4240611130565b834211156108875760405162461bcd60e51b815260206004820152601d60248201527f45524332305065726d69743a206578706972656420646561646c696e6500000060448201526064016104dd565b60007f6e71edae12b1b97f4d1f60370fef10105fa2faae0126114a169c64845d6126c98888886108b68c611108565b6040805160208101969096526001600160a01b0394851690860152929091166060840152608083015260a082015260c0810186905260e001604051602081830303815290604052805190602001209050600061091182611092565b90506000610921828787876110e0565b9050896001600160a01b0316816001600160a01b0316146109845760405162461bcd60e51b815260206004820152601e60248201527f45524332305065726d69743a20696e76616c6964207369676e6174757265000060448201526064016104dd565b61098f8a8a8a610a4a565b50505050505050505050565b6001600160a01b03918216600090815260016020908152604080832093909416825291909152205490565b60408051808201909152600080825260208201526001600160a01b0383166000908152600860205260409020805463ffffffff8416908110610a0a57610a0a611c62565b60009182526020918290206040805180820190915291015463ffffffff8116825264010000000090046001600160e01b0316918101919091529392505050565b6001600160a01b038316610aac5760405162461bcd60e51b8152602060048201526024808201527f45524332303a20617070726f76652066726f6d20746865207a65726f206164646044820152637265737360e01b60648201526084016104dd565b6001600160a01b038216610b0d5760405162461bcd60e51b815260206004820152602260248201527f45524332303a20617070726f766520746f20746865207a65726f206164647265604482015261737360f01b60648201526084016104dd565b6001600160a01b0383811660008181526001602090815260408083209487168084529482529182902085905590518481527f8c5be1e5ebec7d5bd14f71427d1e84f3dd0314c0f7b2291e5b200ac8c7c3b925910160405180910390a3505050565b6000610b7a848461099b565b90506000198114610be25781811015610bd55760405162461bcd60e51b815260206004820152601d60248201527f45524332303a20696e73756666696369656e7420616c6c6f77616e636500000060448201526064016104dd565b610be28484848403610a4a565b50505050565b6001600160a01b038316610c4c5760405162461bcd60e51b815260206004820152602560248201527f45524332303a207472616e736665722066726f6d20746865207a65726f206164604482015264647265737360d81b60648201526084016104dd565b6001600160a01b038216610cae5760405162461bcd60e51b815260206004820152602360248201527f45524332303a207472616e7366657220746f20746865207a65726f206164647260448201526265737360e81b60648201526084016104dd565b6001600160a01b03831660009081526020819052604090205481811015610d265760405162461bcd60e51b815260206004820152602660248201527f45524332303a207472616e7366657220616d6f756e7420657863656564732062604482015265616c616e636560d01b60648201526084016104dd565b6001600160a01b03848116600081815260208181526040808320878703905593871680835291849020805487019055925185815290927fddf252ad1be2c89b69c2b068fc378daa952ba7f163c4a11628f55a4df523b3ef910160405180910390a3610be2848484611143565b6000306001600160a01b037f000000000000000000000000000000000000000000000000000000000000000016148015610deb57507f000000000000000000000000000000000000000000000000000000000000000046145b15610e1557507f000000000000000000000000000000000000000000000000000000000000000090565b50604080517f00000000000000000000000000000000000000000000000000000000000000006020808301919091527f0000000000000000000000000000000000000000000000000000000000000000828401527f000000000000000000000000000000000000000000000000000000000000000060608301524660808301523060a0808401919091528351808403909101815260c0909201909252805191012090565b815460009081816005811115610f13576000610ed48461114e565b610ede9085611c4f565b600088815260209020909150869082015463ffffffff161115610f0357809150610f11565b610f0e816001611c3c565b92505b505b80821015610f60576000610f278383611236565b600088815260209020909150869082015463ffffffff161115610f4c57809150610f5a565b610f57816001611c3c565b92505b50610f13565b8015610f9a57610f8386610f75600184611c4f565b600091825260209091200190565b5464010000000090046001600160e01b0316610f9d565b60005b6001600160e01b03169695505050505050565b6001600160a01b038281166000818152600760208181526040808420805485845282862054949093528787166001600160a01b03198416811790915590519190951694919391928592917f3134e8a2e6d97e929a7e54011ea5485d7d196dd5f0ba4d4ef95803e8e3fc257f9190a4610be2828483611251565b600063ffffffff82111561108e5760405162461bcd60e51b815260206004820152602660248201527f53616665436173743a2076616c756520646f65736e27742066697420696e203360448201526532206269747360d01b60648201526084016104dd565b5090565b600061043561109f610d92565b8360405161190160f01b6020820152602281018390526042810182905260009060620160405160208183030381529060405280519060200120905092915050565b60008060006110f18787878761138e565b915091506110fe81611452565b5095945050505050565b6001600160a01b03811660009081526005602052604090208054600181018255905b50919050565b61113a828261159c565b5050565b505050565b61113e838383611626565b60008160000361116057506000919050565b6000600161116d84611658565b901c6001901b9050600181848161118657611186611c78565b048201901c9050600181848161119e5761119e611c78565b048201901c905060018184816111b6576111b6611c78565b048201901c905060018184816111ce576111ce611c78565b048201901c905060018184816111e6576111e6611c78565b048201901c905060018184816111fe576111fe611c78565b048201901c9050600181848161121657611216611c78565b048201901c90506105088182858161123057611230611c78565b046116ec565b60006112456002848418611c8e565b61050890848416611c3c565b816001600160a01b0316836001600160a01b0316141580156112735750600081115b1561113e576001600160a01b03831615611301576001600160a01b038316600090815260086020526040812081906112ae906117028561170e565b91509150846001600160a01b03167fdec2bacdd2f05b59de34da9b523dff8be42e5e38e818c82fdb0bae774387a72483836040516112f6929190918252602082015260400190565b60405180910390a250505b6001600160a01b0382161561113e576001600160a01b03821660009081526008602052604081208190611337906118628561170e565b91509150836001600160a01b03167fdec2bacdd2f05b59de34da9b523dff8be42e5e38e818c82fdb0bae774387a724838360405161137f929190918252602082015260400190565b60405180910390a25050505050565b6000807f7fffffffffffffffffffffffffffffff5d576e7357a4501ddfe92f46681b20a08311156113c55750600090506003611449565b6040805160008082526020820180845289905260ff881692820192909252606081018690526080810185905260019060a0016020604051602081039080840390855afa158015611419573d6000803e3d6000fd5b5050604051601f1901519150506001600160a01b03811661144257600060019250925050611449565b9150600090505b94509492505050565b600081600481111561146657611466611cb0565b0361146e5750565b600181600481111561148257611482611cb0565b036114cf5760405162461bcd60e51b815260206004820152601860248201527f45434453413a20696e76616c6964207369676e6174757265000000000000000060448201526064016104dd565b60028160048111156114e3576114e3611cb0565b036115305760405162461bcd60e51b815260206004820152601f60248201527f45434453413a20696e76616c6964207369676e6174757265206c656e6774680060448201526064016104dd565b600381600481111561154457611544611cb0565b036105195760405162461bcd60e51b815260206004820152602260248201527f45434453413a20696e76616c6964207369676e6174757265202773272076616c604482015261756560f01b60648201526084016104dd565b6115a6828261186e565b6002546001600160e01b0310156116185760405162461bcd60e51b815260206004820152603060248201527f4552433230566f7465733a20746f74616c20737570706c79207269736b73206f60448201526f766572666c6f77696e6720766f74657360801b60648201526084016104dd565b610be260096118628361170e565b6001600160a01b0383811660009081526007602052604080822054858416835291205461113e92918216911683611251565b600080608083901c1561166d57608092831c92015b604083901c1561167f57604092831c92015b602083901c1561169157602092831c92015b601083901c156116a357601092831c92015b600883901c156116b557600892831c92015b600483901c156116c757600492831c92015b600283901c156116d957600292831c92015b600183901c156104355760010192915050565b60008183106116fb5781610508565b5090919050565b60006105088284611c4f565b8254600090819081811561175b5761172b87610f75600185611c4f565b60408051808201909152905463ffffffff8116825264010000000090046001600160e01b03166020820152611770565b60408051808201909152600080825260208201525b905080602001516001600160e01b0316935061179084868863ffffffff16565b92506000821180156117a85750805163ffffffff1643145b156117ed576117b683611935565b6117c588610f75600186611c4f565b80546001600160e01b03929092166401000000000263ffffffff909216919091179055611858565b86604051806040016040528061180243611029565b63ffffffff16815260200161181686611935565b6001600160e01b0390811690915282546001810184556000938452602093849020835194909301519091166401000000000263ffffffff909316929092179101555b5050935093915050565b60006105088284611c3c565b6001600160a01b0382166118c45760405162461bcd60e51b815260206004820152601f60248201527f45524332303a206d696e7420746f20746865207a65726f20616464726573730060448201526064016104dd565b80600260008282546118d69190611c3c565b90915550506001600160a01b038216600081815260208181526040808320805486019055518481527fddf252ad1be2c89b69c2b068fc378daa952ba7f163c4a11628f55a4df523b3ef910160405180910390a361113a60008383611143565b60006001600160e01b0382111561108e5760405162461bcd60e51b815260206004820152602760248201527f53616665436173743a2076616c756520646f65736e27742066697420696e20326044820152663234206269747360c81b60648201526084016104dd565b600060208083528351808285015260005b818110156119cb578581018301518582016040015282016119af565b506000604082860101526040601f19601f8301168501019250505092915050565b6001600160a01b038116811461051957600080fd5b60008060408385031215611a1457600080fd5b8235611a1f816119ec565b946020939093013593505050565b600080600060608486031215611a4257600080fd5b8335611a4d816119ec565b92506020840135611a5d816119ec565b929592945050506040919091013590565b600060208284031215611a8057600080fd5b8135610508816119ec565b600060208284031215611a9d57600080fd5b5035919050565b803560ff81168114611ab557600080fd5b919050565b60008060008060008060c08789031215611ad357600080fd5b8635611ade816119ec565b95506020870135945060408701359350611afa60608801611aa4565b92506080870135915060a087013590509295509295509295565b600080600080600080600060e0888a031215611b2f57600080fd5b8735611b3a816119ec565b96506020880135611b4a816119ec565b95506040880135945060608801359350611b6660808901611aa4565b925060a0880135915060c0880135905092959891949750929550565b60008060408385031215611b9557600080fd5b8235611ba0816119ec565b91506020830135611bb0816119ec565b809150509250929050565b60008060408385031215611bce57600080fd5b8235611bd9816119ec565b9150602083013563ffffffff81168114611bb057600080fd5b600181811c90821680611c0657607f821691505b60208210810361112a57634e487b7160e01b600052602260045260246000fd5b634e487b7160e01b600052601160045260246000fd5b8082018082111561043557610435611c26565b8181038181111561043557610435611c26565b634e487b7160e01b600052603260045260246000fd5b634e487b7160e01b600052601260045260246000fd5b600082611cab57634e487b7160e01b600052601260045260246000fd5b500490565b634e487b7160e01b600052602160045260246000fdfea2646970667358221220415b9ea6f8972f44d789d7f56ce9dda0e5757a11ea28135328d27d4534ac49d064736f6c63430008110033",
  "linkReferences": {},
  "deployedLinkReferences": {}
}